:020000040800F2
:10000000A04F00209D01000811370008312800088A
:1000100099360008F10800086D480008000000004B
:1000200000000000000000000000000005010008C2
:100030002B090008000000004901000841400008A9
:10004000B7010008B7010008B7010008B7010008B0
:10005000B7010008B7010008B7010008B7010008A0
:10006000B7010008B7010008B7010008B701000890
:10007000B7010008B7010008B7010008B701000880
:10008000B7010008B7010008B7010008B701000870
:10009000B7010008B7010008B7010008B701000860
:1000A000B7010008B7010008B7010008B701000850
:1000B000B7010008B7010008ED400008B7010008CB
:1000C000B7010008B7010008B7010008B701000830
:1000D000B7010008B7010008B7010008B701000820
:1000E00069090008B7010008B7010008DFF810D05F
:1000F00000F054FB004800470D5B0008AFF30080A0
:10010000A04F0020224B19680868B0E8F00F80F378
:100110000988BFF36F8F4FF0000080F311884EF015
:100120000D0E70470000000006480068006880F36C
:10013000088862B661B6BFF34F8FBFF36F8F00DFE1
:1001400000BF00BF08ED00E0EFF30980BFF36F8F41
:100150000F4B1A6820E9F00F106008B54FF05000FF
:1001600080F31188BFF34F8FBFF36F8F08F07EF9D4
:100170004FF0000080F31188BDE808401968086856
:10018000B0E8F00F80F30988BFF36F8F704700BFAE
:1001900018000020EFF305807047000006488047F4
:1001A00006480047FEE7FEE7FEE7FEE7FEE7FEE75C
:1001B000FEE7FEE7FEE7FEE7E9400008ED00000885
:1001C0002DE9F05F0546002092469B46884606468C
:1001D000814640241BE0284641464746224600F01F
:1001E00020F853465A46C01A914110D3114618467A
:1001F000224600F02FFA2D1A67EB01084F462246DF
:100200000120002100F026FA17EB00094E41201EC4
:10021000A4F10104DFDC484631462A464346BDE8E6
:10022000F09F202A04DB203A21FA02F000217047D7
:1002300021FA02F3D040C2F120029140084319464E
:10024000704700000649074A0868504343F23902E4
:10025000104408604008704701490860704700007A
:10026000F80300206D4EC64140EA01039B0703D00E
:1002700009E008C9121F08C0042AFAD203E011F8E5
:10028000013B00F8013B521EF9D27047D2B201E0A7
:1002900000F8012B491EFBD270470022F6E710B58B
:1002A00013460A4604461946FFF7F0FF204610BDE4
:1002B000421C10F8011B0029FBD1801A704703462D
:1002C00011F8012B00F8012B002AF9D118467047CC
:1002D000F0B480EA0102D40F4200B2EB410F02D227
:1002E0000246084611464A0042D0C30DDDB2C1F3B2
:1002F000C752AD1A202D35DAC1F3160141F40002C0
:1003000004B15242C5F1200602FA06F12A41104416
:10031000B3EBD05F23D0C4B1012DA0EBC35009DCF7
:10032000F0BC4FF0004202EAC352DBB200F500001D
:1003300000F0A8B9400000F1807000EBC350A0F1BC
:10034000807040EAD170490009E0490841EAC07173
:10035000A0EBC35000F50000400800EBC350F0BC18
:1003600000F087B96142012202EB4101001BF6E770
:10037000F0BC704781F00041AAE780F00040A7E799
:10038000420005D0C0F3C7525242914201DC002026
:10039000704700EBC15070472DE9FE4F81EA03041E
:1003A00004F0004421F0004100944FF0000B23F0D2
:1003B000004350EA01045ED052EA03045BD0C3F369
:1003C0000A54C1F30A552C44A4F2F3340194A0FB5F
:1003D0000254C1F3130141F48011C3F3130343F436
:1003E000801301FB024400FB034E840A970A44EA8F
:1003F000815447EA8357A4FB076802958D0A05FBE1
:1004000007854FEA932C04FB0C542705029D4FEA05
:10041000065847EA1637B5EB08056EEB070C870E52
:10042000920E47EA811742EA8312A7FB0201B6EB5C
:100430000B0164EB00042B0D43EA0C335E1844EB14
:100440001C50DA465146E7FB0201C5F313044FEA9C
:100450000B3343EA14534FEA0432019C43EA060388
:10046000A4F10C040294009CCDE900B400F047F91B
:1004700003B0BDE8F08F00200146F9E72DE9F04D0B
:1004800081EA030404F0004B21F0004514464FF0CC
:10049000000A23F0004150EA050220D054EA01028C
:1004A0001DD0C5F30A570246C5F31303C1F3130069
:1004B000C1F30A5640F4801543F48013A7EB0608F5
:1004C000101BD64608F2FD3873EB050002D308F185
:1004D000010801E092185B41B8F1000F03DA002037
:1004E0000146BDE8F08D00204FF480110646844699
:1004F0000EE0171B73EB050705D3121B63EB050317
:1005000006434CEA010C49084FEA300092185B415F
:1005100050EA0107EDD152EA030012D082EA04004A
:1005200083EA0501084305D0101BAB4106D2012226
:10053000002306E000224FF0004302E06FF00102CA
:1005400053101AEB06004CEB085110EB0A0041EB7C
:100550000B01BDE8F04D00F0C3B8C10F80EAE070B8
:100560000844CA079623002100F08CB89623002285
:10057000114600F087B80EB5C10F80EAE07008445C
:10058000CA07002140F233438DE80E000A460B46AD
:1005900000F0B5F803B000BD20F00040C10DC0F37D
:1005A000160040F400007F2901DA002070479629E8
:1005B00003DCC1F19601C840704796398840704706
:1005C00070B5C1F30A5201F000450024C1F31301D4
:1005D00040F2FF3341F480119A4201DA002070BDED
:1005E00040F233439A42A2F2334203DC5242FFF715
:1005F00018FE00E090402C43F1D0404270BD000056
:10060000002801DBC0F10040002901DBC1F10041FD
:1006100081427047002801DBC0F10040002901DB66
:10062000C1F100418842704730B50B4601460020B9
:100630002022012409E021FA02F59D4205D303FAA4
:1006400002F5491B04FA02F52844151EA2F1010225
:10065000F1DC30BD202A04DB203A00FA02F1002050
:1006600070479140C2F1200320FA03F319439040F0
:1006700070470029A8BF7047401C490008BF20F000
:100680000100704710B4B0FA80FC00FA0CF050EA98
:10069000010404BF10BC704749B1CCF1200421FA19
:1006A00004F411FA0CF118BF012121430843A3EB14
:1006B0000C01CB1D4FEA00614FEA102042BF002021
:1006C00010BC704700EBC35010440029A4BF10BCFD
:1006D0007047401C490008BF20F0010010BC704763
:1006E00010B5141E73F1000408DA401C41F100013A
:1006F00092185B411A4301D120F0010010BD2DE991
:10070000F04D92469B4611B1B1FA81F202E0B0FA87
:1007100080F220329046FFF79DFF04460F4640EAE4
:100720000A0041EA0B0153465A46084313D01146CA
:1007300053EA010019D0C8F140025046FFF771FD9D
:1007400005460E46504659464246FFF783FF08438A
:1007500005D0012004E020463946BDE8F08D002098
:10076000054346EAE0762C4337430A986305E40ADA
:10077000A0EB08000022FD0A44EA47540A3002D5E3
:1007800000200146E9E7010510196941DDE9084546
:1007900000196941BDE8F04DA2E70000064C074D85
:1007A00006E0E06840F0010394E807009847103441
:1007B000AC42F6D3FFF79EFC20FC000840FC00088A
:1007C00070B58C1810F8015B15F0070301D110F813
:1007D000013B2A1106D110F8012B03E010F8016B40
:1007E00001F8016B5B1EF9D12B0705D40023521EC3
:1007F0000DD401F8013BFAE710F8013BCB1A921C2B
:1008000003E013F8015B01F8015B521EF9D5A14228
:10081000D8D3002070BD000070B504460068816820
:10082000C943C90717D1816821F00101816000F037
:100830009FFC05460AE000BF00F09AFC401B02281E
:1008400004D920688068C043C00706D0206880684B
:10085000C043C007F0D0002070BDA06A40F0100077
:10086000A062E06A40F00100E062012070BD00007B
:1008700070B5044648781A4DE02809D0902809D070
:10088000022809D0982809D050B1C2280BD023E003
:10089000032006E0012004E0002002E0022000E046
:1008A000A878207018E0686807F0C2FB00F022F812
:1008B0000C4805F0A7FF0C480023022219460068E7
:1008C00008F026FA094800231A461946006807F07E
:1008D0000FFF002007F020FC2078A87070BD0000FA
:1008E000DC03002008440020000000203C0300201E
:1008F000FEE700000549044B0022886843F82020E9
:10090000401E886070470000C0430020A8000020FF
:100910001CB582681921CDE90012018AC3688AB228
:10092000D0E9001008F09CF91CBD70478068006891
:1009300007F0F2BB2DE9F04107460024084E094DAF
:1009400008E000BF002356F824001A46394607F095
:1009500085FF641CA8688442F4DBBDE8F0810000D8
:10096000C0430020A800002010B54FF4806000F0C4
:10097000F9FA4FF4006000F0F5FABDE810404FF4CA
:10098000805000F0EFBA72B6FEE7000070B5044682
:1009900090F8020294F8031294F8042232B1012A6A
:1009A00006D0022A06D0032A09D106E0491E02E039
:1009B000401C03E0491CC9B201E0401EC0B200F077
:1009C0000F05274801F0070600EB06100321425DE2
:1009D00004231AB1022A22D0002070BD94F800220C
:1009E000284454F82220137094F80022521C02F07C
:1009F0007F0284F8002244F82200017094F801126A
:100A0000002054F82110087094F80102401C00F0F6
:100A10007F0084F80102052154F8200018E094F8C2
:100A20000022284454F82220137094F80022521C0B
:100A300002F07F0284F8002244F82200017002F0E4
:100A4000FBFF08484178491C41700178A1EBD101B6
:100A5000017084F8025284F80362012070BD000026
:100A60009C440020DC030020254CADF5027D0025D0
:100A70006570C820207002F0E3FD8DF800528DF8FB
:100A80000152FFF7DFFBC11700EB117121F00F01DD
:100A9000401A8DF80202FFF7D5FBC11700EB517128
:100AA00021F00701401A0121C0B28DF804128DF81F
:100AB000030214499DF8022201EB001010449DF836
:100AC00000224DF822009DF803329DF8022201EB2E
:100AD00003110320505402210022084607F06CFD48
:100AE000606002F0E1FF02F0A7FF07480021006804
:100AF00007F0C0FF054805F0FFFE684600F008F863
:100B0000DC0300209C4400203C030020084400201B
:100B10001FB50446434D0426434F4FF0030821E020
:100B200094F80212491C84F8021254F8200006704E
:100B300094F80002401C00F07F0184F8001294F841
:100B4000032294F8020207EB0212104444F8210039
:100B500080F8008002F088FD344806F095F9287886
:100B600007F0B4FA94F8000294F80112411A03292C
:100B7000D6DB94F8047204F501762C4805F0BCFE2F
:100B8000002203A9686807F0CFFE03A93046FFF7EB
:100B90006FFE2046FFF7FAFE10B194F8047237E0BA
:100BA00084F804722046FFF7F1FE88BB1F4805F069
:100BB000A3FE1F491D4806F078F96A781DA1684612
:100BC00003F0A0FE28226B461146184806F0EAF80A
:100BD000164806F059F94FF4FA6007F077FA13480F
:100BE00005F010FE686807F023FAFFF783FE14484B
:100BF000002302221946006808F08AF811480023F1
:100C00001A461946006807F073FD002007F084FAC1
:100C100002F02AFD054806F037F9287807F056FA61
:100C2000ABE70000DC0300209C44002008440020C7
:100C300070DC000853434F52453A25640000000021
:100C4000000000203C0300202DE9F04782461148B7
:100C50008946002500EBC2064FF00108002405EB91
:100C6000C907715DC4F1070208FA02F0014206D01B
:100C700004EBCA0082B2B9B2074805F087FF641CD2
:100C800064B2082CEDDB6D1C6DB2082DE6DBBDE80F
:100C9000F0870000C1A100080844002002484FF07E
:100CA000FF31406807F0E6BE000000200148C06840
:100CB00070470000C8000020F8B50024009490F8A8
:100CC00024202546012A12D0012280F824204A68D7
:100CD0001F23072A0DD20668776B521E02EB820291
:100CE00093409F430B6893401F43776319E00220B2
:100CF000F8BD06680D2A0AD2376BD21F02EB8202BA
:100D000093409F430B6893401F43376309E0F76AA2
:100D10000D3A02EB820293409F430B6893401F43BE
:100D2000F7620A68072306680A2A0AD3F7680A3AAC
:100D300002EB420293409F438B6893401F43F7604E
:100D400008E0376902EB420293409F438B6893406F
:100D50001F4337610A68102A01D0112A20D1124B93
:100D600002689A4217D193681B0219D4936843F41E
:100D7000000393600968102912D10C490C4A0968D4
:100D8000B1FBF2F101EB8101490000E0491E009145
:100D90000029FBD104E0816A41F020018162012435
:100DA00080F824502046F8BD0024014014000020A3
:100DB00040420F002DE9F0414FF0000704003D468E
:100DC0007ED0A06A002628B9E66284F82460204616
:100DD00000F07EF82046FFF71FFDA16AC90600D487
:100DE00020B1A06A40F01000A06269E0A16A21F47D
:100DF000885141F00201A1626268E169237B0A43E4
:100E000047EA43010A43A1684FF48077B94209D009
:100E1000012907D05FF0000194F814C0BCF1010F64
:100E200002D00AE03946F7E7F3B1A36A43F02003A2
:100E3000A362E36A43F00103E3622368D3F804C0CA
:100E40002CF4694C4CEA010CC3F804C021688B688F
:100E5000DFF870C003EA0C0313438B60A168B9424A
:100E60000BD0012909D00CE0DFF85CC0A3690CEBC2
:100E700043330B4343F40061DFE7218A0D05A5F5F9
:100E800080152168CB6A23F470032B43CB62216861
:100E900089680E4B1940914208D1E662A16A21F09F
:100EA000020141F00101A162BDE8F081A06A20F0D9
:100EB000020040F01000A062E06A40F00100E06231
:100EC0000120F1E7FDF7E1FF00E0FFFFFE0E1FFF4D
:100ED00000B585B000210091019102910391006855
:100EE0000E49884218D10E48816941F40071816130
:100EF000816901F400710491816941F0040181610B
:100F00008069694600F004000490082000900320E6
:100F10000190044800F032F805B000BD0024014003
:100F2000001002400008014070B5044600F020F9AE
:100F30000546601C02D004480078044400F018F90B
:100F4000401BA042FAD370BD08000020B0F5806FAE
:100F500004D0B0F5805F03D102F0ECBD01F0AEBE6D
:100F600070470000044910B50A68024202D00860C8
:100F7000FFF7ECFF10BD0000140401402DE9F84F0D
:100F8000DFF8B8910024A9F1040B23460F2709F1DB
:100F9000040AABF1040EC9E00125A5402A40AA428B
:100FA0007DD1674ED1F804C0ACEB0608B44532D011
:100FB00014DCBCF1030F3AD009DCBCF1000F2AD0DD
:100FC000BCF1010F1CD0BCF1020F31D11DE0BCF10E
:100FD000110F17D0BCF1120F2AD119E0B8F5881FF4
:100FE00019D006DCB8F5803F15D0B8F5801F1FD1A9
:100FF00011E0B8F5001F0ED0B8F5041F18D10AE0B3
:10100000CB6815E0CB681B1D12E0CB6808330FE0FE
:10101000CB680C330CE08B682BB1012B4FF008032D
:1010200003D0456104E0042302E0056100E00023F1
:10103000FF2A01D8064601E000F104064FEA8405C4
:1010400001D9A5F12005D6F8008007FA05FC28EAA9
:101050000C0803FA05F548EA0508C6F800804D6853
:10106000ED0062D5374DAE6946F00106AE61AD695F
:1010700024F0030605F001050095334D06EB050C41
:10108000DCF80850A607360F07FA06F825EA080527
:10109000DFF8B880404503D14FF0000817E044E086
:1010A000DFF8AC80404502D14FF001080FE0DFF8D7
:1010B000A480404502D14FF0020808E0DFF8988094
:1010C000404502D14FF0030801E04FF0040808FA50
:1010D00006F848EA0508CCF808804D68D9F80060A1
:1010E000ED024D4601D5164300E096432E604D6853
:1010F000DAF80060AD02554601D5164300E096438C
:101100002E604D68DBF80060AD035D4601D51643E7
:1011100000E096432E604D68DEF80060ED037546F2
:1011200001D5164300E096432E60641C0D682A46E4
:10113000E5407FF431AFBDE8F88F000008040140BE
:1011400000001110001002400000014000080140A2
:10115000000C01400010014000140140806808406C
:1011600000D0012070470AB1016170470904FBE714
:1011700001488068704700000800002070B5040036
:1011800025D094F83D00002520B984F83C50204635
:1011900000F0E6F9242084F83D002068016821F081
:1011A000010101602068016841F40041016020688C
:1011B000016821F40041016000F078FC4D4A61684B
:1011C000914201D84C4900E04C49884201D20120AB
:1011D00070BD4B492368B0FBF1F15E6826F03F0615
:1011E0000E435E606368934206D94FF49673594389
:1011F0004FF47A73B1FBF3F12368491C1E6A26F0A1
:101200003F06314319626168914210D84900401E7F
:10121000B0FBF1F2521CC2F30B02042A01D20420EB
:1012200022E0B0FBF1F0401CC0F30B001CE0A26810
:10123000F2B301EBC10303EB0116431EB3FBF6F35C
:101240005B1C43F480431B0549D092B301EBC10200
:1012500002EB0111401EB0FBF1F0401CC0F30B008B
:1012600040F4804040F400402168CA694CF6FF73A6
:101270009A431043C861D4E907100143206802680B
:1012800022F0C00211430160D4E903010143206848
:10129000826848F2FF339A4311438160D4E9050123
:1012A00008432168CA6822F0FF021043C86001E0C9
:1012B0000EE016E02068016841F00101016025643C
:1012C000202084F83D00256384F83E50002070BD46
:1012D00001EB4106431EB3FBF6F35B1CB3E70120B1
:1012E000C2E701EB4101401EB0FBF1F0401CC0F32E
:1012F0000B00B7E7A086010080841E0000093D00B6
:1013000040420F002DE9F84F1F4690468A4604469A
:10131000DDF82890FFF72CFF054694F83D002028C3
:101320007FD11923012240492046009501F066FB38
:10133000002876D194F83C00012872D0012084F86E
:101340003C0020680168C90703D1016841F0010130
:1013500001602068016821F400610160212084F8A7
:101360003D00102084F83E0000262664C4F8248046
:101370006785608D20852D48E0622B464A465146A0
:10138000204601F06DFA90B92068416980690090AB
:1013900036E02A464946204601F0D6FB50B1206C83
:1013A000042804D12068016841F400710160012023
:1013B000BDE8F88F606A216800780861606A401CA7
:1013C0006062618D491E6185218D491E89B221852A
:1013D00022685369DB435B070BD451B1007810617D
:1013E000606A401C6062608D401E6085208D401EDA
:1013F00020852A464946204601F0D4FA0028CED15D
:10140000208D0028C5D154F83D0B016841F40071CE
:101410000160202004F81E09E67766770020C7E700
:10142000FFE70220C4E70000020010000000FFFFF9
:101430002DE9FF4F83B09A46DDE9119793460446A4
:10144000DDF84080FFF794FE054694F83D00202823
:101450007FD11923012240492046009501F0CEFAA0
:10146000002876D194F83C00012872D0012084F83D
:101470003C0020680168C90703D1016841F00101FF
:1014800001602068016821F400610160212084F876
:101490003D00402084F83E0000262664C4F82480E5
:1014A000A4F82A90608D20852C48E062CDE9007573
:1014B00053465A462046049901F020FA70B930E0AC
:1014C0002A463946204601F03FFB58B1206C0428DB
:1014D00004D12068016841F400710160012007B067
:1014E000BDE8F08F606A216800780861606A401C7E
:1014F0006062218D491E89B22185628D521E6285EE
:1015000022685369DB435B070BD469B10078106133
:10151000606A401C6062208D401E2085608D401EE8
:101520006085208D0028CBD12A463946204601F01F
:1015300039FA0028CAD154F83D0B016841F4007112
:101540000160202004F81E09E67766770020C6E7D0
:10155000FFE70220C3E70000020010000000FFFFC9
:1015600010B586B0002100910191029103910068AD
:101570000F4988421AD10F4CA06940F00800A061C1
:10158000A069694600F008000490C0200090122075
:101590000190032003900848FFF7F0FCE06940F455
:1015A0000010E061E06900F40010049006B010BD86
:1015B0000054004000100240000C014002488168C5
:1015C000027811448160704708000020074810B578
:1015D000016841F010010160032000F0A7F80F201E
:1015E00000F006F800F050F8002010BD0020024086
:1015F00030B505461F4887B0C16941F00401C1619B
:10160000C06906A900F00400009001A800F02EFABD
:101610000498B0B100F04AFA40001749174AB0FBED
:10162000F1F11748491E0260416040F2E7320021A3
:10163000C0E903218160816100F02EFD040003D028
:1016400015E000F033FAE8E70D4800F087FD0400EC
:101650000DD11E2000F03CF8102D07D200222946A3
:101660001E2000F043F80748056000E0012407B0A1
:10167000204630BD0010024040420F0000080040EC
:10168000F00800200C0000200F4808B5816941F0E7
:1016900001018161816901F001010091C16941F09D
:1016A0008051C161C069002200F0805000900F217C
:1016B000901E00F01BF80548416821F0E06141F000
:1016C0000071416008BD00000010024000000140B0
:1016D000002809DB00F01F02012191404009800031
:1016E00000F1E020C0F8001170470000F0B40E4B8C
:1016F0001B680C46C3F30223C3F10705042D00D970
:101700000425191D072901D2002300E0DB1E012654
:1017100006FA05F1491E214099409E40761E16406A
:101720003143F0BC03F002B90CED00E0064900F0D3
:10173000070208684FF6FF03184040EA0220034AF8
:1017400010430860704700000CED00E00000FA054F
:101750002DE9F04186B0040004D094F8A9020025D8
:1017600020B108E0012006B0BDE8F08184F8A8525D
:10177000204600F05BF8032084F8A902206803F0FB
:101780006CF804F11001142288466846FEF76CFDDF
:1017900094E80F0003F054F80227D0BB0021206822
:1017A00003F062F8002001260EE000BF00EB80018C
:1017B00004EBC10181F8296001F8280F401CCD70AD
:1017C0000D614D61C0B28D6161688142EED800202B
:1017D00012E000BF00EB800104EBC10181F8695108
:1017E00081F8680181F86B51C1F87851C1F87C51DA
:1017F000401CC0B2C1F8805161688142EAD814220D
:1018000041466846FEF730FD94E80F0003F01CF8EF
:1018100010B184F8A972A5E784F8245084F8A9626D
:10182000206803F00FF800209DE7000008B500686D
:101830000649884208D10648C16941F40001C161E6
:10184000C06900F40000009008BD0000005C00408A
:10185000001002402DE9F84305460078354CC007DA
:1018600054D0E0690026C00008D4E06940F0805000
:10187000E061E069012600F0805000902E48016888
:10188000C90512D40168804641F480710160FFF7F8
:101890006FFC074605E000BFFFF76AFCC01B642829
:1018A00023D8D8F80000C005F6D5206A10F440709F
:1018B00021D0A98801F4407181421CD0206A1F49BF
:1018C000012220F440700A6000220A602062C007F2
:1018D00011D0FFF74DFC074641F2883808E000BF01
:1018E000FFF746FCC11B414502D90320BDE8F88340
:1018F000206A8007F4D5206A696820F440700843A4
:1019000020621EB1E06920F08050E06128788007F5
:1019100005D56068A96820F44040084360602878D5
:10192000C00605D56068E96820F48000084360605F
:101930000020DBE7001002400070004040044242FB
:101940002DE9F0470F46050061D0434E306800F0A6
:101950000700B84209D2306820F0070038433060F1
:10196000306800F00700B84251D128683B4C81072D
:1019700012D5400703D5606840F4E06060602878C5
:10198000000703D5606840F4605060606068A96833
:1019900020F0F000084360602878C00728D068680D
:1019A000012810D02168022810D0890700292EDADA
:1019B000616821F0030101436160FFF7D9FB8046B4
:1019C00041F288390DE021688903EFE78901EDE7ED
:1019D000FFF7CEFBA0EB0801494502D90320BDE883
:1019E000F0876068696800F00C00B0EB810FEFD100
:1019F000306800F00700B8420BD9306820F00700CB
:101A000038433060306800F00700B84201D0012050
:101A1000E5E72878400705D56068E96820F4E060CC
:101A2000084360602878000706D56068296920F4BB
:101A3000605040EAC100606000F058F86168084AF0
:101A4000C1F30311515CC8400649086006480068AC
:101A5000FFF7CEFD0020C2E7002002400010024048
:101A6000CE910008140000200C0000200F2202601C
:101A70000C4A536803F003034360536803F0F00318
:101A80008360536803F4E063C36052684FF4E0631B
:101A900003EAD20202610448006800F0070008600F
:101AA0007047000000100240002002400448054931
:101AB00000684968044AC1F30221515CC84070477C
:101AC0001400002000100240DE910008044805497F
:101AD00000684968044AC1F3C221515CC84070479C
:101AE0001400002000100240DE9100080E4A5168E8
:101AF0000E4801F00C03042B11D0082B0FD10C4819
:101B0000C1F38343C903C05C0AD55168084AC1F3D5
:101B10004041921E515C054A5043B0FBF1F07047C2
:101B200004494843704700000010024000127A0048
:101B3000BE91000800093D002DE9F84F040070D067
:101B40002078C04DC00749D06868C0F381000128E3
:101B500007D06868C0F38100022809D16868C00313
:101B600006D52868800339D560680028E7D035E0BD
:101B70006068B0F5803F0BD010B1B0F5A02F11D048
:101B8000286820F480302860286820F4802002E053
:101B9000286840F480302860606890B1FFF7E8FA68
:101BA00006460AE0286840F480202860F0E700BF7D
:101BB000FFF7DEFA801B642873D828688003F7D506
:101BC0000CE0FFF7D5FA064605E000BFFFF7D0FAB4
:101BD000801B6428F0D828688003F7D420789A4EB8
:101BE00080074FF001094FF0000839D5686810F000
:101BF0000C0F07D06868C0F38100022809D168681B
:101C0000C00306D42868800714D52069012808D1AC
:101C100010E02069B0B1C6F80090FFF7A9FA0746B6
:101C200005E00AE1FFF7A4FAC01B0228C4D828681F
:101C30008007F7D52868616920F0F80040EAC10004
:101C400028600DE0C6F80080FFF792FA074604E02E
:101C5000FFF78EFAC01B022823D828688007F7D424
:101C6000207800072CD57948A169D9B1C0F8009037
:101C7000FFF77EFA074604E0FFF77AFAC01B022856
:101C80000FD8686A8007F7D571484FF4FA51006899
:101C9000B0FBF1F0009000BF0098411E0091FAD215
:101CA0000EE080E0C0F80080FFF762FA074604E02B
:101CB000FFF75EFAC01B022875D8686A8007F7D460
:101CC0002078400760D5E8690027C00008D4E8699B
:101CD00040F08050E861E869012700F080500090F2
:101CE0005C480168C90513D40168834641F48071DA
:101CF0000160FFF73DFA824606E000BFFFF738FAC1
:101D0000A0EB0A0064284ED8DBF80000C005F5D52A
:101D1000E06801280AD008B1052813D0286A20F00D
:101D200001002862286A20F0040002E0286A40F0DE
:101D300001002862E06841F2883B98B1FFF718FA89
:101D400082460BE0286A40F004002862EEE700BFFC
:101D5000FFF70EFAA0EB0A0159455AD8286A800706
:101D6000F6D50CE0FFF704FA824605E0FFF700FA2B
:101D7000A0EB0A0159454CD8286A8007F6D41FB158
:101D8000E86920F08050E861E06988B36968C1F3D0
:101D90008101022944D00228C6F8608004D0FFF7F0
:101DA000E7F9044638E034E0FFF7E2F9074604E0DB
:101DB000FFF7DEF9C01B02282BD828688001F7D472
:101DC000206AB0F5803F05D16868A16820F4003032
:101DD00008436860D4E908010843696821F4741174
:101DE00008436860C6F86090FFF7C2F9044606E051
:101DF00025E000BFFFF7BCF9001B022809D82868BE
:101E00008001F7D51BE000BFFFF7B2F9001B0228E5
:101E100002D90320BDE8F88F28688001F4D40EE0D1
:101E20000128F7D06868226A00F48031914204D119
:101E3000616A00F47010884201D00120EAE70020B6
:101E4000E8E70000001002400000424280044242E5
:101E5000140000200070004070B5040009D0606AD2
:101E6000002540B125616561A56294F8510040B13B
:101E70000CE0012070BD6068B0F5827FF4D0E561B0
:101E8000F2E784F85050204600F040F8022084F831
:101E900051002068016821F040010160A08821897B
:101EA00000F4827001F404410843A18901F4006147
:101EB0000843217C01F002010843217D01F001016A
:101EC0000843218B01F400710843217F01F03801A0
:101ED000084394F8201001F080010843218D01F49B
:101EE0000051084321680860A069042101EA1040FC
:101EF000216848602068C16921F40061C16165659D
:101F0000012084F85100002070BD000030B585B07C
:101F100000240094019402940394006814498842B8
:101F200023D11448816941F480518161816901F4B0
:101F300080510491816941F00401816180690E4DF5
:101F400000F004000490A0200090022001900320E3
:101F5000039069462846FFF711F84020CDE90004B8
:101F6000694628460294FFF709F805B030BD000025
:101F700000300140001002400008014070477047E7
:101F800010B590F83C20012A22D0012280F83C2094
:101F9000CA688C6822F4407222434C6822F4806242
:101FA00022430C6822F4006222430C6922F480521E
:101FB00022434C6922F400522243C969002322F4CF
:101FC00080420A4301684A6480F83C30002010BD1A
:101FD000022010BD70B590F83C20012A26D00124C3
:101FE00080F83C40022280F83D2003685A689D68D2
:101FF00022F070060A6832435A600D4B02689A421A
:1020000008D0B2F1804F05D00A4B9A4202D00A4B59
:102010009A4204D1496825F080031943916080F801
:102020003D40002180F83C10084670BD022070BD84
:10203000002C0140000400400008004010B5044698
:10204000022084F83D002068016A41F21112114219
:1020500007D1016A9210114203D1016821F00101F8
:102060000160204600F046F8002084F8460084F81D
:102070003E0084F83F0084F8400084F8410084F872
:10208000420084F8430084F8440084F8450084F852
:102090003D0084F83C0010BD10B5040003D094F856
:1020A0003D0010B107E0012010BD002084F83C0085
:1020B000204600F035F8022084F83D00211D2068FC
:1020C00002F01AF8012084F8460084F83E0084F8F3
:1020D0003F0084F8400084F8410084F8420084F80E
:1020E000430084F8440084F8450084F83D00002053
:1020F00010BD0000084A01680848914204D1816976
:1021000021F4006181617047B1F1804FFBD1C16959
:1021100021F00101C1617047002C01400010024014
:1021200008B50C4A01680C48914207D1816941F415
:1021300000618161806900F4006009E0B1F1804FC5
:1021400007D1C16941F00101C161C06900F001001E
:10215000009008BD002C01400010024090F83D1096
:10216000012901D001207047022180F83D1001684B
:10217000CA6842F00102CA6000680B49884208D070
:10218000B0F1804F05D00949884202D00849884201
:1021900004D1816801F00701062903D0016841F0EC
:1021A0000101016000207047002C01400004004044
:1021B0000008004070B5044690F83C000025012856
:1021C00017D0012684F83C60022084F83D00206886
:1021D000826822F0770222F47F42826008685028E9
:1021E00038D00DDC20284FD005DC90B3102811D159
:1021F0004AE0022070BD302846D040280AD13BE09A
:1022000060282FD070280DD0B0F5805F03D0B0F5D6
:10221000005F12D0012584F83D60002084F83C0066
:10222000284670BDCB68D1E90121206801F0A7FFE5
:102230002068816841F0770109E0CB68D1E901218C
:10224000206801F09CFF2068816841F48041816032
:10225000E1E719E0CA684968206802F045F85021B2
:10226000206806E0CA684968206802F04EF86021DC
:10227000206801F08EFFCEE7CA684968206802F046
:1022800033F840212068F4E7226801461046F0E761
:10229000704770B50446006801694FF00005C943F6
:1022A000890715D4C168C943890711D4E91E0161A2
:1022B00001202077206880698007204602D0FFF740
:1022C000E7FF04E000F00EF9204600F0B3F92577AF
:1022D00020680169C943490717D4C168C943490740
:1022E00013D46FF004010161022020772068806917
:1022F00010F4407F204602D0FFF7CAFF04E000F050
:10230000F1F8204600F096F9257720680169C94365
:10231000090716D4C168C943090712D46FF0080130
:102320000161042020772068C0698007204602D020
:10233000FFF7AEFF04E000F0D5F8204600F07AF990
:10234000257720680169C943C90617D4C168C94304
:10235000C90613D46FF010010161082020772068AE
:10236000C06910F4407F204602D0FFF791FF04E0DF
:1023700000F0B8F8204600F05DF925772068016983
:10238000C943C90708D1C168C943C90704D1891E17
:102390000161204600F0D6F920680169C9430906A9
:1023A00009D4C168C943090605D46FF080010161F1
:1023B0002046FFF7E3FD20680169C943490609D4B7
:1023C000C168C943490605D46FF040010161204648
:1023D00000F0C2F920680169C94389060BD4C168BD
:1023E000C943890607D46FF0200101612046BDE88A
:1023F0007040FFF7C4BD70BD70B586B0002100917C
:102400000191029103910068304B31490224314A15
:10241000984211D1886940F004008861886903946A
:1024200000F0040004908815CDE9000469461046C8
:10243000FEF7A4FD06B070BD274E284DB0F1804FC9
:102440001BD0274A9042F5D1886940F00800886186
:102450008869694600F0080004901020CDE9000466
:1024600030460394FEF78AFD686820F4406040F02F
:10247000E06040F400606860DCE7886940F00400D8
:102480008861886900F004000490886940F00800C1
:1024900088618869694600F00800049048F20400E9
:1024A000CDE9000410460394FEF768FD0820CDE94D
:1024B0000004694630460394FEF760FD686820F426
:1024C000407040F0E06040F48070D4E7002C0140A0
:1024D0000010024000080140000C014000000140D3
:1024E00000040040704770B5044690F83C00002698
:1024F0000D4601280FD0012084F83C006AB1042A5F
:102500001DD0082A2FD00C2A3FD00126002084F8A5
:102510003C00304670BD022070BD206801F042FED4
:102520002068816941F0080181612068816921F09A
:1025300004018161206881692A69114311E02068E2
:1025400001F058FE2068816941F4006181612068D2
:10255000816921F480618161206881692A6941EA89
:1025600002218161D2E7206801F070FE2068C16914
:1025700041F00801C1612068C16921F00401C16115
:102580002068C1692A69114311E0206801F08AFEC0
:102590002068C16941F40061C1612068C16921F40A
:1025A0008061C1612068C1692A6941EA0221C16173
:1025B000ACE710B5040003D094F83D0010B107E07B
:1025C000012010BD002084F83C00204600F01EF8D9
:1025D000022084F83D00211D206801F08DFD0120BE
:1025E00084F8460084F83E0084F83F0084F84000F8
:1025F00084F8410084F8420084F8430084F84400E1
:1026000084F8450084F83D00002010BD08B500683E
:102610000649884208D10648C16941F00201C161FA
:10262000C06900F00200009008BD000000040040F6
:10263000001002407047000010B50446022249B164
:1026400004290ED0082913D094F84100012816D08F
:10265000012010BD94F83E000128F9D184F83E20F5
:102660000FE094F83F000128F2D184F83F2008E001
:1026700094F840000128EBD184F8402001E084F870
:1026800041200122206801F06DFD0F492068884239
:1026900003D1426C42F4004242642068884208D070
:1026A000B0F1804F05D00949884202D008498842DC
:1026B00004D1816801F00701062903D0016841F0C7
:1026C00001010160002010BD002C01400004004009
:1026D0000008004030B504460D460068002201F0B5
:1026E00041FD174B41F2111120688A10984209D11F
:1026F000036A0B4206D1036A134203D1436C23F4ED
:10270000004343642068036A0B4206D1016A114208
:1027100003D1016821F00101016001203DB1042DC8
:1027200008D0082D09D084F84100002030BD84F87D
:102730003E00FAE784F83F00F7E784F84000F4E74A
:10274000002C014000680349884201D1FEF736BFE2
:102750007047000000080040704770B5040004D0C6
:1027600094F84100002510B106E0012070BD84F806
:102770004050204600F024F8242084F841002068CE
:10278000C16821F40051C160204601F097FF206824
:10279000016921F4904101612068416921F02A0119
:1027A00041612068C16841F40051C1606564202026
:1027B00084F8410084F842006563002070BD000089
:1027C00030B585B00024009401940294039400680D
:1027D0001449884224D11448816941F480418161BF
:1027E000816901F480410491816941F004018161B2
:1027F00080690E4D00F0040004904FF400700090CA
:10280000022001900320039069462846FEF7B6FB9C
:102810002815CDE90004694628460294FEF7AEFB70
:1028200005B030BD003801400010024000080140F2
:10283000FEE701684A69D24352050FD46FF4806203
:102840004A61002140F8301F2022427381730269DF
:1028500042F00402026101730120704700207047BA
:10286000F8B50446C06A1E460D461746082807D02C
:10287000012805D010F5803F02D0206B122804D12A
:102880002068016841F480710160134600224FF016
:1028900001112046009600F0B1F840B120680068B0
:1028A000C00502D54FF4007020640320F8BD2069F4
:1028B000B0F5804F0ED00620216800EAD51040F018
:1028C000F000086133463A460B49204600F0DEF836
:1028D00078B902E005F0FE0000E0E8B22168086186
:1028E000054933463A46891F204600F0CFF80028B4
:1028F000DCD00120F8BD0000080001002DE9F843FC
:10290000044600680D46DDE90897016898461646BA
:1029100041F4807101604B4600224FF001112046C6
:10292000009700F06BF848B120680068C00502D538
:102930004FF4007020640320BDE8F883216805F09F
:10294000FE0008613B464A461549204600F09EF8C5
:1029500088B920684169806900903A464946204616
:1029600000F0F2F848B1206C042804D12068016816
:1029700041F4007101600120DEE7F5B2B8F1010F0A
:1029800009D02168300A08613A464946204600F0DD
:10299000DBF80028E7D1206805610020CCE70000C3
:1029A0000200010070B516460D4604461EE02046A2
:1029B000FFF73FFF08B1012070BD681C16D0FEF77D
:1029C000D7FB801BA84200D885B920684069C04366
:1029D00040070BD5002044F8300F20216173A0730D
:1029E000216941F0200121612073E4E720684069FA
:1029F000C0434007DBD4002070BD00002DE9F04744
:102A0000984617460D460446C1F30746DDF8209068
:102A10002AE000BFB8F1FF3F26D0FEF7A9FBA0EBEC
:102A20000901414502D8B8F1000F1DD12068012EDF
:102A300016D0806925EA00000004000C12D00020A6
:102A4000B84211D1002044F8300F20216173A073E7
:102A5000216941F02001216120730120BDE8F08748
:102A60004069E7E70120EBE72068012E0AD0806982
:102A700025EA00000004000C06D00020B842C9D0AE
:102A80000020EBE74069F3E70120F7E72DE9F04785
:102A9000984616460D4604464FF000094FF0200AAE
:102AA000C1F3074723E020684069C043400515D4BF
:102AB0002068016841F40071016021686FF4806052
:102AC0004861C4F8309084F83DA084F83E90216CB1
:102AD00041F00401216484F83C9021E0701C06D090
:102AE000FEF746FBA0EB0800B04203D816B1012F59
:102AF0001FD021E02068012F15D0806925EA000051
:102B00000004000C18D000BF44F8309F84F80DA0DA
:102B100084F80E90216941F02001216184F80C9025
:102B20000120BDE8F087406925EA00000004000CA0
:102B3000EAD12068406901E02068806925EA000048
:102B40000004000CAFD1ECE770B516460D46044604
:102B50001EE02046FFF76DFE08B1012070BD681C25
:102B600016D0FEF705FB801BA84200D885B9206867
:102B70004069C04300060BD5002044F8300F2021E7
:102B80006173A073216941F0200121612073E4E7A2
:102B900020684069C0430006DBD4002070BD0000FF
:102BA0002DE9F84FDFF8F89000224846DFF8F4C02E
:102BB000D0E90261D9E900400B46341B61EB00010A
:102BC000501EB4EB0C0C1546174671F1000C5ED389
:102BD000DFF8D4804FF0000CB8EB04047CEB010C60
:102BE00055D34C46D4E904C1BCEB060661EB0301A6
:102BF0002E4BF31A71F1000349D3DFF8B4C0002360
:102C0000BCEB06068B4142D300234FF00309EA4692
:102C100009EB430808F1010C04EBCC0104EBC80CF0
:102C2000D1E90061DCE9008CB6EB080661EB0C0130
:102C30005206DFF88080120E6D1C4FF0000CB8EBCE
:102C400006067CEB010C01D242F00102082D04D1F2
:102C50000AF80720002215467F1C5B1C202BD7DBBF
:102C60009DF80110C943CBB28DF801309DF80310D7
:102C7000C943CAB28DF803209DF80010994203D1D0
:102C80009DF80230934204D00B4A00215160BDE808
:102C9000F88F094801704370FDF74CFE0020F6E7FD
:102CA000A041002000127A0080969800E06735006D
:102CB000C03B470340420F00A80000202DE9F0412F
:102CC00003F07EFD244C254FD4E90623861A61EBE0
:102CD000030200231D46BE1B934100D26560C4E978
:102CE00006011F4A636802EBC3065B1CC6E90001CC
:102CF0006360042B06D0442B02D1FFF751FF6560BF
:102D0000BDE8F081D2E90260D2E900370146F31A4A
:102D100060EB0700134FDF1B70F10007F0D3DFF803
:102D200048C00027BCEB03038741E9D3D2E9040282
:102D3000801B62EB01020D49411A72F10001DFD3E1
:102D40004FEAAC030021181A9141D9D302484570CB
:102D50000570FDF7EFFDD2E7A800002000E1F505C2
:102D6000A041002000127A008096980080841E0006
:102D7000704700001CB51A4C002201A9A06A05F09A
:102D8000D3FD9DF80500E0280ED090280ED078B134
:102D9000C2280FD0002000900023A0601A46694688
:102DA000206A05F0A5FC1CBD0220F4E70120F2E733
:102DB000A068F0E70B48002302221946006805F0DE
:102DC000A7FF322005F082F9606B05F0A5F9206AB3
:102DD00005F02EF9002005F09FF90098DCE70000CF
:102DE000F8000020340200201CB5184C002201A974
:102DF000A06A05F099FD9DF80500E0280ED0902806
:102E00000ED078B1C2280FD0002000900023E060DF
:102E10001A466946206A05F06BFC1CBD0220F4E7E7
:102E20000120F2E7E068F0E7606B05F075F9A06B50
:102E300005F072F90648002302221946006805F0E1
:102E400067FF002005F068F90098DFE734010020F3
:102E5000380200201CB51B4C4FF0FF373946206B61
:102E600005F0FEFD0028F9D0A16A884202D1FFF7E3
:102E700081FFF3E7616A884202D100F03DF8EDE797
:102E8000E36A9842EAD1002201A9184605F04CFDF8
:102E900001985A2804DD022100915C28DEDB03E062
:102EA000012100915828D9DC0226002500231A466A
:102EB0006946206A05F01CFC6D1CEDB2B542F5D3E5
:102EC000CCE70000F80000200A4C4FF0FF352946FF
:102ED000206B05F0C5FD0028F9D0A16A884202D117
:102EE000FFF782FFF3E7E16A8842F0D100F030F8A3
:102EF000EDE70000340100207CB5144E0022694645
:102F0000706A05F011FD0099002901DD012002E041
:102F1000002049420091782901DD042504E03C2984
:102F200001DD022500E0012508B1022000E00120BA
:102F30000024019007E000231A4601A9306A05F039
:102F4000D7FB641CE4B2AC42F5D37CBDF800002092
:102F50007CB5144E00226946F06A05F0E5FC009944
:102F6000002901DD012002E000204942009178297A
:102F700001DD042504E03C2901DD022500E00125F6
:102F800008B1022000E001200024019007E00023A6
:102F90001A4601A9706A05F0ABFB641CE4B2AC42AE
:102FA000F5D37CBD3401002000F0B3BB00F0C6BBFC
:102FB00000F0E0BB00F00EBC00F016BC1CB5002217
:102FC0000221012005F0F8FA1C4C206000F06CFD95
:102FD0001B4D0021286805F04DFD1A4803F072FCD6
:102FE000194F4026002201A9206805F09DFC9DF89C
:102FF0000500C22816D1206805F01AF8FDF77AFC02
:10300000104803F0FFFB002302221946386805F040
:103010007FFE00231A461946286805F069FB002048
:1030200005F07AF80022802311460648009603F046
:103030006CFC044803F028FFD4E70000E403002000
:103040003C030020084400200000002010B50021AF
:103050006B2000F01FF800216C2000F01BF8092104
:10306000192000F017F806211A2000F013F8182193
:103070001B2000F00FF818211C2000F00BF8002294
:1030800004210F2005F098FA01498860002010BD46
:10309000980000201CB502238DF804004FF4FA704C
:1030A000009004488DF8051001AAD0210068FEF7B1
:1030B00029F91CBD980000202DE9F047DFF8488071
:1030C0004FF424764FF466750124A8F58D7900BF7E
:1030D00004EB440108EB410738F81120788802EB33
:1030E000420309EB4302322132F8100000F060FC89
:1030F000B888B5FBF0F004F0E9FF641CA4B2B44258
:10310000E6D9BDE8F08700000CA300082DE9F047E0
:10311000DFF84480262640F23A250124A8F1300940
:1031200004EB440108EB410738F81120788802EBE2
:10313000420309EB4302322132F8100000F038FC60
:10314000B888B5FBF0F004F0C1FF641CA4B2B4422F
:10315000E6D9BDE8F087000022A200083EB50024B1
:1031600011480094019402940E4984600160047334
:103170000475012505614FF460214460C161FDF7CC
:1031800019FE08B1FDF7FFFB0320CDE900056946F4
:1031900002940548FDF790FD002801D0FDF7F3FBF0
:1031A0003EBD000000240140040400201CB5FFF7D0
:1031B00003FFFFF7F9FEFFF749FFFFF7D9FD00F026
:1031C00007FD012005F0E9F9054900238022486048
:1031D0001820CDE9000103A1064805F041FD1CBD02
:1031E000000000205461736B5F436F6E74726F6CEC
:1031F00000000000314300082DE9F04786B00024AC
:103200004B480094019402940394816941F01001A9
:103210008161816901F010010491816941F020010F
:103220008161816901F020010491816941F004010B
:103230008161816901F004010491816941F0080113
:10324000816180693B4F00F008004FF40055049005
:10325000002229463846FDF786FFDFF8DC90002281
:1032600013214846FDF77FFFDFF8D0A04FF4024856
:10327000002241465046FDF776FF009502260125C3
:103280000396CDE9015469463846FDF777FE1127CC
:1032900000970396CDE9015469464846FDF76EFE56
:1032A000CDE90256CDE9006769464846FDF766FE5E
:1032B00003208DE8310069465046FDF75FFEA80205
:1032C00000901F48CDE9010569465046FDF756FEBE
:1032D0001C4F4FF40260CDE9000769460295504645
:1032E000FDF74CFE2803CDE90007694602945046DD
:1032F000FDF744FE4FF48240CDE900046946504694
:103300000294FDF73BFECDF800800396CDE9015411
:1033100069465046FDF732FE002205212820FEF7BF
:10332000E5F92820FEF7D4F906B0BDE8F0870000E3
:10333000001002400010014000080140000C014054
:1033400000003110000011100D4810B50B4901604C
:103350000C49416000214FF480428160C0E90312B2
:1033600041618161C1610162FDF708FF002803D05E
:10337000BDE81040FDF707BB10BD00000054004041
:1033800034040020A0860100104810B50E490160E9
:103390004FF48271416000218160C1604FF400727E
:1033A0000161C0E905120822C0E90721416281627A
:1033B0000A21C162FEF750FD002803D0BDE810408D
:1033C000FDF7E1BA10BD0000003001408804002084
:1033D00010B596B000240F94109411941294139485
:1033E0001C2108A81494FCF758FF20216846FCF71C
:1033F00054FF2A48284901604721C0E9011440F2DE
:10340000E731C0E903148021C0E90541FEF744FE1D
:1034100008B1FDF7B8FA4FF480500F900FA91F487C
:10342000FEF7C8FE08B1FDF7AEFA1C48FFF7C1F879
:1034300008B1FDF7A8FA139413A918481494FEF7DD
:10344000C9FD08B1FDF79FFA6020089040F2F31023
:10345000CDE909040B940C940D94002208A90F489F
:103460000E94FFF740F808B1FDF78DFA00944FF481
:103470000050CDE904400294019403946946074842
:103480000794FEF77DFD08B1FDF77DFA0348FEF7CE
:10349000B3FF16B010BD0000002C0140E004002076
:1034A00010B58EB000240794089409940A940B94E4
:1034B0001C2168460C94FCF7F0FE27484FF0804131
:1034C000016040F26711C0E9011440F2CF71C0E918
:1034D000031480218161FEF7DFFD08B1FDF753FA87
:1034E0004FF48050079007A91B48FEF763FE08B110
:1034F000FDF749FA1848FFF75CF808B1FDF743FA01
:103500000B940BA914480C94FEF764FD08B1FDF769
:103510003AFA6020CDE900040294002269460E4880
:103520000494FEF7E0FF08B1FDF72DFA0422694686
:103530000948FEF7D8FF08B1FDF725FA08226946C9
:103540000548FEF7D0FF08B1FDF71DFA0248FEF767
:1035500053FF0EB010BD00002805002010B58AB042
:10356000002407941C2168460894FCF796FE18482E
:10357000164901600721C0E9011440F2E731C0E9B2
:10358000031480218161FFF714F808B1FDF7FBF9FE
:10359000079407A90E480894FEF71CFD08B1FDF733
:1035A000F2F9602000904FF46170CDE9010400222F
:1035B000694607480494FEF796FF08B1FDF7E3F962
:1035C0000348FEF719FF0AB010BD000000040040D8
:1035D000700500200C4810B50A4901604FF4E13134
:1035E0004160002181600C22C160C0E90412816148
:1035F000C161FFF7B2F8002803D0BDE81040FDF725
:10360000C2B910BD00380140B80500200B4810B504
:103610000949016008214160022181600021816126
:10362000C1610162FEF794F8002803D0BDE81040A4
:10363000FDF7A9B910BD0000005C004000060020A5
:1036400010B50021074C0A46002004EB01131A5460
:10365000401C40B21028FADB491C49B20829F3DBB0
:1036600010BD00009C4400202DE9F041094F0025C9
:10367000002407EB0516E1B2325DE8B2FDF7E4FA8B
:10368000641C64B2102CF6DB6D1C6DB2082DEFDBF0
:10369000BDE8F0819C440020FEE700001CB5044614
:1036A00000F052F900220221012004F085FF1049A8
:1036B000486000F0F9F90F4803F01EF90E49322076
:1036C000CDE9000103460A2227210A4803F078FBCE
:1036D000084803F0D9FB00211920CDE90001802220
:1036E00006A10A48636805F0BBFA20688047FCE73A
:1036F000E803002008440020839E00085461736B97
:103700005F4D757369635F49720000007144000882
:10371000FEE710B5A0B0002480216846FCF7BDFD8F
:103720000021204600F0C0F88021684600F0F0F843
:10373000641CE4B2082CF3D320B010BD70B50C4D5E
:10374000002400BF04F1B000C0B200F0CDF80020AA
:1037500000F0CAF8102000F0C7F805EBC410802173
:1037600000F0D6F8641CE4B2082CEBD370BD000066
:10377000203D00202DE9F0478146C81701EB50702D
:10378000C0F3C70520F00700081A1844C01DC11770
:1037900000EB51709246C0F3C7070024DFF8308079
:1037A00011E02E19082E0CD209F0FF01F0B200F042
:1037B0007BF809EBC6121FFA8AF102EB080000F051
:1037C000A7F8641CE4B2BC42EBD3BDE8F08700006C
:1037D000203D00208023036040200860012010600D
:1037E00000487047203D002010B50224202000F042
:1037F0007BF8204600F078F81F4804703F24A8208A
:1038000000F072F8204600F06FF80024D32000F09A
:103810006BF8204600F068F8402000F065F8A12021
:1038200000F062F8C82000F05FF80021084600F0C0
:1038300025F87F24812000F057F8204600F054F846
:10384000A42000F051F8A62000F04EF8D52000F09A
:103850004BF8802000F048F88D2000F045F8142047
:1038600000F042F80021012000F008F8BDE8104007
:10387000AF2000F039B800009000002070B50C4671
:10388000050001D0012D0ED10CB1012C0BD1DA2095
:1038900000F02AF8280100EB4410BDE87040801CBD
:1038A000C0B200F021B870BD70B50E4D0C4629783D
:1038B000022905D1072803D8B030C0B200F014F8AF
:1038C000287802280CD17F2C0AD804F00F0000F0D1
:1038D0000BF8102000EB1410BDE8704000F004B8A5
:1038E00070BD0000900000201CB500218DF8041070
:1038F0008DF805004FF4FA7000900448022301AAE5
:1039000078214068FDF7FEFC1CBD000090000020FF
:103910000EB54FF4FA728DE80700044801234022E7
:1039200078214068FDF784FD0EBD00009000002066
:10393000010004484FF00001006801D0FEF77CBE92
:10394000FEF7C8BEA400002070B58CB01C216846EC
:10395000FCF7A3FC4FF480700225CDE90705002495
:1039600007A91048CDE90945FDF708FB0F4E0E48A1
:103970004722316815C140F2E732E1E80224802293
:1039800061E8044200F0B8FB60200090049440F22B
:10399000F310CDE90105002269463068FEF7A3FD6A
:1039A0000CB070BD00080140002C0140A4000020B4
:1039B0002DE9F04188B0884606461C216846FCF790
:1039C0006CFC1A4C00212068FEF784FE2068FEF78C
:1039D00035FB20681649002501604721C0E9011523
:1039E000144F97FBF6F1491EC0E903158021C0E989
:1039F0000551FEF751FB602000900220029097FBDA
:103A0000F6F0401E00FB08F0642190FBF1F00495F5
:103A10000190002269462068FEF765FD00212068BC
:103A2000FEF70AFE08B0BDE8F0810000A400002007
:103A3000002C014040420F0070B5FCF703FCFCF77E
:103A40000BFCFCF7FFFBC11700EB517121F00701E4
:103A5000401A44B2FCF7F6FBC11700EB117121F0DC
:103A60000F01401A40B20F4D12E000BFFCF7EAFB15
:103A7000C11700EB517121F00701401A44B2FCF765
:103A8000E1FBC11700EB117121F00F01401A40B2A8
:103A900005EB0411095C0029E8D105EB04120221B1
:103AA000115470BD9C440020044A91680A2904DA2C
:103AB000034B43F82100491C91607047A800002087
:103AC000C043002010B5FCF715FF084CE06804F077
:103AD00031FA0020E060606A04F0AAFAA06A04F0FB
:103AE000A7FA206BBDE8104004F0A2BAF80000204D
:103AF00010B5FCF7FFFE094C206A04F099FA606AE1
:103B000004F096FAA06A04F093FAE06A04F090FADE
:103B1000206BBDE8104004F08BBA00003401002097
:103B2000034800231A461946406804F0E1BD00002E
:103B3000000000202DE9F04102F042FE204C064634
:103B40000D46D4E90623801A1E4A61EB0301801A50
:103B500071F1000004D200BFC4E90665BDE8F08140
:103B6000DFF864804FF480514046FDF7F7FA0028F3
:103B7000F4D0D4E90601321A65EB0103012713489A
:103B80000021FCF71DFB606000B967600121404621
:103B9000FDF7E4FA002820680BD0401C2060606824
:103BA0000749002310311A460860E06804F056FE09
:103BB000D2E7401E2060606840426060F0E700008D
:103BC000C800002080841E00000C014000CA9A3BFF
:103BD00010B5002204210F2004F0EEFC0149C8605A
:103BE00010BD0000C80000201CB50025AE4802F042
:103BF00083FEAE49AC4803F058F9AD4F3C22A7F123
:103C000040063421707807EBC0004368A64803F0F3
:103C1000C9F8707807EBC0004168A34803F016F9B3
:103C200000F0FF08A3480824CDE900401023342207
:103C300023219D4803F0C4F89F481023CDE900409C
:103C4000342208F13501984803F0BAF8747806F187
:103C5000040BBA460AEBC4074FF01E0957F8080CCC
:103C60005E46CDE90090BBF80220BBF80010192396
:103C70008D4803F0A5F85AF834001923CDE90090D7
:103C8000F289B189884803F09BF8B8681923CDE917
:103C90000090728B318B844803F092F88748092694
:103CA000CDE9006000220A2311467F4803F088F81E
:103CB00083480A23CDE90060002276217A4803F088
:103CC0007FF88049784803F0F0F87FA30922322179
:103CD000754803F067F87549734803F0E6F8DFF8B4
:103CE000D091A9F1400999F80000012802D00228DA
:103CF00056D0B6E076491020CDE90001502333229A
:103D00002321694803F05CF84FF01E085E463EE050
:103D100070492020CDE90001802310220021624853
:103D200003F04EF857F8080C2D1DCDE900803088BF
:103D3000EDB2401B81B2728819235B4803F040F852
:103D40005AF834001923CDE90080B089F289401B6C
:103D500081B2554803F034F8B8681923CDE90080E2
:103D6000308B728B401B81B24F4803F029F83869C1
:103D70001923CDE90080308E728E401B81B24A48F3
:103D800003F01EF8484803F07FF82C2D01D2062CD2
:103D9000BED3641CE4B20025062C57D3062455E09C
:103DA0004B491020CDE900015023332223213E4806
:103DB00003F006F84FF01E085E463FE0454920201C
:103DC000CDE90001802310220021374802F0F8FFDE
:103DD00057F8100C2D1DCDE90080B08CEDB22844B1
:103DE00081B2F28C1923304802F0EAFF57F8080C30
:103DF0001923CDE9008030887288284481B22A488E
:103E000002F0DEFF5AF834001923CDE90080B089B2
:103E1000F289284481B2244802F0D2FFB8681923FD
:103E2000CDE90080308B728B284481B21E4802F0AD
:103E3000C7FF1D4803F028F82C2D01D2012CBDD856
:103E4000641EE4B20025012C00D801240AEBC40052
:103E50004168154802F0FAFF002100F0FF0889F8D8
:103E600000100AEBC400406800F084FC11480826EA
:103E7000CDE900601023342223210B4802F0A0FF7B
:103E80000D481023CDE90060342208F135010648C1
:103E900002F096FF89F80140034802F0F5FF9620F2
:103EA00004F014F9D6E600000844002070DC000895
:103EB000B4010020FB9D0008EB9D0008BF9900089D
:103EC000AD99000855D200084F74746F00000000CF
:103ED0004B9D00084B9B00088AB046A147A2D1E940
:103EE0000001CDE9080107CA02AB474F83E807008C
:103EF0000E25DFF81881DFF81891DFF818A1DFF838
:103F000018B1464C0026464802F0F6FCCDE90057B1
:103F10000E2300220721424802F052FFCDE900584B
:103F20000E2300221B213E4802F04AFFCDE9005932
:103F30000E2300222F213A4802F042FFCDE9005A19
:103F40000E2300224321364802F03AFFCDE9005B00
:103F50000E2300225721324802F032FF31480E234F
:103F6000CDE9005000226B212D4802F029FF2E4997
:103F70002B4802F09AFF08AB34223221284802F085
:103F800011FF2949264802F090FF02AB3F22282169
:103F9000234802F007FFA0783C2803D1A670607880
:103FA000401C607060783C2803D166702078401C0B
:103FB00020702078182800D126701C49184802F07B
:103FC00074FFA07800906378227819A105A800F00A
:103FD00099FC05AB28221621114802F0E3FE104897
:103FE00002F052FFA078401CA0704FF47A7004F0E9
:103FF0006DF888E7467269646179000032303234C6
:104000002F31302F32390000A19800081598000890
:10401000699800088598000831980008F40100208C
:10402000084400204D98000870DC000872B20008B7
:10403000253032643A253032643A2530326400004B
:1040400010B5502080F31188BFF34F8FBFF36F8FEF
:1040500004F0D6FE18B104494FF0805008600020EB
:1040600080F3118810BD000004ED00E030B593B07E
:1040700028216846FCF711F914210AA8FCF70DF96C
:10408000002401200F9410941194010412948DE8DF
:10409000130004904FF4E010CDE9081002250795B5
:1040A0006846FDF749FD08B172B6FEE70F20CDE97D
:1040B0000A054FF48060CDE90C4002210AA80E9455
:1040C000FDF73EFC08B172B6FEE712200F904FF4E8
:1040D0000040CDE911040FA8FDF7BCFB002801D07A
:1040E00072B6FEE713B030BD704700000148FEF71E
:1040F000D0B80000F0080020F0B50268164B174C4D
:10410000174D4FF08047984205D0B84203D0A042E7
:1041100001D0A84203D122F070064A683243984287
:1041200005D0B84203D0A04201D0A84203D122F466
:104130004074CA6822434C6922F080022243026024
:104140008A68C2620A688262984201D10969016381
:1041500001214161F0BD0000002C0140000400403D
:104160000008004010B501F01F030121046A9940C6
:104170008C430462016A9A401143016210BD10B57C
:10418000846842EA032224F47F440A432243826083
:1041900010BD826822F070020A4342F0070181607C
:1041A0007047000030B5036A026A22F00102026221
:1041B0004268846924F073050C682C4323F00205DF
:1041C0008B682B430A4DA8420BD123F00805CB681E
:1041D00022F440722B434D6923F0040315438A698E
:1041E0002A434260846149684163036230BD000034
:1041F000002C014030B5026A036A23F01003036209
:10420000436884690D6824F4E64444EA05248D6813
:1042100022F0200242EA05120B4DA8420ED1CD68D1
:1042200022F0800242EA05124D6923F4406343EA1A
:1042300085038D6922F0400243EA8503436084616F
:1042400049688163026230BD002C014030B5036AC9
:10425000026A22F4807202624268C46923F4007325
:1042600024F073050C682C438D6843EA05230C4D3C
:10427000A8420ED1CD6823F4006343EA05234D69BB
:1042800022F4405242EA05128D6923F4806342EA27
:1042900005124260C4614968C163036230BD000019
:1042A000002C014030B5046A026A22F48052026296
:1042B0004268C3690D6823F4E64343EA05238D6829
:1042C00024F4005444EA0534064DA84204D14D6953
:1042D00022F4804242EA85124260C3614968016467
:1042E000046230BD002C014010B5036A046A24F05A
:1042F00001040462846924F0F00444EA021423F007
:104300000A020A438461026210BD10B5036A046A9E
:1043100024F010040462846923F0A00324F47044A0
:1043200044EA023243EA01118261016210BD0000D9
:1043300008B500220221012004F03EF9484C6060DB
:10434000FFF7B2FB012004F028F9A060454802F015
:10435000B9FA207804F1600500EB800005EB8000DD
:10436000FCF7D6FA404E4FF0FF374FF000083946C1
:10437000A06804F07FFB3A466946606804F0D4FA0E
:10438000012866D19DF80100E02806D0902806D0CB
:10439000A82806D0C22806D007E0022004E00120A9
:1043A00002E0032000E0042030700021012003F02F
:1043B000FBFC88B1962003F089FE002386F800807C
:1043C0001A461946A06804F093F9207800EB8000A3
:1043D00005EB8000FCF79CFA2448214900780C3159
:1043E00000EB400001EB800068633078032802D0C6
:1043F000042810D02DE0207802282AD20A2003F0C9
:1044000065FE207800EB800005EB8000FCF78EFA5B
:104410002078401C0DE02078D8B10A2003F056FE29
:10442000207800EB800005EB8000FCF77FFA207815
:10443000401E20700B4802F0E5F90A2003F046FE0A
:10444000207800EB800005EB8000FCF761FA86F82D
:10445000008000231A461946A06804F049F986E74F
:10446000340300200844002074010020750100205E
:104470002C4F08B505460021386804F0FBFA2A4C99
:104480004FF0FF3A4FF000084FF001090326524663
:104490006946606804F048FA9DF80100A82827D012
:1044A000C2283CD0207888B3012827D00228EED13A
:1044B000286803F031FE0020FFF73AFA26706068A2
:1044C00003F0B6FDFCF716FA18480023022219463D
:1044D000006804F01DFC00231A461946386804F0F1
:1044E00007F9134802F08EF9002003F015FECEE71D
:1044F000607860B184F8009084F80180286803F047
:104500005FFF0020FFF714FA2670C0E703E084F88D
:10451000008084F80190286803F0D0FEF4E70220C0
:104520002070C5E73C030020E803002000000020C5
:10453000084400201CB505460124594802F0DCF966
:10454000DFF86081DFF860914FF00A0B4FF0000A4E
:1045500010275649524802F0A8FC28680D22002175
:1045600003684F4802F01EFC51494D4802F09DFC83
:1045700001260CE02868002150F8263006EB860062
:1045800007EB4002464802F00DFC761CF6B2287993
:10459000B042EFD84FF0FF314E46D9F8000004F09A
:1045A00069FA98F80000012804D0022821D00328D5
:1045B0003FD053E02879401EA04237DD286850F8EC
:1045C0002410374802F042FCC1B201910021344866
:1045D00002F063FC04EB8401062000EB4102019928
:1045E0001E23CDF800B02E48891C02F08EF9641C01
:1045F0001BE0012C1AD9286850F82410284802F032
:1046000025FCC1B201910021254802F046FC04EBD3
:104610008401062000EB410201991E23CDF800B071
:104620001F48891C02F071F9641EE4B288F800A0EA
:1046300014E088F800A01A4802F05EF900231A4638
:104640001946306804F054F8A86804EB840100EBC4
:104650008100FCF75DF9002003F05EFD00231A469F
:104660001946306804F044F8286850F824100C48C3
:1046700002F0ECFBC6B20121094802F00EFC04EB8B
:10468000840007EB40020BA3B11C054802F08AFB33
:10469000034802F0F9FB962003F018FD59E70000EB
:1046A00008440020740100203C030020C7C9000812
:1046B00028F500083C2D2D2D2D00000070B5044676
:1046C00000680169E26821F44051114301612169E8
:1046D000A0680843616908432168CA6841F20C6315
:1046E0009A430243CA6020684169A26921F440717B
:1046F000114341611E492068884202D1FDF7E6F965
:1047000001E0FDF7D3F900EBC00101EB0012606896
:1047100064218000B2FBF0F3B3FBF1F36FF01806F5
:104720007343B2FBF0F5B2FBF0F605EB83053223E1
:1047300003EB0515B5FBF1F5B6FBF1F605F0F00559
:1047400005EB0615B2FBF0F6B2FBF0F0B0FBF1F0B2
:104750006FF01802504306EB800003EB0010B0FB33
:10476000F1F0216800F00F002844886070BD00005F
:10477000003801402DE9FC412B4C80462046E27870
:1047800080780925762600EB8000410002B3274897
:104790000A23CDE900500022254802F011FB2548EC
:1047A0000A23CDE90050A0780022404200EB8000AF
:1047B00006EB400081B21E4802F002FBA078401CCC
:1047C000C0B2A070032822D10220A07000201DE0FA
:1047D000194F0A23CDE900570022154802F0F0FADC
:1047E000CDE90057A0780A23404200EB800006EB99
:1047F000400081B200220E4802F0E2FAA078401E8A
:1048000010F0FF00A07002D10120A070E0700B49F1
:10481000074802F04AFB02B04346BDE8F0413C22A3
:104820003421034802F0BEBA74010020BF99000889
:1048300008440020AD990008D199000870DC0008F8
:104840000020704700207047012120F8401F002100
:104850000180818001820846704730F8401F21F4B2
:104860003F4101800020704700207047FEE70000B4
:104870000EB5204C0021206804F0FCF80022022133
:10488000012003F099FE0646FFF70EF91A4802F0E0
:1048900033F81A493C20CDE90001034602222221C7
:1048A000154802F08DFA144802F0EEFA144F4FF05A
:1048B000FF352A4602A9304604F036F89DF8090073
:1048C000C228F6D1304603F0B3FBFCF713F80023FF
:1048D00002221946386804F01BFA00231A461946CA
:1048E000206803F005FF044801F08CFF002003F06E
:1048F00013FCDEE73C03002008440020E19F000891
:10490000000000200FB4084B10B504A902AA0398B8
:1049100000F02CF8044602A9002000F0C8F9204657
:1049200010BC5DF814FB0000AF4C00080907090E2D
:10493000002804DB00F1E02080F80014704700F04C
:104940000F0000F1E02080F8141D704702E008C855
:10495000121F08C1002AFAD170477047002001E0F9
:1049600001C1121F002AFBD1704700002DE9FF4F43
:104970008BB088460546002606E025280BD0DDE9E9
:104980000D1290476D1C761C28780028F5D10FB0C9
:104990003046BDE8F08F0024A146A2460122AE4970
:1049A00000E0044315F8013F203B02FA03F00842FF
:1049B000F7D128782A2810D06FF02F022878A0F19C
:1049C0003001092915D809EB890102EB410144F0B6
:1049D000020400EB01096D1CF0E758F8041B5FEAC4
:1049E000010903D544F40054C9F1000944F002045C
:1049F0006D1C28782E2817D115F8010F44F00404F7
:104A00002A280ED06FF02F022878A0F13001092952
:104A10000AD80AEB8A0102EB410100EB010A6D1C86
:104A2000F2E758F804AB6D1C28786C280FD006DC30
:104A30004C2817D068280DD06A2814D104E07428B7
:104A400010D07A280FD10DE044F400140AE044F4A9
:104A5000801401E044F440146978814202D104F5E5
:104A600080146D1C6D1C2878692865D006DC002830
:104A70008DD0632827D0642806D15DE06E2808D049
:104A800073282AD0752877D0DDE90D129047761C5F
:104A9000E0E0C4F30250022809D003280DD0D8F872
:104AA000001004280DD00E6008F10408D2E0D8F8F8
:104AB0000010F217C1E90062F6E7D8F800100E8086
:104AC000F2E70E70F0E718F8041B8DF800100020D4
:104AD0008DF80100EB46012003E058F804BB4FF0CD
:104AE000FF3061074FF0000701D40AE07F1C5745F3
:104AF0000DDA8742FADB1BF807100029F6D106E031
:104B00007F1C8742FCDB1BF807100029F8D1DDE988
:104B10000D23A9EB07008146214600F0B1F830448F
:104B2000C61904E0DDE90D121BF8010B90477F1E4A
:104B3000F8D22146484688E058F8040BC4F30251E5
:104B40004FF00A0B032900D100B2042900D140B272
:104B5000002802DA40422D2102E0210505D52B2153
:104B60008DF82410012104E006E0E10710D0202197
:104B7000F6E708AF089113E058F8040BC4F30251AC
:104B80004FF00A0B032900D180B2042900D1C0B232
:104B90000021EEE75946FBF747FD303107F8011DCC
:104BA0000028F7D1ADEB070000F1200B600702D51C
:104BB00024F4803401E04FF0010ADA4502DDAAEB6B
:104BC0000B0000E00020824600EB0B010898014436
:104BD000A9EB01000A90E00306D4DDE90D2321468C
:104BE0000A9800F04DF806444FF0000908E009A9C2
:104BF00011F80900DDE90D12904709F10109761C51
:104C000008998945F3DBE0030CD5DDE90D23214646
:104C10000A9800F035F8064404E0DDE90D12302072
:104C20009047761CBAF10001AAF1010AF5DC05E013
:104C3000DDE90D1217F8010B9047761CBBF100015E
:104C4000ABF1010BF4DC0A982146DDE90D2300F0FD
:104C500005F806446D1C97E6092801002DE9F0418E
:104C6000044600251E461746880404D405E039464C
:104C70002020B0476D1C641EF9D52846BDE8F081A0
:104C80002DE9F041044600251E469046C80301D593
:104C9000302700E02027880404D505E04146384647
:104CA000B0476D1C641EF9D52846BDE8F0810A683E
:104CB000531C0B60107070473EB51B4CA078FF284A
:104CC0002FD14FF4FA6003F001FA00204021CDE922
:104CD00000108023154A0146029000F077F8002169
:104CE00040238022084600F05BF9FEF7EBFE1048F7
:104CF00001F088FD0F48002302221946006804F0E5
:104D000007F80D4800231A461946006803F0F0FC26
:104D1000A06B03F001FA606B03F0FEF9002003F0D2
:104D2000FBF901203EBD0000F8000020EF930008D1
:104D300008440020000000203C0300203EB51E4C2B
:104D4000E078FF2802D0A078FF2832D14FF4FA6033
:104D500003F0BCF900204021CDE900108023174A60
:104D60000146029000F032F80021402380220846DC
:104D700000F016F9FEF7BCFE114801F043FD1148A2
:104D8000002302221946006803F0C2FF0E480023E8
:104D90001A461946006803F0ABFC606B03F0BCF9DF
:104DA000A06B03F0B9F9E06B03F0B6F9002003F053
:104DB000B3F901203EBD000034010020EF9300084C
:104DC00008440020000000203C0300202DE9FF4F94
:104DD0008DB01F461C990E98DDF86880401AC0B24D
:104DE000089008F10700C0080B900898002600F012
:104DF000070003900E984044C0B20290C4E00898A7
:104E000000EBC60000F0FF0A0AF10800C0B20190F2
:104E10001C98A8B10E990198884256D35E498968BA
:104E2000884252D802998A45FBD8FF2005900E98F7
:104E3000824508D2A0EB0A01FF208840C0B200E002
:104E4000FF20059007E0DDE90101884203D9411AFE
:104E5000FF20C840F5E750484FEADA0241684A436C
:104E600007920F9A06FB07220692039A72BB836889
:104E700081469A452AD24FF0080AB8F1080F00D2AD
:104E8000C24600241BE00D982044C5B2D9F80400A6
:104E9000854212D206981B99204401F073FC0599B3
:104EA00053460140079800220544D9F80000405DB0
:104EB00001F07AFCD9F800104855641CE4B2BC42F9
:104EC000E1D3A8EB0A0000F0FF085BE0019A44463A
:104ED000D2084A4300250A9251E003984446C0F1A3
:104EE000080081460490A04200D9C1460D9828448C
:104EF00000F0FF0B2848406883453ED206981B9976
:104F0000284401F03FFC0599084023490090896836
:104F10008A4511D2079920485944099100684B46A7
:104F2000039A405C009901F03FFC1B4A0999126802
:104F30005054A4EB0900C4B2FCB11748019982682F
:104F400091421AD2C9F1080101F0FF09A14500D927
:104F5000A146049A00991048D1400A9A00689344E7
:104F60004B4610F80B00002201F01EFC0A490968AC
:104F700001F80B00A4EB0900C4B26D1CEDB2BD42F8
:104F8000ABD3A046761CF6B20B988642FFF437AF3F
:104F900011B0BDE8F08F0000E8000020FEF706B871
:104FA0002DE9F0411C4615460E460746FBF776FEF6
:104FB00023462A4631463846FDF7FAFFBDE8F04160
:104FC000FEF7AEBD044A10B5111F081FFDF7F2FF32
:104FD00001490C39086010BDF40000202DE9FE4F96
:104FE0009B4691460F4606460025DFF8988043E031
:104FF000C5EBC50202EB0901CCB2082200210092E8
:10500000CDE901712038C0B21F4900EB8000421881
:10501000052359462046FFF7D9FE082305225946A5
:105020002046FFF7BDFF27B384B1A4F1010A0AF0BF
:10503000FF01FF235A46D8F8000001F0A9FB0AF04F
:10504000FF00082301225946FFF7AAFFD8F80410F1
:10505000491F8C420DD2641DE1B2FF235A46D8F895
:10506000000001F095FBE0B2082301225946FFF74A
:1050700097FF6D1CEDB2761C30780028B8D1BDE8E2
:10508000FE8F0000E80000200A9200082DE9F041A0
:105090001D46164688460446FBF70AF9C0B2401C76
:1050A00000F054FD07462146FBF709F92B4632462E
:1050B00041463846FFF792FF3846BDE8F04100F020
:1050C00001B8000010B5002821D0114B0022001FAC
:1050D000196803E0814203D80A4649680029F9D1DA
:1050E00052B11368841A9C4204D1006818441060BD
:1050F000104602E0506000E0186039B102680B1AF7
:10510000934203D10B681A4402604968416010BDA4
:10511000FC0300202DE9F04FD6488FB0C188A029AC
:105120002BD28178FF2928D00021D34C81468A4692
:105130006068FBF731FAC5B22068FBF72DFA4FF033
:10514000000B0221CDE9001B0B46C0B2CB4A294619
:10515000CDF808B0FFF73AFE6068FBF71DFAC5B25C
:105160002068FBF719FAC0B2082302222946FFF78C
:1051700017FFBAF1000F02D00BE00121D5E7A168BB
:105180002068FBF7A5F82060E1686068FBF7A0F8ED
:1051900060600020029021680391A0466068FBF7E0
:1051A000FBF90027C5B23E465FF00004D9F80C00B9
:1051B000C05DD0BBB0000590FBF7D8F90399FBF7B1
:1051C0001FFA32D8042000EB8600FBF7CFF90399D1
:1051D000FBF720FA29D2082000EB84010E91A942A6
:1051E00023D80C2101EB8401A9421ED9D9F80C1057
:1051F00001220323CA55CDE9000B0E98CDF808B063
:10520000C1B205989D4AC0B2FFF7E0FD0E98082391
:10521000C1B205980322C0B2FFF7C2FE012002907E
:10522000B9F80600401CA9F806007F1C641CE4B213
:10523000FFB2052CBAD3761CF6B2202EB4D3D9F81F
:1052400010004C46801EFBF791F90399FBF7D8F943
:1052500013D28B490398884203DD4146C8F800B059
:1052600006E02069801EFBF781F94146C8F800007E
:10527000896881F00041C8F80810039810F1FF4FC9
:1052800007D3C8F800B0D8F8081081F00041C8F87A
:1052900008100027BAF1000F32D16069801F8542E3
:1052A0002ED3F02D2CD226462079FBF75FF90399F7
:1052B000FBF7A6F924D830790C30FBF757F903999E
:1052C000FBF7A8F91CD870690127801FFBF74EF97E
:1052D000C8F80400D8F80C004646B0F5000F02DB11
:1052E00080F00040F060FAF7ADFFFBF736F96FF0A1
:1052F0001D01FBF745F84FF07E51FBF73BF8B0601E
:105300005AEA07001AD16069811E8D4201D80299BC
:10531000A1B1F02D02D9C8F804B009E0029939B959
:10532000401EFBF723F9C8F80400A078401EA070C7
:10533000D8F80C1081F00041C8F80C104546D8F898
:105340000400FBF729F9C6B22868FBF725F902210A
:10535000CDE9001B494A0B46C0B2113A3146CDF89F
:1053600008B0FFF733FD6868FBF716F9C6B2286886
:10537000FBF712F9C0B2082302223146FFF710FEF4
:10538000207858B3002684F800B037460025E0683E
:10539000805DC8B90820CDE9000B00EB8509374ACC
:1053A0004FEA870809F0FF0108F0FF0003230F3AD6
:1053B000CDF808B0FFF70AFD09F0FF0108F0FF0083
:1053C00008230322FFF7ECFD761C6D1CEDB2F6B24C
:1053D000052DDCD37F1CFFB2202FD7D3E28829A173
:1053E0000BA8FFF78FFA00231A4619460BA8FFF700
:1053F000F5FDA078FF2827D0002522E0A0784FF007
:105400000801CDE9001B8542CDF808B0207C4FF0A3
:10541000070300EBC500A0F11800C0B201D21A4A80
:1054200000E0164A0121FFF7D1FC207C082300EBA5
:10543000C5001838C0B207220121FFF7B1FD6D1C6D
:10544000EDB2E0788542D9D3E088A02805D32023A7
:10545000322200210DA0FFF719FEA078FF2805D108
:105460002023222200210BA0FFF710FE0FB0BDE881
:10547000F08F0000F8000020E8430020F7910008BA
:1054800000007043257500000392000857494E2123
:105490000000000047414D454F5645522100000095
:1054A0000EB54D4A111F081FFDF784FD4A4C183CEC
:1054B000E061FFF787FDFFF771FDFEF789FB012033
:1054C0002070002204210F2003F076F820620022D1
:1054D00002210F2003F070F8A062FEF7E5FAFBF757
:1054E000E5FB60621E2003F063F801462063A06ABA
:1054F00003F042F8216B606A03F03EF80025657006
:1055000020694008FBF732F8344E306060690A3891
:10551000FBF72CF870604FF03F40B0603048F0600F
:10552000A02001F0A5F8A021E060FAF7B6FE032064
:10553000E070A070E580208AFA2101EB5000207114
:10554000284C0021206803F095FA234819262030C2
:10555000CDE9006000233C2223A1264803F080FB14
:105560001D4800231C30CDE90060502222A12648AE
:1055700003F076FB254F40260021012002F014FCA9
:1055800010B3CDE9006500218023214A0846029529
:10559000FFF71CFC0021402380220846FFF700FD96
:1055A000FEF790FA1B4801F02DF90023022219465C
:1055B000386803F0ADFB00231A461946206803F053
:1055C00097F8002002F0A8FDFFF7A4FDFFF774FB99
:1055D000322002F07BFDCFE710010020E8430020DD
:1055E0009A9919BF3C030020496E70757454617319
:1055F0006B000000552E0008706C6174666F726D50
:105600005F7461736B000000A15D00080000002062
:10561000EF930008084400202DE9FE4FBE4DA87806
:10562000FF2827D0E878FF2824D00026BB4C6068EC
:10563000FAF7B2FFC7B22068FAF7AEFF4FF0000BDF
:105640000222CDE9002B1346C0B2B54A3946CDF847
:1056500008B0FFF7BBFB6068FAF79EFFC7B220688F
:10566000FAF79AFFC0B2082302223946FFF798FCE6
:1056700016B10BE00126D9E7A1682068FAF728FEE9
:105680002060E1686068FAF723FE6060D4E900807A
:10569000FAF782FFC7B26869801EFAF767FF4146D2
:1056A000FAF7AEFF0ED29F49884502DDC4F800B07C
:1056B00004E06869801EFAF759FF2060A06880F056
:1056C0000040A06018F1FF4F05D3C4F800B0A068F7
:1056D00080F00040A0604FF0000AD146002E61D15A
:1056E000A8690D3887422FD3F02F2DD28A48401D4C
:1056F0000078FAF73BFF4146FAF782FF24D8864844
:10570000401D00780C30FAF731FF4146FAF782FF6E
:105710001AD8A8694FF0010A0E38FAF727FF60601F
:10572000E068B0F5000F02DB80F00040E060FAF7BF
:1057300089FDFAF712FF6FF01D01FAF721FE4FF015
:105740007E51FAF717FEA06067B30B2F2AD8724874
:10575000C01D0078FAF70AFF4146FAF751FF21D839
:105760006D48C01D00780C30FAF700FF4146FAF78B
:1057700051FF17D86C486060E0684FF0010910F1E4
:10578000FF4F02D380F00040E060FAF75BFDFAF7CC
:10579000E4FE6FF01D01FAF7F3FD4FF07E51FAF7CA
:1057A000E9FDA06056EA0A000FD1A869A0F10A013C
:1057B0008F420AD90938FAF7D9FE6060E878401EAE
:1057C000E870E06880F00040E06056EA09060AD11F
:1057D000082F08D255486060A878401EA870E0687D
:1057E00080F00040E0606068FAF7D6FEC7B220683B
:1057F000FAF7D2FE0221CDE9001B494A0B46C0B29E
:105800005E461A3A3946CDF808B0FFF7DFFA60680D
:10581000FAF7C2FEC7B22068FAF7BEFEC0B208238C
:1058200002223946FFF7BCFBE8780827FF2829D079
:10583000002424E0E878CDE9007684420296287EB0
:105840004FF00703A0F10800C1B2287D00EBC400AF
:10585000A0F12800C0B201D2354A00E0304AFFF77B
:10586000B5FA287E08230838C1B2287D072200EB4C
:10587000C4002838C0B2FFF793FB641CE4B2287957
:105880008442D7D3A878FF2838D000241EE0CDE981
:10589000007684420296287D4FF0070300EBC40097
:1058A000A0F12800C0B201D2214A00E01C4A002128
:1058B000FFF78CFA287D082300EBC4002838C0B21B
:1058C00007220021FFF76CFB641CE4B228798442B4
:1058D000A878DCD3FF2811D0E878FF2819D1142349
:1058E0002222002113A0FFF7D1FB2823222200212E
:1058F00013A003B0BDE8F04FFFF7C8BB142322226A
:1059000000210CA0FFF7C2FB2823222200210FA0B8
:10591000EFE7BDE8FE8F000034010020F8430020CF
:105920000998000800007043000040410000104149
:105930000392000847414D454F5645522100000053
:10594000504C4159314C4F5345210000504C415966
:10595000324C4F53452100000EB5FFF733FBFFF7E4
:105960001DFBFEF735F9534C012004F11C02207099
:10597000111F081FFDF71EFB2061A18A6FF00500B3
:1059800000EB5100611D0870227E103A4A70891C9C
:10599000002208700820487002210F2002F00CFE3F
:1059A000A062FEF781F8FBF781F9E0620022042192
:1059B0000F2002F001FE2062002204210F2002F0DD
:1059C000FBFD60621E2002F0F3FD01462063A06A29
:1059D00002F0D2FDD4E90B0102F0CEFD364E0021DB
:1059E000306803F047F804F13C001925CDE9005078
:1059F0000023322231A1354803F032F904F134009A
:105A0000CDE90050631D5A2231A1354803F028F931
:105A100004F13800CDE90050E31D5A2231A1354888
:105A200003F01EF960694008FAF7A0FD324D2860C6
:105A3000A0691238FAF79AFD68604FF03F40A860FD
:105A40002E48E86005202071A070E07000242C4FE3
:105A5000402500BFFFF7E0FD0021012002F0A4F97E
:105A600010B3CDE9005400218023264A0846029451
:105A7000FFF7ACF90021402380220846FFF790FA97
:105A8000FEF736F8204800F0BDFE0023022219463A
:105A9000386803F03DF900231A461946306802F0D1
:105AA00027FE002002F038FBFFF748F9322002F011
:105AB0000DFBCFE7340100203C030020496E7075D8
:105AC00074446174617461736B000000C92E000836
:105AD000706C6174666F726D5F7461736B3100001E
