:020000040800F2
:10000000D03E00209D010008D3290008E11F000810
:10001000D1290008B10600080D35000800000000D5
:1000200000000000000000000000000005010008C2
:10003000CB0600080000000049010008E52F000879
:10004000B7010008B7010008B7010008B7010008B0
:10005000B7010008B7010008B7010008B7010008A0
:10006000B7010008B7010008B7010008B701000890
:10007000B7010008B7010008B7010008B701000880
:10008000B7010008B7010008B7010008B701000870
:10009000B7010008B7010008B7010008B701000860
:1000A000B7010008B7010008B7010008B701000850
:1000B000B7010008B701000891300008B701000837
:1000C000B7010008B7010008B7010008B701000830
:1000D000B7010008B7010008B7010008B701000820
:1000E00009070008B7010008B7010008DFF810D0C1
:1000F00000F05EFA00480047C5380008AFF3008002
:10010000D03E0020224B19680868B0E8F00F80F359
:100110000988BFF36F8F4FF0000080F311884EF015
:100120000D0E70470000000006480068006880F36C
:10013000088862B661B6BFF34F8FBFF36F8F00DFE1
:1001400000BF00BF08ED00E0EFF30980BFF36F8F41
:100150000F4B1A6820E9F00F106008B54FF05000FF
:1001600080F31188BFF34F8FBFF36F8F05F0CCFD85
:100170004FF0000080F31188BDE808401968086856
:10018000B0E8F00F80F30988BFF36F8F704700BFAE
:1001900020000020EFF305807047000006488047EC
:1001A00006480047FEE7FEE7FEE7FEE7FEE7FEE75C
:1001B000FEE7FEE7FEE7FEE78D300008ED000008F1
:1001C0002DE9F05F0546002092469B46884606468C
:1001D000814640241BE0284641464746224600F01F
:1001E00020F853465A46C01A914110D3114618467A
:1001F000224600F071F92D1A67EB01084F4622469E
:100200000120002100F068F917EB00094E41201E83
:10021000A4F10104DFDC484631462A464346BDE8E6
:10022000F09F202A04DB203A21FA02F000217047D7
:1002300021FA02F3D040C2F120029140084319464E
:10024000704740EA01039B0703D009E008C9121F69
:1002500008C0042AFAD203E011F8013B00F8013B80
:10026000521EF9D27047D2B201E000F8012B491EAC
:10027000FBD270470022F6E710B513460A46044643
:100280001946FFF7F0FF204610BD2DE9FE4F81EA29
:10029000030404F0004421F0004100944FF0000BEF
:1002A00023F0004350EA01045ED052EA03045BD01D
:1002B000C3F30A54C1F30A552C44A4F2F334019455
:1002C000A0FB0254C1F3130141F48011C3F31303E3
:1002D00043F4801301FB024400FB034E840A970A97
:1002E00044EA815447EA8357A4FB076802958D0AC4
:1002F00005FB07854FEA932C04FB0C542705029D50
:100300004FEA065847EA1637B5EB08056EEB070CBF
:10031000870E920E47EA811742EA8312A7FB020179
:10032000B6EB0B0164EB00042B0D43EA0C335E18B3
:1003300044EB1C50DA465146E7FB0201C5F31304B7
:100340004FEA0B3343EA14534FEA0432019C43EA69
:100350000603A4F10C040294009CCDE900B400F063
:10036000D9F803B0BDE8F08F00200146F9E72DE988
:10037000F04D81EA030404F0004B21F000451446DF
:100380004FF0000A23F0004150EA050220D054EA61
:1003900001021DD0C5F30A570246C5F31303C1F38A
:1003A0001300C1F30A5640F4801543F48013A7EB01
:1003B0000608101BD64608F2FD3873EB050002D381
:1003C00008F1010801E092185B41B8F1000F03DA6F
:1003D00000200146BDE8F08D00204FF48011064654
:1003E00084460EE0171B73EB050705D3121B63EB66
:1003F000050306434CEA010C49084FEA3000921805
:100400005B4150EA0107EDD152EA030012D082EAC3
:10041000040083EA0501084305D0101BAB4106D256
:100420000122002306E000224FF0004302E06FF0BB
:10043000010253101AEB06004CEB085110EB0A00B6
:1004400041EB0B01BDE8F04D00F055B80EB5C10F02
:1004500080EAE0700844CA07002140F233438DE887
:100460000E000A460B4600F055F803B000BD70B50B
:10047000C1F30A5201F000450024C1F3130140F218
:10048000FF3341F480119A4201DA002070BD40F23E
:1004900033439A42A2F2334203DC5242FFF7C1FED9
:1004A00000E090402C43F1D0404270BD30B50B4687
:1004B000014600202022012409E021FA02F59D4294
:1004C00005D303FA02F5491B04FA02F52844151E68
:1004D000A2F10102F1DC30BD202A04DB203A00FA4F
:1004E00002F1002070479140C2F1200320FA03F38B
:1004F00019439040704710B5141E73F1000408DAD8
:10050000401C41F1000192185B411A4301D120F0D7
:10051000010010BD2DE9F04D92469B4611B1B1FA94
:1005200081F202E0B0FA80F220329046FFF7D4FF69
:1005300004460F4640EA0A0041EA0B0153465A4678
:10054000084313D0114653EA010019D0C8F1400204
:100550005046FFF766FE05460E465046594642464F
:10056000FFF7BAFF084305D0012004E020463946D2
:10057000BDE8F08D0020054346EAE0762C43374382
:100580000A986305E40AA0EB08000022FD0A44EA89
:1005900047540A3002D500200146E9E70105101949
:1005A0006941DDE9084500196941BDE8F04DA2E760
:1005B000064C074D06E0E06840F0010394E80700B0
:1005C00098471034AC42F6D3FFF794FD50A90008C9
:1005D00070A9000870B58C1810F8015B15F00703BE
:1005E00001D110F8013B2A1106D110F8012B03E0CC
:1005F00010F8016B01F8016B5B1EF9D12B0705D4D4
:100600000023521E0DD401F8013BFAE710F8013B1C
:10061000CB1A921C03E013F8015B01F8015B521E38
:10062000F9D5A142D8D3002070BD000070B50446B2
:1006300000688168C943C90717D1816821F00101A9
:10064000816000F0CFFA05460AE000BF00F0CAFA68
:10065000401B022804D920688068C043C00706D028
:1006600020688068C043C007F0D0002070BDA06A39
:1006700040F01000A062E06A40F00100E06201205A
:1006800070BD000040780949E02807D0902807D0C5
:10069000A82808D0C22805D1042002E0022000E0EA
:1006A0000120087070470320FBE70000F0000020E5
:1006B000FEE71CB582681821CDE90012D0E90010D0
:1006C0000023802205F03EFE1CBD70478068006854
:1006D00005F044BA2DE9F04107460024084E094DC3
:1006E00008E000BF002356F824001A46394605F0FA
:1006F000EDFC641CA8688442F4DBBDE8F0810000D6
:1007000090350020B000002010B54FF4806000F05C
:1007100063F94FF4006000F05FF9BDE810404FF45A
:10072000805000F059B972B6FEE70000F8B5002419
:10073000009490F824202546012A12D0012280F846
:1007400024204A681F23072A0DD20668776B521EA1
:1007500002EB820293409F430B6893401F437763F1
:1007600019E00220F8BD06680D2A0AD2376BD21FA5
:1007700002EB820293409F430B6893401F43376311
:1007800009E0F76A0D3A02EB820293409F430B683F
:1007900093401F43F7620A68072306680A2A0AD3B0
:1007A000F7680A3A02EB420293409F438B689340FA
:1007B0001F43F76008E0376902EB420293409F4312
:1007C0008B6893401F4337610A68102A01D0112AB1
:1007D00020D1124B02689A4217D193681B0219D498
:1007E000936843F4000393600968102912D10C49FF
:1007F0000C4A0968B1FBF2F101EB8101490000E00C
:10080000491E00910029FBD104E0816A41F02001DA
:100810008162012480F824502046F8BD0024014064
:100820001C00002040420F002DE9F0414FF000076E
:1008300004003D467ED0A06A002628B9E66284F80E
:100840002460204600F07EF82046FFF7EFFEA16A04
:10085000C90600D420B1A06A40F01000A06269E08F
:10086000A16A21F4885141F00201A1626268E16944
:10087000237B0A4347EA43010A43A1684FF4807788
:10088000B94209D0012907D05FF0000194F814C0E3
:10089000BCF1010F02D00AE03946F7E7F3B1A36AD1
:1008A00043F02003A362E36A43F00103E362236899
:1008B000D3F804C02CF4694C4CEA010CC3F804C012
:1008C00021688B68DFF870C003EA0C0313438B6068
:1008D000A168B9420BD0012909D00CE0DFF85CC057
:1008E000A3690CEB43330B4343F40061DFE7218A38
:1008F0000D05A5F580152168CB6A23F470032B4301
:10090000CB62216889680E4B1940914208D1E6629A
:10091000A16A21F0020141F00101A162BDE8F0816C
:10092000A06A20F0020040F01000A062E06A40F0EF
:100930000100E0620120F1E7FDF7E1FF00E0FFFFC9
:10094000FE0E1FFF00B585B00021009101910291BC
:10095000039100680E49884218D10E48816941F41C
:1009600000718161816901F400710491816941F034
:10097000040181618069694600F004000490082048
:10098000009003200190044800F032F805B000BD4B
:1009900000240140001002400008014070B50446E8
:1009A00000F020F90546601C02D004480078044499
:1009B00000F018F9401BA042FAD370BD10000020CF
:1009C000B0F5806F04D0B0F5805F03D102F084B839
:1009D00001F0F8BC70470000044910B50A680242F3
:1009E00002D00860FFF7ECFF10BD000014040140C6
:1009F0002DE9F84FDFF8B8910024A9F1040B234644
:100A00000F2709F1040AABF1040EC9E00125A54046
:100A10002A40AA427DD1674ED1F804C0ACEB06084B
:100A2000B44532D014DCBCF1030F3AD009DCBCF180
:100A3000000F2AD0BCF1010F1CD0BCF1020F31D144
:100A40001DE0BCF1110F17D0BCF1120F2AD119E033
:100A5000B8F5881F19D006DCB8F5803F15D0B8F579
:100A6000801F1FD111E0B8F5001F0ED0B8F5041F8C
:100A700018D10AE0CB6815E0CB681B1D12E0CB68EB
:100A800008330FE0CB680C330CE08B682BB1012BE3
:100A90004FF0080303D0456104E0042302E0056140
:100AA00000E00023FF2A01D8064601E000F1040619
:100AB0004FEA840501D9A5F12005D6F8008007FA90
:100AC00005FC28EA0C0803FA05F548EA0508C6F80B
:100AD00000804D68ED0062D5374DAE6946F00106E5
:100AE000AE61AD6924F0030605F001050095334DB4
:100AF00006EB050CDCF80850A607360F07FA06F8D7
:100B000025EA0805DFF8B880404503D14FF000081A
:100B100017E044E0DFF8AC80404502D14FF0010817
:100B20000FE0DFF8A480404502D14FF0020808E052
:100B3000DFF89880404502D14FF0030801E04FF004
:100B4000040808FA06F848EA0508CCF808804D6859
:100B5000D9F80060ED024D4601D5164300E09643FA
:100B60002E604D68DAF80060AD02554601D5164397
:100B700000E096432E604D68DBF80060AD035D46F3
:100B800001D5164300E096432E604D68DEF8006004
:100B9000ED03754601D5164300E096432E60641CB4
:100BA0000D682A46E5407FF431AFBDE8F88F0000BC
:100BB0000804014000001110001002400000014034
:100BC00000080140000C01400010014000140140E9
:100BD0008068084000D0012070470AB10161704769
:100BE0000904FBE7014880687047000010000020FE
:100BF00070B5040025D094F83D00002520B984F894
:100C00003C50204600F04EF9242084F83D00206836
:100C1000016821F0010101602068016841F4004190
:100C200001602068016821F40041016000F0E0FBF0
:100C30004D4A6168914201D84C4900E04C498842D4
:100C400001D2012070BD4B492368B0FBF1F15E6811
:100C500026F03F060E435E606368934206D94FF468
:100C6000967359434FF47A73B1FBF3F12368491C2F
:100C70001E6A26F03F06314319626168914210D81E
:100C80004900401EB0FBF1F2521CC2F30B02042AD1
:100C900001D2042022E0B0FBF1F0401CC0F30B00B5
:100CA0001CE0A268F2B301EBC10303EB0116431E83
:100CB000B3FBF6F35B1C43F480431B0549D092B3AE
:100CC00001EBC10202EB0111401EB0FBF1F0401C30
:100CD000C0F30B0040F4804040F400402168CA6932
:100CE0004CF6FF739A431043C861D4E907100143DF
:100CF0002068026822F0C00211430160D4E90301B8
:100D000001432068826848F2FF339A4311438160AF
:100D1000D4E9050108432168CA6822F0FF021043A4
:100D2000C86001E00EE016E02068016841F00101B2
:100D300001602564202084F83D00256384F83E503E
:100D4000002070BD01EB4106431EB3FBF6F35B1CB4
:100D5000B3E70120C2E701EB4101401EB0FBF1F017
:100D6000401CC0F30B00B7E7A086010080841E0082
:100D700000093D0040420F002DE9F84F1F46904604
:100D80008A460446DDF82890FFF72CFF054694F8C4
:100D90003D0020287FD1192301224049204600959B
:100DA00001F0B0F9002876D194F83C00012872D007
:100DB000012084F83C0020680168C90703D101685C
:100DC00041F0010101602068016821F400610160C7
:100DD000212084F83D00102084F83E00002626647F
:100DE000C4F824806785608D20852D48E0622B46FD
:100DF0004A465146204601F00BF990B920684169F6
:100E00008069009036E02A464946204601F020FAE3
:100E100050B1206C042804D12068016841F40071AD
:100E200001600120BDE8F88F606A216800780861E0
:100E3000606A401C6062618D491E6185218D491E7A
:100E400089B2218522685369DB435B070BD451B11A
:100E500000781061606A401C6062608D401E608591
:100E6000208D401E20852A464946204601F01EF965
:100E70000028CED1208D0028C5D154F83D0B016843
:100E800041F400710160202004F81E09E6776677BE
:100E90000020C7E7FFE70220C4E7000002001000BF
:100EA0000000FFFF10B586B0002100910191029172
:100EB000039100680F4988421AD10F4CA06940F095
:100EC0000800A061A069694600F008000490C020F5
:100ED000009012200190032003900848FFF788FD3E
:100EE000E06940F40010E061E06900F40010049053
:100EF00006B010BD0054004000100240000C01403C
:100F00000248816802781144816070471000002017
:100F1000074810B5016841F010010160032000F09E
:100F2000A7F80F2000F006F800F050F8002010BDE0
:100F30000020024030B505461F4887B0C16941F026
:100F40000401C161C06906A900F00400009001A875
:100F500000F02EFA0498B0B100F04AFA40001749A8
:100F6000174AB0FBF1F11748491E0260416040F298
:100F7000E7320021C0E903218160816100F000FDBA
:100F8000040003D015E000F033FAE8E70D4800F064
:100F900043FD04000DD11E2000F03CF8102D07D2B7
:100FA000002229461E2000F043F80748056000E0B3
:100FB000012407B0204630BD0010024040420F001F
:100FC000000800408C060020140000200F4808B5DF
:100FD000816941F001018161816901F001010091A4
:100FE000C16941F08051C161C069002200F08050A8
:100FF00000900F21901E00F01BF80548416821F079
:10100000E06141F00071416008BD00000010024045
:1010100000000140002809DB00F01F02012191407F
:101020004009800000F1E020C0F800117047000086
:10103000F0B40E4B1B680C46C3F30223C3F1070543
:10104000042D00D90425191D072901D2002300E031
:10105000DB1E012606FA05F1491E214099409E40FB
:10106000761E16403143F0BC02F066BA0CED00E08B
:10107000064900F0070208684FF6FF03184040EAEF
:101080000220034A10430860704700000CED00E0A6
:101090000000FA052DE9F04186B0040004D094F870
:1010A000A902002520B108E0012006B0BDE8F081CA
:1010B00084F8A852204600F05BF8032084F8A902C7
:1010C000206802F01AFA04F11001142288466846DA
:1010D000FFF7B7F894E80F0002F002FA0227D0BB3E
:1010E0000021206802F010FA002001260EE000BF67
:1010F00000EB800104EBC10181F8296001F8280FA1
:10110000401CCD700D614D61C0B28D61616881423E
:10111000EED8002012E000BF00EB800104EBC1011B
:1011200081F8695181F8680181F86B51C1F87851F3
:10113000C1F87C51401CC0B2C1F880516168814245
:10114000EAD8142241466846FFF77BF894E80F007E
:1011500002F0CAF910B184F8A972A5E784F8245006
:1011600084F8A962206802F0BDF900209DE7000024
:1011700008B500680649884208D10648C16941F4AB
:101180000001C161C06900F40000009008BD0000CA
:10119000005C0040001002402DE9F843054600784D
:1011A000354CC00754D0E0690026C00008D4E0697F
:1011B00040F08050E061E069012600F0805000902E
:1011C0002E480168C90512D40168804641F4807137
:1011D0000160FFF707FD074605E000BFFFF702FDCE
:1011E000C01B642823D8D8F80000C005F6D5206AB3
:1011F00010F4407021D0A98801F4407181421CD0C4
:10120000206A1F49012220F440700A6000220A600F
:101210002062C00711D0FFF7E5FC074641F288388D
:1012200008E000BFFFF7DEFCC11B414502D90320E7
:10123000BDE8F883206A8007F4D5206A696820F445
:101240004070084320621EB1E06920F08050E061E8
:101250002878800705D56068A96820F440400843D5
:1012600060602878C00605D56068E96820F48000D1
:10127000084360600020DBE700100240007000407F
:10128000400442422DE9F0470F46050061D0434E2D
:10129000306800F00700B84209D2306820F007003B
:1012A00038433060306800F00700B84251D12868F8
:1012B0003B4C810712D5400703D5606840F4E060DD
:1012C00060602878000703D5606840F46050606073
:1012D0006068A96820F0F000084360602878C007C3
:1012E00028D06868012810D02168022810D089070A
:1012F00000292EDA616821F0030101436160FFF7E4
:1013000071FC804641F288390DE021688903EFE7DE
:101310008901EDE7FFF766FCA0EB0801494502D91A
:101320000320BDE8F0876068696800F00C00B0EB4E
:10133000810FEFD1306800F00700B8420BD9306858
:1013400020F0070038433060306800F00700B842F2
:1013500001D00120E5E72878400705D56068E968F5
:1013600020F4E060084360602878000706D56068D4
:10137000296920F4605040EAC100606000F058F82C
:101380006168084AC1F30311515CC840064908600E
:1013900006480068FFF7CEFD0020C2E700200240AB
:1013A00000100240726700081C000020140000209A
:1013B0000F2202600C4A536803F003034360536832
:1013C00003F0F0038360536803F4E063C360526882
:1013D0004FF4E06303EAD20202610448006800F0BF
:1013E0000700086070470000001002400020024023
:1013F0000448054900684968044AC1F30221515C68
:10140000C84070471C00002000100240826700089E
:101410000448054900684968044AC1F3C221515C87
:10142000C84070471C00002000100240826700087E
:101430000E4A51680E4801F00C03042B11D0082B02
:101440000FD10C48C1F38343C903C05C0AD551686E
:10145000084AC1F34041921E515C054A5043B0FB1B
:10146000F1F0704704494843704700000010024003
:1014700000127A006267000800093D002DE9F84F6C
:10148000040070D02078C04DC00749D06868C0F310
:101490008100012807D06868C0F38100022809D1C3
:1014A0006868C00306D52868800339D560680028BD
:1014B000E7D035E06068B0F5803F0BD010B1B0F5F3
:1014C000A02F11D0286820F480302860286820F4EC
:1014D000802002E0286840F480302860606890B185
:1014E000FFF780FB06460AE0286840F48020286069
:1014F000F0E700BFFFF776FB801B642873D82868ED
:101500008003F7D50CE0FFF76DFB064605E000BF52
:10151000FFF768FB801B6428F0D828688003F7D4A5
:1015200020789A4E80074FF001094FF0000839D516
:10153000686810F00C0F07D06868C0F381000228BB
:1015400009D16868C00306D42868800714D52069CB
:10155000012808D110E02069B0B1C6F80090FFF76B
:1015600041FB074605E00AE1FFF73CFBC01B0228F0
:10157000C4D828688007F7D52868616920F0F8008A
:1015800040EAC10028600DE0C6F80080FFF72AFBA2
:10159000074604E0FFF726FBC01B022823D8286873
:1015A0008007F7D4207800072CD57948A169D9B1F4
:1015B000C0F80090FFF716FB074604E0FFF712FBA8
:1015C000C01B02280FD8686A8007F7D571484FF40E
:1015D000FA510068B0FBF1F0009000BF0098411E86
:1015E0000091FAD20EE080E0C0F80080FFF7FAFA2E
:1015F000074604E0FFF7F6FAC01B022875D8686AB0
:101600008007F7D42078400760D5E8690027C0003C
:1016100008D4E86940F08050E861E869012700F0EB
:10162000805000905C480168C90513D40168834666
:1016300041F480710160FFF7D5FA824606E000BFF1
:10164000FFF7D0FAA0EB0A0064284ED8DBF80000C0
:10165000C005F5D5E06801280AD008B1052813D0E7
:10166000286A20F001002862286A20F0040002E0C5
:10167000286A40F001002862E06841F2883B98B196
:10168000FFF7B0FA82460BE0286A40F004002862B7
:10169000EEE700BFFFF7A6FAA0EB0A0159455AD8BA
:1016A000286A8007F6D50CE0FFF79CFA824605E031
:1016B000FFF798FAA0EB0A0159454CD8286A800731
:1016C000F6D41FB1E86920F08050E861E06988B382
:1016D0006968C1F38101022944D00228C6F86080FC
:1016E00004D0FFF77FFA044638E034E0FFF77AFAD7
:1016F000074604E0FFF776FAC01B02282BD82868BB
:101700008001F7D4206AB0F5803F05D16868A168F0
:1017100020F4003008436860D4E908010843696890
:1017200021F4741108436860C6F86090FFF75AFA14
:10173000044606E025E000BFFFF754FA001B02282C
:1017400009D828688001F7D51BE000BFFFF74AFAE7
:10175000001B022802D90320BDE8F88F2868800109
:10176000F4D40EE00128F7D06868226A00F48031D2
:10177000914204D1616A00F47010884201D00120C6
:10178000EAE70020E8E700000010024000004242C3
:10179000800442421C0000200070004070B504002C
:1017A00009D0606A002540B125616561A56294F8A1
:1017B000510040B10CE0012070BD6068B0F5827F3F
:1017C000F4D0E561F2E784F85050204600F040F88C
:1017D000022084F851002068016821F04001016076
:1017E000A088218900F4827001F404410843A18992
:1017F00001F400610843217C01F002010843217DCE
:1018000001F001010843218B01F400710843217F9D
:1018100001F03801084394F8201001F080010843DA
:10182000218D01F40051084321680860A06904215A
:1018300001EA1040216848602068C16921F4006114
:10184000C1616565012084F85100002070BD000071
:1018500030B585B00024009401940294039400688C
:101860001449884223D11448816941F4805181612F
:10187000816901F480510491816941F00401816121
:1018800080690E4D00F004000490A020009002201A
:1018900001900320039069462846FFF7A9F84020ED
:1018A000CDE90004694628460294FFF7A1F805B087
:1018B00030BD00000030014000100240000801402F
:1018C0007047704710B590F83C20012A22D00122C1
:1018D00080F83C20CA688C6822F4407222434C682D
:1018E00022F4806222430C6822F4006222430C69D5
:1018F00022F4805222434C6922F400522243C969E7
:10190000002322F480420A4301684A6480F83C3094
:10191000002010BD022010BD70B590F83C20012AB7
:1019200026D0012480F83C40022280F83D20036844
:101930005A689D6822F070060A6832435A600D4B5F
:1019400002689A4208D0B2F1804F05D00A4B9A4201
:1019500002D00A4B9A4204D1496825F0800319430A
:10196000916080F83D40002180F83C10084670BD31
:10197000022070BD002C014000040040000800401F
:1019800010B5040003D094F83D0010B107E0012029
:1019900010BD002084F83C00204600F01FF8022013
:1019A00084F83D00211D206801F078FB012084F8B7
:1019B000460084F83E0084F83F0084F8400084F834
:1019C000410084F8420084F8430084F8440084F81D
:1019D000450084F83D00002010BD000008B50C4A09
:1019E00001680C48914207D1816941F4006181612D
:1019F000806900F4006009E0B1F1804F07D1C1694E
:101A000041F00101C161C06900F00100009008BD12
:101A1000002C01400010024090F83D10012901D037
:101A200001207047022180F83D100168CA6842F029
:101A30000102CA6000680B49884208D0B0F1804FAB
:101A400005D00949884202D00849884204D18168FA
:101A500001F00701062903D0016841F0010101608E
:101A600000207047002C01400004004000080040A6
:101A700070B5044690F83C000025012817D00126D7
:101A800084F83C60022084F83D002068826822F0DF
:101A9000770222F47F4282600868502838D00DDC3B
:101AA00020284FD005DC90B3102811D14AE0022045
:101AB00070BD302846D040280AD13BE060282FD0A6
:101AC00070280DD0B0F5805F03D0B0F5005F12D064
:101AD000012584F83D60002084F83C00284670BD54
:101AE000CB68D1E90121206801F00EFB20688168F4
:101AF00041F0770109E0CB68D1E90121206801F0CC
:101B000003FB2068816841F480418160E1E719E0CE
:101B1000CA684968206801F0ABFB5021206806E0E4
:101B2000CA684968206801F0B4FB6021206801F0B0
:101B3000F5FACEE7CA684968206801F099FB4021B0
:101B40002068F4E7226801461046F0E7704770B558
:101B50000446006801694FF00005C943890715D4A0
:101B6000C168C943890711D4E91E016101202077AA
:101B7000206880698007204602D0FFF7E7FF04E075
:101B800000F00EF9204600F0B3F9257720680169CE
:101B9000C943490717D4C168C943490713D46FF033
:101BA00004010161022020772068806910F4407FE1
:101BB000204602D0FFF7CAFF04E000F0F1F820460B
:101BC00000F096F9257720680169C943090716D402
:101BD000C168C943090712D46FF0080101610420EC
:101BE00020772068C0698007204602D0FFF7AEFF4B
:101BF00004E000F0D5F8204600F07AF92577206857
:101C00000169C943C90617D4C168C943C90613D4B9
:101C10006FF010010161082020772068C06910F47E
:101C2000407F204602D0FFF791FF04E000F0B8F8B3
:101C3000204600F05DF9257720680169C943C9078E
:101C400008D1C168C943C90704D1891E0161204672
:101C500000F050F920680169C943090609D4C16838
:101C6000C943090605D46FF0800101612046FFF7E2
:101C700027FE20680169C943490609D4C168C943E0
:101C8000490605D46FF040010161204600F03CF99F
:101C900020680169C94389060BD4C168C943890614
:101CA00007D46FF0200101612046BDE87040FFF7C6
:101CB00008BE70BD70B586B00021009101910291FF
:101CC00003910068304B31490224314A984211D1C6
:101CD000886940F0040088618869039400F004007A
:101CE00004908815CDE9000469461046FEF780FE91
:101CF00006B070BD274E284DB0F1804F1BD0274A4B
:101D00009042F5D1886940F0080088618869694689
:101D100000F0080004901020CDE900043046039440
:101D2000FEF766FE686820F4406040F0E06040F432
:101D300000606860DCE7886940F0040088618869B9
:101D400000F004000490886940F008008861886908
:101D5000694600F00800049048F20400CDE9000450
:101D600010460394FEF744FE0820CDE900046946BE
:101D700030460394FEF73CFE686820F4407040F063
:101D8000E06040F48070D4E7002C01400010024075
:101D900000080140000C0140000001400004004028
:101DA000704770B5044690F83C0000260D460128A7
:101DB0000FD0012084F83C006AB1042A1DD0082A03
:101DC0002FD00C2A3FD00126002084F83C0030465A
:101DD00070BD022070BD206801F0A8F920688169FB
:101DE00041F0080181612068816921F0040181616D
:101DF000206881692A69114311E0206801F0BEF969
:101E00002068816941F4006181612068816921F461
:101E100080618161206881692A6941EA02218161CA
:101E2000D2E7206801F0D6F92068C16941F00801C5
:101E3000C1612068C16921F00401C1612068C169E4
:101E40002A69114311E0206801F0F0F92068C169A6
:101E500041F40061C1612068C16921F48061C16100
:101E60002068C1692A6941EA0221C161ACE710B565
:101E7000040003D094F83D0010B107E0012010BD2C
:101E8000002084F83C00204600F01EF8022084F870
:101E90003D00211D206801F001F9012084F8460071
:101EA00084F83E0084F83F0084F8400084F8410044
:101EB00084F8420084F8430084F8440084F8450024
:101EC00084F83D00002010BD08B50068064988422E
:101ED00008D10648C16941F00201C161C06900F042
:101EE0000200009008BD0000000400400010024005
:101EF0007047000000680349884201D1FFF700B82D
:101F00007047000000080040704770B5040004D01E
:101F100094F84100002510B106E0012070BD84F85E
:101F20004050204600F024F8242084F84100206826
:101F3000C16821F40051C160204601F00FFA206809
:101F4000016921F4904101612068416921F02A0171
:101F500041612068C16841F40051C160656420207E
:101F600084F8410084F842006563002070BD0000E1
:101F700030B585B000240094019402940394006865
:101F80001449884224D11448816941F48041816117
:101F9000816901F480410491816941F0040181610A
:101FA00080690E4D00F0040004904FF40070009022
:101FB000022001900320039069462846FEF718FD91
:101FC0002815CDE90004694628460294FEF710FD65
:101FD00005B030BD0038014000100240000801404B
:101FE000FEE701684A69D24352050FD46FF480625C
:101FF0004A61002140F8301F202242738173026938
:1020000042F0040202610173012070470020704712
:10201000F8B50446C06A1E460D461746082807D084
:10202000012805D010F5803F02D0206B122804D182
:102030002068016841F480710160134600224FF06E
:1020400001112046009600F05DF840B1206800685C
:10205000C00502D54FF4007020640320F8BD20694C
:10206000B0F5804F0ED00620216800EAD51040F070
:10207000F000086133463A460B49204600F08AF8E2
:1020800078B902E005F0FE0000E0E8B221680861DE
:10209000054933463A46891F204600F07BF8002860
:1020A000DCD00120F8BD00000800010070B5164624
:1020B0000D4604461EE02046FFF793FF08B10120BD
:1020C00070BD681C16D0FEF78DFD801BA84200D89D
:1020D00085B920684069C04340070BD5002044F80B
:1020E000300F20216173A073216941F0200121612B
:1020F0002073E4E720684069C0434007DBD4002038
:1021000070BD00002DE9F047984617460D4604467D
:10211000C1F30746DDF820902AE000BFB8F1FF3F89
:1021200026D0FEF75FFDA0EB0901414502D8B8F1CA
:10213000000F1DD12068012E16D0806925EA00000D
:102140000004000C12D00020B84211D1002044F845
:10215000300F20216173A073216941F020012161BA
:1021600020730120BDE8F0874069E7E70120EBE735
:102170002068012E0AD0806925EA00000004000CC6
:1021800006D00020B842C9D00020EBE74069F3E751
:102190000120F7E72DE9F047984616460D4604461C
:1021A0004FF000094FF0200AC1F3074723E02068F1
:1021B0004069C043400515D42068016841F40071AE
:1021C000016021686FF480604861C4F8309084F841
:1021D0003DA084F83E90216C41F00401216484F814
:1021E0003C9021E0701C06D0FEF7FCFCA0EB080040
:1021F000B04203D816B1012F1FD021E02068012F73
:1022000015D0806925EA00000004000C18D000BF3A
:1022100044F8309F84F80DA084F80E90216941F0B5
:102220002001216184F80C900120BDE8F08740690D
:1022300025EA00000004000CEAD12068406901E0B2
:102240002068806925EA00000004000CAFD1ECE7AB
:1022500070B516460D4604461EE02046FFF7C1FE47
:1022600008B1012070BD681C16D0FEF7BBFC801BB6
:10227000A84200D885B920684069C04300060BD544
:10228000002044F8300F20216173A073216941F0D0
:10229000200121612073E4E720684069C043000603
:1022A000DBD4002070BD00002DE9F84FDFF8F89076
:1022B00000224846DFF8F4C0D0E90261D9E90040C5
:1022C0000B46341B61EB0001501EB4EB0C0C1546A1
:1022D000174671F1000C5ED3DFF8D4804FF0000C8C
:1022E000B8EB04047CEB010C55D34C46D4E904C193
:1022F000BCEB060661EB03012E4BF31A71F10003F0
:1023000049D3DFF8B4C00023BCEB06068B4142D3AF
:1023100000234FF00309EA4609EB430808F1010CDA
:1023200004EBCC0104EBC80CD1E90061DCE9008CC2
:10233000B6EB080661EB0C015206DFF88080120E46
:102340006D1C4FF0000CB8EB06067CEB010C01D2C3
:1023500042F00102082D04D10AF807200022154698
:102360007F1C5B1C202BD7DB9DF80110C943CBB22F
:102370008DF801309DF80310C943CAB28DF80320CF
:102380009DF80010994203D19DF80230934204D089
:102390000B4A00215160BDE8F88F09480170437075
:1023A000FEF798F90020F6E77033002000127A005B
:1023B00080969800E0673500C03B470340420F001D
:1023C000B00000202DE9F04101F040FF244C254FE2
:1023D000D4E90623861A61EB030200231D46BE1BC7
:1023E000934100D26560C4E906011F4A636802EBAD
:1023F000C3065B1CC6E900016360042B06D0442BB6
:1024000002D1FFF751FF6560BDE8F081D2E90260BB
:10241000D2E900370146F31A60EB0700134FDF1BC8
:1024200070F10007F0D3DFF848C00027BCEB0303CE
:102430008741E9D3D2E90402801B62EB01020D4916
:10244000411A72F10001DFD34FEAAC030021181AE0
:102450009141D9D3024845700570FEF73BF9D2E7A8
:10246000B000002000E1F5057033002000127A0072
:102470008096980080841E00704700F0ABBA000080
:1024800010B500216B2000F01FF800216C2000F037
:102490001BF80921192000F017F806211A2000F076
:1024A00013F818211B2000F00FF818211C2000F051
:1024B0000BF8002204210F2003F0B7FC01498860CB
:1024C000002010BDA00000201CB502238DF80400E0
:1024D0004FF4FA70009004488DF8051001AAD0213D
:1024E0000068FEF749FC1CBDA00000203EB500249A
:1024F00011480094019402940E49846001600473B1
:102500000475012505614FF460214460C161FEF747
:102510008BF908B1FEF707F90320CDE900056946FC
:1025200002940548FEF702F9002801D0FEF7FBF8F7
:102530003EBD000000240140A00100201CB5FFF7B3
:102540009CFF00F017FBFFF797FFFFF799FF0120B3
:1025500003F060FC06498022C86000211920CDE903
:1025600000010B4603A1074803F0ECFE1CBD000070
:10257000000000205461736B5F436F6E74726F6C68
:1025800000000000B93200082DE9F04786B00024B1
:102590004B480094019402940394816941F0100126
:1025A0008161816901F010010491816941F020018C
:1025B0008161816901F020010491816941F0040188
:1025C0008161816901F004010491816941F0080190
:1025D000816180693B4F00F008004FF40055049082
:1025E000002229463846FEF7F8FADFF8DC90002290
:1025F00013214846FEF7F1FADFF8D0A04FF4024865
:10260000002241465046FEF7E8FA009502260125D1
:102610000396CDE9015469463846FEF7E9F91127DA
:1026200000970396CDE9015469464846FEF7E0F964
:10263000CDE90256CDE9006769464846FEF7D8F96C
:1026400003208DE8310069465046FEF7D1F9A80213
:1026500000901F48CDE9010569465046FEF7C8F9CC
:102660001C4F4FF40260CDE90007694602955046C1
:10267000FEF7BEF92803CDE90007694602945046EB
:10268000FEF7B6F94FF48240CDE9000469465046A2
:102690000294FEF7ADF9CDF800800396CDE9015420
:1026A00069465046FEF7A4F9002205212820FEF7CE
:1026B000BFFC2820FEF7AEFC06B0BDE8F0870000A6
:1026C000001002400010014000080140000C0140D1
:1026D00000003110000011100D4810B50B490160C9
:1026E0000C49416000214FF480428160C0E903122F
:1026F00041618161C1610162FEF77AFA002803D06D
:10270000BDE81040FEF70FB810BD000000540040B7
:10271000D0010020A0860100104810B50E490160CC
:102720004FF48271416000218160C1604FF40072FA
:102730000161C0E905120822C0E9072141628162F6
:102740000A21C162FFF72AF8002803D0BDE8104033
:10275000FDF7E9BF10BD0000003001402402002059
:1027600010B596B000240F94109411941294139401
:102770001C2108A81494FDF77DFD20216846FDF773
:1027800079FD2A48284901604721C0E9011440F237
:10279000E731C0E903148021C0E90541FFF7F0F8F3
:1027A00008B1FDF7C0FF4FF480500F900FA91F48EC
:1027B000FFF75EF908B1FDF7B6FF1C48FFF757FBBE
:1027C00008B1FDF7B0FF139413A918481494FFF74C
:1027D000A3F808B1FDF7A7FF6020089040F2F310BE
:1027E000CDE909040B940C940D94002208A90F481C
:1027F0000E94FFF7D6FA08B1FDF795FF00944FF459
:102800000050CDE9044002940194039469460748BE
:102810000794FFF757F808B1FDF785FF0348FFF766
:1028200049FA16B010BD0000002C01407C020020C7
:1028300010B58EB000240794089409940A940B9460
:102840001C2168460C94FDF715FD27484FF0804188
:10285000016040F26711C0E9011440F2CF71C0E994
:10286000031480218161FFF78BF808B1FDF75BFF4E
:102870004FF48050079007A91B48FFF7F9F808B1FB
:10288000FDF751FF1848FFF7F2FA08B1FDF74BFFCB
:102890000B940BA914480C94FFF73EF808B1FDF710
:1028A00042FF6020CDE900040294002269460E48F0
:1028B0000494FFF776FA08B1FDF735FF0422694664
:1028C0000948FFF76EFA08B1FDF72DFF08226946A7
:1028D0000548FFF766FA08B1FDF725FF0248FFF744
:1028E000E9F90EB010BD0000C402002010B58AB096
:1028F000002407941C2168460894FDF7BBFC184887
:10290000164901600721C0E9011440F2E731C0E92E
:10291000031480218161FFF7AAFA08B1FDF703FFD4
:10292000079407A90E480894FEF7F6FF08B1FDF7D3
:10293000FAFE602000904FF46170CDE9010400229E
:10294000694607480494FFF72CFA08B1FDF7EBFE3F
:102950000348FFF7AFF90AB010BD000000040040C3
:102960000C0300200C4810B50A4901604FF4E13116
:102970004160002181600C22C160C0E904128161C4
:10298000C161FFF7C2FA002803D0BDE81040FDF78F
:10299000CABE10BD00380140540300200B4810B5DA
:1029A00009490160082141600221816000218161A3
:1029B000C1610162FEF76EFB002803D0BDE8104044
:1029C000FDF7B1BE10BD0000005C00409C0300207C
:1029D000FEE7FEE710B50224202000F05BF8204659
:1029E00000F058F81F4804703F24A82000F052F867
:1029F000204600F04FF80024D32000F04BF820468A
:102A000000F048F8402000F045F8A12000F042F81E
:102A1000C82000F03FF80021084600F025F87F2488
:102A2000812000F037F8204600F034F8A42000F0B0
:102A300031F8A62000F02EF8D52000F02BF88020E9
:102A400000F028F88D2000F025F8142000F022F87E
:102A50000021012000F008F8BDE81040AF2000F090
:102A600019B800009800002070B50C46050001D090
:102A7000012D0ED10CB1012C0BD1DA2000F00AF897
:102A8000280100EB4410BDE87040801CC0B200F08B
:102A900001B870BD1CB500218DF804108DF805003B
:102AA0004FF4FA7000900448022301AA782140688C
:102AB000FEF762F91CBD000098000020044A9168EE
:102AC0000A2904DA034B43F82100491C916070473E
:102AD000B0000020903500202DE9F04101F0B6FB58
:102AE000204C06460D46D4E90623801A1E4A61EBA7
:102AF0000301801A71F1000004D200BFC4E9066529
:102B0000BDE8F081DFF864804FF480514046FEF765
:102B10005FF80028F4D0D4E90601321A65EB01030E
:102B2000012713480021FDF74BFB606000B9676087
:102B300001214046FEF74CF8002820680BD0401CCD
:102B4000206060680749002310311A460860E06879
:102B500003F0BCFAD2E7401E20606068404260602B
:102B6000F0E70000D000002080841E00000C01402F
:102B700000CA9A3B10B5002204210F2003F055F93A
:102B80000149C86010BD0000D00000201CB5AB4852
:102B900001F0DEFB01240025A84801F0F3FBDFF87B
:102BA000A0A24FF01E09AAF13C0BDAF8000057462C
:102BB000CDE900905E46BBF80220BBF80010192357
:102BC0009E4801F043FEB8681923CDE90090F289D0
:102BD000B1899A4801F03AFE38691923CDE900908D
:102BE000728B318B954801F031FE96480926CDE96C
:102BF000006000220A231146904801F027FE924807
:102C00000A23CDE90060002276218C4801F01EFEE7
:102C10008E498A4801F087FE3C2234218748FB68B0
:102C200001F006FE8548F96801F056FEC7B28848F3
:102C30000826CDE900601023342223217F4801F0CB
:102C400005FE84481023CDE90060342207F13501E8
:102C50007A4801F0FBFD8049784801F064FE7FA3CB
:102C600009223221754801F0E3FD744801F052FE5B
:102C7000AAF144073878012802D002285AD0D0E0BF
:102C800078491020CDE900015023332223216B48DD
:102C900001F0DCFD45E074492020CDE900018023EE
:102CA00010220021654801F0D1FD0AEBC408AD1DDA
:102CB00058F8081CEDB2CDE90091BBF800005E4663
:102CC000401B81B2BBF8022019235C4801F0BEFD15
:102CD0005AF834001923CDE90090B089F289401BDD
:102CE00081B2564801F0B2FDD8F808001923CDE9A9
:102CF0000090308B728B401B81B2504801F0A6FDD2
:102D0000D8F810001923CDE90090308E728E401B48
:102D100081B24A4801F09AFD484801F0FBFD2A2D96
:102D200001D2052CB7D3641CE4B20025052C5AD37C
:102D3000052458E04B491020CDE9000150233322EF
:102D400023213E4801F082FD45E047492020CDE99E
:102D50000001802310220021384801F077FD0AEBA2
:102D6000C408AD1D58F8100CEDB2CDE90090BBF8C9
:102D700024005E46284481B2BBF8262019232F4840
:102D800001F064FD58F8080C1923CDE90090308853
:102D90007288284481B2294801F058FD5AF834005D
:102DA0001923CDE90090B089F289284481B22348E3
:102DB00001F04CFDD8F808001923CDE90090308BC4
:102DC000728B284481B21D4801F040FD1B4801F080
:102DD000A1FD2A2D01D2012CB7D8641EE4B2002532
:102DE000012C00D801240AEBC4004168134801F00B
:102DF00073FD00F0FF0816480826CDE90060102397
:102E0000342223210D4801F021FD12481023CDE981
:102E10000060342208F13501084801F017FD002058
:102E200038700AEBC4007C70406800F0F3FA034885
:102E300001F070FD962002F025FE1BE7B83500205A
:102E400034010020AC6900089A690008F08E00087F
:102E5000706D0008606D0008D58400084F74746FB1
:102E600000000000C06C0008C06A00088CB04AA1D5
:102E70004BA2D1E90001CDE9080107CA02AB83E802
:102E800007004A4801F064FA03F0C2FA484F0E25E1
:102E9000DFF82081DFF82091DFF820A1DFF820B1F2
:102EA000484C00260A90414801F06CFACDE90057E1
:102EB0000E23002207213D4801F0C8FCCDE900584F
:102EC0000E2300221B21394801F0C0FCCDE9005936
:102ED0000E2300222F21354801F0B8FCCDE9005A1D
:102EE0000E2300224321314801F0B0FCCDE9005B04
:102EF0000E23002257212D4801F0A8FC32480E2352
:102F0000CDE9005000226B21284801F09FFC2F4999
:102F1000264801F008FD08AB34223221234801F095
:102F200087FC2A49214801F0FEFC02AB3F22282100
:102F30001E4801F07DFCA0783C2803D1A670607883
:102F4000401C607060783C2803D166702078401C7B
:102F500020702078182800D126701D49134801F0F0
:102F6000E2FCA0780090637822781AA105A800F00E
:102F7000CFFA05AB282216210C4801F059FC0B486A
:102F800001F0C8FCA0784FF47A71401CA0700AA828
:102F900002F09EFD87E700004672696461790000D7
:102FA000323032342F31302F32390000B835002022
:102FB000166800088A670008DE670008FA670008DC
:102FC000A6670008F4000020C2670008F08E000821
:102FD000806D0008253032643A253032643A25305D
:102FE0003264000010B5502080F31188BFF34F8F7A
:102FF000BFF36F8F03F012FA18B104494FF08050FD
:103000000860002080F3118810BD000004ED00E08E
:1030100030B593B028216846FDF72CF914210AA891
:10302000FDF728F9002401200F9410941194010455
:1030300012948DE8130004904FF4E010CDE90810CD
:10304000022507956846FEF719FA08B172B6FEE741
:103050000F20CDE90A054FF48060CDE90C40022134
:103060000AA80E94FEF70EF908B172B6FEE7122018
:103070000F904FF40040CDE911040FA8FEF78CF833
:10308000002801D072B6FEE713B030BD70470000D3
:103090000148FEF75CBD00008C060020F0B5026818
:1030A000164B174C174D4FF08047984205D0B84249
:1030B00003D0A04201D0A84203D122F070064A6892
:1030C0003243984205D0B84203D0A04201D0A84272
:1030D00003D122F44074CA6822434C6922F0800272
:1030E000224302608A68C2620A688262984201D101
:1030F0000969016301214161F0BD0000002C01401C
:10310000000400400008004010B5846842EA032231
:1031100024F47F440A432243826010BD826822F077
:1031200070020A4342F007018160704730B5036ABC
:10313000026A22F0010202624268846924F0730587
:103140000C682C4323F002058B682B430A4DA842E0
:103150000BD123F00805CB6822F440722B434D6954
:1031600023F0040315438A692A4342608461496855
:103170004163036230BD0000002C014030B5026A9B
:10318000036A23F010030362436884690D6824F422
:10319000E64444EA05248D6822F0200242EA051242
:1031A0000B4DA8420ED1CD6822F0800242EA0512F2
:1031B0004D6923F4406343EA85038D6922F04002A0
:1031C00043EA85034360846149688163026230BDDC
:1031D000002C014030B5036A026A22F48072026258
:1031E0004268C46923F4007324F073050C682C430F
:1031F0008D6843EA05230C4DA8420ED1CD6823F417
:10320000006343EA05234D6922F4405242EA051265
:103210008D6923F4806342EA05124260C461496803
:10322000C163036230BD0000002C014030B5046A68
:10323000026A22F4805202624268C3690D6823F474
:10324000E64343EA05238D6824F4005444EA053438
:10325000064DA84204D14D6922F4804242EA85120B
:103260004260C36149680164046230BD002C0140C2
:1032700010B5036A046A24F001040462846924F02E
:10328000F00444EA021423F00A020A438461026251
:1032900010BD10B5036A046A24F010040462846946
:1032A00023F0A00324F4704444EA023243EA0111FB
:1032B0008261016210BD000008B5002202210120D8
:1032C00002F0B3FD224C6060FFF7F8FB03220021FF
:1032D000012002F0AAFDA060207804F10C0500EBAB
:1032E000400005EB8000FDF7E4F91A4E0022694624
:1032F000606802F051FF012825D16846FDF7C2F948
:103300003078032802D0042808D01CE02078D0B9F7
:103310002846FDF7DBF92078401C09E0207890B1C1
:1033200000EB400005EB8000FDF7D0F92078401E4F
:103330002070094800F0ACFF207800EB400005EB5E
:103340008000FDF7B6F9962002F09CFBCEE7000066
:1033500074010020F0000020B835002070B504464C
:1033600000680169E26821F440511143016121695B
:10337000A0680843616908432168CA6841F20C6388
:103380009A430243CA6020684169A26921F44071EE
:10339000114341611E492068884202D1FEF738F886
:1033A00001E0FEF725F800EBC00101EB00126068B8
:1033B00064218000B2FBF0F3B3FBF1F36FF0180669
:1033C0007343B2FBF0F5B2FBF0F605EB8305322355
:1033D00003EB0515B5FBF1F5B6FBF1F605F0F005CD
:1033E00005EB0615B2FBF0F6B2FBF0F0B0FBF1F026
:1033F0006FF01802504306EB800003EB0010B0FBA7
:10340000F1F0216800F00F002844886070BD0000D2
:10341000003801402DE9FC412B4C80462046E278E3
:1034200080780925762600EB8000410002B327480A
:103430000A23CDE900500022254801F007FA25486B
:103440000A23CDE90050A0780022404200EB800022
:1034500006EB400081B21E4801F0F8F9A078401C4C
:10346000C0B2A070032822D10220A07000201DE06D
:10347000194F0A23CDE900570022154801F0E6F95B
:10348000CDE90057A0780A23404200EB800006EB0C
:10349000400081B200220E4801F0D8F9A078401E09
:1034A00010F0FF00A07002D10120A070E0700B4965
:1034B000074801F038FA02B04346BDE8F0413C222B
:1034C0003421034801F0B4B9F0000020AC690008D1
:1034D000B83500209A690008BE690008F08E00081F
:1034E0000020704700207047012120F8401F002174
:1034F0000180818001820846704730F8401F21F426
:103500003F4101800020704700207047FEE7000027
:103510000FB4084B10B504A902AA039800F02CF8C8
:10352000044602A9002000F0C8F9204610BC5DF84E
:1035300014FB0000BB3800080907090E002804DB53
:1035400000F1E02080F80014704700F00F0000F157
:10355000E02080F8141D704702E008C8121F08C15F
:10356000002AFAD170477047002001E001C1121F04
:10357000002AFBD1704700002DE9FF4F8BB0884631
:103580000546002606E025280BD0DDE90D12904700
:103590006D1C761C28780028F5D10FB03046BDE8A8
:1035A000F08F0024A146A2460122AE4900E0044368
:1035B00015F8013F203B02FA03F00842F7D12878C2
:1035C0002A2810D06FF02F022878A0F130010929A5
:1035D00015D809EB890102EB410144F0020400EB2C
:1035E00001096D1CF0E758F8041B5FEA010903D5D7
:1035F00044F40054C9F1000944F002046D1C287819
:103600002E2817D115F8010F44F004042A280ED0F3
:103610006FF02F022878A0F1300109290AD80AEBAF
:103620008A0102EB410100EB010A6D1CF2E758F838
:1036300004AB6D1C28786C280FD006DC4C2817D002
:1036400068280DD06A2814D104E0742810D07A2894
:103650000FD10DE044F400140AE044F4801401E0BA
:1036600044F440146978814202D104F580146D1C41
:103670006D1C2878692865D006DC00288DD0632869
:1036800027D0642806D15DE06E2808D073282AD0A0
:10369000752877D0DDE90D129047761CE0E0C4F381
:1036A0000250022809D003280DD0D8F800100428B1
:1036B0000DD00E6008F10408D2E0D8F80010F2171F
:1036C000C1E90062F6E7D8F800100E80F2E70E704C
:1036D000F0E718F8041B8DF8001000208DF80100A9
:1036E000EB46012003E058F804BB4FF0FF306107C0
:1036F0004FF0000701D40AE07F1C57450DDA8742DE
:10370000FADB1BF807100029F6D106E07F1C874280
:10371000FCDB1BF807100029F8D1DDE90D23A9EB2C
:1037200007008146214600F0B1F83044C61904E094
:10373000DDE90D121BF8010B90477F1EF8D22146E0
:10374000484688E058F8040BC4F302514FF00A0BC6
:10375000032900D100B2042900D140B2002802DAC6
:1037600040422D2102E0210505D52B218DF82410A2
:10377000012104E006E0E10710D02021F6E708AFC0
:10378000089113E058F8040BC4F302514FF00A0BF0
:10379000032900D180B2042900D1C0B20021EEE794
:1037A0005946FCF783FE303107F8011D0028F7D198
:1037B000ADEB070000F1200B600702D524F4803444
:1037C00001E04FF0010ADA4502DDAAEB0B0000E050
:1037D0000020824600EB0B0108980144A9EB010090
:1037E0000A90E00306D4DDE90D2321460A9800F093
:1037F0004DF806444FF0000908E009A911F8090046
:10380000DDE90D12904709F10109761C08998945F7
:10381000F3DBE0030CD5DDE90D2321460A9800F027
:1038200035F8064404E0DDE90D1230209047761C9F
:10383000BAF10001AAF1010AF5DC05E0DDE90D129B
:1038400017F8010B9047761CBBF10001ABF1010B9F
:10385000F4DC0A982146DDE90D2300F005F8064462
:103860006D1C97E6092801002DE9F041044600256A
:103870001E461746880404D405E039462020B04788
:103880006D1C641EF9D52846BDE8F0812DE9F04194
:10389000044600251E469046C80301D5302700E0A7
:1038A0002027880404D505E041463846B0476D1C02
:1038B000641EF9D52846BDE8F0810A68531C0B60E8
:1038C00010707047FDF724FBFFF7A2FBFEF75CFECC
:1038D000FEF702FFFEF70AFEFEF71EFFFFF75EF897
:1038E000FEF73EFFFEF7A4FFFFF700F8FFF73AF8F8
:1038F00000F006F8FEF722FE00F01EF8FEE70000DA
:10390000EFF3058058B9EFF3108040B90949086812
:10391000022801D030B109E0EFF3118030B16FF02F
:103920000500704701200860002070474FF0FF300D
:10393000704700007000002010B5EFF3058060B9FB
:10394000EFF3108048B90B490868022802D001281B
:1039500006D00BE0EFF3118040B16FF0050010BD11
:103960000220086002F084F9002010BD4FF0FF3003
:1039700010BD0000700000202DE9F041134C0F46EF
:10398000054666692068001D01F04CFF681C07D1E0
:1039900037B12168BDE8F0410D48091D01F092BF23
:1039A00020683544B5424560216805D2A068BDE86D
:1039B000F041091D01F06EBF6068091D01F06AFF4A
:1039C000206B854200D22563BDE8F08120000020F5
:1039D000C40B00202DE9F041054601F07FFF2D4C7E
:1039E0002069401C206120682B4F10B1E06930B382
:1039F0002BE025602069012827D1002606EB8600F0
:103A000007EB800001F038FF761C382EF6D32348F0
:103A100001F032FF2148143001F02EFF1F482830FA
:103A200001F02AFF1D483C3001F026FF1B485030B2
:103A300001F022FF194860601430A06005E02068A2
:103A4000E96AC06A884200D82560E06A401CE062EA
:103A50006864E86AA169884200D9A06100EB80002F
:103A600007EB8000291D01F02DFF01F057FFE069F1
:103A700000280CD02068E96AC06A884207D2084949
:103A80004FF080500860BFF34F8FBFF36F8FBDE8DA
:103A9000F08100002000002014070020740B00209B
:103AA00004ED00E038B501F019FF104CA068C8B96A
:103AB0000F4801F0E1FE0E48143001F0DDFE0C4825
:103AC0002060143060600A4B00202833009003F11E
:103AD000540210210A2002F0CCF9A06010B105A117
:103AE00001F09AFFBDE8384001F018BF5C000020EB
:103AF000D80B0020546D72510000000030B4026CED
:103B00000B46002A0BD0C1681144C1604468A14231
:103B100001D30168C16030BC1846FCF792BB30BCD1
:103B200070472DE9F041856B174604460026026C6C
:103B300082B1C7B1E068FCF784FBE168206C091A28
:103B4000E1602268914202D26168081AE060022FA7
:103B500016D017E02068A8B9606802F0C3FC0646DA
:103B6000002060600EE0A068FCF76BFB216CA06891
:103B70000844A0606168884204D32068A06001E026
:103B800005B16D1E6D1CA5633046BDE8F08110B512
:103B9000044690F8590058B101280CD002280FD0E3
:103BA000502080F31188BFF34F8FBFF36F8FFEE774
:103BB000206B01F0C7FE2046BDE8104001F0C2BEF8
:103BC00010BD000010484FF4FA51420706D0C01D46
:103BD0000D4920F00700411AC1F5FA510B4A0023A4
:103BE0000144C2E900030839103A21F007011160CD
:103BF0004B600B600B1AC0E9001393604FF000405C
:103C00005360D06070470000AC1300208400002097
:103C1000144E154CA6F29C474FF08058DFF84C909C
:103C200012E000BF01F05AFEF068C568281D01F0DF
:103C3000F9FD2069401E2061E068401EE06001F04F
:103C40006DFE2846FFF7A3FFE0680028EAD1386838
:103C50000128F9D9C9F80080BFF34F8FBFF36F8FE8
:103C6000F2E70000B00B00202000002004ED00E08F
:103C7000002807D00021416001600B460A46C16060
:103C800002F06EB97047000070B51D46049C61B12A
:103C9000C4F80020C4E90F010121204602F01CF9FC
:103CA00084F850500020A06470BD2460F2E72DE934
:103CB000F0470E46DDE90984174682469100994691
:103CC000089DA522206BFCF7CEFA6FF00301206B54
:103CD00001EB8701084420F00707780707D0502040
:103CE00080F31188BFF34F8FBFF36F8FFEE7221869
:103CF000315C82F83410315C11B1401C1028F6D3CD
:103D0000002684F84360382D00D33725E562C4E9E6
:103D10001356201D01F0BBFD04F1180001F0B7FDA2
:103D20002461C5F138006462A061666584F858605A
:103D30004A465146384600F077FA2060B8F1000F45
:103D400001D0C8F80040BDE8F087000030B5114947
:103D500000E011460A688242FBD34B685C1884423B
:103D600003D1406818444860084643681C189442D0
:103D700009D1084C103C2468A24209D052681A4468
:103D800042600A6812680260814200D0086030BD5B
:103D90000460F9E78400002070B5002441600B4DF9
:103DA0000061914206D8D11A8269914206D2011D62
:103DB000686807E09A4203D2994201D3012403E0E4
:103DC000011D286801F066FD204670BD5C000020E2
:103DD00010B5044601F082FDA06B28B15FF000042D
:103DE00001F09CFD204610BD0124F9E773B50026C3
:103DF0000098846C5CB1A26BE06B82420FD35020C0
:103E000080F31188BFF34F8FBFF36F8FFEE7502011
:103E100080F31188BFF34F8FBFF36F8FFEE7A26B64
:103E200082420CD294F945500A4669462046FFF773
:103E300078FE0646681C04D06D1C84F84550304658
:103E40007CBD606A0028FAD004F1240002F08AFBED
:103E50000028F4D00126F2E730B589B0304D55E0A6
:103E60000498002806DADDE90601059A90470498CF
:103E700000284BDB069C606910B1201D01F0D2FCCC
:103E800002A800F0B9F8024604980A283ED2DFE8FA
:103E900000F00505053D263705053D260598A16975
:103EA000034601442046FFF777FF00B3616A2046CE
:103EB0008847E069012829D1002000900598A16970
:103EC000002342181946204602F016FC78B950200B
:103ED00080F31188BFF34F8FBFF36F8FFEE7059814
:103EE000A06128B1811813462046FFF755FF0DE069
:103EF000502080F31188BFF34F8FBFF36F8FFEE721
:103F000094F82C0010B9204601F01CFD002204A9F1
:103F1000A86802F041F90028A2D109B030BD000024
:103F20005C0000202DE9FC410F46054601F0E4FE4F
:103F300001A800F061F80446019818B102F04AFBAC
:103F4000BDE8FC81224EAFB170680068A8B30027BD
:103F5000291B3A46B06801F073FD02F03BFB0028D4
:103F6000EED11C494FF080500860BFF34F8FBFF374
:103F70006F8FE5E7A542EBD802F02CFB30682746AF
:103F8000C068C468201D01F04DFCE069012810D113
:103F9000A0692B4641193A462046FFF7FDFE40B185
:103FA00000200346014600902A46204602F0A4FB6A
:103FB00020B1616A20468847C2E707E0502080F3BD
:103FC0001188BFF34F8FBFF36F8FFEE70127BFE765
:103FD0005C00002004ED00E006484168096829B152
:103FE0004168C968C9684968016370474FF0FF318B
:103FF000FAE700002000002070B5054602F008FA3C
:10400000064E04463069844203D200F009F80120CC
:1040100000E0002028602046346170BD5C00002074
:10402000F8B5194D1FE0C068C4680668201D01F08E
:10403000F9FB616A20468847E069012813D1A0692D
:104040003044B04206D924616060211D286801F027
:1040500021FC08E00020034601460090324620463D
:1040600002F04AFB38B1286801680029DBD1696891
:10407000C5E90010F8BD502080F31188BFF34F8FC1
:10408000BFF36F8FFEE700005C0000200848406827
:10409000401C4FF0500080F3118804D0BFF34F8FC5
:1040A000BFF36F8FFEE7BFF34F8FBFF36F8FFEE756
:1040B0008C000020074C2068016841B1C0680021D5
:1040C000D0F80000FFF72EFFFFF7C6FEF3E701214F
:1040D0000020F7E75C0000202DE9F041044601F0E4
:1040E000FDFB94F9455004F1240610E0A06C20B1CA
:1040F00000212046FFF77AFE04E0606A48B13046AE
:1041000002F030FA08B101F079FD6D1E6DB2002D9C
:10411000ECDC4FF0FF3684F8456001F0FFFB01F066
:10412000DDFB94F9445004F1100709E0206948B11F
:10413000384602F017FA08B101F060FD6D1E6DB24D
:10414000002DF3DC84F84460BDE8F04101F0E6BBEB
:104150002DE9F0410546002701F0CEFD314E3068D3
:1041600008B9FFF72FFDF06805424BD1C5B30835FC
:1041700068070ED005F00700C0F108000544680785
:1041800007D0502080F31188BFF34F8FBFF36F8F9C
:10419000FEE72DB37068854234D8224810300146BE
:1041A0000C6801E020460C466168A94202D22168F1
:1041B0000029F7D131688C4224D00768216801605A
:1041C00060680837411B10290FD96019420708D0D1
:1041D000502080F31188BFF34F8FBFF36F8FFEE73E
:1041E00010E041606560FFF7B1FD61687068401ADA
:1041F0007060B268904200D2B060F0680143002065
:10420000C4E9000102F0E6F9780707D0502080F3F6
:104210001188BFF34F8FBFF36F8FFEE73846BDE8BD
:10422000F08100007400002010B5031F4FF080746F
:104230001C601B1F21F001011960191F024B0B604C
:10424000143940380A6010BD8D4000082DE9F04156
:104250000D4CFCF7C7FC22680023516AD26A0B4D53
:10426000A0FB054703FB057500FB0355074FA1FBAA
:10427000070C03FB07C701FB0371FBF7A1FF001944
:104280006941BDE8F08100008C06002040420F002B
:104290002DE9F0430A24264FDFF8988087B0814645
:1042A00026460425484600F06DF82046FCF7CEF877
:1042B00000223B46FCF75BF800224346FBF7E5FF94
:1042C000FCF7D5F802461CA102A8FFF721F91C490A
:1042D000484600F028FB1BA320221021484600F08E
:1042E000A7FA1A49484600F01EFB02AB31226421AE
:1042F000484600F09DFACDE90065A3B228221021BE
:10430000484600F0A0F9CDE9006528231A4610219F
:10431000484600F00BFA484600F0FCFAA41C282C92
:10432000C0DD07B03220BDE8F043FCF737BB00002A
:10433000000044400000594025642525000000008D
:10434000919800084C6F6164696E6700F08E0008F8
:1043500010B50446084B094A094900F02DFB2046D8
:1043600000F0E1FF0021204600F0EDFF2046BDE80F
:10437000104000F007B8000041570008E95300085A
:10438000A8A7000801680A7C90F83810406B5143D8
:10439000C900FBF76FBF2DE9F8438146089C1E4614
:1043A000101980B20090881983B215468846484695
:1043B00000F098FA00280ED00027002C0BD03346CE
:1043C0002A4641464846009700F086F86D1C641E58
:1043D000ADB2A4B2F1E7BDE8F8832DE9F8431C467D
:1043E00080461019401C80B200900819401C83B20E
:1043F0001546101B82B20E46081B81B2089F40462C
:1044000000F070FA002806D023462A46314640467E
:10441000009700F087FBBDE8F8832DE9F8431C46C0
:1044200080461019401C80B200900819401C83B2CD
:104430001546101B82B20E46081B81B2089F4046EB
:1044400000F050FA002806D023462A46314640465E
:10445000009700F0F9FBBDE8F8832DE9F041044630
:1044600090F870001F4615460E4630B1012809D05D
:1044700002280CD0032815D10FE0E16D20468847B3
:10448000284408E0E16D20468847301A09E0E16DD4
:1044900020468847281A85B204E0E16D2046884707
:1044A000304486B22846A4F86460A4F86600394611
:1044B0000025204600F0A4FD010003D0204600F0B6
:1044C000CFFC85B22846BDE8F08138B500240094C1
:1044D00000F002F838BD00003FB581B0044690F806
:1044E0008C00089900283AD0BDF81000002836D07A
:1044F000012811D9022902D0032907D00CE0BDF808
:104500000820101A401CADF8080005E0BDF80C208A
:10451000101A401CADF80C0011F0010521D0B4F8C0
:104520004810BDF80800814219D8B4F84A108142F9
:1045300015D9B4F84E30B4F84C2004A90DF10C0094
:1045400000F0D2FA00280AD00095206BBDF8103098
:10455000BDF80C208568BDF808102046A84705B0B6
:1045600030BDB4F84C10BDF80C008142F7D8B4F857
:104570004E108142F3D9B4F84A30B4F8482004A967
:1045800002A8DDE72DE9FF4F81B090F89270DDF8C9
:1045900038901D46884606469FB100208346039802
:1045A0004146401C80B2009008EB050083B23046C3
:1045B000039A00F097F900282BD001244FF0000A4D
:1045C00023E00120EAE700BF99F80000204202D072
:1045D00086F8927004E096F8910048B986F892B097
:1045E0000123CDF800A041463046039AFFF774FF3F
:1045F00008F101001FFA80F8600010F0FF0402D1FA
:10460000012409F101096D1EADB2002DDCD186F83F
:10461000927005B0BDE8F08F08B5B0F84C30934209
:1046200010D8B0F84E3093420CD9B0F848308B42D5
:1046300008D8B0F84A308B4204D9002300930123F4
:10464000FFF74AFF08BD2DE9FF4F83B01F46DDE9A4
:1046500010A402EB0A06B0B2CD190090904689462C
:10466000ABB2039800F03EF900285CD009EB0400DF
:104670001FFA80FB08EB040081B2281B401E85B2A4
:10468000301B401E80B2CDE9010102200A46009095
:10469000234659460398FFF7C0FE01200090DDE94C
:1046A000022023462946FFF7B8FE04200090234647
:1046B0005946019A0398FFF7B0FE08200090234660
:1046C0002946019A0398FFF7A8FE0BF101011FFA92
:1046D00081FB0299381B491C001B80B289B20291F0
:1046E000032811D3801E86B2601C85B23346424631
:1046F000594600950398FFF74EFE334600955946FC
:10470000019A0398FFF747FEAAEB0400001B80B252
:10471000032808D3801E80B20090DDE902203B46CA
:104720004946FFF738FE07B0BDE8F08F2DE9FF4F8F
:1047300083B01C46DDE9106502EB060A1FFA8AF019
:1047400001EB04090090174688461FFA89F3039885
:1047500000F0C8F8002867D008EB05001FFA80FBBE
:10476000781981B2A9EB0500401E80B2CDE9011095
:10477000AAEB0500401E1FFA80F902200A460090AD
:104780002B4659460398FFF728FE01200090DDE9EB
:1047900002102B46019AFFF720FE042000902B46C2
:1047A0004A4659460398FFF718FE08200090DDE9B5
:1047B00002102B464A46FFF710FE601B711B401B80
:1047C000491B8DB20BF101011FFA81FA019980B2E8
:1047D000491C1FFA81FB032810D3801E80B281463A
:1047E00003463A465146761E0398FFF76EFEB81907
:1047F00082B24B4651460398FFF767FE032D13D351
:10480000AD1EADB22B465A464146641E039800F0D9
:1048100017F808EB040081B2039807B02B465A46FC
:10482000BDE8F04F00F00CB807B0BDE8F08F000015
:1048300030B4024C446030BC00F0B0BAAD53000854
:1048400038B501240094FFF747FE38BD2DE9F84F35
:104850008246DDE90A57D81DC0F3CC08501980B252
:104860001C460090081983B216468946504600F04F
:1048700039F800280ED00BE0234632464946504610
:104880000097FFF77FFE761C6D1E4744B6B2ADB2AF
:10489000002DF1D1BDE8F88F70B5044600F0B0FBF3
:1048A000010016D0204600F0EEFB04F1600094F801
:1048B0007A10054600F0AFFA84F8900014F87B1FD8
:1048C000284600F0A8FA61782846BDE8704000F05C
:1048D000A2BA002070BD0000014A426000F0A4BCF2
:1048E000AD53000870B50D461E460446B0F84E1094
:1048F000B0F84C00049B00F0E0FB002809D0B4F8AD
:104900004A10B4F8480033462A46BDE8704000F02B
:10491000D4BB70BD10B5044600F05FFC2046BDE876
:10492000104000F008BD10B50446806D884209D0E3
:1049300004F17400A16500F01BFC2046BDE81040A6
:1049400000F056B810BD00000149C1657047000075
:10495000134E00080021A0F85010A0F854104FF694
:10496000FF71A0F85210A0F85610016B4968084773
:1049700070B5044600250498A565E362616384F878
:10498000382084F8395084F86D5084F8915084F8B8
:104990008D50012184F8921084F8931020630168EF
:1049A000204688472046FFF7D5FF2046FFF7CCFF7B
:1049B00084F8705070BD00007CB50C46009313461F
:1049C0000546084A084900F0C6FC01A800F0CAFBE9
:1049D0000146064B00949DF804202846FFF7C8FFC7
:1049E0007CBD00001155000839560008D55000085C
:1049F00010B5816D00291AD090F9813080F88E3081
:104A000090F9822080F88F2090F88D1000290ED028
:104A100001290DD090F97E4090F980100C449C4201
:104A200001DD80F88E408A4201DD80F88F1010BDD4
:104A300090F983108B4201DA80F88E1090F984107F
:104A4000F1E72BB1012B05D0022B06D0104402E078
:104A5000084400E0801A80B27047401AFBE72BB18F
:104A6000012B05D0022B06D0401A02E0104400E0D2
:104A7000084480B27047801AFBE738B50446B0F8A6
:104A800056000090B4F85230B4F85420B4F85010E6
:104A90002046FFF727FF18B3012084F88C00B4F8F4
:104AA0004810B4F85000814201D2A4F84800B4F88C
:104AB0004A10B4F85200814201D9A4F84A00B4F86F
:104AC0004C10B4F85400814201D2A4F84C00B4F860
:104AD0004E10B4F85600814201D9A4F84E0038BDFA
:104AE000002084F88C0038BD30B504880D8825443A
:104AF000ADB2AC4205D99C4202D25D1EADB200E01F
:104B000014469C4201D2954201D8002030BD944207
:104B100000D214469D4200D91D460480281B0880FF
:104B2000012030BD2DE9FF4FC3F1010083B006B273
:104B300058429146DDF840A040008B4601271C46B4
:104B4000CDE9009A00250FFA80F85B4622462946F7
:104B500015E0002E08DB08F102000FFA80F8641E51
:104B600006EB0800A4B206B26D1CBF1C3FB2CDE933
:104B7000009AADB2F01906B25B4622462946039868
:104B800000F005F8A542E4D307B0BDE8F08F2DE9A9
:104B9000FF4F83B00E46DDE9108703EB060002905D
:104BA0001546A8EB0600019003EB05001C46F9072B
:104BB000A8EB050B00900DD002981FFA8BF281B282
:104BC0000398FFF729FD019882B2009881B20398FB
:104BD000FFF722FDB907A4EB060AA4EB05090DD5E2
:104BE0001FFA8BF21FFA8AF10398FFF715FD01985F
:104BF0001FFA89F182B20398FFF70EFD08EB050456
:104C0000390708EB06050BD50298A2B281B20398CA
:104C1000FFF702FD0098AAB281B20398FFF7FCFCEF
:104C200078070ED5A2B21FFA8AF10398FFF7F4FCB9
:104C3000039807B0AAB21FFA89F1BDE8F04FFFF759
:104C4000EBBC07B0BDE8F08F2DE9FF4FC3F10100C9
:104C500083B006B258429146DDF840A040008B4632
:104C600001271C46CDE9009A00250FFA80F85B4623
:104C70002246294615E0002E08DB08F102000FFA53
:104C800080F8641E06EB0800A4B206B26D1CBF1CBF
:104C90003FB2CDE9009AADB2F01906B25B462246AA
:104CA0002946039800F005F8A542E4D307B0BDE813
:104CB000F08F2DE9FF4F83B0164610980F46A0EBFA
:104CC000060B03EB070001901098DDF84490A0EB71
:104CD000070098465FEAC97103EB060A02F1010575
:104CE00007F1010400900FD00198ABB281B21FFA16
:104CF0008BF20398FFF7A4FD0098A3B282B21FFACB
:104D00008AF10398FFF79CFD5FEA8971A8EB07071A
:104D1000A8EB06060DD5ABB21FFA8BF2B9B2039819
:104D2000FFF78EFD0098A3B282B2B1B20398FFF7ED
:104D300087FD5FEA09700DD50198ABB281B2109A78
:104D40000398FFF77DFDA3B21FFA8AF1109A03982A
:104D5000FFF776FD5FEA49700ED5ABB2B9B2109A93
:104D60000398FFF76DFD109A039807B0A3B2B1B294
:104D7000BDE8F04FFFF764BD07B0BDE8F08F38B570
:104D8000C58F049C0094521BC46A92B2A04738BDE0
:104D900038B5049C0094FFF7F2FF38BD2DE9F047C9
:104DA0001C4691468846064600F01BFD00254FF63E
:104DB000FF7772682178304690470346B84225D085
:104DC000641CA3F57F40FE38F3D04A464146304686
:104DD000FFF743FB96F8701031B1012907D0022983
:104DE00008D003290FD10AE008EB000104E009EB29
:104DF000000106E0A8EB00011FFA81F803E0A9EB2F
:104E000000011FFA81F9284485B2D2E72846BDE89F
:104E1000F0870020704710B50C4600F006F801221C
:104E2000641EA240801A40B210BD30B50568047BF4
:104E30002A78E2406318DBB2082B09D36D1C0560A9
:104E40002D78C4F10804A5401543083BEAB2DBB253
:104E500001248C40641E14400373204630BD0000C2
:104E60002DE9F843054600F1600400F00CF915F94E
:104E70006B6F2046E97BFFF7CEFF8146297C2046F9
:104E8000FFF7C9FF0746697C20466B3DFFF7C3FF6C
:104E9000804694F90A00002857DDF019404247B2D5
:104EA000237CA0883A464946FFF7CBFDA080237CAF
:104EB0003A46E0884946FFF7D2FDE080A188277C8A
:104EC00002460B4637B1012F0AD0022F40D0032FE4
:104ED0000FD146E094F90A7030443B449BB207E09E
:104EE000891B491C94F90A705B1C89B29BB2384437
:104EF00080B200902846FFF7F5FC30B30020207206
:104F000084F8090095F876102046FFF78EFF814659
:104F100095F877102046FFF788FF0746002249469C
:104F2000284600F027F801223946284600F022F8EA
:104F300001212046FFF779FF0028EFD194F90900FD
:104F4000B042DFDBA07B85F892004046BDE8F883E5
:104F500094F90A705B1CC91B491C89B29BB2921B55
:104F600004E094F90A7033449BB2D21B521C92B2F3
:104F7000401CBDE72DE9F74F84B00D46049C94F822
:104F8000687094F869806034A07AC01BC6B201963C
:104F9000B54200D201954FFA88F279B2A088B4F8F0
:104FA00006B0237C92468946FFF74BFD0290237C96
:104FB000524649465846FFF752FD0246069808B148
:104FC000A17B02E0607B50B9E17B049880F89210ED
:104FD000207C0090DDE901310498FFF77DFAB542AD
:104FE00007D3A81BC5B208F10100002700F0FF0895
:104FF000CAE77819207284F8098007B0BDE8F08FFD
:1050000070B50D460146806D1730FF2D10D8612D0B
:1050100002D3B1F8881003E0412D02D3B1F8861015
:105020000844417819B30278AA42F9D1801C70BDB6
:10503000B1F88A100C1826460021304600F019F805
:1050400004440221304600F014F8361DA842F3D380
:105050004FF6FF72207802EA00216078084306D0FC
:10506000A84201D1E01C70BDA0780444F2E7002002
:1050700070BD08444FF6FF720178407802EA0121C2
:10508000084480B2704730B5054600F160040166FF
:105090000020207315F8781F2046FFF7C6FEA07287
:1050A00069782046FFF7C1FEE072A87EA07310B1B8
:1050B0000020E07330BD0120FBE78A4205D2834225
:1050C00001D89A4203D9012070478342F9D80020C1
:1050D00070470000F0B502F007060124B440002537
:1050E00090F892E0E7B2DDF814C02C46BEF1010F53
:1050F00001D83D4600D03C46076822F00702BCF1CB
:10510000000F3F7C07FB02F7BAB2476B3A441144E9
:1051100009D108785B1E284360401B0401F8010B8D
:105120001B0CF6D1F0BD0A78761C2A436240A3F12D
:1051300001030A7016F007069BB206D06A06150E28
:105140006206140E002BEED1F0BD428F114490F890
:105150009220012A03D800BF4FF00105F2D04FF092
:105160000104EFE70821017000487047CC360020A9
:1051700070B5054608782870487868708878A870F7
:10518000C878E870087928714879687188790C4680
:10519000A871E079E871207A2872607A6872A07A42
:1051A000A872E07AE872207B2873607B6873A07B2A
:1051B000A873E07BE873207C287411212046FFF758
:1051C00058FF688213212046FFF753FFA88215215C
:1051D0002046FFF74EFFE88270BD2DE9F8430646F2
:1051E00090F8387090F83950006800244FF6FF7836
:1051F00090F81190316830462A460B7C716B04FBA5
:1052000003FC1FFA8CFC08EACC0C614400910021DD
:1052100000F07AF8641C6D1CE4B2EDB2BC4201D21D
:105220004D45E7D3BDE8F8832DE9F047054600205A
:1052300085F86A0088466FF03F06284600F0D1FAEC
:10524000002427464FF6FF794FF6FE7A6A6898F8F1
:10525000001028469047014648450FD008F1010844
:105260005145F3D02846FFF717FB87B216F1400FE0
:1052700001D195F99060E01984B2E7E795F96A10D9
:1052800049B1E01B084495F99010002E084484B2FF
:1052900001DDA01984B22046BDE8F087F0B590F892
:1052A00038204FF6FF75036805EAC2018187197C33
:1052B00005EAC101418790F8394005EAC401C18778
:1052C0005E7CA718B74201D9321B92B205EAC2022E
:1052D00020F8401F11444180998A8180D98AC18079
:1052E000F0BDFFF7DBBF0021A0F84810B0F8441074
:1052F000A0F84A10B0F84010A0F84C10B0F84210D6
:10530000A0F84E10FFF7B9BB1CB58DF805108DF84D
:105310000620049C8DF804300094012284686B46BA
:105320000F21A0471CBD30B484680023A44630BCC4
:105330001A460A21604730B484680023A44630BC72
:105340001A461021604730B484680023A4460A46F8
:1053500030BC0B2160472DE9F04115460E4604464E
:10536000069F00F009F86761A660C4E90353204670
:10537000BDE8F04100F012B8002140F8081B064AD1
:10538000026042608260C260C17681770161FF2164
:10539000017780F8201070473D57000830B48468CA
:1053A0000023A44630BC1A4609216047080001D0FA
:1053B0000A2801D14FF6FF70704730B4046900230A
:1053C000A44630BC1A461921604713B5012204696E
:1053D00001AB1721A0471CBD30B404690023A446CB
:1053E00030BC1A461821604738B5184818290DD026
:1053F00004DC142907D0172923D10AE0192916D073
:1054000020291ED11FE0FDF767F91CE00021017083
:1054100019E00F4C08E000BF017813F8015B6554F8
:10542000491C521E0170D2B2002AF5D10BE04FF494
:105430007A7100910378064A78210648FBF79CFCB4
:1054400008B1002038BD012038BD000098010020BF
:105450004C360020D001002030B4C4680023A4469C
:1054600030BC1A461921604730B4C4680023A446F2
:105470000A4630BC1621604730B4C4680023A446F5
:105480000A4630BC1521604730B4C4681346A446B0
:105490000A4630BC17216047F8B50C464FEA0005B4
:1054A00014F8011B182924D00EDC152919D016294F
:1054B00017D0172923D120788DF800006A460121E2
:1054C0002846FFF7E1FF0AE0192912D0FE2916D17C
:1054D00022788DF800202921284600F066F9641C06
:1054E000DEE722788DF80020EE6800232846B047DA
:1054F000F5E70023EE681A462846B047D0E7F8BD26
:1055000030B4C4680023A44630BC1A461821604752
:105510002DE9F041DFF8B08014460646A1F11402EF
:10552000002798F800001D46062A4AD2DFE802F05C
:105530002F03161B3E4310B13046FFF73EFF3046A7
:10554000FFF74AFF00213046FFF73FFF2146304674
:10555000FFF73BFF012088F8000029E02146304694
:10556000FFF733FF24E050B13046FFF726FF06E097
:105570001821304600F01FF9183CE4B21835182CF9
:105580002A46F5D82146304600F015F90EE096F887
:105590002400FF2802D1782086F8240037692B46A2
:1055A00022463046BC46BDE8F041604788F80070AE
:1055B0000120BDE8F0810028F8D03046FFF7FDFE5D
:1055C000F4E70020F5E700009901002070B5002302
:1055D000456904461A462821A8470023E5681A466B
:1055E00014212046A84701224B21204600F0DDF877
:1055F000206829210279204600F0D7F800224B21AB
:10560000204600F0D2F8206829210279204600F0D7
:10561000CCF801224B21204600F0C7F82068292150
:1056200042792046BDE8704000F0BFB80160897C37
:1056300080F822107047000070B50C46054600F057
:1056400019F888B9092C0BD00A2C01D0002070BDA4
:105650002846FFF7BBFF05492846FFF71DFF03E07B
:1056600003492846FFF7E2FF012070BDDAA70008D2
:10567000DCA800082DE9F0411E46144605460B291A
:1056800008D00D290ED00E291ED00F2927D00020BA
:10569000BDE8F0811AB12849FFF7FEFE4AE026492D
:1056A000491FF9E74AB124490C31FFF7F5FE286894
:1056B00090F8130085F822003CE01F49491DFFF7D0
:1056C000EBFE2868807CF5E7FFF71AFF812128466A
:1056D000FFF7D2FE21462846FFF7C6FE27E0FFF778
:1056E0000FFF707995F8221001EBC000C7B240217E
:1056F0002846FFF7C1FE102040EA17112846FFF7A1
:10570000BBFE07F00F012846FFF7AEFEB07940F070
:10571000B0012846FFF7A8FE30793268C006010EB6
:105720002846FFF7B1FE641E14F0FF04F4D12846AA
:10573000FFF792FE0120ABE7B9A7000800207047F1
:1057400010B54D2919D00CDC2B2918D004DC2929DF
:1057500020D02A290ED114E02D291FD04C2909D19F
:105760000BE0002250291DD051291BD0522919D0FD
:10577000532917D0012180F82710012010BD00BF48
:10578000FBE700204FF4A07100BF401C80B28842AC
:10579000FAD3F2E70120FBF701F9EEE7052000F06C
:1057A00025F8EAE780F82720E7E730B444690023CA
:1057B000A44630BC60472DE9F04115460E4604462C
:1057C000FFF70AFE40212046FFF7FFFD27692B4621
:1057D000324617212046B8472046BDE8F041FFF782
:1057E000ECBD002180F826107047000030B50C4A4F
:1057F00000211368DC6A4FF47A726043B0FBF2F563
:105800005A6A586A9042FCD002D9A0EB020202E028
:10581000A4EB0202024411440246A942F1D330BD76
:105820008C060020D0E9013201699A60D0E9012399
:105830005A604A68824201D182684A60002202614D
:105840000868401E0860086870470000034B03604A
:1058500003F15C000860802010607047F40C0020A9
:10586000044B036003F15C0008604FF4807010602B
:1058700070470000500F002000F108014FF0FF3288
:10588000C0E90112C160016100210160704700217F
:105890000161704730B50B685A1C02D000F1080254
:1058A00002E0026904E02246546825689D42FAD964
:1058B00053684B6099608A60516008610168491CB7
:1058C000016030BD42684A6093688B60936859609C
:1058D000916008610168491C01607047502080F3A5
:1058E0001188BFF34F8FBFF36F8F0A494868401C80
:1058F000486001280CD10848006810F0FF0F07D05D
:10590000502080F31188BFF34F8FBFF36F8FFEE7F6
:10591000704700008C00002004ED00E00849486852
:1059200028B1401E486001D180F311887047502093
:1059300080F31188BFF34F8FBFF36F8FFEE7000036
:105940008C00002070B5002827D0144DA0F1080469
:105950006168E868014207D1502080F31188BFF3E5
:105960004F8FBFF36F8FFEE722683AB1502080F36C
:105970001188BFF34F8FBFF36F8FFEE781436160E4
:1059800000F0BAF960686968084468602046FEF76C
:10599000DDF9BDE8704000F01DBE70BD7400002050
:1059A0004FF0E02000210161816105494FF47A72D6
:1059B0000968B1FBF2F1491E41610721016170479D
:1059C0001C00002010B5FAF7E5FB114910280ED392
:1059D00000F1E02090F8F0030A78904207D25020BE
:1059E00080F31188BFF34F8FBFF36F8FFEE7094835
:1059F0000068896800F4E060884207D9502080F38D
:105A00001188BFF34F8FBFF36F8FFEE710BD00000B
:105A10008C0000200CED00E010B5084B002200BF08
:105A200053F832401CB1521C082AF9D310BD43F878
:105A3000321003EBC201486010BD0000D406002004
:105A400070B515460E460446FFF748FF94F944101A
:105A50000020491C01D184F8440094F94510491CE8
:105A600001D184F84500FFF759FFA06B28B92A46F9
:105A7000314604F1240000F0DFF82046BDE8704014
:105A8000FEF72ABB10B5020014D00F48806B38B166
:105A9000502080F31188BFF34F8FBFF36F8FFEE765
:105AA00000F02AF900211046FDF766FF00F092FD94
:105AB000002807D105494FF080500860BFF34F8F91
:105AC000BFF36F8F10BD00002000002004ED00E048
:105AD00070B50D4604000BD095B11E4A906BB8B15D
