:020000040800F2
:10000000B04B00209D0100087B3400083F2700080A
:1000100079340008F10800088D4400080000000051
:1000200000000000000000000000000005010008C2
:100030002B0900080000000049010008A53C000849
:10004000B7010008B7010008B7010008B7010008B0
:10005000B7010008B7010008B7010008B7010008A0
:10006000B7010008B7010008B7010008B701000890
:10007000B7010008B7010008B7010008B701000880
:10008000B7010008B7010008B7010008B701000870
:10009000B7010008B7010008B7010008B701000860
:1000A000B7010008B7010008B7010008B701000850
:1000B000B7010008B7010008513D0008B70100086A
:1000C000B7010008B7010008B7010008B701000830
:1000D000B7010008B7010008B7010008B701000820
:1000E00069090008B7010008B7010008DFF810D05F
:1000F00000F054FB004800473D570008AFF3008074
:10010000B04B0020224B19680868B0E8F00F80F36C
:100110000988BFF36F8F4FF0000080F311884EF015
:100120000D0E70470000000006480068006880F36C
:10013000088862B661B6BFF34F8FBFF36F8F00DFE1
:1001400000BF00BF08ED00E0EFF30980BFF36F8F41
:100150000F4B1A6820E9F00F106008B54FF05000FF
:1001600080F31188BFF34F8FBFF36F8F08F02EF825
:100170004FF0000080F31188BDE808401968086856
:10018000B0E8F00F80F30988BFF36F8F704700BFAE
:1001900024000020EFF305807047000006488047E8
:1001A00006480047FEE7FEE7FEE7FEE7FEE7FEE75C
:1001B000FEE7FEE7FEE7FEE74D3D0008ED00000824
:1001C0002DE9F05F0546002092469B46884606468C
:1001D000814640241BE0284641464746224600F01F
:1001E00020F853465A46C01A914110D3114618467A
:1001F000224600F02FFA2D1A67EB01084F462246DF
:100200000120002100F026FA17EB00094E41201EC4
:10021000A4F10104DFDC484631462A464346BDE8E6
:10022000F09F202A04DB203A21FA02F000217047D7
:1002300021FA02F3D040C2F120029140084319464E
:10024000704700000649074A0868504343F23902E4
:10025000104408604008704701490860704700007A
:10026000200300206D4EC64140EA01039B0703D0E6
:1002700009E008C9121F08C0042AFAD203E011F8E5
:10028000013B00F8013B521EF9D27047D2B201E0A7
:1002900000F8012B491EFBD270470022F6E710B58B
:1002A00013460A4604461946FFF7F0FF204610BDE4
:1002B000421C10F8011B0029FBD1801A704703462D
:1002C00011F8012B00F8012B002AF9D118467047CC
:1002D000F0B480EA0102D40F4200B2EB410F02D227
:1002E0000246084611464A0042D0C30DDDB2C1F3B2
:1002F000C752AD1A202D35DAC1F3160141F40002C0
:1003000004B15242C5F1200602FA06F12A41104416
:10031000B3EBD05F23D0C4B1012DA0EBC35009DCF7
:10032000F0BC4FF0004202EAC352DBB200F500001D
:1003300000F0A8B9400000F1807000EBC350A0F1BC
:10034000807040EAD170490009E0490841EAC07173
:10035000A0EBC35000F50000400800EBC350F0BC18
:1003600000F087B96142012202EB4101001BF6E770
:10037000F0BC704781F00041AAE780F00040A7E799
:10038000420005D0C0F3C7525242914201DC002026
:10039000704700EBC15070472DE9FE4F81EA03041E
:1003A00004F0004421F0004100944FF0000B23F0D2
:1003B000004350EA01045ED052EA03045BD0C3F369
:1003C0000A54C1F30A552C44A4F2F3340194A0FB5F
:1003D0000254C1F3130141F48011C3F3130343F436
:1003E000801301FB024400FB034E840A970A44EA8F
:1003F000815447EA8357A4FB076802958D0A05FBE1
:1004000007854FEA932C04FB0C542705029D4FEA05
:10041000065847EA1637B5EB08056EEB070C870E52
:10042000920E47EA811742EA8312A7FB0201B6EB5C
:100430000B0164EB00042B0D43EA0C335E1844EB14
:100440001C50DA465146E7FB0201C5F313044FEA9C
:100450000B3343EA14534FEA0432019C43EA060388
:10046000A4F10C040294009CCDE900B400F047F91B
:1004700003B0BDE8F08F00200146F9E72DE9F04D0B
:1004800081EA030404F0004B21F0004514464FF0CC
:10049000000A23F0004150EA050220D054EA01028C
:1004A0001DD0C5F30A570246C5F31303C1F3130069
:1004B000C1F30A5640F4801543F48013A7EB0608F5
:1004C000101BD64608F2FD3873EB050002D308F185
:1004D000010801E092185B41B8F1000F03DA002037
:1004E0000146BDE8F08D00204FF480110646844699
:1004F0000EE0171B73EB050705D3121B63EB050317
:1005000006434CEA010C49084FEA300092185B415F
:1005100050EA0107EDD152EA030012D082EA04004A
:1005200083EA0501084305D0101BAB4106D2012226
:10053000002306E000224FF0004302E06FF00102CA
:1005400053101AEB06004CEB085110EB0A0041EB7C
:100550000B01BDE8F04D00F0C3B8C10F80EAE070B8
:100560000844CA079623002100F08CB89623002285
:10057000114600F087B80EB5C10F80EAE07008445C
:10058000CA07002140F233438DE80E000A460B46AD
:1005900000F0B5F803B000BD20F00040C10DC0F37D
:1005A000160040F400007F2901DA002070479629E8
:1005B00003DCC1F19601C840704796398840704706
:1005C00070B5C1F30A5201F000450024C1F31301D4
:1005D00040F2FF3341F480119A4201DA002070BDED
:1005E00040F233439A42A2F2334203DC5242FFF715
:1005F00018FE00E090402C43F1D0404270BD000056
:10060000002801DBC0F10040002901DBC1F10041FD
:1006100081427047002801DBC0F10040002901DB66
:10062000C1F100418842704730B50B4601460020B9
:100630002022012409E021FA02F59D4205D303FAA4
:1006400002F5491B04FA02F52844151EA2F1010225
:10065000F1DC30BD202A04DB203A00FA02F1002050
:1006600070479140C2F1200320FA03F319439040F0
:1006700070470029A8BF7047401C490008BF20F000
:100680000100704710B4B0FA80FC00FA0CF050EA98
:10069000010404BF10BC704749B1CCF1200421FA19
:1006A00004F411FA0CF118BF012121430843A3EB14
:1006B0000C01CB1D4FEA00614FEA102042BF002021
:1006C00010BC704700EBC35010440029A4BF10BCFD
:1006D0007047401C490008BF20F0010010BC704763
:1006E00010B5141E73F1000408DA401C41F100013A
:1006F00092185B411A4301D120F0010010BD2DE991
:10070000F04D92469B4611B1B1FA81F202E0B0FA87
:1007100080F220329046FFF79DFF04460F4640EAE4
:100720000A0041EA0B0153465A46084313D01146CA
:1007300053EA010019D0C8F140025046FFF771FD9D
:1007400005460E46504659464246FFF783FF08438A
:1007500005D0012004E020463946BDE8F08D002098
:10076000054346EAE0762C4337430A986305E40ADA
:10077000A0EB08000022FD0A44EA47540A3002D5E3
:1007800000200146E9E7010510196941DDE9084546
:1007900000196941BDE8F04DA2E70000064C074D85
:1007A00006E0E06840F0010394E807009847103441
:1007B000AC42F6D3FFF79EFCD4E40008F4E4000852
:1007C00070B58C1810F8015B15F0070301D110F813
:1007D000013B2A1106D110F8012B03E010F8016B40
:1007E00001F8016B5B1EF9D12B0705D40023521EC3
:1007F0000DD401F8013BFAE710F8013BCB1A921C2B
:1008000003E013F8015B01F8015B521EF9D5A14228
:10081000D8D3002070BD000070B504460068816820
:10082000C943C90717D1816821F00101816000F037
:10083000A3FC05460AE000BF00F09EFC401B022816
:1008400004D920688068C043C00706D0206880684B
:10085000C043C007F0D0002070BDA06A40F0100077
:10086000A062E06A40F00100E062012070BD00007B
:1008700070B5044648781A4DE02809D0902809D070
:10088000022809D0982809D050B1C2280BD023E003
:10089000032006E0012004E0002002E0022000E046
:1008A000A878207018E0686807F05AFA00F022F87B
:1008B0000C4805F0E9FD0C480023022219460068A7
:1008C00008F0D6F8094800231A461946006807F0D0
:1008D000BFFD002007F0B8FA2078A87070BD0000B6
:1008E00010030020503F0020040000208802002058
:1008F000FEE700000549044B0022886843F82020E9
:10090000401E886070470000083F0020B0000020B3
:100910001CB582681921CDE90012018AC3688AB228
:10092000D0E9001008F04CF81CBD704780680068E2
:1009300007F08ABA2DE9F04107460024084E094D18
:1009400008E000BF002356F824001A46394607F095
:1009500035FE641CA8688442F4DBBDE8F081000029
:10096000083F0020B000002010B54FF4806000F078
:10097000FDFA4FF4006000F0F9FABDE810404FF4C2
:10098000805000F0F3BA72B6FEE7000070B504467E
:1009900090F8020294F8031294F8042232B1012A6A
:1009A00006D0022A06D0032A09D106E0491E02E039
:1009B000401C03E0491CC9B201E0401EC0B200F077
:1009C0000F05274801F0070600EB06100321425DE2
:1009D00004231AB1022A22D0002070BD94F800220C
:1009E000284454F82220137094F80022521C02F07C
:1009F0007F0284F8002244F82200017094F801126A
:100A0000002054F82110087094F80102401C00F0F6
:100A10007F0084F80102052154F8200018E094F8C2
:100A20000022284454F82220137094F80022521C0B
:100A300002F07F0284F8002244F82200017002F0E4
:100A40002DFE08484178491C41700178A1EBD10185
:100A5000017084F8025284F80362012070BD000026
:100A6000AC40002010030020254CADF5027D002590
:100A70006570C820207002F0D3FC8DF800528DF80C
:100A80000152FFF7DFFBC11700EB117121F00F01DD
:100A9000401A8DF80202FFF7D5FBC11700EB517128
:100AA00021F00701401A0121C0B28DF804128DF81F
:100AB000030214499DF8022201EB001010449DF836
:100AC00000224DF822009DF803329DF8022201EB2E
:100AD00003110320505402210022084607F01CFC99
:100AE000606002F013FE02F0D9FD074800210068A3
:100AF00007F070FE054805F041FD684600F008F873
:100B000010030020AC40002088020020503F00204D
:100B10001FB50446434D0426434F4FF0030821E020
:100B200094F80212491C84F8021254F8200006704E
:100B300094F80002401C00F07F0184F8001294F841
:100B4000032294F8020207EB0212104444F8210039
:100B500080F8008002F078FC344805F0D7FF287850
:100B600004F042FE94F8000294F80112411A03299D
:100B7000D6DB94F8047204F501762C4805F0FEFCEF
:100B8000002203A9686807F07FFD03A93046FFF73C
:100B90006FFE2046FFF7FAFE10B194F8047237E0BA
:100BA00084F804722046FFF7F1FE88BB1F4805F069
:100BB000E5FC1F491D4805F0BAFF6A781DA168468B
:100BC00003F076FC6B4628220021184805F02CFF24
:100BD000164805F09BFF4FF4FA6007F00FF9134831
:100BE00005F052FC686807F0BBF8FFF783FE164873
:100BF00000231A461946006807F02AFC1348002310
:100C000002221946006807F033FF002007F01CF9A4
:100C100002F01AFC054805F079FF287807F0EEF895
:100C2000ABE7000010030020AC400020503F002044
:100C300099C5000847414D414F5645522053434FF7
:100C400052453A256400000088020020040000207C
:100C50002DE9F047824611488946002500EBC2067F
:100C60004FF00108002405EBC907715DC4F10702CC
:100C700008FA02F0014206D004EBCA0082B2B9B20F
:100C8000074805F0C5FD641C64B2082CEDDB6D1C43
:100C90006DB2082DE6DBBDE8F08700006B9B000815
:100CA000503F002002484FF0FF31006907F092BD2D
:100CB000000000200148C06870470000D0000020FC
:100CC000F8B50024009490F824202546012A12D07B
:100CD000012280F824204A681F23072A0DD20668C3
:100CE000776B521E02EB820293409F430B68934046
:100CF0001F43776319E00220F8BD06680D2A0AD267
:100D0000376BD21F02EB820293409F430B689340E4
:100D10001F43376309E0F76A0D3A02EB8202934002
:100D20009F430B6893401F43F7620A6807230668D6
:100D30000A2A0AD3F7680A3A02EB420293409F4319
:100D40008B6893401F43F76008E0376902EB42026B
:100D500093409F438B6893401F4337610A68102A72
:100D600001D0112A20D1124B02689A4217D1936800
:100D70001B0219D4936843F4000393600968102997
:100D800012D10C490C4A0968B1FBF2F101EB810167
:100D9000490000E0491E00910029FBD104E0816A6E
:100DA00041F020018162012480F824502046F8BDE2
:100DB000002401402000002040420F002DE9F041B6
:100DC0004FF0000704003D467ED0A06A002628B9F7
:100DD000E66284F82460204600F07EF82046FFF7A3
:100DE0001BFDA16AC90600D420B1A06A40F0100022
:100DF000A06269E0A16A21F4885141F00201A16278
:100E00006268E169237B0A4347EA43010A43A16818
:100E10004FF48077B94209D0012907D05FF0000173
:100E200094F814C0BCF1010F02D00AE03946F7E78C
:100E3000F3B1A36A43F02003A362E36A43F0010322
:100E4000E3622368D3F804C02CF4694C4CEA010C2B
:100E5000C3F804C021688B68DFF870C003EA0C0394
:100E600013438B60A168B9420BD0012909D00CE073
:100E7000DFF85CC0A3690CEB43330B4343F4006120
:100E8000DFE7218A0D05A5F580152168CB6A23F4DB
:100E900070032B43CB62216889680E4B1940914245
:100EA00008D1E662A16A21F0020141F00101A162CC
:100EB000BDE8F081A06A20F0020040F01000A062BE
:100EC000E06A40F00100E0620120F1E7FDF7E1FF98
:100ED00000E0FFFFFE0E1FFF00B585B0002100916E
:100EE00001910291039100680E49884218D10E4881
:100EF000816941F400718161816901F4007104919B
:100F0000816941F0040181618069694600F0040053
:100F100004900820009003200190044800F032F86B
:100F200005B000BD0024014000100240000801404F
:100F300070B5044600F020F90546601C02D0044854
:100F40000078044400F018F9401BA042FAD370BDA9
:100F500014000020B0F5806F04D0B0F5805F03D19D
:100F600002F01ABC01F032BE70470000044910B50F
:100F70000A68024202D00860FFF7ECFF10BD0000D3
:100F8000140401402DE9F84FDFF8B8910024A9F1CD
:100F9000040B23460F2709F1040AABF1040EC9E044
:100FA0000125A5402A40AA427DD1674ED1F804C050
:100FB000ACEB0608B44532D014DCBCF1030F3AD0D8
:100FC00009DCBCF1000F2AD0BCF1010F1CD0BCF130
:100FD000020F31D11DE0BCF1110F17D0BCF1120F7F
:100FE0002AD119E0B8F5881F19D006DCB8F5803F82
:100FF00015D0B8F5801F1FD111E0B8F5001F0ED035
:10100000B8F5041F18D10AE0CB6815E0CB681B1DAA
:1010100012E0CB6808330FE0CB680C330CE08B6830
:101020002BB1012B4FF0080303D0456104E00423EA
:1010300002E0056100E00023FF2A01D8064601E036
:1010400000F104064FEA840501D9A5F12005D6F880
:10105000008007FA05FC28EA0C0803FA05F548EABF
:101060000508C6F800804D68ED0062D5374DAE69C1
:1010700046F00106AE61AD6924F0030605F00105F6
:101080000095334D06EB050CDCF80850A607360F2B
:1010900007FA06F825EA0805DFF8B880404503D1CD
:1010A0004FF0000817E044E0DFF8AC80404502D183
:1010B0004FF001080FE0DFF8A480404502D14FF067
:1010C000020808E0DFF89880404502D14FF003089D
:1010D00001E04FF0040808FA06F848EA0508CCF8E1
:1010E00008804D68D9F80060ED024D4601D51643E1
:1010F00000E096432E604D68DAF80060AD02554678
:1011000001D5164300E096432E604D68DBF8006081
:10111000AD035D4601D5164300E096432E604D6851
:10112000DEF80060ED03754601D5164300E09643F6
:101130002E60641C0D682A46E5407FF431AFBDE89F
:10114000F88F000008040140000011100010024058
:101150000000014000080140000C01400010014067
:10116000001401408068084000D0012070470AB197
:10117000016170470904FBE701488068704700007F
:101180001400002070B5040025D094F83D0000251F
:1011900020B984F83C50204600F0E6F9242084F879
:1011A0003D002068016821F00101016020680168AC
:1011B00041F4004101602068016821F400410160B0
:1011C00000F078FC4D4A6168914201D84C4900E03A
:1011D0004C49884201D2012070BD4B492368B0FBC5
:1011E000F1F15E6826F03F060E435E60636893424D
:1011F00006D94FF4967359434FF47A73B1FBF3F168
:101200002368491C1E6A26F03F0631431962616853
:10121000914210D84900401EB0FBF1F2521CC2F3BB
:101220000B02042A01D2042022E0B0FBF1F0401CA2
:10123000C0F30B001CE0A268F2B301EBC10303EBA7
:101240000116431EB3FBF6F35B1C43F480431B05FE
:1012500049D092B301EBC10202EB0111401EB0FB79
:10126000F1F0401CC0F30B0040F4804040F400401B
:101270002168CA694CF6FF739A431043C861D4E9E8
:10128000071001432068026822F0C0021143016088
:10129000D4E9030101432068826848F2FF339A438E
:1012A00011438160D4E9050108432168CA6822F02E
:1012B000FF021043C86001E00EE016E020680168FC
:1012C00041F0010101602564202084F83D00256380
:1012D00084F83E50002070BD01EB4106431EB3FB75
:1012E000F6F35B1CB3E70120C2E701EB4101401EAE
:1012F000B0FBF1F0401CC0F30B00B7E7A086010083
:1013000080841E0000093D0040420F002DE9F84F87
:101310001F4690468A460446DDF82890FFF72CFFCA
:10132000054694F83D0020287FD119230122404929
:101330002046009501F0EAFA002876D194F83C00A6
:10134000012872D0012084F83C0020680168C90798
:1013500003D1016841F0010101602068016821F4B6
:1013600000610160212084F83D00102084F83E00D7
:1013700000262664C4F824806785608D20852D486A
:10138000E0622B464A465146204601F0F1F990B9F9
:10139000206841698069009036E02A464946204627
:1013A00001F05AFB50B1206C042804D12068016878
:1013B00041F4007101600120BDE8F88F606A216886
:1013C00000780861606A401C6062618D491E618519
:1013D000218D491E89B2218522685369DB435B0751
:1013E0000BD451B100781061606A401C6062608D5E
:1013F000401E6085208D401E20852A464946204695
:1014000001F058FA0028CED1208D0028C5D154F81B
:101410003D0B016841F400710160202004F81E09B1
:10142000E67766770020C7E7FFE70220C4E7000001
:10143000020010000000FFFF2DE9FF4F83B09A4625
:10144000DDE9119793460446DDF84080FFF794FEEE
:10145000054694F83D0020287FD1192301224049F8
:101460002046009501F052FA002876D194F83C000D
:10147000012872D0012084F83C0020680168C90767
:1014800003D1016841F0010101602068016821F485
:1014900000610160212084F83D00402084F83E0076
:1014A00000262664C4F82480A4F82A90608D208544
:1014B0002C48E062CDE9007553465A46204604990F
:1014C00001F0A4F970B930E02A463946204601F00F
:1014D000C3FA58B1206C042804D12068016841F493
:1014E00000710160012007B0BDE8F08F606A2168DB
:1014F00000780861606A401C6062218D491E89B2D3
:101500002185628D521E628522685369DB435B0729
:101510000BD469B100781061606A401C6062208D54
:10152000401E2085608D401E6085208D0028CBD117
:101530002A463946204601F0BDF90028CAD154F8A0
:101540003D0B016841F400710160202004F81E0980
:10155000E67766770020C6E7FFE70220C3E70000D2
:10156000020010000000FFFF10B586B000210091BE
:1015700001910291039100680F4988421AD10F4CE2
:10158000A06940F00800A061A069694600F0080069
:101590000490C0200090122001900320039008487E
:1015A000FFF7F0FCE06940F40010E061E06900F44E
:1015B0000010049006B010BD00540040001002401E
:1015C000000C014002488168027811448160704734
:1015D00014000020074810B5016841F010010160B7
:1015E000032000F0A7F80F2000F006F800F050F8F4
:1015F000002010BD0020024030B505461F4887B0CE
:10160000C16941F00401C161C06906A900F004008C
:10161000009001A800F02EFA0498B0B100F04AFA48
:1016200040001749174AB0FBF1F11748491E026004
:10163000416040F2E7320021C0E90321816081610D
:1016400000F000FD040003D015E000F033FAE8E7F5
:101650000D4800F043FD04000DD11E2000F03CF8C1
:10166000102D07D2002229461E2000F043F807481B
:10167000056000E0012407B0204630BD00100240A4
:1016800040420F00000800401C0800201800002005
:101690000F4808B5816941F001018161816901F05C
:1016A00001010091C16941F08051C161C06900220E
:1016B00000F0805000900F21901E00F01BF80548AC
:1016C000416821F0E06141F00071416008BD000017
:1016D0000010024000000140002809DB00F01F025A
:1016E000012191404009800000F1E020C0F8001184
:1016F00070470000F0B40E4B1B680C46C3F3022386
:10170000C3F10705042D00D90425191D072901D2AD
:10171000002300E0DB1E012606FA05F1491E2140E8
:1017200099409E40761E16403143F0BC02F0D4BE74
:101730000CED00E0064900F0070208684FF6FF03D1
:10174000184040EA0220034A104308607047000036
:101750000CED00E00000FA052DE9F04186B0040030
:1017600004D094F8A902002520B108E0012006B0B9
:10177000BDE8F08184F8A852204600F05BF8032011
:1017800084F8A902206802F078FE04F11001142206
:1017900088466846FEF768FD94E80F0002F060FE98
:1017A0000227D0BB0021206802F06EFE0020012637
:1017B0000EE000BF00EB800104EBC10181F829605D
:1017C00001F8280F401CCD700D614D61C0B28D61D4
:1017D00061688142EED8002012E000BF00EB80017A
:1017E00004EBC10181F8695181F8680181F86B51FE
:1017F000C1F87851C1F87C51401CC0B2C1F8805189
:1018000061688142EAD8142241466846FEF72CFD01
:1018100094E80F0002F028FE10B184F8A972A5E741
:1018200084F8245084F8A962206802F01BFE00208E
:101830009DE7000008B500680649884208D10648BF
:10184000C16941F40001C161C06900F40000009069
:1018500008BD0000005C0040001002402DE9F84384
:1018600005460078354CC00754D0E0690026C0001A
:1018700008D4E06940F08050E061E069012600F0A2
:10188000805000902E480168C90512D40168804636
:1018900041F480710160FFF76FFC074605E000BF6F
:1018A000FFF76AFCC01B642823D8D8F80000C005E5
:1018B000F6D5206A10F4407021D0A98801F4407157
:1018C00081421CD0206A1F49012220F440700A6026
:1018D00000220A602062C00711D0FFF74DFC0746C6
:1018E00041F2883808E000BFFFF746FCC11B4145C4
:1018F00002D90320BDE8F883206A8007F4D5206A66
:10190000696820F44070084320621EB1E06920F04D
:101910008050E0612878800705D56068A96820F4C8
:101920004040084360602878C00605D56068E968D3
:1019300020F48000084360600020DBE700100240D4
:1019400000700040400442422DE9F0470F46050078
:1019500061D0434E306800F00700B84209D23068C9
:1019600020F0070038433060306800F00700B842CC
:1019700051D128683B4C810712D5400703D56068D8
:1019800040F4E06060602878000703D5606840F4A8
:10199000605060606068A96820F0F00008436060F3
:1019A0002878C00728D06868012810D0216802284C
:1019B00010D0890700292EDA616821F00301014364
:1019C0006160FFF7D9FB804641F288390DE021685C
:1019D0008903EFE78901EDE7FFF7CEFBA0EB0801F4
:1019E000494502D90320BDE8F0876068696800F0C6
:1019F0000C00B0EB810FEFD1306800F00700B84267
:101A00000BD9306820F0070038433060306800F0B0
:101A10000700B84201D00120E5E72878400705D546
:101A20006068E96820F4E060084360602878000797
:101A300006D56068296920F4605040EAC100606002
:101A400000F058F86168084AC1F30311515CC840BE
:101A50000649086006480068FFF7CEFD0020C2E78F
:101A600000200240001002402E8F000820000020BD
:101A7000180000200F2202600C4A536803F0030391
:101A80004360536803F0F0038360536803F4E0633A
:101A9000C36052684FF4E06303EAD2020261044873
:101AA000006800F007000860704700000010024066
:101AB000002002400448054900684968044AC1F30F
:101AC0000221515CC84070472000002000100240F5
:101AD0003E8F00080448054900684968044AC1F37C
:101AE000C221515CC8407047200000200010024015
:101AF0003E8F00080E4A51680E4801F00C03042B7B
:101B000011D0082B0FD10C48C1F38343C903C05C2B
:101B10000AD55168084AC1F34041921E515C054AFA
:101B20005043B0FBF1F07047044948437047000050
:101B30000010024000127A001E8F000800093D00CC
:101B40002DE9F84F040070D02078C04DC00749D06F
:101B50006868C0F38100012807D06868C0F381007D
:101B6000022809D16868C00306D52868800339D5E2
:101B700060680028E7D035E06068B0F5803F0BD0A2
:101B800010B1B0F5A02F11D0286820F48030286063
:101B9000286820F4802002E0286840F48030286023
:101BA000606890B1FFF7E8FA06460AE0286840F45A
:101BB00080202860F0E700BFFFF7DEFA801B642872
:101BC00073D828688003F7D50CE0FFF7D5FA0646EE
:101BD00005E000BFFFF7D0FA801B6428F0D8286822
:101BE0008003F7D420789A4E80074FF001094FF018
:101BF000000839D5686810F00C0F07D06868C0F38A
:101C00008100022809D16868C00306D428688007CB
:101C100014D52069012808D110E02069B0B1C6F8B8
:101C20000090FFF7A9FA074605E00AE1FFF7A4FADA
:101C3000C01B0228C4D828688007F7D528686169C6
:101C400020F0F80040EAC10028600DE0C6F80080EE
:101C5000FFF792FA074604E0FFF78EFAC01B02284E
:101C600023D828688007F7D4207800072CD5794836
:101C7000A169D9B1C0F80090FFF77EFA074604E0E9
:101C8000FFF77AFAC01B02280FD8686A8007F7D5D9
:101C900071484FF4FA510068B0FBF1F0009000BFBA
:101CA0000098411E0091FAD20EE080E0C0F800805A
:101CB000FFF762FA074604E0FFF75EFAC01B02284E
:101CC00075D8686A8007F7D42078400760D5E8693E
:101CD0000027C00008D4E86940F08050E861E86956
:101CE000012700F0805000905C480168C90513D4BA
:101CF0000168834641F480710160FFF73DFA824636
:101D000006E000BFFFF738FAA0EB0A0064284ED8BF
:101D1000DBF80000C005F5D5E06801280AD008B15D
:101D2000052813D0286A20F001002862286A20F0D4
:101D3000040002E0286A40F001002862E06841F2F5
:101D4000883B98B1FFF718FA82460BE0286A40F00A
:101D500004002862EEE700BFFFF70EFAA0EB0A01CD
:101D600059455AD8286A8007F6D50CE0FFF704FADF
:101D7000824605E0FFF700FAA0EB0A0159454CD86E
:101D8000286A8007F6D41FB1E86920F08050E86126
:101D9000E06988B36968C1F38101022944D002284F
:101DA000C6F8608004D0FFF7E7F9044638E034E075
:101DB000FFF7E2F9074604E0FFF7DEF9C01B02284F
:101DC0002BD828688001F7D4206AB0F5803F05D170
:101DD0006868A16820F4003008436860D4E908010D
:101DE0000843696821F4741108436860C6F860907C
:101DF000FFF7C2F9044606E025E000BFFFF7BCF993
:101E0000001B022809D828688001F7D51BE000BF15
:101E1000FFF7B2F9001B022802D90320BDE8F88FB2
:101E200028688001F4D40EE00128F7D06868226A9F
:101E300000F48031914204D1616A00F4701088424C
:101E400001D00120EAE70020E8E70000001002408E
:101E50000000424280044242200000200070004006
:101E600070B5040009D0606A002540B12561656144
:101E7000A56294F8510040B10CE0012070BD60688B
:101E8000B0F5827FF4D0E561F2E784F85050204647
:101E900000F040F8022084F851002068016821F029
:101EA00040010160A088218900F4827001F404419E
:101EB0000843A18901F400610843217C01F002017B
:101EC0000843217D01F001010843218B01F40071D9
:101ED0000843217F01F03801084394F8201001F0F5
:101EE00080010843218D01F40051084321680860F6
:101EF000A069042101EA1040216848602068C16996
:101F000021F40061C1616565012084F85100002061
:101F100070BD000030B585B0002400940194029497
:101F2000039400681449884223D11448816941F41C
:101F300080518161816901F480510491816941F08E
:101F40000401816180690E4D00F004000490A0201E
:101F50000090022001900320039069462846FFF775
:101F600011F84020CDE90004694628460294FFF7A5
:101F700009F805B030BD00000030014000100240FB
:101F8000000801407047704710B590F83C20012AC6
:101F900022D0012280F83C20CA688C6822F440726A
:101FA00022434C6822F4806222430C6822F40062CF
:101FB00022430C6922F4805222434C6922F40052DD
:101FC0002243C969002322F480420A4301684A641B
:101FD00080F83C30002010BD022010BD70B590F894
:101FE0003C20012A26D0012480F83C40022280F8BF
:101FF0003D2003685A689D6822F070060A683243E3
:102000005A600D4B02689A4208D0B2F1804F05D059
:102010000A4B9A4202D00A4B9A4204D1496825F0F1
:1020200080031943916080F83D40002180F83C1006
:10203000084670BD022070BD002C01400004004025
:102040000008004010B5040003D094F83D0010B122
:1020500007E0012010BD002084F83C00204600F07D
:102060001FF8022084F83D00211D206801F076FE53
:10207000012084F8460084F83E0084F83F0084F88C
:10208000400084F8410084F8420084F8430084F85A
:10209000440084F8450084F83D00002010BD000095
:1020A00008B50C4A01680C48914207D1816941F496
:1020B00000618161806900F4006009E0B1F1804F46
:1020C00007D1C16941F00101C161C06900F001009F
:1020D000009008BD002C01400010024090F83D1017
:1020E000012901D001207047022180F83D100168CC
:1020F000CA6842F00102CA6000680B49884208D0F1
:10210000B0F1804F05D00949884202D00849884281
:1021100004D1816801F00701062903D0016841F06C
:102120000101016000207047002C014000040040C4
:102130000008004070B5044690F83C0000250128D6
:1021400017D0012684F83C60022084F83D00206806
:10215000826822F0770222F47F4282600868502869
:1021600038D00DDC20284FD005DC90B3102811D1D9
:102170004AE0022070BD302846D040280AD13BE01A
:1021800060282FD070280DD0B0F5805F03D0B0F557
:10219000005F12D0012584F83D60002084F83C00E7
:1021A000284670BDCB68D1E90121206801F00CFE02
:1021B0002068816841F0770109E0CB68D1E901210D
:1021C000206801F001FE2068816841F4804181604F
:1021D000E1E719E0CA684968206801F0A9FE5021CA
:1021E000206806E0CA684968206801F0B2FE6021F4
:1021F000206801F0F3FDCEE7CA684968206801F065
:1022000097FE40212068F4E7226801461046F0E777
:10221000704770B50446006801694FF00005C94376
:10222000890715D4C168C943890711D4E91E016122
:1022300001202077206880698007204602D0FFF7C0
:10224000E7FF04E000F00EF9204600F0B3F925772F
:1022500020680169C943490717D4C168C9434907C0
:1022600013D46FF004010161022020772068806997
:1022700010F4407F204602D0FFF7CAFF04E000F0D0
:10228000F1F8204600F096F9257720680169C943E6
:10229000090716D4C168C943090712D46FF00801B1
:1022A0000161042020772068C0698007204602D0A1
:1022B000FFF7AEFF04E000F0D5F8204600F07AF911
:1022C000257720680169C943C90617D4C168C94385
:1022D000C90613D46FF0100101610820207720682F
:1022E000C06910F4407F204602D0FFF791FF04E060
:1022F00000F0B8F8204600F05DF925772068016904
:10230000C943C90708D1C168C943C90704D1891E97
:102310000161204600F050F920680169C9430906AF
:1023200009D4C168C943090605D46FF08001016171
:102330002046FFF727FE20680169C943490609D4F2
:10234000C168C943490605D46FF0400101612046C8
:1023500000F03CF920680169C94389060BD4C168C3
:10236000C943890607D46FF0200101612046BDE80A
:102370007040FFF708BE70BD70B586B000210091B7
:102380000191029103910068304B31490224314A96
:10239000984211D1886940F00400886188690394EB
:1023A00000F0040004908815CDE900046946104649
:1023B000FEF7E8FD06B070BD274E284DB0F1804F06
:1023C0001BD0274A9042F5D1886940F00800886107
:1023D0008869694600F0080004901020CDE90004E7
:1023E00030460394FEF7CEFD686820F4406040F06C
:1023F000E06040F400606860DCE7886940F0040059
:102400008861886900F004000490886940F0080041
:1024100088618869694600F00800049048F2040069
:10242000CDE9000410460394FEF7ACFD0820CDE989
:102430000004694630460394FEF7A4FD686820F462
:10244000407040F0E06040F48070D4E7002C014020
:102450000010024000080140000C01400000014053
:1024600000040040704770B5044690F83C00002618
:102470000D4601280FD0012084F83C006AB1042ADF
:102480001DD0082A2FD00C2A3FD00126002084F826
:102490003C00304670BD022070BD206801F0A6FCF3
:1024A0002068816941F0080181612068816921F01B
:1024B00004018161206881692A69114311E0206863
:1024C00001F0BCFC2068816941F4006181612068F1
:1024D000816921F480618161206881692A6941EA0A
:1024E00002218161D2E7206801F0D4FC2068C16933
:1024F00041F00801C1612068C16921F00401C16196
:102500002068C1692A69114311E0206801F0EEFCDE
:102510002068C16941F40061C1612068C16921F48A
:102520008061C1612068C1692A6941EA0221C161F3
:10253000ACE710B5040003D094F83D0010B107E0FB
:10254000012010BD002084F83C00204600F01EF859
:10255000022084F83D00211D206801F0FFFB0120CE
:1025600084F8460084F83E0084F83F0084F8400078
:1025700084F8410084F8420084F8430084F8440061
:1025800084F8450084F83D00002010BD08B50068BF
:102590000649884208D10648C16941F00201C1617B
:1025A000C06900F00200009008BD00000004004077
:1025B000001002407047000000680349884201D1C2
:1025C000FFF700B87047000000080040704770B582
:1025D000040004D094F84100002510B106E0012069
:1025E00070BD84F84050204600F024F8242084F880
:1025F00041002068C16821F40051C160204601F00B
:1026000031FE2068016921F490410161206841692F
:1026100021F02A0141612068C16841F40051C16084
:102620006564202084F8410084F84200656300203E
:1026300070BD000030B585B0002400940194029470
:10264000039400681449884224D11448816941F4F4
:1026500080418161816901F480410491816941F087
:102660000401816180690E4D00F0040004904FF474
:1026700000700090022001900320039069462846D4
:10268000FEF780FC2815CDE900046946284602942F
:10269000FEF778FC05B030BD003801400010024064
:1026A000000801402DE9F843044690F841001F4618
:1026B00016460D46202802D00220BDE8F8837DB1E1
:1026C00076B100206064212084F84100FEF754FDBB
:1026D000A6848046E684A068B0F5805F02D003E05F
:1026E0000120EAE7206910B12E4600250EE0002601
:1026F0000CE08021204601F011FEA0B9AEB116F821
:10270000010B21684860E08C401EE084E08C434669
:102710004FF0000200970028EBD14FF04001204617
:1027200001F0FCFD30B10320C7E735F8020BC0F320
:102730000800E6E7202084F841000020BDE7FEE71E
:1027400001684A69D24352050FD46FF480624A612E
:10275000002140F8301F202242738173026942F049
:1027600004020261017301207047002070470000DD
:10277000F8B50446C06A1E460D461746082807D01D
:10278000012805D010F5803F02D0206B122804D11B
:102790002068016841F480710160134600224FF007
:1027A00001112046009600F0B1F840B120680068A1
:1027B000C00502D54FF4007020640320F8BD2069E5
:1027C000B0F5804F0ED00620216800EAD51040F009
:1027D000F000086133463A460B49204600F0DEF827
:1027E00078B902E005F0FE0000E0E8B22168086177
:1027F000054933463A46891F204600F0CFF80028A5
:10280000DCD00120F8BD0000080001002DE9F843EC
:10281000044600680D46DDE90897016898461646AB
:1028200041F4807101604B4600224FF001112046B7
:10283000009700F06BF848B120680068C00502D529
:102840004FF4007020640320BDE8F883216805F090
:10285000FE0008613B464A461549204600F09EF8B6
:1028600088B920684169806900903A464946204607
:1028700000F0F2F848B1206C042804D12068016807
:1028800041F4007101600120DEE7F5B2B8F1010FFB
:1028900009D02168300A08613A464946204600F0CE
:1028A000DBF80028E7D1206805610020CCE70000B4
:1028B0000200010070B516460D4604461EE0204693
:1028C000FFF73EFF08B1012070BD681C16D0FEF76F
:1028D00053FC801BA84200D885B920684069C043DA
:1028E00040070BD5002044F8300F20216173A073FE
:1028F000216941F0200121612073E4E720684069EB
:10290000C0434007DBD4002070BD00002DE9F04734
:10291000984617460D460446C1F30746DDF8209059
:102920002AE000BFB8F1FF3F26D0FEF725FCA0EB60
:102930000901414502D8B8F1000F1DD12068012ED0
:1029400016D0806925EA00000004000C12D0002097
:10295000B84211D1002044F8300F20216173A073D8
:10296000216941F02001216120730120BDE8F08739
:102970004069E7E70120EBE72068012E0AD0806973
:1029800025EA00000004000C06D00020B842C9D09F
:102990000020EBE74069F3E70120F7E72DE9F04776
:1029A000984616460D4604464FF000094FF0200A9F
:1029B000C1F3074723E020684069C043400515D4B0
:1029C0002068016841F40071016021686FF4806043
:1029D0004861C4F8309084F83DA084F83E90216CA2
:1029E00041F00401216484F83C9021E0701C06D081
:1029F000FEF7C2FBA0EB0800B04203D816B1012FCE
:102A00001FD021E02068012F15D0806925EA000041
:102A10000004000C18D000BF44F8309F84F80DA0CB
:102A200084F80E90216941F02001216184F80C9016
:102A30000120BDE8F087406925EA00000004000C91
:102A4000EAD12068406901E02068806925EA000039
:102A50000004000CAFD1ECE770B516460D460446F5
:102A60001EE02046FFF76CFE08B1012070BD681C17
:102A700016D0FEF781FB801BA84200D885B92068DC
:102A80004069C04300060BD5002044F8300F2021D8
:102A90006173A073216941F0200121612073E4E793
:102AA00020684069C0430006DBD4002070BD0000F0
:102AB0002DE9F84FDFF8F89000224846DFF8F4C01F
:102AC000D0E90261D9E900400B46341B61EB0001FB
:102AD000501EB4EB0C0C1546174671F1000C5ED37A
:102AE000DFF8D4804FF0000CB8EB04047CEB010C51
:102AF00055D34C46D4E904C1BCEB060661EB030197
:102B00002E4BF31A71F1000349D3DFF8B4C0002350
:102B1000BCEB06068B4142D300234FF00309EA4683
:102B200009EB430808F1010C04EBCC0104EBC80CE1
:102B3000D1E90061DCE9008CB6EB080661EB0C0121
:102B40005206DFF88080120E6D1C4FF0000CB8EBBF
:102B500006067CEB010C01D242F00102082D04D1E3
:102B60000AF80720002215467F1C5B1C202BD7DBB0
:102B70009DF80110C943CBB28DF801309DF80310C8
:102B8000C943CAB28DF803209DF80010994203D1C1
:102B90009DF80230934204D00B4A00215160BDE8F9
:102BA000F88F094801704370FDF7C4FE0020F6E776
:102BB000E83C002000127A0080969800E06735001B
:102BC000C03B470340420F00B00000202DE9F04118
:102BD00003F038FC244C254FD4E90623861A61EB18
:102BE000030200231D46BE1B934100D26560C4E969
:102BF00006011F4A636802EBC3065B1CC6E90001BD
:102C00006360042B06D0442B02D1FFF751FF6560AF
:102C1000BDE8F081D2E90260D2E900370146F31A3B
:102C200060EB0700134FDF1B70F10007F0D3DFF8F4
:102C300048C00027BCEB03038741E9D3D2E9040273
:102C4000801B62EB01020D49411A72F10001DFD3D2
:102C50004FEAAC030021181A9141D9D302484570BC
:102C60000570FDF767FED2E7B000002000E1F50532
:102C7000E83C002000127A008096980080841E00B4
:102C8000704700001CB51A4C002201A9A06A05F08B
:102C9000FBFC9DF80500E0280ED090280ED078B1FE
:102CA000C2280FD0002000900023A0601A46694679
:102CB000206A05F0CDFB1CBD0220F4E70120F2E7FD
:102CC000A068F0E70B48002302221946006805F0CF
:102CD000CFFE322005F092F8606B05F0B5F8206A5F
:102CE00005F03EF8002005F0AFF80098DCE70000A2
:102CF00004010020240200201CB5184C002201A968
:102D0000A06A05F0C1FC9DF80500E0280ED09028CF
:102D10000ED078B1C2280FD0002000900023E060D0
:102D20001A466946206A05F093FB1CBD0220F4E7B1
:102D30000120F2E7E068F0E7606B05F085F8A06B32
:102D400005F082F80648002302221946006805F0C3
:102D50008FFE002005F078F80098DFE740010020A2
:102D6000280200201CB51B4C4FF0FF373946206B62
:102D700005F026FD0028F9D0A16A884202D1FFF7AC
:102D800081FFF3E7616A884202D100F03DF8EDE788
:102D9000E36A9842EAD1002201A9184605F074FCC2
:102DA00001985A2804DD022100915C28DEDB03E053
:102DB000012100915828D9DC0226002500231A465B
:102DC0006946206A05F044FB6D1CEDB2B542F5D3AF
:102DD000CCE70000040100200A4C4FF0FF352946E3
:102DE000206B05F0EDFC0028F9D0A16A884202D1E1
:102DF000FFF782FFF3E7E16A8842F0D100F030F894
:102E0000EDE70000400100207CB5144E0022694629
:102E1000706A05F039FC0099002901DD012002E00B
:102E2000002049420091782901DD042504E03C2975
:102E300001DD022500E0012508B1022000E00120AB
:102E40000024019007E000231A4601A9306A05F02A
:102E5000FFFA641CE4B2AC42F5D37CBD040100204F
:102E60007CB5144E00226946F06A05F00DFC00990D
:102E7000002901DD012002E000204942009178296B
:102E800001DD042504E03C2901DD022500E00125E7
:102E900008B1022000E001200024019007E0002397
:102EA0001A4601A9706A05F0D3FA641CE4B2AC4278
:102EB000F5D37CBD4001002000F0E0BA00F0F4BA88
:102EC00000F00EBB00F03CBB00F044BB10B500218D
:102ED0006B2000F01FF800216C2000F01BF8092186
:102EE000192000F017F806211A2000F013F8182115
:102EF0001B2000F00FF818211C2000F00BF8002216
:102F000004210F2005F008FA01498860002010BD57
:102F1000A40000201CB502238DF804004FF4FA70C1
:102F2000009004488DF8051001AAD0210068FEF732
:102F3000EDF91CBDA40000203EB50024114800940A
:102F4000019402940E4984600160047304750125A4
:102F500005614FF460214460C161FDF72FFF08B1A6
:102F6000FDF711FD0320CDE90005694602940548EF
:102F7000FDF7A6FE002801D0FDF705FD3EBD0000CF
:102F800000240140300300201CB5FFF79DFFFFF730
:102F900093FFFFF79BFFFFF773FE00F04BFC012050
:102FA00005F0ABF90649002380220861091D1820AD
:102FB000CDE9000103A1074805F002FD1CBD00009A
:102FC000000000205461736B5F436F6E74726F6C0E
:102FD00000000000793F00082DE9F04786B000248A
:102FE0004B480094019402940394816941F01001CC
:102FF0008161816901F010010491816941F0200132
:103000008161816901F020010491816941F004012D
:103010008161816901F004010491816941F0080135
:10302000816180693B4F00F008004FF40055049027
:10303000002229463846FEF79AF8DFF8DC90002295
:1030400013214846FEF793F8DFF8D0A04FF402486A
:10305000002241465046FEF78AF8009502260125D7
:103060000396CDE9015469463846FDF78BFF1127D9
:1030700000970396CDE9015469464846FDF782FF63
:10308000CDE90256CDE9006769464846FDF77AFF6B
:1030900003208DE8310069465046FDF773FFA80212
:1030A00000901F48CDE9010569465046FDF76AFFCB
:1030B0001C4F4FF40260CDE9000769460295504667
:1030C000FDF760FF2803CDE90007694602945046EA
:1030D000FDF758FF4FF48240CDE9000469465046A1
:1030E0000294FDF74FFFCDF800800396CDE901541F
:1030F00069465046FDF746FF002205212820FEF7CD
:10310000F9FA2820FEF7E8FA06B0BDE8F0870000DB
:10311000001002400010014000080140000C014076
:1031200000003110000011100D4810B50B4901606E
:103130000C49416000214FF480428160C0E90312D4
:1031400041618161C1610162FEF71CF8002803D072
:10315000BDE81040FDF717BC10BD00000054004052
:1031600060030020A0860100104810B50E490160E0
:103170004FF48271416000218160C1604FF40072A0
:103180000161C0E905120822C0E90721416281629C
:103190000A21C162FEF764FE002803D0BDE810409A
:1031A000FDF7F1BB10BD000000300140B40300206A
:1031B00010B596B000240F941094119412941394A7
:1031C0001C2108A81494FDF768F820216846FDF733
:1031D00064F82A48284901604721C0E9011440F2F7
:1031E000E731C0E903148021C0E90541FEF72AFF59
:1031F00008B1FDF7C8FB4FF480500F900FA91F488E
:10320000FEF798FF08B1FDF7BEFB1C48FFF791F9E8
:1032100008B1FDF7B8FB139413A918481494FEF7EE
:10322000DDFE08B1FDF7AFFB6020089040F2F3101F
:10323000CDE909040B940C940D94002208A90F48C1
:103240000E94FFF710F908B1FDF79DFB00944FF4C1
:103250000050CDE904400294019403946946074864
:103260000794FEF791FE08B1FDF78DFB0348FFF7C9
:1032700083F816B010BD0000002C01400C040020A3
:1032800010B58EB000240794089409940A940B9406
:103290001C2168460C94FDF700F827484FF0804148
:1032A000016040F26711C0E9011440F2CF71C0E93A
:1032B000031480218161FEF7C5FE08B1FDF763FBB1
:1032C0004FF48050079007A91B48FEF733FF08B161
:1032D000FDF759FB1848FFF72CF908B1FDF753FB30
:1032E0000B940BA914480C94FEF778FE08B1FDF777
:1032F0004AFB6020CDE900040294002269460E4892
:103300000494FFF7B0F808B1FDF73DFB04226946CD
:103310000948FFF7A8F808B1FDF735FB0822694610
:103320000548FFF7A0F808B1FDF72DFB0248FFF7AD
:1033300023F80EB010BD00005404002010B58AB070
:10334000002407941C2168460894FCF7A6FF18483F
:10335000164901600721C0E9011440F2E731C0E9D4
:10336000031480218161FFF7E4F808B1FDF70BFB3E
:10337000079407A90E480894FEF730FE08B1FDF740
:1033800002FB602000904FF46170CDE9010400223F
:10339000694607480494FFF766F808B1FDF7F3FAA9
:1033A0000348FEF7E9FF0AB010BD0000000400402A
:1033B0009C0400200C4810B50A4901604FF4E1312B
:1033C0004160002181600C22C160C0E9041281616A
:1033D000C161FFF7FCF8002803D0BDE81040FDF7FD
:1033E000D2BA10BD00380140E40400200B4810B5EB
:1033F0000949016008214160022181600021816149
:10340000C1610162FEF7A8F9002803D0BDE81040B1
:10341000FDF7B9BA10BD0000005C00402C0500208B
:1034200010B50021074C0A46002004EB01131A5482
:10343000401C40B21028FADB491C49B20829F3DBD2
:1034400010BD0000AC4000202DE9F041094F0025DF
:10345000002407EB0516E1B2325DE8B2FDF7F8FB98
:10346000641C64B2102CF6DB6D1C6DB2082DEFDB12
:10347000BDE8F081AC400020FEE7FEE710B5A0B04B
:10348000002480216846FCF708FF0021204600F058
:10349000C1F88021684600F0F1F8641CE4B2082C01
:1034A000F3D320B010BD000070B50C4D002400BF58
:1034B00004F1B000C0B200F0CDF8002000F0CAF86E
:1034C000102000F0C7F805EBC410802100F0D6F8FA
:1034D000641CE4B2082CEBD370BD000064380020FB
:1034E0002DE9F0478146C81701EB5070C0F3C705BE
:1034F00020F00700081A1844C01DC11700EB5170D6
:103500009246C0F3C7070024DFF8308011E02E197F
:10351000082E0CD209F0FF01F0B200F07BF809EBA5
:10352000C6121FFA8AF102EB080000F0A7F8641C2B
:10353000E4B2BC42EBD3BDE8F08700006438002061
:10354000802303604020086001201060004870471D
:103550006438002010B50224202000F07BF82046BB
:1035600000F078F81F4804703F24A82000F072F89B
:10357000204600F06FF80024D32000F06BF82046BE
:1035800000F068F8402000F065F8A12000F062F833
:10359000C82000F05FF80021084600F025F87F24DD
:1035A000812000F057F8204600F054F8A42000F0E5
:1035B00051F8A62000F04EF8D52000F04BF88020FE
:1035C00000F048F88D2000F045F8142000F042F893
:1035D0000021012000F008F8BDE81040AF2000F005
:1035E00039B800009C00002070B50C46050001D0E1
:1035F000012D0ED10CB1012C0BD1DA2000F02AF8EC
:10360000280100EB4410BDE87040801CC0B200F0FF
:1036100021B870BD70B50E4D0C462978022905D130
:10362000072803D8B030C0B200F014F82878022878
:103630000CD17F2C0AD804F00F0000F00BF81020FA
:1036400000EB1410BDE8704000F004B870BD00003D
:103650009C0000201CB500218DF804108DF8050099
:103660004FF4FA7000900448022301AA78214068C0
:10367000FDF74CFE1CBD00009C0000200EB54FF471
:10368000FA728DE80700044801234022782140683F
:10369000FDF7D2FE0EBD00009C00002070B5FCF7C7
:1036A000D1FDFCF7D9FDFCF7CDFDC11700EB517141
:1036B00021F00701401A44B2FCF7C4FDC11700EB2A
:1036C000117121F00F01401A40B20F4D12E000BFFE
:1036D000FCF7B8FDC11700EB517121F00701401A4A
:1036E00044B2FCF7AFFDC11700EB117121F00F01DF
:1036F000401A40B205EB0411095C0029E8D105EB42
:1037000004120221115470BDAC400020044A91689B
:103710000A2904DA034B43F82100491C91607047E1
:10372000B0000020083F002010B5FDF7E3F8084C7A
:10373000E06804F097FA0020E060606A04F010FB93
:10374000A06A04F00DFB206BBDE8104004F008BB3C
:103750000401002010B5FDF7CDF8094C206A04F0F3
:10376000FFFA606A04F0FCFAA06A04F0F9FAE06A71
:1037700004F0F6FA206BBDE8104004F0F1BA000046
:1037800040010020034800231A461946006904F04E
:103790005FBE0000000000202DE9F04102F052FE63
:1037A000204C06460D46D4E90623801A1E4A61EBDA
:1037B0000301801A71F1000004D200BFC4E906655C
:1037C000BDE8F081DFF864804FF480514046FDF79A
:1037D000C9FC0028F4D0D4E90601321A65EB0103D4
:1037E000012713480021FCF7EBFC606000B967601B
:1037F00001214046FDF7B6FC002820680BD0401C94
:10380000206060680749002310311A460860E068AC
:1038100004F0D4FED2E7401E206060684042606041
:10382000F0E70000D000002080841E00000C014062
:1038300000CA9A3B10B5002204210F2004F06CFD51
:103840000149C86010BD0000D00000201CB5002553
:10385000AE4802F093FEAE49AC4803F068F9AD4FB4
:103860003C22A7F140063421707807EBC000436882
:10387000A64803F0D9F8707807EBC0004168A34868
:1038800003F026F900F0FF08A3480824CDE9004022
:103890001023342223219D4803F0D4F89F4810239D
:1038A000CDE90040342208F13501984803F0CAF808
:1038B000747806F1040BBA460AEBC4074FF01E09F0
:1038C00057F8080C5E46CDE90090BBF80220BBF823
:1038D000001019238D4803F0B5F85AF83400192365
:1038E000CDE90090F289B189884803F0ABF8B86857
:1038F0001923CDE90090728B318B844803F0A2F834
:1039000087480926CDE9006000220A2311467F4836
:1039100003F098F883480A23CDE90060002276215D
:103920007A4803F08FF88049784803F000F97FA3C4
:1039300009223221754803F077F87549734803F07E
:10394000F6F8DFF8D091A9F1400999F800000128B4
:1039500002D0022856D0B6E076491020CDE9000109
:10396000502333222321694803F06CF84FF01E08DE
:103970005E463EE070492020CDE900018023102200
:103980000021624803F05EF857F8080C2D1DCDE9C0
:1039900000803088EDB2401B81B2728819235B48E9
:1039A00003F050F85AF834001923CDE90080B089AB
:1039B000F289401B81B2554803F044F8B8681923D6
:1039C000CDE90080308B728B401B81B24F4803F0F1
:1039D00039F838691923CDE90080308E728E401B8A
:1039E00081B24A4803F02EF8484803F08FF82C2D96
:1039F00001D2052CBED3641CE4B20025052C57D39C
:103A0000052455E04B491020CDE900015023332215
:103A100023213E4803F016F84FF01E085E463FE0B3
:103A200045492020CDE9000180231022002137489C
:103A300003F008F857F8100C2D1DCDE90080B08C6C
:103A4000EDB2284481B2F28C1923304802F0FAFF1B
:103A500057F8080C1923CDE9008030887288284473
:103A600081B22A4802F0EEFF5AF834001923CDE95A
:103A70000080B089F289284481B2244802F0E2FF34
:103A8000B8681923CDE90080308B728B284481B24D
:103A90001E4802F0D7FF1D4803F038F82C2D01D244
:103AA000012CBDD8641EE4B20025012C00D80124ED
:103AB0000AEBC4004168154803F00AF8002100F041
:103AC000FF0889F800100AEBC400406800F062FCAF
:103AD00011480826CDE900601023342223210B4829
:103AE00002F0B0FF0D481023CDE90060342208F148
:103AF0003501064802F0A6FF89F80140034803F0AB
:103B000005F8962004F07AF9D6E60000503F002030
:103B100099C50008C00100205B9B00084B9B000872
:103B200097970008859700087EBB00084F74746F54
:103B300000000000AB9A0008AB9800088AB046A1CC
:103B400047A2D1E90001CDE9080107CA02AB474FFE
:103B500083E807000E25DFF81881DFF81891DFF8F9
:103B600018A1DFF818B1464C0026464802F006FDC1
:103B7000CDE900570E2300220721424802F062FFE0
:103B8000CDE900580E2300221B213E4802F05AFFC7
:103B9000CDE900590E2300222F213A4802F052FFAE
:103BA000CDE9005A0E2300224321364802F04AFF95
:103BB000CDE9005B0E2300225721324802F042FF7C
:103BC00031480E23CDE9005000226B212D4802F030
:103BD00039FF2E492B4802F0AAFF08AB34223221CC
:103BE000284802F021FF2949264802F0A0FF02AB35
:103BF0003F222821234802F017FFA0783C2803D158
:103C0000A6706078401C607060783C2803D16670B4
:103C10002078401C20702078182800D126701C497C
:103C2000184802F084FFA07800906378227819A1E8
:103C300005A800F03DFC05AB28221621114802F032
:103C4000F3FE104802F062FFA078401CA0704FF411
:103C50007A7004F0D3F888E74672696461790000ED
:103C6000323032342F31302F3239000001960008C3
:103C700075950008C9950008E5950008919500081C
:103C8000F8010020503F0020AD95000899C50008BC
:103C90009B9B0008253032643A253032643A253047
:103CA0003264000010B5502080F31188BFF34F8FAD
:103CB000BFF36F8F04F054FF18B104494FF08050E8
:103CC0000860002080F3118810BD000004ED00E0C2
:103CD00030B593B028216846FCF7DFFA14210AA812
:103CE000FCF7DBFA002401200F94109411940104D6
:103CF00012948DE8130004904FF4E010CDE9081001
:103D0000022507956846FDF71BFF08B172B6FEE76E
:103D10000F20CDE90A054FF48060CDE90C40022167
:103D20000AA80E94FDF710FE08B172B6FEE7122045
:103D30000F904FF40040CDE911040FA8FDF78EFD60
:103D4000002801D072B6FEE713B030BD7047000006
:103D50000148FEF75EBA00001C080020F0B50268BA
:103D6000164B174C174D4FF08047984205D0B8427C
:103D700003D0A04201D0A84203D122F070064A68C5
:103D80003243984205D0B84203D0A04201D0A842A5
:103D900003D122F44074CA6822434C6922F08002A5
:103DA000224302608A68C2620A688262984201D134
:103DB0000969016301214161F0BD0000002C01404F
:103DC000000400400008004010B5846842EA032265
:103DD00024F47F440A432243826010BD826822F0AB
:103DE00070020A4342F007018160704730B5036AF0
:103DF000026A22F0010202624268846924F07305BB
:103E00000C682C4323F002058B682B430A4DA84213
:103E10000BD123F00805CB6822F440722B434D6987
:103E200023F0040315438A692A4342608461496888
:103E30004163036230BD0000002C014030B5026ACE
:103E4000036A23F010030362436884690D6824F455
:103E5000E64444EA05248D6822F0200242EA051275
:103E60000B4DA8420ED1CD6822F0800242EA051225
:103E70004D6923F4406343EA85038D6922F04002D3
:103E800043EA85034360846149688163026230BD0F
:103E9000002C014030B5036A026A22F4807202628B
:103EA0004268C46923F4007324F073050C682C4342
:103EB0008D6843EA05230C4DA8420ED1CD6823F44A
:103EC000006343EA05234D6922F4405242EA051299
:103ED0008D6923F4806342EA05124260C461496837
:103EE000C163036230BD0000002C014030B5046A9C
:103EF000026A22F4805202624268C3690D6823F4A8
:103F0000E64343EA05238D6824F4005444EA05346B
:103F1000064DA84204D14D6922F4804242EA85123E
:103F20004260C36149680164046230BD002C0140F5
:103F300010B5036A046A24F001040462846924F061
:103F4000F00444EA021423F00A020A438461026284
:103F500010BD10B5036A046A24F010040462846979
:103F600023F0A00324F4704444EA023243EA01112E
:103F70008261016210BD000008B50022022101200B
:103F800004F0CAF94D4C6060FFF7C0FB012004F05B
:103F9000B4F9A0604A4802F0D7FA207804F1480545
:103FA00000EB800005EB8000FCF7B2FC454E4FF0C3
:103FB000FF374FF000083946A06804F00BFC424878
:103FC00003F0CCFF404941A000F062FA41A000F0AC
:103FD0005FFA3A466946606804F056FB012866D1EC
:103FE0009DF80100E02806D0902806D0A82806D029
:103FF000C22806D007E0022004E0012002E00320EE
:1040000000E0042030700021012003F00FFD88B192
:10401000962003F0F3FE002386F800801A46194626
:10402000A06804F015FA207800EB800005EB800012
:10403000FCF76EFC2848214900780C3100EB400069
:1040400001EB800068633078032802D0042810D088
:104050002DE0207802282AD20A2003F0CFFE207813
:1040600000EB800005EB8000FCF760FC2078401C32
:104070000DE02078D8B10A2003F0C0FE207800EBD4
:10408000800005EB8000FCF751FC2078401E20707A
:104090000B4802F0F9F90A2003F0B0FE207800EB9B
:1040A000800005EB8000FCF733FC86F800800023DD
:1040B0001A461946A06804F0CBF97CE7800200207C
:1040C000503F002080010020E43F002025730A0DAE
:1040D000000000000A000000810100201CB5054618
:1040E0000124594802F04AFADFF86081DFF8609154
:1040F0004FF00A0B4FF0000A10275649524802F0C1
:1041000016FD28680D22002103684F4802F08CFC40
:1041100051494D4802F00BFD01260CE028680021B2
:1041200050F8263006EB860007EB4002464802F0C6
:104130007BFC761CF6B22879B042EFD84FF0FF3105
:104140004E46D9F8000004F045FB98F8000001281D
:1041500004D0022821D003283FD053E02879401E04
:10416000A04237DD286850F82410374802F0B0FC30
:10417000C1B201910021344802F0D1FC04EB84016A
:10418000062000EB410201991E23CDF800B02E4815
:10419000891C02F0FCF9641C1BE0012C1AD9286868
:1041A00050F82410284802F093FCC1B2019100217C
:1041B000254802F0B4FC04EB8401062000EB410228
:1041C00001991E23CDF800B01F48891C02F0DFF9C9
:1041D000641EE4B288F800A014E088F800A01A4831
:1041E00002F0CCF900231A461946306804F030F981
:1041F000A86804EB840100EB8100FCF789FB002038
:1042000003F022FE00231A461946306804F020F914
:10421000286850F824100C4802F05AFCC6B201215C
:10422000094802F07CFC04EB840007EB40020BA37E
:10423000B11C054802F0F8FB034802F067FC962029
:1042400003F0DCFD59E70000503F00208001002012
:1042500088020020F0B2000851DE00083C2D2D2D10
:104260002D00000070B5044600680169E26821F481
:104270004051114301612169A06808436169084305
:104280002168CA6841F20C639A430243CA602068FD
:104290004169A26921F44071114341611E492068BE
:1042A000884202D1FDF716FC01E0FDF703FC00EBAC
:1042B000C00101EB0012606864218000B2FBF0F3E2
:1042C000B3FBF1F36FF018067343B2FBF0F5B2FBEA
:1042D000F0F605EB8305322303EB0515B5FBF1F58D
:1042E000B6FBF1F605F0F00505EB0615B2FBF0F6AE
:1042F000B2FBF0F0B0FBF1F06FF01802504306EBA8
:10430000800003EB0010B0FBF1F0216800F00F001B
:104310002844886070BD0000003801402DE9F0415C
:10432000984617460E460446069D27E0681C25D091
:104330002DB1FCF721FFA0EB0800A8421ED9206890
:104340000C3050E8001F21F4D07140E80012002A20
:10435000F5D12068143050E8001F21F0010140E839
:104360000012002AF5D1202084F8410084F8420090
:10437000002084F840000320BDE8F0812068006838
:1043800036EA000004D00020B842CFD00020F3E786
:104390000120F9E72DE9FC412B4C80462046E278CC
:1043A00080780925762600EB8000410002B327487B
:1043B0000A23CDE900500022254802F043FB25489E
:1043C0000A23CDE90050A0780022404200EB800093
:1043D00006EB400081B21E4802F034FBA078401C7E
:1043E000C0B2A070032822D10220A07000201DE0DE
:1043F000194F0A23CDE900570022154802F022FB8D
:10440000CDE90057A0780A23404200EB800006EB7C
:10441000400081B200220E4802F014FBA078401E3A
:1044200010F0FF00A07002D10120A070E0700B49D5
:10443000074802F07CFB02B04346BDE8F0413C2255
:104440003421034802F0F0BA800100209797000859
:10445000503F002085970008A997000899C50008DB
:104460000020704700207047012120F8401F0021E4
:104470000180818001820846704730F8401F21F496
:104480003F4101800020704700207047FEE7000098
:104490000FB4054B10B503A9044A029800F03CF88C
:1044A00010BC5DF814FB0000D94C00082403002068
:1044B0000FB4084B10B504A902AA039800F02CF819
:1044C000044602A9002000F0C8F9204610BC5DF89F
:1044D00014FB00005B4800080907090E002804DBF4
:1044E00000F1E02080F80014704700F00F0000F1A8
:1044F000E02080F8141D704702E008C8121F08C1B0
:10450000002AFAD170477047002001E001C1121F54
:10451000002AFBD1704700002DE9FF4F8BB0884681
:104520000546002606E025280BD0DDE90D12904750
:104530006D1C761C28780028F5D10FB03046BDE8F8
:10454000F08F0024A146A2460122AE4900E00443B8
:1045500015F8013F203B02FA03F00842F7D1287812
:104560002A2810D06FF02F022878A0F130010929F5
:1045700015D809EB890102EB410144F0020400EB7C
:1045800001096D1CF0E758F8041B5FEA010903D527
:1045900044F40054C9F1000944F002046D1C287869
:1045A0002E2817D115F8010F44F004042A280ED044
:1045B0006FF02F022878A0F1300109290AD80AEB00
:1045C0008A0102EB410100EB010A6D1CF2E758F889
:1045D00004AB6D1C28786C280FD006DC4C2817D053
:1045E00068280DD06A2814D104E0742810D07A28E5
:1045F0000FD10DE044F400140AE044F4801401E00B
:1046000044F440146978814202D104F580146D1C91
:104610006D1C2878692865D006DC00288DD06328B9
:1046200027D0642806D15DE06E2808D073282AD0F0
:10463000752877D0DDE90D129047761CE0E0C4F3D1
:104640000250022809D003280DD0D8F80010042801
:104650000DD00E6008F10408D2E0D8F80010F2176F
:10466000C1E90062F6E7D8F800100E80F2E70E709C
:10467000F0E718F8041B8DF8001000208DF80100F9
:10468000EB46012003E058F804BB4FF0FF30610710
:104690004FF0000701D40AE07F1C57450DDA87422E
:1046A000FADB1BF807100029F6D106E07F1C8742D1
:1046B000FCDB1BF807100029F8D1DDE90D23A9EB7D
:1046C00007008146214600F0B1F83044C61904E0E5
:1046D000DDE90D121BF8010B90477F1EF8D2214631
:1046E000484688E058F8040BC4F302514FF00A0B17
:1046F000032900D100B2042900D140B2002802DA17
:1047000040422D2102E0210505D52B218DF82410F2
:10471000012104E006E0E10710D02021F6E708AF10
:10472000089113E058F8040BC4F302514FF00A0B40
:10473000032900D180B2042900D1C0B20021EEE7E4
:104740005946FBF771FF303107F8011D0028F7D1FA
:10475000ADEB070000F1200B600702D524F4803494
:1047600001E04FF0010ADA4502DDAAEB0B0000E0A0
:104770000020824600EB0B0108980144A9EB0100E0
:104780000A90E00306D4DDE90D2321460A9800F0E3
:104790004DF806444FF0000908E009A911F8090096
:1047A000DDE90D12904709F10109761C0899894548
:1047B000F3DBE0030CD5DDE90D2321460A9800F078
:1047C00035F8064404E0DDE90D1230209047761CF0
:1047D000BAF10001AAF1010AF5DC05E0DDE90D12EC
:1047E00017F8010B9047761CBBF10001ABF1010BF0
:1047F000F4DC0A982146DDE90D2300F005F80644B3
:104800006D1C97E6092801002DE9F04104460025BA
:104810001E461746880404D405E039462020B047D8
:104820006D1C641EF9D52846BDE8F0812DE9F041E4
:10483000044600251E469046C80301D5302700E0F7
:104840002027880404D505E041463846B0476D1C52
:10485000641EF9D52846BDE8F0810A68531C0B6038
:10486000107070473EB51B4CA078FF282FD14FF435
:10487000FA6003F0C3FA00204021CDE90010802344
:10488000154A0146029000F077F80021402380226B
:10489000084600F05BF9FEF747FF104801F0F4FD11
:1048A0000F48002302221946006804F0E1F80D4881
:1048B00000231A461946006803F0CAFDA06B03F0F6
:1048C000C3FA606B03F0C0FA002003F0BDFA0120C8
:1048D0003EBD0000040100204F910008503F002021
:1048E00004000020880200203EB51E4CE078FF281E
:1048F00002D0A078FF2832D14FF4FA6003F07EFA9C
:1049000000204021CDE900108023174A0146029083
:1049100000F032F8002140238022084600F016F90A
:10492000FEF718FF114801F0AFFD114800230222E5
:104930001946006804F09CF80E4800231A461946F0
:10494000006803F085FD606B03F07EFAA06B03F056
:104950007BFAE06B03F078FA002003F075FA01208F
:104960003EBD0000400100204F910008503F002054
:1049700004000020880200202DE9FF4F8DB01F4663
:104980001C990E98DDF86880401AC0B2089008F1B2
:104990000700C0080B900898002600F0070003905D
:1049A0000E984044C0B20290C4E0089800EBC600E4
:1049B00000F0FF0A0AF10800C0B201901C98A8B1EB
:1049C0000E990198884256D35E498968884252D828
:1049D00002998A45FBD8FF2005900E98824508D29F
:1049E000A0EB0A01FF208840C0B200E0FF20059044
:1049F00007E0DDE90101884203D9411AFF20C840E0
:104A0000F5E750484FEADA0241684A4307920F9AA5
:104A100006FB07220692039A72BB836881469A4579
:104A20002AD24FF0080AB8F1080F00D2C24600247B
:104A30001BE00D982044C5B2D9F80400854212D27B
:104A400006981B99204401F0DFFC0599534601406C
:104A5000079800220544D9F80000405D01F0E6FC0B
:104A6000D9F800104855641CE4B2BC42E1D3A8EB6D
:104A70000A0000F0FF085BE0019A4446D2084A436E
:104A800000250A9251E003984446C0F1080081468F
:104A90000490A04200D9C1460D98284400F0FF0BB5
:104AA0002848406883453ED206981B99284401F067
:104AB000ABFC059908402349009089688A4511D2CA
:104AC000079920485944099100684B46039A405C75
:104AD000009901F0ABFC1B4A099912685054A4EBF1
:104AE0000900C4B2FCB117480199826891421AD2F8
:104AF000C9F1080101F0FF09A14500D9A146049AB6
:104B000000991048D1400A9A006893444B4610F827
:104B10000B00002201F08AFC0A49096801F80B0029
:104B2000A4EB0900C4B26D1CEDB2BD42ABD3A046EC
:104B3000761CF6B20B988642FFF437AF11B0BDE891
:104B4000F08F0000F4000020FEF7B8B92DE9F04125
:104B50001C4615460E460746FCF7A4F823462A468F
:104B600031463846FEF7ACF9BDE8F041FEF70ABE23
:104B7000044A10B5111F081FFEF7A4F901490C39AA
:104B8000086010BD000100202DE9FE4F9B469146B4
:104B90000F4606460025DFF8988043E0C5EBC502C6
:104BA00002EB0901CCB2082200210092CDE901718B
:104BB0002038C0B21F4900EB800042180523594637
:104BC0002046FFF7D9FE0823052259462046FFF765
:104BD000BDFF27B384B1A4F1010A0AF0FF01FF234E
:104BE0005A46D8F8000001F015FC0AF0FF0008232F
:104BF00001225946FFF7AAFFD8F80410491F8C423A
:104C00000DD2641DE1B2FF235A46D8F8000001F02E
:104C100001FCE0B2082301225946FFF797FF6D1C03
:104C2000EDB2761C30780028B8D1BDE8FE8F0000C8
:104C3000F40000206A8F00082DE9F0411D46164659
:104C400088460446FBF734FBC0B2401C00F096FDDA
:104C500007462146FBF733FB2B4632464146384692
:104C6000FFF792FF3846BDE8F04100F043B800007E
:104C700070B5040005D0164E3068844209D100207A
:104C800070BD502080F31188BFF34F8FBFF36F8F3B
:104C9000FEE702F0B3FF656902F0D0FF706885425D
:104CA00002D0B068854201D1022070BD094885421A
:104CB00004D1A06A0028F7D1032070BD054814383C
:104CC000854202D00DB1012070BD042070BD0000EE
:104CD00024000020540D002013B505484FF4FA734A
:104CE000012269460068FDF7DDFC00981CBD00004C
:104CF000F000002010B5002821D0114B0022001F29
:104D0000196803E0814203D80A4649680029F9D1AD
:104D100052B11368841A9C4204D100681844106090
:104D2000104602E0506000E0186039B102680B1ACA
:104D3000934203D10B681A4402604968416010BD78
:104D4000280300202DE9F04FD6488FB0C188A02954
:104D50002BD28178FF2928D00021D34C81468A4666
:104D60006068FBF719FCC5B22068FBF715FC4FF033
:104D7000000B0221CDE9001B0B46C0B2CB4A2946ED
:104D8000CDF808B0FFF7F8FD6068FBF705FCC5B289
:104D90002068FBF701FCC0B2082302222946FFF776
:104DA000D5FEBAF1000F02D00BE00121D5E7A168D2
:104DB0002068FBF78DFA2060E1686068FBF788FAED
:104DC00060600020029021680391A0466068FBF7B4
:104DD000E3FB0027C5B23E465FF00004D9F80C00A3
:104DE000C05DD0BBB0000590FBF7C0FB0399FBF79B
:104DF00007FC32D8042000EB8600FBF7B7FB0399D1
:104E0000FBF708FC29D2082000EB84010E91A9428F
:104E100023D80C2101EB8401A9421ED9D9F80C102A
:104E200001220323CA55CDE9000B0E98CDF808B036
:104E3000C1B205989D4AC0B2FFF79EFD0E980823A7
:104E4000C1B205980322C0B2FFF780FE0120029094
:104E5000B9F80600401CA9F806007F1C641CE4B2E7
:104E6000FFB2052CBAD3761CF6B2202EB4D3D9F8F3
:104E700010004C46801EFBF779FB0399FBF7C0FB43
:104E800013D28B490398884203DD4146C8F800B02D
:104E900006E02069801EFBF769FB4146C8F8000068
:104EA000896881F00041C8F80810039810F1FF4F9D
:104EB00007D3C8F800B0D8F8081081F00041C8F84E
:104EC00008100027BAF1000F32D16069801F8542B7
:104ED0002ED3F02D2CD226462079FBF747FB0399E1
:104EE000FBF78EFB24D830790C30FBF73FFB03999E
:104EF000FBF790FB1CD870690127801FFBF736FB7E
:104F0000C8F80400D8F80C004646B0F5000F02DBE4
:104F100080F00040F060FBF795F9FBF71EFB6FF0A7
:104F20001D01FBF72DFA4FF07E51FBF723FAB0601D
:104F30005AEA07001AD16069811E8D4201D8029990
:104F4000A1B1F02D02D9C8F804B009E0029939B92D
:104F5000401EFBF70BFBC8F80400A078401EA070B1
:104F6000D8F80C1081F00041C8F80C104546D8F86C
:104F70000400FBF711FBC6B22868FBF70DFB02210A
:104F8000CDE9001B494A0B46C0B2113A3146CDF873
:104F900008B0FFF7F1FC6868FBF7FEFAC6B22868B4
:104FA000FBF7FAFAC0B2082302223146FFF7CEFD22
:104FB000207858B3002684F800B037460025E06812
:104FC000805DC8B90820CDE9000B00EB8509374AA0
:104FD0004FEA870809F0FF0108F0FF0003230F3AAA
:104FE000CDF808B0FFF7C8FC09F0FF0108F0FF009A
:104FF00008230322FFF7AAFD761C6D1CEDB2F6B262
:10500000052DDCD37F1CFFB2202FD7D3E28829A146
:105010000BA8FFF74DFA00231A4619460BA8FFF715
:10502000B3FDA078FF2827D0002522E0A0784FF01C
:105030000801CDE9001B8542CDF808B0207C4FF077
:10504000070300EBC500A0F11800C0B201D21A4A54
:1050500000E0164A0121FFF78FFC207C082300EBBB
:10506000C5001838C0B207220121FFF76FFD6D1C83
:10507000EDB2E0788542D9D3E088A02805D320237B
:10508000322200210DA0FFF7D7FDA078FF2805D11F
:105090002023222200210BA0FFF7CEFD0FB0BDE898
:1050A000F08F000004010020303F0020578F0008DF
:1050B0000000704325750000638F000857494E219A
:1050C0000000000047414D454F5645522100000069
:1050D0000EB54D4A111F081FFDF7F4FE4A4C183C4F
:1050E000E061FFF745FDFFF72FFDFEF7A3FB012071
:1050F0002070002204210F2003F00EF9206200220C
:1051000002210F2003F008F9A062FEF7FFFAFBF777
:10511000D1FD60621E2003F0FBF801462063A06A07
:1051200003F0DAF8216B606A03F0D6F800256570A9
:1051300020694008FBF71AFA344E306060690A387B
:10514000FBF714FA70604FF03F40B0603048F060F9
:10515000A02001F0CFF8A021E060FBF79EF803202B
:10516000E070A070E580208AFA2101EB50002071E8
:10517000284C0021206803F02DFB234819262030FD
:10518000CDE9006000233C2223A1264803F018FC4F
:105190001D4800231C30CDE90060502222A1264882
:1051A00003F00EFC254F40260021012002F03EFCBA
:1051B00010B3CDE9006500218023214A08460295FD
:1051C000FFF7DAFB0021402380220846FFF7BEFCF0
:1051D000FEF7AAFA1B4801F057F9002302221946EC
:1051E000386803F045FC00231A461946206803F08E
:1051F0002FF9002002F028FEFFF7A4FDFFF732FB95
:10520000322002F0FBFDCFE71C010020303F0020E0
:105210009A9919BF88020020496E707574546173A1
:105220006B000000652D0008706C6174666F726D14
:105230005F7461736B000000ED59000804000020EA
:105240004F910008503F00202DE9FE4FBE4DA87839
:10525000FF2827D0E878FF2824D00026BB4C6068C0
:10526000FBF79AF9C7B22068FBF796F94FF0000BED
:105270000222CDE9002B1346C0B2B54A3946CDF81B
:1052800008B0FFF779FB6068FBF786F9C7B22068C2
:10529000FBF782F9C0B2082302223946FFF756FC19
:1052A00016B10BE00126D9E7A1682068FBF710F8DA
:1052B0002060E1686068FBF70BF86060D4E900806B
:1052C000FBF76AF9C7B26869801EFBF74FF94146E0
:1052D000FBF796F90ED29F49884502DDC4F800B06D
:1052E00004E06869801EFBF741F92060A06880F047
:1052F0000040A06018F1FF4F05D3C4F800B0A068CB
:1053000080F00040A0604FF0000AD146002E61D12D
:10531000A8690D3887422FD3F02F2DD28A48401D1F
:105320000078FBF723F94146FBF76AF924D8864851
:10533000401D00780C30FBF719F94146FBF76AF97C
:105340001AD8A8694FF0010A0E38FBF70FF9606010
:10535000E068B0F5000F02DB80F00040E060FAF793
:1053600071FFFBF7FAF86FF01D01FBF709F84FF03A
:105370007E51FAF7FFFFA06067B30B2F2AD872485F
:10538000C01D0078FBF7F2F84146FBF739F921D848
:105390006D48C01D00780C30FBF7E8F84146FBF77C
:1053A00039F917D86C486060E0684FF0010910F1D6
:1053B000FF4F02D380F00040E060FAF743FFFBF7B5
:1053C000CCF86FF01D01FAF7DBFF4FF07E51FAF7D2
:1053D000D1FFA06056EA0A000FD1A869A0F10A0126
:1053E0008F420AD90938FBF7C1F86060E878401E9F
:1053F000E870E06880F00040E06056EA09060AD1F3
:10540000082F08D255486060A878401EA870E06850
:1054100080F00040E0606068FBF7BEF8C7B220682B
:10542000FBF7BAF80221CDE9001B494A0B46C0B28E
:105430005E461A3A3946CDF808B0FFF79DFA606823
:10544000FBF7AAF8C7B22068FBF7A6F8C0B208239A
:1054500002223946FFF77AFBE8780827FF2829D08F
:10546000002424E0E878CDE9007684420296287E84
:105470004FF00703A0F10800C1B2287D00EBC40083
:10548000A0F12800C0B201D2354A00E0304AFFF74F
:1054900073FA287E08230838C1B2287D072200EB62
:1054A000C4002838C0B2FFF751FB641CE4B228796D
:1054B0008442D7D3A878FF2838D000241EE0CDE955
:1054C000007684420296287D4FF0070300EBC4006B
:1054D000A0F12800C0B201D2214A00E01C4A0021FC
:1054E000FFF74AFA287D082300EBC4002838C0B231
:1054F00007220021FFF72AFB641CE4B228798442CA
:10550000A878DCD3FF2811D0E878FF2819D114231C
:105510002222002113A0FFF78FFB28232222002143
:1055200013A003B0BDE8F04FFFF786BB142322227F
:1055300000210CA0FFF780FB2823222200210FA0CE
:10554000EFE7BDE8FE8F000040010020403F002053
:1055500069950008000070430000404100001041C0
:10556000638F000847414D454F56455221000000CA
:10557000504C4159314C4F5345210000504C41593A
:10558000324C4F53452100000EB5FFF7F1FAFFF7FB
:10559000DBFAFEF74FF9534C012004F11C02207096
:1055A000111F081FFDF78EFC2061A18A6FF0050016
:1055B00000EB5100611D0870227E103A4A70891C70
:1055C000002208700820487002210F2002F0A4FE7B
:1055D000A062FEF79BF8FBF76DFBE062002204215E
:1055E0000F2002F099FE2062002204210F2002F019
:1055F00093FE60621E2002F08BFE01462063A06ACB
:1056000002F06AFED4E90B0102F066FE364E00217C
:10561000306803F0DFF804F13C001925CDE90050B3
:105620000023322231A1354803F0CAF904F13400D5
:10563000CDE90050631D5A2231A1354803F0C0F96D
:1056400004F13800CDE90050E31D5A2231A135485C
:1056500003F0B6F960694008FAF788FF324D286018
:10566000A0691238FAF782FF68604FF03F40A860E7
:105670002E48E86005202071A070E07000242C4FB7
:10568000402500BFFFF7E0FD0021012002F0CEF928
:1056900010B3CDE9005400218023264A0846029425
:1056A000FFF76AF90021402380220846FFF74EFAEF
:1056B000FEF750F8204800F0E7FE002302221946CA
:1056C000386803F0D5F900231A461946306802F00D
:1056D000BFFE002002F0B8FBFFF706F9322002F00F
:1056E0008DFBCFE74001002088020020496E7075D5
:1056F00074446174617461736B000000D92D0008FB
:10570000706C6174666F726D5F7461736B310000F1
:105710007D580008706C6174666F726D5F746173A0
:105720006B32000035590008403F00209A9919BF9C
:10573000040000204F910008503F002010B5FBF7F7
:1057400049FFFEF7C5FAFDF747FCFDF7EDFCFDF755
:10575000F3FBFDF709FDFDF749FEFDF729FDFDF718
:105760008FFDFDF7EBFDFDF725FE00F04BF8FDF793
:105770000BFC00F063F8002010BD0000F0B50B300A
:10578000154D20F007010024144A0FE003688B42F6
:105790000BD38B4205D95E1A43184768C3E90067EB
:1057A00000E04368136002C004E0021D1068002896
:1057B000ECD12046002802D1286808B10020F0BDB5
:1057C000064A07481060074A121A22F00702C0E989
:1057D000002401202860D7E72C03002028030020A4
:1057E000B4450020B047002070B5054600244FF4B2
:1057F0007A7603E0304602F0FDF8641CAC42F9DB37
:1058000070BD0000EFF3058058B9EFF3108040B988
:1058100009490868022801D030B109E0EFF311808E
:1058200030B16FF00500704701200860002070471C
:105830004FF0FF30704700007400002010B5EFF308
:10584000058060B9EFF3108048B90B490868022859
:1058500002D0012806D00BE0EFF3118040B16FF0C9
:10586000050010BD0220086002F064FC002010BD9D
:105870004FF0FF3010BD0000740000201FB5047809
:1058800000250827CDE900750295064641780C23CE
:10589000264A2046FFF770F8717808230C2220462C
:1058A000FFF754F9DFF888904FF0FF3AB8465246B8
:1058B00003A94F46D9F8200002F0E6FE039878705D
:1058C000CDE90085194A029571780C2318322046DB
:1058D000FFF752F8717808230C222046FFF736F9BB
:1058E0007878012802D0022802D003E0E41C00E00E
:1058F000E41EE4B27D70FA2C01D9002404E078693A
:105900000C38844200D9C4B2CDE900850295717883
:105910000C23064A2046FFF72FF8717808230C2243
:105920002046FFF713F93470C1E7000051950008D5
:10593000400100201FB5047800250827CDE9007537
:105940000295064641780C23264A2046FFF714F8B4
:10595000717808230C222046FFF7F8F8DFF88890CA
:105960004FF0FF3AB846524603A94F46D9F82400F3
:1059700002F08AFE03987870CDE90085194A0295F5
:1059800071780C230C322046FEF7F6FF717808235D
:105990000C222046FFF7DAF87878012802D0022896
:1059A00002D003E0E41C00E0E41EE4B27D70FA2CB7
:1059B00001D9002404E078690C38844200D9C4B2CB
:1059C000CDE90085029571780C23064A2046FEF742
:1059D000D3FF717808230C222046FFF7B7F8347004
:1059E000C1E700005D950008400100201FB52E4C66
:1059F000002608272579CDE900760296207D0C2324
:105A00000838C1B2294A2846FEF7B6FF207D082390
:105A10000838C1B20C222846FFF798F84FF0FF383B
:105A2000424603A9206A02F02FFE03986070CDE978
:105A300000760296207D1D4A0838C1B20C230C3234
:105A40002846FEF799FF207D08230838C1B20C22B2
:105A50002846FFF77BF86078012802D0022802D0A0
:105A600003E0ED1C00E0ED1EEDB26670FA2D01D9E9
:105A7000002504E020690C38854200D9C5B2CDE983
:105A800000760296207D0C230838C1B2074A2846CA
:105A9000FEF772FF207D08230838C1B20C22284689
:105AA000FFF754F82571BBE7040100204B8F000875
:105AB0002DE9F041134C0F46054666692068001D2C
:105AC00001F0E8FF681C07D137B12168BDE8F0415B
:105AD0000D48091D02F085B820683544B54245607F
