:020000040800F2
:10000000204700209D010008CF300008D3230008BE
:10001000CD3000089D080008F53F000800000000F2
:1000200000000000000000000000000005010008C2
:10003000D708000800000000490100082D3800081A
:10004000B7010008B7010008B7010008B7010008B0
:10005000B7010008B7010008B7010008B7010008A0
:10006000B7010008B7010008B7010008B701000890
:10007000B7010008B7010008B7010008B701000880
:10008000B7010008B7010008B7010008B701000870
:10009000B7010008B7010008B7010008B701000860
:1000A000B7010008B7010008B7010008B701000850
:1000B000B7010008B7010008D9380008B7010008E7
:1000C000B7010008B7010008B7010008B701000830
:1000D000B7010008B7010008B7010008B701000820
:1000E00015090008B7010008B7010008DFF810D0B3
:1000F00000F054FB0048004749520008AFF300806D
:1001000020470020224B19680868B0E8F00F80F300
:100110000988BFF36F8F4FF0000080F311884EF015
:100120000D0E70470000000006480068006880F36C
:10013000088862B661B6BFF34F8FBFF36F8F00DFE1
:1001400000BF00BF08ED00E0EFF30980BFF36F8F41
:100150000F4B1A6820E9F00F106008B54FF05000FF
:1001600080F31188BFF34F8FBFF36F8F07F0B6FD99
:100170004FF0000080F31188BDE808401968086856
:10018000B0E8F00F80F30988BFF36F8F704700BFAE
:1001900024000020EFF305807047000006488047E8
:1001A00006480047FEE7FEE7FEE7FEE7FEE7FEE75C
:1001B000FEE7FEE7FEE7FEE7D5380008ED000008A1
:1001C0002DE9F05F0546002092469B46884606468C
:1001D000814640241BE0284641464746224600F01F
:1001E00020F853465A46C01A914110D3114618467A
:1001F000224600F02FFA2D1A67EB01084F462246DF
:100200000120002100F026FA17EB00094E41201EC4
:10021000A4F10104DFDC484631462A464346BDE8E6
:10022000F09F202A04DB203A21FA02F000217047D7
:1002300021FA02F3D040C2F120029140084319464E
:10024000704700000649074A0868504343F23902E4
:10025000104408604008704701490860704700007A
:10026000F80200206D4EC64140EA01039B0703D00F
:1002700009E008C9121F08C0042AFAD203E011F8E5
:10028000013B00F8013B521EF9D27047D2B201E0A7
:1002900000F8012B491EFBD270470022F6E710B58B
:1002A00013460A4604461946FFF7F0FF204610BDE4
:1002B000421C10F8011B0029FBD1801A704703462D
:1002C00011F8012B00F8012B002AF9D118467047CC
:1002D000F0B480EA0102D40F4200B2EB410F02D227
:1002E0000246084611464A0042D0C30DDDB2C1F3B2
:1002F000C752AD1A202D35DAC1F3160141F40002C0
:1003000004B15242C5F1200602FA06F12A41104416
:10031000B3EBD05F23D0C4B1012DA0EBC35009DCF7
:10032000F0BC4FF0004202EAC352DBB200F500001D
:1003300000F0A8B9400000F1807000EBC350A0F1BC
:10034000807040EAD170490009E0490841EAC07173
:10035000A0EBC35000F50000400800EBC350F0BC18
:1003600000F087B96142012202EB4101001BF6E770
:10037000F0BC704781F00041AAE780F00040A7E799
:10038000420005D0C0F3C7525242914201DC002026
:10039000704700EBC15070472DE9FE4F81EA03041E
:1003A00004F0004421F0004100944FF0000B23F0D2
:1003B000004350EA01045ED052EA03045BD0C3F369
:1003C0000A54C1F30A552C44A4F2F3340194A0FB5F
:1003D0000254C1F3130141F48011C3F3130343F436
:1003E000801301FB024400FB034E840A970A44EA8F
:1003F000815447EA8357A4FB076802958D0A05FBE1
:1004000007854FEA932C04FB0C542705029D4FEA05
:10041000065847EA1637B5EB08056EEB070C870E52
:10042000920E47EA811742EA8312A7FB0201B6EB5C
:100430000B0164EB00042B0D43EA0C335E1844EB14
:100440001C50DA465146E7FB0201C5F313044FEA9C
:100450000B3343EA14534FEA0432019C43EA060388
:10046000A4F10C040294009CCDE900B400F047F91B
:1004700003B0BDE8F08F00200146F9E72DE9F04D0B
:1004800081EA030404F0004B21F0004514464FF0CC
:10049000000A23F0004150EA050220D054EA01028C
:1004A0001DD0C5F30A570246C5F31303C1F3130069
:1004B000C1F30A5640F4801543F48013A7EB0608F5
:1004C000101BD64608F2FD3873EB050002D308F185
:1004D000010801E092185B41B8F1000F03DA002037
:1004E0000146BDE8F08D00204FF480110646844699
:1004F0000EE0171B73EB050705D3121B63EB050317
:1005000006434CEA010C49084FEA300092185B415F
:1005100050EA0107EDD152EA030012D082EA04004A
:1005200083EA0501084305D0101BAB4106D2012226
:10053000002306E000224FF0004302E06FF00102CA
:1005400053101AEB06004CEB085110EB0A0041EB7C
:100550000B01BDE8F04D00F0C3B8C10F80EAE070B8
:100560000844CA079623002100F08CB89623002285
:10057000114600F087B80EB5C10F80EAE07008445C
:10058000CA07002140F233438DE80E000A460B46AD
:1005900000F0B5F803B000BD20F00040C10DC0F37D
:1005A000160040F400007F2901DA002070479629E8
:1005B00003DCC1F19601C840704796398840704706
:1005C00070B5C1F30A5201F000450024C1F31301D4
:1005D00040F2FF3341F480119A4201DA002070BDED
:1005E00040F233439A42A2F2334203DC5242FFF715
:1005F00018FE00E090402C43F1D0404270BD000056
:10060000002801DBC0F10040002901DBC1F10041FD
:1006100081427047002801DBC0F10040002901DB66
:10062000C1F100418842704730B50B4601460020B9
:100630002022012409E021FA02F59D4205D303FAA4
:1006400002F5491B04FA02F52844151EA2F1010225
:10065000F1DC30BD202A04DB203A00FA02F1002050
:1006600070479140C2F1200320FA03F319439040F0
:1006700070470029A8BF7047401C490008BF20F000
:100680000100704710B4B0FA80FC00FA0CF050EA98
:10069000010404BF10BC704749B1CCF1200421FA19
:1006A00004F411FA0CF118BF012121430843A3EB14
:1006B0000C01CB1D4FEA00614FEA102042BF002021
:1006C00010BC704700EBC35010440029A4BF10BCFD
:1006D0007047401C490008BF20F0010010BC704763
:1006E00010B5141E73F1000408DA401C41F100013A
:1006F00092185B411A4301D120F0010010BD2DE991
:10070000F04D92469B4611B1B1FA81F202E0B0FA87
:1007100080F220329046FFF79DFF04460F4640EAE4
:100720000A0041EA0B0153465A46084313D01146CA
:1007300053EA010019D0C8F140025046FFF771FD9D
:1007400005460E46504659464246FFF783FF08438A
:1007500005D0012004E020463946BDE8F08D002098
:10076000054346EAE0762C4337430A986305E40ADA
:10077000A0EB08000022FD0A44EA47540A3002D5E3
:1007800000200146E9E7010510196941DDE9084546
:1007900000196941BDE8F04DA2E70000064C074D85
:1007A00006E0E06840F0010394E807009847103441
:1007B000AC42F6D3FFF79EFCA4DF0008C4DF0008BC
:1007C00070B58C1810F8015B15F0070301D110F813
:1007D000013B2A1106D110F8012B03E010F8016B40
:1007E00001F8016B5B1EF9D12B0705D40023521EC3
:1007F0000DD401F8013BFAE710F8013BCB1A921C2B
:1008000003E013F8015B01F8015B521EF9D5A14228
:10081000D8D3002070BD000070B504460068816820
:10082000C943C90717D1816821F00101816000F037
:10083000EDFA05460AE000BF00F0E8FA401B022886
:1008400004D920688068C043C00706D0206880684B
:10085000C043C007F0D0002070BDA06A40F0100077
:10086000A062E06A40F00100E062012070BD00007B
:1008700040780949E02807D0902807D0A82808D058
:10088000C22805D1042002E0022000E00120087007
:1008900070470320FBE7000078010020FEE700001E
:1008A0000549044B0022886843F82020401E8860D8
:1008B00070470000F83A0020B00000201CB58268A4
:1008C0001921CDE90012018AC3688AB2D0E900106B
:1008D00007F0FEFD1CBD70478068006807F03CB85B
:1008E0002DE9F04107460024084E094D08E000BFFD
:1008F000002356F824001A46394607F0E7FB641C2B
:10090000A8688442F4DBBDE8F0810000F83A0020DA
:10091000B000002010B54FF4806000F071F94FF482
:10092000006000F06DF9BDE810404FF4805000F019
:1009300067B972B6FEE7000002484FF0FF31006968
:1009400007F0D0BC000000200148C06870470000DC
:10095000D0000020F8B50024009490F8242025460B
:10096000012A12D0012280F824204A681F23072A76
:100970000DD20668776B521E02EB820293409F43B2
:100980000B6893401F43776319E00220F8BD0668A7
:100990000D2A0AD2376BD21F02EB820293409F438B
:1009A0000B6893401F43376309E0F76A0D3A02EB87
:1009B000820293409F430B6893401F43F7620A688B
:1009C000072306680A2A0AD3F7680A3A02EB4202AA
:1009D00093409F438B6893401F43F76008E037695B
:1009E00002EB420293409F438B6893401F43376161
:1009F0000A68102A01D0112A20D1124B02689A42AB
:100A000017D193681B0219D4936843F400039360D1
:100A10000968102912D10C490C4A0968B1FBF2F19E
:100A200001EB8101490000E0491E00910029FBD142
:100A300004E0816A41F020018162012480F82450A1
:100A40002046F8BD002401402000002040420F0055
:100A50002DE9F0414FF0000704003D467ED0A06A2A
:100A6000002628B9E66284F82460204600F07EF86B
:100A70002046FFF7D1FEA16AC90600D420B1A06AC2
:100A800040F01000A06269E0A16A21F4885141F0B1
:100A90000201A1626268E169237B0A4347EA4301DC
:100AA0000A43A1684FF48077B94209D0012907D0E1
:100AB0005FF0000194F814C0BCF1010F02D00AE00D
:100AC0003946F7E7F3B1A36A43F02003A362E36A70
:100AD00043F00103E3622368D3F804C02CF4694CAB
:100AE0004CEA010CC3F804C021688B68DFF870C0C1
:100AF00003EA0C0313438B60A168B9420BD00129B0
:100B000009D00CE0DFF85CC0A3690CEB43330B4366
:100B100043F40061DFE7218A0D05A5F58015216802
:100B2000CB6A23F470032B43CB62216889680E4B98
:100B30001940914208D1E662A16A21F0020141F018
:100B40000101A162BDE8F081A06A20F0020040F03E
:100B50001000A062E06A40F00100E0620120F1E7CD
:100B6000FDF7E1FF00E0FFFFFE0E1FFF00B585B0BF
:100B70000021009101910291039100680E49884281
:100B800018D10E48816941F400718161816901F4D5
:100B900000710491816941F00401816180696946B5
:100BA00000F0040004900820009003200190044805
:100BB00000F032F805B000BD0024014000100240F2
:100BC0000008014070B5044600F020F90546601C9D
:100BD00002D004480078044400F018F9401BA042F9
:100BE000FAD370BD14000020B0F5806F04D0B0F5CA
:100BF000805F03D102F094BB01F032BE7047000069
:100C0000044910B50A68024202D00860FFF7ECFF01
:100C100010BD0000140401402DE9F84FDFF8B89131
:100C20000024A9F1040B23460F2709F1040AABF1B4
:100C3000040EC9E00125A5402A40AA427DD1674E95
:100C4000D1F804C0ACEB0608B44532D014DCBCF1DA
:100C5000030F3AD009DCBCF1000F2AD0BCF1010F20
:100C60001CD0BCF1020F31D11DE0BCF1110F17D027
:100C7000BCF1120F2AD119E0B8F5881F19D006DC93
:100C8000B8F5803F15D0B8F5801F1FD111E0B8F539
:100C9000001F0ED0B8F5041F18D10AE0CB6815E08C
:100CA000CB681B1D12E0CB6808330FE0CB680C3318
:100CB0000CE08B682BB1012B4FF0080303D045618A
:100CC00004E0042302E0056100E00023FF2A01D8CC
:100CD000064601E000F104064FEA840501D9A5F1BA
:100CE0002005D6F8008007FA05FC28EA0C0803FA6C
:100CF00005F548EA0508C6F800804D68ED0062D5A4
:100D0000374DAE6946F00106AE61AD6924F00306C9
:100D100005F001050095334D06EB050CDCF8085095
:100D2000A607360F07FA06F825EA0805DFF8B880A7
:100D3000404503D14FF0000817E044E0DFF8AC80F5
:100D4000404502D14FF001080FE0DFF8A480404594
:100D500002D14FF0020808E0DFF89880404502D148
:100D60004FF0030801E04FF0040808FA06F848EADB
:100D70000508CCF808804D68D9F80060ED024D46B2
:100D800001D5164300E096432E604D68DAF8006006
:100D9000AD02554601D5164300E096432E604D68DE
:100DA000DBF80060AD035D4601D5164300E09643D5
:100DB0002E604D68DEF80060ED03754601D51643E0
:100DC00000E096432E60641C0D682A46E5407FF4DF
:100DD00031AFBDE8F88F0000080401400000111099
:100DE000001002400000014000080140000C0140DA
:100DF00000100140001401408068084000D001202C
:100E000070470AB1016170470904FBE70148806837
:100E1000704700001400002070B5040025D094F83D
:100E20003D00002520B984F83C50204600F0E6F94A
:100E3000242084F83D002068016821F00101016050
:100E40002068016841F4004101602068016821F4D4
:100E50000041016000F078FC4D4A6168914201D880
:100E60004C4900E04C49884201D2012070BD4B49F9
:100E70002368B0FBF1F15E6826F03F060E435E602A
:100E80006368934206D94FF4967359434FF47A73CB
:100E9000B1FBF3F12368491C1E6A26F03F0631437B
:100EA00019626168914210D84900401EB0FBF1F20E
:100EB000521CC2F30B02042A01D2042022E0B0FB30
:100EC000F1F0401CC0F30B001CE0A268F2B301EB90
:100ED000C10303EB0116431EB3FBF6F35B1C43F4A3
:100EE00080431B0549D092B301EBC10202EB011113
:100EF000401EB0FBF1F0401CC0F30B0040F48040FA
:100F000040F400402168CA694CF6FF739A431043CD
:100F1000C861D4E9071001432068026822F0C002CA
:100F200011430160D4E9030101432068826848F25B
:100F3000FF339A4311438160D4E9050108432168D6
:100F4000CA6822F0FF021043C86001E00EE016E01C
:100F50002068016841F0010101602564202084F8C7
:100F60003D00256384F83E50002070BD01EB410632
:100F7000431EB3FBF6F35B1CB3E70120C2E701EBB2
:100F80004101401EB0FBF1F0401CC0F30B00B7E77D
:100F9000A086010080841E0000093D0040420F0031
:100FA0002DE9F84F1F4690468A460446DDF8289002
:100FB000FFF72CFF054694F83D0020287FD1192328
:100FC000012240492046009501F0EAFA002876D136
:100FD00094F83C00012872D0012084F83C0020687D
:100FE0000168C90703D1016841F00101016020686F
:100FF000016821F400610160212084F83D00102087
:1010000084F83E0000262664C4F824806785608D3D
:1010100020852D48E0622B464A465146204601F085
:10102000F1F990B9206841698069009036E02A465C
:101030004946204601F05AFB50B1206C042804D1E7
:101040002068016841F4007101600120BDE8F88F5B
:10105000606A216800780861606A401C6062618D86
:10106000491E6185218D491E89B2218522685369F7
:10107000DB435B070BD451B100781061606A401C00
:101080006062608D401E6085208D401E20852A464E
:101090004946204601F058FA0028CED1208D00287C
:1010A000C5D154F83D0B016841F400710160202066
:1010B00004F81E09E67766770020C7E7FFE70220FD
:1010C000C4E70000020010000000FFFF2DE9FF4F01
:1010D00083B09A46DDE9119793460446DDF84080D7
:1010E000FFF794FE054694F83D0020287FD1192390
:1010F000012240492046009501F052FA002876D19D
:1011000094F83C00012872D0012084F83C0020684B
:101110000168C90703D1016841F00101016020683D
:10112000016821F400610160212084F83D00402025
:1011300084F83E0000262664C4F82480A4F82A908F
:10114000608D20852C48E062CDE9007553465A46F3
:101150002046049901F0A4F970B930E02A463946D6
:10116000204601F0C3FA58B1206C042804D120684D
:10117000016841F400710160012007B0BDE8F08F03
:10118000606A216800780861606A401C6062218D95
:10119000491E89B22185628D521E6285226853697B
:1011A000DB435B070BD469B100781061606A401CB7
:1011B0006062208D401E2085608D401E6085208DE0
:1011C0000028CBD12A463946204601F0BDF9002837
:1011D000CAD154F83D0B016841F400710160202030
:1011E00004F81E09E67766770020C6E7FFE70220CD
:1011F000C3E70000020010000000FFFF10B586B03A
:101200000021009101910291039100680F498842E9
:101210001AD10F4CA06940F00800A061A06969468E
:1012200000F008000490C0200090122001900320DC
:1012300003900848FFF7F0FCE06940F40010E0611B
:10124000E06900F40010049006B010BD00540040A6
:1012500000100240000C01400248816802781144ED
:101260008160704714000020074810B5016841F004
:1012700010010160032000F0A7F80F2000F006F82D
:1012800000F050F8002010BD0020024030B50546A7
:101290001F4887B0C16941F00401C161C06906A956
:1012A00000F00400009001A800F02EFA0498B0B1FC
:1012B00000F04AFA40001749174AB0FBF1F117480D
:1012C000491E0260416040F2E7320021C0E903217B
:1012D0008160816100F000FD040003D015E000F0A2
:1012E00033FAE8E70D4800F043FD04000DD11E205D
:1012F00000F03CF8102D07D2002229461E2000F0F5
:1013000043F80748056000E0012407B0204630BDDF
:101310000010024040420F0000080040F407002087
:10132000180000200F4808B5816941F00101816172
:10133000816901F001010091C16941F08051C161F1
:10134000C069002200F0805000900F21901E00F034
:101350001BF80548416821F0E06141F000714160EF
:1013600008BD00000010024000000140002809DB19
:1013700000F01F02012191404009800000F1E020AF
:10138000C0F8001170470000F0B40E4B1B680C460B
:10139000C3F30223C3F10705042D00D90425191D49
:1013A000072901D2002300E0DB1E012606FA05F121
:1013B000491E214099409E40761E16403143F0BCA4
:1013C00002F03EBE0CED00E0064900F0070208689E
:1013D0004FF6FF03184040EA0220034A104308601A
:1013E000704700000CED00E00000FA052DE9F04127
:1013F00086B0040004D094F8A902002520B108E0CA
:10140000012006B0BDE8F08184F8A852204600F023
:101410005BF8032084F8A902206802F0E2FD04F1E1
:101420001001142288466846FEF71EFF94E80F005C
:1014300002F0CAFD0227D0BB0021206802F0D8FDCF
:10144000002001260EE000BF00EB800104EBC1018B
:1014500081F8296001F8280F401CCD700D614D61A5
:10146000C0B28D6161688142EED8002012E000BFF9
:1014700000EB800104EBC10181F8695181F868013A
:1014800081F86B51C1F87851C1F87C51401CC0B251
:10149000C1F8805161688142EAD814224146684609
:1014A000FEF7E2FE94E80F0002F092FD10B184F81E
:1014B000A972A5E784F8245084F8A962206802F094
:1014C00085FD00209DE7000008B5006806498842B8
:1014D00008D10648C16941F40001C161C06900F446
:1014E0000000009008BD0000005C004000100240B9
:1014F0002DE9F84305460078354CC00754D0E06923
:101500000026C00008D4E06940F08050E061E06946
:10151000012600F0805000902E480168C90512D4C1
:101520000168804641F480710160FFF76FFC074657
:1015300005E000BFFFF76AFCC01B642823D8D8F879
:101540000000C005F6D5206A10F4407021D0A988AB
:1015500001F4407181421CD0206A1F49012220F40D
:1015600040700A6000220A602062C00711D0FFF7B5
:101570004DFC074641F2883808E000BFFFF746FC03
:10158000C11B414502D90320BDE8F883206A8007CA
:10159000F4D5206A696820F44070084320621EB1C7
:1015A000E06920F08050E0612878800705D5606808
:1015B000A96820F44040084360602878C00605D53B
:1015C0006068E96820F48000084360600020DBE781
:1015D0000010024000700040400442422DE9F047F4
:1015E0000F46050061D0434E306800F00700B84256
:1015F00009D2306820F0070038433060306800F0CE
:101600000700B84251D128683B4C810712D54007EA
:1016100003D5606840F4E06060602878000703D577
:10162000606840F4605060606068A96820F0F00075
:10163000084360602878C00728D06868012810D067
:101640002168022810D0890700292EDA616821F06C
:10165000030101436160FFF7D9FB804641F28839FD
:101660000DE021688903EFE78901EDE7FFF7CEFB85
:10167000A0EB0801494502D90320BDE8F087606866
:10168000696800F00C00B0EB810FEFD1306800F01A
:101690000700B8420BD9306820F0070038433060AB
:1016A000306800F00700B84201D00120E5E7287853
:1016B000400705D56068E96820F4E0600843606091
:1016C0002878000706D56068296920F4605040EA50
:1016D000C100606000F058F86168084AC1F3031166
:1016E000515CC8400649086006480068FFF7CEFD17
:1016F0000020C2E700200240001002403E8A00089D
:1017000020000020180000200F2202600C4A5368BD
:1017100003F003034360536803F0F00383605368EE
:1017200003F4E063C36052684FF4E06303EAD2025B
:1017300002610448006800F007000860704700007C
:101740000010024000200240044805490068496832
:10175000044AC1F30221515CC840704720000020B8
:10176000001002404E8A0008044805490068496894
:10177000044AC1F3C221515CC840704720000020D8
:10178000001002404E8A00080E4A51680E4801F0CF
:101790000C03042B11D0082B0FD10C48C1F3834349
:1017A000C903C05C0AD55168084AC1F34041921E82
:1017B000515C054A5043B0FBF1F07047044948437F
:1017C000704700000010024000127A002E8A0008C4
:1017D00000093D002DE9F84F040070D02078C04D7D
:1017E000C00749D06868C0F38100012807D0686845
:1017F000C0F38100022809D16868C00306D52868B3
:10180000800339D560680028E7D035E06068B0F51E
:10181000803F0BD010B1B0F5A02F11D0286820F474
:1018200080302860286820F4802002E0286840F496
:1018300080302860606890B1FFF7E8FA06460AE059
:10184000286840F480202860F0E700BFFFF7DEFA48
:10185000801B642873D828688003F7D50CE0FFF755
:10186000D5FA064605E000BFFFF7D0FA801B6428D2
:10187000F0D828688003F7D420789A4E80074FF07C
:1018800001094FF0000839D5686810F00C0F07D037
:101890006868C0F38100022809D16868C00306D4D3
:1018A0002868800714D52069012808D110E0206934
:1018B000B0B1C6F80090FFF7A9FA074605E00AE1C3
:1018C000FFF7A4FAC01B0228C4D828688007F7D500
:1018D0002868616920F0F80040EAC10028600DE046
:1018E000C6F80080FFF792FA074604E0FFF78EFA89
:1018F000C01B022823D828688007F7D42078000767
:101900002CD57948A169D9B1C0F80090FFF77EFACB
:10191000074604E0FFF77AFAC01B02280FD8686A6E
:101920008007F7D571484FF4FA510068B0FBF1F029
:10193000009000BF0098411E0091FAD20EE080E0B6
:10194000C0F80080FFF762FA074604E0FFF75EFA8E
:10195000C01B022875D8686A8007F7D42078400732
:1019600060D5E8690027C00008D4E86940F08050DD
:10197000E861E869012700F0805000905C48016848
:10198000C90513D40168834641F480710160FFF7F3
:101990003DFA824606E000BFFFF738FAA0EB0A00E6
:1019A00064284ED8DBF80000C005F5D5E0680128B2
:1019B0000AD008B1052813D0286A20F00100286257
:1019C000286A20F0040002E0286A40F00100286242
:1019D000E06841F2883B98B1FFF718FA82460BE0C5
:1019E000286A40F004002862EEE700BFFFF70EFA15
:1019F000A0EB0A0159455AD8286A8007F6D50CE0B1
:101A0000FFF704FA824605E0FFF700FAA0EB0A01AF
:101A100059454CD8286A8007F6D41FB1E86920F0F0
:101A20008050E861E06988B36968C1F381010229E7
:101A300044D00228C6F8608004D0FFF7E7F90446D6
:101A400038E034E0FFF7E2F9074604E0FFF7DEF99B
:101A5000C01B02282BD828688001F7D4206AB0F573
:101A6000803F05D16868A16820F4003008436860B1
:101A7000D4E908010843696821F4741108436860D7
:101A8000C6F86090FFF7C2F9044606E025E000BF03
:101A9000FFF7BCF9001B022809D828688001F7D598
:101AA0001BE000BFFFF7B2F9001B022802D9032098
:101AB000BDE8F88F28688001F4D40EE00128F7D043
:101AC0006868226A00F48031914204D1616A00F4AE
:101AD0007010884201D00120EAE70020E8E700000A
:101AE00000100240000042428004424220000020D8
:101AF0000070004070B5040009D0606A002540B154
:101B000025616561A56294F8510040B10CE00120A7
:101B100070BD6068B0F5827FF4D0E561F2E784F8CB
:101B20005050204600F040F8022084F85100206810
:101B3000016821F040010160A088218900F48270D1
:101B400001F404410843A18901F400610843217CA8
:101B500001F002010843217D01F001010843218BBE
:101B600001F400710843217F01F03801084394F823
:101B7000201001F080010843218D01F40051084339
:101B800021680860A069042101EA104021684860CA
:101B90002068C16921F40061C1616565012084F894
:101BA0005100002070BD000030B585B000240094C5
:101BB00001940294039400681449884223D1144884
:101BC000816941F480518161816901F480510491FE
:101BD000816941F00401816180690E4D00F00400CB
:101BE0000490A020009002200190032003906946F9
:101BF0002846FFF711F84020CDE900046946284641
:101C00000294FFF709F805B030BD00000030014034
:101C100000100240000801407047704710B590F86E
:101C20003C20012A22D0012280F83C20CA688C681E
:101C300022F4407222434C6822F4806222430C68F2
:101C400022F4006222430C6922F4805222434C6940
:101C500022F400522243C969002322F480420A433D
:101C600001684A6480F83C30002010BD022010BD9D
:101C700070B590F83C20012A26D0012480F83C4021
:101C8000022280F83D2003685A689D6822F07006A1
:101C90000A6832435A600D4B02689A4208D0B2F18A
:101CA000804F05D00A4B9A4202D00A4B9A4204D187
:101CB000496825F080031943916080F83D40002178
:101CC00080F83C10084670BD022070BD002C014019
:101CD000000400400008004010B5040003D094F850
:101CE0003D0010B107E0012010BD002084F83C0049
:101CF000204600F01FF8022084F83D00211D2068D6
:101D000001F0F0FD012084F8460084F83E0084F8DC
:101D10003F0084F8400084F8410084F8420084F8D1
:101D2000430084F8440084F8450084F83D00002016
:101D300010BD000008B50C4A01680C48914207D15B
:101D4000816941F400618161806900F4006009E00B
:101D5000B1F1804F07D1C16941F00101C161C06992
:101D600000F00100009008BD002C0140001002406E
:101D700090F83D10012901D001207047022180F820
:101D80003D100168CA6842F00102CA6000680B4950
:101D9000884208D0B0F1804F05D00949884202D06E
:101DA0000849884204D1816801F00701062903D05F
:101DB000016841F00101016000207047002C0140E2
:101DC000000400400008004070B5044690F83C0054
:101DD0000025012817D0012684F83C60022084F8F1
:101DE0003D002068826822F0770222F47F42826000
:101DF0000868502838D00DDC20284FD005DC90B37F
:101E0000102811D14AE0022070BD302846D0402869
:101E10000AD13BE060282FD070280DD0B0F5805F4C
:101E200003D0B0F5005F12D0012584F83D6000209A
:101E300084F83C00284670BDCB68D1E901212068B8
:101E400001F086FD2068816841F0770109E0CB68E8
:101E5000D1E90121206801F07BFD2068816841F40F
:101E600080418160E1E719E0CA684968206801F0B3
:101E700023FE5021206806E0CA684968206801F006
:101E80002CFE6021206801F06DFDCEE7CA6849682C
:101E9000206801F011FE40212068F4E72268014625
:101EA0001046F0E7704770B50446006801694FF0CE
:101EB0000005C943890715D4C168C943890711D4EE
:101EC000E91E016101202077206880698007204693
:101ED00002D0FFF7E7FF04E000F00EF9204600F023
:101EE000B3F9257720680169C943490717D4C16848
:101EF000C943490713D46FF0040101610220207720
:101F00002068806910F4407F204602D0FFF7CAFFA6
:101F100004E000F0F1F8204600F096F925772068FB
:101F20000169C943090716D4C168C943090712D416
:101F30006FF008010161042020772068C0698007E4
:101F4000204602D0FFF7AEFF04E000F0D5F82046AF
:101F500000F07AF9257720680169C943C90617D4CA
:101F6000C168C943C90613D46FF01001016108208C
:101F700020772068C06910F4407F204602D0FFF728
:101F800091FF04E000F0B8F8204600F05DF92577F5
:101F900020680169C943C90708D1C168C943C90795
:101FA00004D1891E0161204600F050F920680169C2
:101FB000C943090609D4C168C943090605D46FF0AD
:101FC000800101612046FFF727FE20680169C943AF
:101FD000490609D4C168C943490605D46FF04001D8
:101FE0000161204600F03CF920680169C943890677
:101FF0000BD4C168C943890607D46FF02001016181
:102000002046BDE87040FFF708BE70BD70B586B0D1
:10201000002100910191029103910068304B3149F8
:102020000224314A984211D1886940F00400886145
:102030008869039400F0040004908815CDE9000439
:1020400069461046FEF7E8FD06B070BD274E284DE4
:10205000B0F1804F1BD0274A9042F5D1886940F0FB
:10206000080088618869694600F008000490102023
:10207000CDE9000430460394FEF7CEFD686820F4F5
:10208000406040F0E06040F400606860DCE7886930
:1020900040F004008861886900F0040004908869B9
:1020A00040F0080088618869694600F008000490E3
:1020B00048F20400CDE9000410460394FEF7ACFD9D
:1020C0000820CDE90004694630460394FEF7A4FDDC
:1020D000686820F4407040F0E06040F48070D4E71D
:1020E000002C01400010024000080140000C01409B
:1020F0000000014000040040704770B5044690F8AD
:102100003C0000260D4601280FD0012084F83C0039
:102110006AB1042A1DD0082A2FD00C2A3FD00126EC
:10212000002084F83C00304670BD022070BD20685D
:1021300001F020FC2068816941F00801816120687C
:10214000816921F004018161206881692A69114354
:1021500011E0206801F036FC2068816941F40061DB
:1021600081612068816921F48061816120688169D1
:102170002A6941EA02218161D2E7206801F04EFC20
:102180002068C16941F00801C1612068C16921F07E
:102190000401C1612068C1692A69114311E0206806
:1021A00001F068FC2068C16941F40061C1612068E8
:1021B000C16921F48061C1612068C1692A6941EA6D
:1021C0000221C161ACE710B5040003D094F83D00D2
:1021D00010B107E0012010BD002084F83C0020462B
:1021E00000F01EF8022084F83D00211D206801F057
:1021F00079FB012084F8460084F83E0084F83F0013
:1022000084F8400084F8410084F8420084F84300D8
:1022100084F8440084F8450084F83D00002010BD97
:1022200008B500680649884208D10648C16941F0EE
:102230000201C161C06900F00200009008BD000009
:10224000000400400010024070470000006803498D
:10225000884201D1FFF700B8704700000008004035
:10226000704770B5040004D094F84100002510B107
:1022700006E0012070BD84F84050204600F024F8AC
:10228000242084F841002068C16821F40051C16015
:10229000204601F09BFD2068016921F49041016115
:1022A0002068416921F02A0141612068C16841F438
:1022B0000051C1606564202084F8410084F8420028
:1022C0006563002070BD000030B585B00024009427
:1022D00001940294039400681449884224D114485C
:1022E000816941F480418161816901F480410491F7
:1022F000816941F00401816180690E4D00F00400A4
:1023000004904FF40070009002200190032003908D
:1023100069462846FEF780FC2815CDE90004694689
:1023200028460294FEF778FC05B030BD0038014025
:1023300000100240000801402DE9F843044690F8DF
:1023400041001F4616460D46202802D00220BDE857
:10235000F8837DB176B100206064212084F84100CB
:10236000FEF754FDA6848046E684A068B0F5805F41
:1023700002D003E00120EAE7206910B12E460025D3
:102380000EE000260CE08021204601F07BFDA0B984
:10239000AEB116F8010B21684860E08C401EE08465
:1023A000E08C43464FF0000200970028EBD14FF03D
:1023B0004001204601F066FD30B10320C7E735F843
:1023C000020BC0F30800E6E7202084F8410000205B
:1023D000BDE7FEE701684A69D24352050FD46FF4A6
:1023E00080624A61002140F8301F202242738173CD
:1023F000026942F00402026101730120704700206B
:1024000070470000F8B50446C06A1E460D461746E0
:10241000082807D0012805D010F5803F02D0206B96
:10242000122804D12068016841F4807101601346CC
:1024300000224FF001112046009600F0B1F840B1A3
:1024400020680068C00502D54FF4007020640320A6
:10245000F8BD2069B0F5804F0ED00620216800EA53
:10246000D51040F0F000086133463A460B4920464B
:1024700000F0DEF878B902E005F0FE0000E0E8B216
:1024800021680861054933463A46891F204600F015
:10249000CFF80028DCD00120F8BD000008000100C2
:1024A0002DE9F843044600680D46DDE90897016808
:1024B0009846164641F4807101604B4600224FF069
:1024C00001112046009700F06BF848B120680068C1
:1024D000C00502D54FF4007020640320BDE8F883E6
:1024E000216805F0FE0008613B464A461549204632
:1024F00000F09EF888B920684169806900903A46EA
:102500004946204600F0F2F848B1206C042804D176
:102510002068016841F4007101600120DEE7F5B236
:10252000B8F1010F09D02168300A08613A464946DE
:10253000204600F0DBF80028E7D120680561002084
:10254000CCE700000200010070B516460D460446B7
:102550001EE02046FFF73EFF08B1012070BD681C59
:1025600016D0FEF753FC801BA84200D885B920681E
:102570004069C04340070BD5002044F8300F2021AC
:102580006173A073216941F0200121612073E4E7A8
:1025900020684069C0434007DBD4002070BD0000C4
:1025A0002DE9F047984617460D460446C1F3074605
:1025B000DDF820902AE000BFB8F1FF3F26D0FEF7FB
:1025C00025FCA0EB0901414502D8B8F1000F1DD14F
:1025D0002068012E16D0806925EA00000004000C56
:1025E00012D00020B84211D1002044F8300F202131
:1025F0006173A073216941F02001216120730120E2
:10260000BDE8F0874069E7E70120EBE72068012E8D
:102610000AD0806925EA00000004000C06D00020E2
:10262000B842C9D00020EBE74069F3E70120F7E7A3
:102630002DE9F047984616460D4604464FF000092E
:102640004FF0200AC1F3074723E020684069C043E8
:10265000400515D42068016841F4007101602168CB
:102660006FF480604861C4F8309084F83DA084F82D
:102670003E90216C41F00401216484F83C9021E0FB
:10268000701C06D0FEF7C2FBA0EB0800B04203D8D6
:1026900016B1012F1FD021E02068012F15D08069CD
:1026A00025EA00000004000C18D000BF44F8309F59
:1026B00084F80DA084F80E90216941F02001216179
:1026C00084F80C900120BDE8F087406925EA0000FD
:1026D0000004000CEAD12068406901E020688069AC
:1026E00025EA00000004000CAFD1ECE770B51646F7
:1026F0000D4604461EE02046FFF76CFE08B101209F
:1027000070BD681C16D0FEF781FB801BA84200D864
:1027100085B920684069C04300060BD5002044F805
:10272000300F20216173A073216941F020012161E4
:102730002073E4E720684069C0430006DBD4002032
:1027400070BD00002DE9F84FDFF8F89000224846F0
:10275000DFF8F4C0D0E90261D9E900400B46341B30
:1027600061EB0001501EB4EB0C0C1546174671F1DD
:10277000000C5ED3DFF8D4804FF0000CB8EB0404FB
:102780007CEB010C55D34C46D4E904C1BCEB0606E6
:1027900061EB03012E4BF31A71F1000349D3DFF80B
:1027A000B4C00023BCEB06068B4142D300234FF09C
:1027B0000309EA4609EB430808F1010C04EBCC01DC
:1027C00004EBC80CD1E90061DCE9008CB6EB08062B
:1027D00061EB0C015206DFF88080120E6D1C4FF089
:1027E000000CB8EB06067CEB010C01D242F00102B2
:1027F000082D04D10AF80720002215467F1C5B1C17
:10280000202BD7DB9DF80110C943CBB28DF80130E6
:102810009DF80310C943CAB28DF803209DF800103B
:10282000994203D19DF80230934204D00B4A002113
:102830005160BDE8F88F094801704370FEF750F809
:102840000020F6E7D838002000127A008096980021
:10285000E0673500C03B470340420F00B000002056
:102860002DE9F04103F076FB244C254FD4E90623F3
:10287000861A61EB030200231D46BE1B934100D262
:102880006560C4E906011F4A636802EBC3065B1C6E
:10289000C6E900016360042B06D0442B02D1FFF788
:1028A00051FF6560BDE8F081D2E90260D2E90037EE
:1028B0000146F31A60EB0700134FDF1B70F10007AE
:1028C000F0D3DFF848C00027BCEB03038741E9D30E
:1028D000D2E90402801B62EB01020D49411A72F138
:1028E0000001DFD34FEAAC030021181A9141D9D37C
:1028F000024845700570FDF7F3FFD2E7B0000020F5
:1029000000E1F505D838002000127A008096980082
:1029100080841E00704700001CB51A4C002201A9DB
:10292000A06A05F039FC9DF80500E0280ED090283B
:102930000ED078B1C2280FD0002000900023A060F4
:102940001A466946206A05F00BFB1CBD0220F4E71D
:102950000120F2E7A068F0E70B48002302221946A5
:10296000006805F00DFE322004F0D0FF606B04F02B
:10297000F3FF206A04F07CFF002004F0EDFF0098D4
:10298000DCE70000040100201C0200201CB51A4CEA
:10299000002201A9606A05F0FFFB9DF80500E02810
:1029A0000ED090280ED078B1C2280FD00020009011
:1029B0000023A0601A466946E06905F0D1FA1CBD03
:1029C0000220F4E70120F2E7A068F0E700230222EA
:1029D0001946206B05F0D4FD002302221946606BD6
:1029E00005F0CEFD0548002302221946006805F0D7
:1029F000C7FD0098DCE70000400100202002002015
:102A00001CB51B4C4FF0FF373946206B05F060FCBE
:102A10000028F9D0A16A884202D1FFF77DFFF3E7D1
:102A2000616A884202D100F045F8EDE7E36A984216
:102A3000EAD1002201A9184605F0AEFB01985A28F8
:102A400004DD022100915C28DEDB03E0012100911E
:102A50005828D9DC0226002500231A466946206A38
:102A600005F07EFA6D1CEDB2B542F5D3CCE700005F
:102A7000040100200E4C4FF0FF350021012004F02E
:102A80005DFD10B1002004F067FF2946E06A05F003
:102A90001FFC0028F1D0616A884202D1FFF776FF5F
:102AA000EBE7A16A8842E8D100F030F8E5E70000E2
:102AB000400100207CB5144E00226946706A05F082
:102AC0006BFB0099002901DD012002E00020494252
:102AD0000091782901DD042504E03C2901DD02256F
:102AE00000E0012508B1022000E00120002401904F
:102AF00007E000231A4601A9306A05F031FA641C88
:102B0000E4B2AC42F5D37CBD040100207CB5144E88
:102B100000226946B06A05F03FFB0099002901DDFB
:102B2000012002E0002049420091782901DD0425BE
:102B300004E03C2901DD022500E0012508B1022066
:102B400000E001200024019007E000231A4601A9BB
:102B5000306A05F005FA641CE4B2AC42F5D37CBDE2
:102B60004001002000F0B4BA00F0C8BA00F0E2BAA8
:102B700000F010BB00F018BB10B500216B2000F076
:102B80001FF800216C2000F01BF80921192000F02B
:102B900017F806211A2000F013F818211B2000F066
:102BA0000FF818211C2000F00BF8002204210F2040
:102BB00005F03AF901498860002010BDA40000200A
:102BC0001CB502238DF804004FF4FA7000900448FD
:102BD0008DF8051001AAD0210068FEF7E1F91CBDAF
:102BE000A40000203EB500241148009401940294F2
:102BF0000E498460016004730475012505614FF47A
:102C000060214460C161FDF723FF08B1FDF791FE2B
:102C10000320CDE90005694602940548FDF79AFEB8
:102C2000002801D0FDF785FE3EBD000000240140D4
:102C3000080300201CB5FFF79DFFFFF793FFFFF788
:102C40009BFFFFF767FE00F0B9FB012005F0DDF800
:102C50000649002380220861091D1820CDE90001E2
:102C600003A1074805F034FC1CBD00000000002053
:102C70005461736B5F436F6E74726F6C0000000081
:102C8000013B00082DE9F04786B000244B48009432
:102C9000019402940394816941F01001816181697A
:102CA00001F010010491816941F020018161816985
:102CB00001F020010491816941F004018161816981
:102CC00001F004010491816941F00801816180698A
:102CD0003B4F00F008004FF40055049000222946B5
:102CE0003846FEF78EF8DFF8DC90002213214846C4
:102CF000FEF787F8DFF8D0A04FF4024800224146E3
:102D00005046FEF77EF80095022601250396CDE990
:102D1000015469463846FDF77FFF11270097039657
:102D2000CDE9015469464846FDF776FFCDE90256E4
:102D3000CDE9006769464846FDF76EFF03208DE840
:102D4000310069465046FDF767FFA80200901F4812
:102D5000CDE9010569465046FDF75EFF1C4F4FF473
:102D60000260CDE90007694602955046FDF754FF21
:102D70002803CDE90007694602945046FDF74CFF51
:102D80004FF48240CDE90004694650460294FDF7B5
:102D900043FFCDF800800396CDE9015469465046C3
:102DA000FDF73AFF002205212820FEF7EDFA282042
:102DB000FEF7DCFA06B0BDE8F08700000010024024
:102DC0000010014000080140000C014000003110DB
:102DD000000011100D4810B50B4901600C4941600D
:102DE00000214FF480428160C0E90312416181619A
:102DF000C1610162FEF710F8002803D0BDE8104061
:102E0000FDF797BD10BD00000054004038030020BE
:102E1000A0860100104810B50E4901604FF4827180
:102E2000416000218160C1604FF400720161C0E91E
:102E300005120822C0E90721416281620A21C162AC
:102E4000FEF758FE002803D0BDE81040FDF771BD25
:102E500010BD0000003001408C03002010B596B07A
:102E600000240F9410941194129413941C2108A818
:102E70001494FDF712FA20216846FDF70EFA2A484D
:102E8000284901604721C0E9011440F2E731C0E957
:102E900003148021C0E90541FEF71EFF08B1FDF7CC
:102EA00048FD4FF480500F900FA91F48FEF78CFF8C
:102EB00008B1FDF73EFD1C48FFF785F908B1FDF7A5
:102EC00038FD139413A918481494FEF7D1FE08B1E5
:102ED000FDF72FFD6020089040F2F310CDE90904C2
:102EE0000B940C940D94002208A90F480E94FFF740
:102EF00004F908B1FDF71DFD00944FF40050CDE931
:102F00000440029401940394694607480794FEF72D
:102F100085FE08B1FDF70DFD0348FFF777F816B001
:102F200010BD0000002C0140E403002010B58EB05D
:102F300000240794089409940A940B941C21684671
:102F40000C94FDF7AAF927484FF08041016040F248
:102F50006711C0E9011440F2CF71C0E90314802168
:102F60008161FEF7B9FE08B1FDF7E3FC4FF4805034
:102F7000079007A91B48FEF727FF08B1FDF7D9FC0A
:102F80001848FFF720F908B1FDF7D3FC0B940BA903
:102F900014480C94FEF76CFE08B1FDF7CAFC6020E3
:102FA000CDE900040294002269460E480494FFF71C
:102FB000A4F808B1FDF7BDFC042269460948FFF7F3
:102FC0009CF808B1FDF7B5FC082269460548FFF7F3
:102FD00094F808B1FDF7ADFC0248FFF717F80EB002
:102FE00010BD00002C04002010B58AB00024079406
:102FF0001C2168460894FDF750F9184816490160ED
:103000000721C0E9011440F2E731C0E9031480212F
:103010008161FFF7D8F808B1FDF78BFC079407A989
:103020000E480894FEF724FE08B1FDF782FC6020EC
:1030300000904FF46170CDE9010400226946074811
:103040000494FFF75AF808B1FDF773FC0348FEF744
:10305000DDFF0AB010BD0000000400407404002031
:103060000C4810B50A4901604FF4E131416000217C
:1030700081600C22C160C0E904128161C161FFF767
:10308000F0F8002803D0BDE81040FDF752BC10BD99
:1030900000380140BC0400200B4810B5094901600C
:1030A000082141600221816000218161C1610162CA
:1030B000FEF79CF9002803D0BDE81040FDF739BCAD
:1030C00010BD0000005C004004050020FEE7FEE7A4
:1030D00010B5A0B0002480216846FDF7DEF800217D
:1030E000204600F0C1F88021684600F0F1F8641C29
:1030F000E4B2082CF3D320B010BD000070B50C4D25
:10310000002400BF04F1B000C0B200F0CDF80020F0
:1031100000F0CAF8102000F0C7F805EBC4108021B9
:1031200000F0D6F8641CE4B2082CEBD370BD0000AC
:10313000543400202DE9F0478146C81701EB507048
:10314000C0F3C70520F00700081A1844C01DC117B6
:1031500000EB51709246C0F3C7070024DFF83080BF
:1031600011E02E19082E0CD209F0FF01F0B200F088
:103170007BF809EBC6121FFA8AF102EB080000F097
:10318000A7F8641CE4B2BC42EBD3BDE8F0870000B2
:103190005434002080230360402008600120106028
:1031A000004870475434002010B50224202000F05D
:1031B0007BF8204600F078F81F4804703F24A820D0
:1031C00000F072F8204600F06FF80024D32000F0E1
:1031D0006BF8204600F068F8402000F065F8A12068
:1031E00000F062F8C82000F05FF80021084600F007
:1031F00025F87F24812000F057F8204600F054F88D
:10320000A42000F051F8A62000F04EF8D52000F0E0
:103210004BF8802000F048F88D2000F045F814208D
:1032200000F042F80021012000F008F8BDE810404D
:10323000AF2000F039B800009C00002070B50C46AB
:10324000050001D0012D0ED10CB1012C0BD1DA20DB
:1032500000F02AF8280100EB4410BDE87040801C03
:10326000C0B200F021B870BD70B50E4D0C46297883
:10327000022905D1072803D8B030C0B200F014F8F5
:10328000287802280CD17F2C0AD804F00F0000F017
:103290000BF8102000EB1410BDE8704000F004B8EB
:1032A00070BD00009C0000201CB500218DF80410AA
:1032B0008DF805004FF4FA7000900448022301AA2B
:1032C00078214068FDF76CFE1CBD00009C000020CA
:1032D0000EB54FF4FA728DE807000448012340222E
:1032E00078214068FDF7F2FE0EBD00009C00002032
:1032F000044A91680A2904DA034B43F82100491C67
:1033000091607047B0000020F83A00200348002385
:103310001A461946006904F023BE00000000002090
:103320002DE9F04102F016FE204C06460D46D4E988
:103330000623801A1E4A61EB0301801A71F1000016
:1033400004D200BFC4E90665BDE8F081DFF86480FF
:103350004FF480514046FDF74FFD0028F4D0D4E9EA
:103360000601321A65EB0103012713480021FCF71F
:1033700027FF606000B9676001214046FDF73CFD12
:10338000002820680BD0401C20606068074900239B
:1033900010311A460860E06804F098FED2E7401E3B
:1033A0002060606840426060F0E70000D0000020CC
:1033B00080841E00000C014000CA9A3B10B5002218
:1033C00004210F2004F030FD0149C86010BD000049
:1033D000D00000201CB50025AE4802F057FEAE49D3
:1033E000AC4803F02CF9AD4F3C22A7F14006342144
:1033F000707807EBC0004368A64803F09DF870782A
:1034000007EBC0004168A34803F0EAF800F0FF08AA
:10341000A3480824CDE900401023342223219D48ED
:1034200003F098F89F481023CDE90040342208F1BA
:103430003501984803F08EF8747806F1040BBA460B
:103440000AEBC4074FF01E0957F8080C5E46CDE999
:103450000090BBF80220BBF8001019238D4803F040
:1034600079F85AF834001923CDE90090F289B1892E
:10347000884803F06FF8B8681923CDE90090728B83
:10348000318B844803F066F887480926CDE900604F
:1034900000220A2311467F4803F05CF883480A2380
:1034A000CDE90060002276217A4803F053F8804984
:1034B000784803F0C4F87FA309223221754803F04D
:1034C0003BF87549734803F0BAF8DFF8D091A9F1D9
:1034D000400999F80000012802D0022856D0B6E031
:1034E00076491020CDE90001502333222321694879
:1034F00003F030F84FF01E085E463EE07049202091
:10350000CDE90001802310220021624803F022F857
:1035100057F8080C2D1DCDE900803088EDB2401B16
:1035200081B2728819235B4803F014F85AF834000A
:103530001923CDE90080B089F289401B81B255483A
:1035400003F008F8B8681923CDE90080308B728B3E
:10355000401B81B24F4802F0FDFF38691923CDE9C5
:103560000080308E728E401B81B24A4802F0F2FF1A
:10357000484803F053F82C2D01D2052CBED3641C0F
:10358000E4B20025052C57D3052455E04B49102003
:10359000CDE900015023332223213E4802F0DAFF17
:1035A0004FF01E085E463FE045492020CDE900016E
:1035B000802310220021374802F0CCFF57F8100C6E
:1035C0002D1DCDE90080B08CEDB2284481B2F28C83
:1035D0001923304802F0BEFF57F8080C1923CDE933
:1035E000008030887288284481B22A4802F0B2FFF5
:1035F0005AF834001923CDE90080B089F2892844B3
:1036000081B2244802F0A6FFB8681923CDE90080F2
:10361000308B728B284481B21E4802F09BFF1D48FC
:1036200002F0FCFF2C2D01D2012CBDD8641EE4B2A7
:103630000025012C00D801240AEBC400416815487C
:1036400002F0CEFF002100F0FF0889F800100AEB1D
:10365000C400406800F052FC11480826CDE9006023
:103660001023342223210B4802F074FF0D4810234D
:10367000CDE90060342208F13501064802F06AFF06
:1036800089F80140034802F0C9FF962004F03EF992
:10369000D6E60000403B002079C00008B8010020B9
:1036A0006B9600085B960008A792000895920008A8
:1036B0005EB600084F74746F00000000BB950008F0
:1036C000BB9300088AB046A147A2D1E90001CDE929
:1036D000080107CA02AB474F83E807000E25DFF851
:1036E0001881DFF81891DFF818A1DFF818B1464CFF
:1036F0000026464802F0CAFCCDE900570E230022FE
:103700000721424802F026FFCDE900580E2300228F
:103710001B213E4802F01EFFCDE900590E23002276
:103720002F213A4802F016FFCDE9005A0E2300225D
:103730004321364802F00EFFCDE9005B0E23002244
:103740005721324802F006FF31480E23CDE90050E0
:1037500000226B212D4802F0FDFE2E492B4802F07D
:103760006EFF08AB34223221284802F0E5FE2949D9
:10377000264802F064FF02AB3F222821234802F0D2
:10378000DBFEA0783C2803D1A6706078401C6070F6
:1037900060783C2803D166702078401C2070207827
:1037A000182800D126701C49184802F048FFA0785C
:1037B00000906378227819A105A800F02DFC05ABD4
:1037C00028221621114802F0B7FE104802F026FF09
:1037D000A078401CA0704FF47A7004F097F888E746
:1037E0004672696461790000323032342F31302FF3
:1037F000323900001191000885900008D990000826
:10380000F5900008A1900008F0010020403B002046
:10381000BD90000879C000087B960008253032640E
:103820003A253032643A25303264000010B5502019
:1038300080F31188BFF34F8FBFF36F8F04F018FF31
:1038400018B104494FF080500860002080F31188BF
:1038500010BD000004ED00E030B593B028216846AB
:10386000FCF71BFD14210AA8FCF717FD002401201A
:103870000F9410941194010412948DE81300049095
:103880004FF4E010CDE90810022507956846FDF7D2
:10389000A1FF08B172B6FEE70F20CDE90A054FF48B
:1038A0008060CDE90C4002210AA80E94FDF796FE37
:1038B00008B172B6FEE712200F904FF40040CDE938
:1038C00011040FA8FDF714FE002801D072B6FEE720
:1038D00013B030BD704700000148FEF7E4BA0000A5
:1038E000F4070020F0B50268164B174C174D4FF047
:1038F0008047984205D0B84203D0A04201D0A842E8
:1039000003D122F070064A683243984205D0B8428B
:1039100003D0A04201D0A84203D122F44074CA6867
:1039200022434C6922F08002224302608A68C2620C
:103930000A688262984201D10969016301214161EB
:10394000F0BD0000002C01400004004000080040D1
:1039500010B5846842EA032224F47F440A432243D8
:10396000826010BD826822F070020A4342F00701B3
:103970008160704730B5036A026A22F00102026278
:103980004268846924F073050C682C4323F0020517
:103990008B682B430A4DA8420BD123F00805CB6856
:1039A00022F440722B434D6923F0040315438A69C6
:1039B0002A434260846149684163036230BD00006C
:1039C000002C014030B5026A036A23F01003036241
:1039D000436884690D6824F4E64444EA05248D684C
:1039E00022F0200242EA05120B4DA8420ED1CD680A
:1039F00022F0800242EA05124D6923F4406343EA53
:103A000085038D6922F0400243EA850343608461A7
:103A100049688163026230BD002C014030B5036A01
:103A2000026A22F4807202624268C46923F400735D
:103A300024F073050C682C438D6843EA05230C4D74
:103A4000A8420ED1CD6823F4006343EA05234D69F3
:103A500022F4405242EA05128D6923F4806342EA5F
:103A600005124260C4614968C163036230BD000051
:103A7000002C014030B5046A026A22F480520262CE
:103A80004268C3690D6823F4E64343EA05238D6861
:103A900024F4005444EA0534064DA84204D14D698B
:103AA00022F4804242EA85124260C361496801649F
:103AB000046230BD002C014010B5036A046A24F092
:103AC00001040462846924F0F00444EA021423F03F
:103AD0000A020A438461026210BD10B5036A046AD7
:103AE00024F010040462846923F0A00324F47044D9
:103AF00044EA023243EA01118261016210BD000012
:103B000008B500220221012004F08EF9454C6060C6
:103B1000FFF7EEFB012004F078F9A060424802F0C4
:103B20009BFA207804F1480500EB800005EB80004B
:103B3000FCF7C4FE3D4E4FF0FF374FF0000839460A
:103B4000A06804F0CFFB3A4803F090FF384939A051
:103B500000F052FA39A000F04FFA3A466946606820
:103B600004F01AFB012856D16846FCF781FE0021BB
:103B7000012003F0E3FC88B1962003F0C7FE002388
:103B800086F800801A461946A06804F0E9F9207802
:103B900000EB800005EB8000FCF790FE28480078E1
:103BA00000EB40011F480C3000EB81006863307867
:103BB000032802D0042810D02DE0207802282AD231
:103BC0000A2003F0A3FE207800EB800005EB8000C4
:103BD000FCF782FE2078401C0DE02078D8B10A2046
:103BE00003F094FE207800EB800005EB8000FCF7EA
:103BF00073FE2078401E20700B4802F0CDF90A2099
:103C000003F084FE207800EB800005EB8000FCF7D9
:103C100055FE86F8008000231A461946A06804F075
:103C20009FF98CE760020020403B002078010020D3
:103C3000D43B002025730A0D000000000A0000009C
:103C4000790100201CB505460124594802F01EFAEE
:103C5000DFF86081DFF860914FF00A0B4FF0000A47
:103C600010275649524802F0EAFC28680D2200212C
:103C700003684F4802F060FC51494D4802F0DFFCF8
:103C800001260CE02868002150F8263006EB86005B
:103C900007EB4002464802F04FFC761CF6B228794A
:103CA000B042EFD84FF0FF314E46D9F8000004F093
:103CB00019FB98F80000012804D0022821D003281D
:103CC0003FD053E02879401EA04237DD286850F8E5
:103CD0002410374802F084FCC1B20191002134481D
:103CE00002F0A5FC04EB8401062000EB41020199DF
:103CF0001E23CDF800B02E48891C02F0D0F9641CB8
:103D00001BE0012C1AD9286850F82410284802F02A
:103D100067FCC1B201910021254802F088FC04EB48
:103D20008401062000EB410201991E23CDF800B06A
:103D30001F48891C02F0B3F9641EE4B288F800A0A1
:103D400014E088F800A01A4802F0A0F9A86804EB73
:103D5000840100EB8100FCF7B1FD00231A461946EF
:103D6000306804F0FDF8002003F0F6FD00231A4649
:103D70001946306804F0F4F8286850F824100C480C
:103D800002F02EFCC6B20121094802F050FC04EBFF
:103D9000840007EB40020BA3B11C054802F0CCFBEA
:103DA000034802F03BFC962003F0B0FD59E7000009
:103DB000403B00207801002068020020D0AD0008C0
:103DC00031D900083C2D2D2D2D00000070B5044682
:103DD00000680169E26821F44051114301612169E1
:103DE000A0680843616908432168CA6841F20C630E
:103DF0009A430243CA6020684169A26921F4407174
:103E0000114341611E492068884202D1FDF7ACFC94
:103E100001E0FDF799FC00EBC00101EB00126068C6
:103E200064218000B2FBF0F3B3FBF1F36FF01806EE
:103E30007343B2FBF0F5B2FBF0F605EB83053223DA
:103E400003EB0515B5FBF1F5B6FBF1F605F0F00552
:103E500005EB0615B2FBF0F6B2FBF0F0B0FBF1F0AB
:103E60006FF01802504306EB800003EB0010B0FB2C
:103E7000F1F0216800F00F002844886070BD000058
:103E8000003801402DE9F041984617460E46044699
:103E9000069D27E0681C25D02DB1FCF7B7FFA0EBED
:103EA0000800A8421ED920680C3050E8001F21F4F9
:103EB000D07140E80012002AF5D12068143050E893
:103EC000001F21F0010140E80012002AF5D1202056
:103ED00084F8410084F84200002084F84000032068
:103EE000BDE8F0812068006836EA000004D00020B8
:103EF000B842CFD00020F3E70120F9E72DE9FC41DB
:103F00002B4C80462046E27880780925762600EB07
:103F10008000410002B327480A23CDE90050002267
:103F2000254802F017FB25480A23CDE90050A07868
:103F30000022404200EB800006EB400081B21E48A8
:103F400002F008FBA078401CC0B2A070032822D168
:103F50000220A07000201DE0194F0A23CDE9005770
:103F60000022154802F0F6FACDE90057A0780A239E
:103F7000404200EB800006EB400081B200220E4878
:103F800002F0E8FAA078401E10F0FF00A07002D105
:103F90000120A070E0700B49074802F050FB02B00E
:103FA0004346BDE8F0413C223421034802F0C4BA44
:103FB00078010020A7920008403B0020959200085D
:103FC000B992000879C000080020704700207047AF
:103FD000012120F8401F00210180818001820846D4
:103FE000704730F8401F21F43F41018000207047A6
:103FF00000207047FEE700000FB4054B10B503A981
:10400000044A029800F03CF810BC5DF814FB000074
:10401000C9470008FC0200200FB4084B10B504A9E2
:1040200002AA039800F02CF8044602A9002000F030
:10403000C8F9204610BC5DF814FB0000C34300081B
:104040000907090E002804DB00F1E02080F80014C5
:10405000704700F00F0000F1E02080F8141D704759
:1040600002E008C8121F08C1002AFAD17047704741
:10407000002001E001C1121F002AFBD1704700009F
:104080002DE9FF4F8BB088460546002606E025281F
:104090000BD0DDE90D1290476D1C761C28780028A6
:1040A000F5D10FB03046BDE8F08F0024A146A246FE
:1040B0000122AE4900E0044315F8013F203B02FA1B
:1040C00003F00842F7D128782A2810D06FF02F0289
:1040D0002878A0F13001092915D809EB890102EBF4
:1040E000410144F0020400EB01096D1CF0E758F8AF
:1040F000041B5FEA010903D544F40054C9F1000927
:1041000044F002046D1C28782E2817D115F8010FF1
:1041100044F004042A280ED06FF02F022878A0F172
:10412000300109290AD80AEB8A0102EB410100EBB0
:10413000010A6D1CF2E758F804AB6D1C28786C2856
:104140000FD006DC4C2817D068280DD06A2814D16F
:1041500004E0742810D07A280FD10DE044F4001444
:104160000AE044F4801401E044F440146978814288
:1041700002D104F580146D1C6D1C2878692865D067
:1041800006DC00288DD0632827D0642806D15DE0A6
:104190006E2808D073282AD0752877D0DDE90D1253
:1041A0009047761CE0E0C4F30250022809D00328AF
:1041B0000DD0D8F8001004280DD00E6008F10408C6
:1041C000D2E0D8F80010F217C1E90062F6E7D8F89B
:1041D00000100E80F2E70E70F0E718F8041B8DF85F
:1041E000001000208DF80100EB46012003E058F894
:1041F00004BB4FF0FF3061074FF0000701D40AE025
:104200007F1C57450DDA8742FADB1BF8071000299F
:10421000F6D106E07F1C8742FCDB1BF80710002963
:10422000F8D1DDE90D23A9EB07008146214600F016
:10423000B1F83044C61904E0DDE90D121BF8010B9A
:1042400090477F1EF8D22146484688E058F8040B74
:10425000C4F302514FF00A0B032900D100B2042924
:1042600000D140B2002802DA40422D2102E02105AF
:1042700005D52B218DF82410012104E006E0E1078B
:1042800010D02021F6E708AF089113E058F8040B8E
:10429000C4F302514FF00A0B032900D180B2042964
:1042A00000D1C0B20021EEE75946FCF7BDF930312C
:1042B00007F8011D0028F7D1ADEB070000F1200B36
:1042C000600702D524F4803401E04FF0010ADA459A
:1042D00002DDAAEB0B0000E00020824600EB0B01A0
:1042E00008980144A9EB01000A90E00306D4DDE937
:1042F0000D2321460A9800F04DF806444FF00009BE
:1043000008E009A911F80900DDE90D12904709F14B
:104310000109761C08998945F3DBE0030CD5DDE93A
:104320000D2321460A9800F035F8064404E0DDE943
:104330000D1230209047761CBAF10001AAF1010A53
:10434000F5DC05E0DDE90D1217F8010B9047761C4E
:10435000BBF10001ABF1010BF4DC0A982146DDE969
:104360000D2300F005F806446D1C97E609280100AE
:104370002DE9F041044600251E461746880404D462
:1043800005E039462020B0476D1C641EF9D528464B
:10439000BDE8F0812DE9F041044600251E46904617
:1043A000C80301D5302700E02027880404D505E0A4
:1043B00041463846B0476D1C641EF9D52846BDE815
:1043C000F0810A68531C0B60107070473EB5214C99
:1043D000A078FF283CD1322003F098FA0025402035
:1043E000CDE9000580231C4A29462846029500F0A5
:1043F0003BF8002140238022084600F01FF9FCF71B
:104400004FFAE06803F0B6F9E560606A03F030FA4D
:10441000A06A03F02DFA206B03F02AFA0F4801F08E
:10442000BBFD0F48002302221946006804F0A8F8DB
:104430000C4800231A461946006803F091FDA06B52
:1044400003F08AFA606B03F087FA002003F084FA25
:1044500001203EBD040100205F8C0008403B00208D
:1044600004000020680200202DE9FF4F8DB01F4698
:104470001C990E98DDF86880401AC0B2089008F1C7
:104480000700C0080B900898002600F00700039072
:104490000E984044C0B20290C4E0089800EBC600F9
:1044A00000F0FF0A0AF10800C0B201901C98A8B100
:1044B0000E990198884256D35E498968884252D83D
:1044C00002998A45FBD8FF2005900E98824508D2B4
:1044D000A0EB0A01FF208840C0B200E0FF20059059
:1044E00007E0DDE90101884203D9411AFF20C840F5
:1044F000F5E750484FEADA0241684A4307920F9ABB
:1045000006FB07220692039A72BB836881469A458E
:104510002AD24FF0080AB8F1080F00D2C246002490
:104520001BE00D982044C5B2D9F80400854212D290
:1045300006981B99204401F0EFFC05995346014071
:10454000079800220544D9F80000405D01F0F6FC10
:10455000D9F800104855641CE4B2BC42E1D3A8EB82
:104560000A0000F0FF085BE0019A4446D2084A4383
:1045700000250A9251E003984446C0F108008146A4
:104580000490A04200D9C1460D98284400F0FF0BCA
:104590002848406883453ED206981B99284401F07C
:1045A000BBFC059908402349009089688A4511D2CF
:1045B000079920485944099100684B46039A405C8A
:1045C000009901F0BBFC1B4A099912685054A4EBF6
:1045D0000900C4B2FCB117480199826891421AD20D
:1045E000C9F1080101F0FF09A14500D9A146049ACB
:1045F00000991048D1400A9A006893444B4610F83D
:104600000B00002201F09AFC0A49096801F80B002E
:10461000A4EB0900C4B26D1CEDB2BD42ABD3A04601
:10462000761CF6B20B988642FFF437AF11B0BDE8A6
:10463000F08F0000F4000020FEF796BA2DE9F0415B
:104640001C4615460E460746FCF776F923462A46D1
:1046500031463846FEF78AFABDE8F041FEF756BE0D
:10466000044A10B5111F081FFEF782FA01490C39E0
:10467000086010BD000100202DE9FE4F9B469146C9
:104680000F4606460025DFF8988043E0C5EBC502DB
:1046900002EB0901CCB2082200210092CDE90171A0
:1046A0002038C0B21F4900EB80004218052359464C
:1046B0002046FFF7D9FE0823052259462046FFF77A
:1046C000BDFF27B384B1A4F1010A0AF0FF01FF2363
:1046D0005A46D8F8000001F025FC0AF0FF00082334
:1046E00001225946FFF7AAFFD8F80410491F8C424F
:1046F0000DD2641DE1B2FF235A46D8F8000001F044
:1047000011FCE0B2082301225946FFF797FF6D1C08
:10471000EDB2761C30780028B8D1BDE8FE8F0000DD
:10472000F40000207A8A00082DE9F0411D46164663
:1047300088460446FBF7BCFDC0B2401C00F0A2FD59
:1047400007462146FBF7BBFD2B463246414638461D
:10475000FFF792FF3846BDE8F04100F043B8000093
:1047600070B5040005D0164E3068844209D100208F
:1047700070BD502080F31188BFF34F8FBFF36F8F50
:10478000FEE702F0C3FF656902F0E0FF7068854252
:1047900002D0B068854201D1022070BD094885422F
:1047A00004D1A06A0028F7D1032070BD0548143851
:1047B000854202D00DB1012070BD042070BD000003
:1047C000240000202C0D002013B505484FF4FA7387
:1047D000012269460068FDF7AFFD00981CBD00008E
:1047E000F000002010B5002821D0114B0022001F3E
:1047F000196803E0814203D80A4649680029F9D1C3
:1048000052B11368841A9C4204D1006818441060A5
:10481000104602E0506000E0186039B102680B1ADF
:10482000934203D10B681A4402604968416010BD8D
:10483000000300202DE9F04FD6488FB0C188A02991
:104840002BD28178FF2928D00021D34C81468A467B
:104850006068FBF7A1FEC5B22068FBF79DFE4FF034
:10486000000B0221CDE9001B0B46C0B2CB4A294602
:10487000CDF808B0FFF7F8FD6068FBF78DFEC5B214
:104880002068FBF789FEC0B2082302222946FFF701
:10489000D5FEBAF1000F02D00BE00121D5E7A168E7
:1048A0002068FBF715FD2060E1686068FBF710FDEC
:1048B00060600020029021680391A0466068FBF7C9
:1048C0006BFE0027C5B23E465FF00004D9F80C002D
:1048D000C05DD0BBB0000590FBF748FE0399FBF725
:1048E0008FFE32D8042000EB8600FBF73FFE0399D1
:1048F000FBF790FE29D2082000EB84010E91A9421B
:1049000023D80C2101EB8401A9421ED9D9F80C103F
:1049100001220323CA55CDE9000B0E98CDF808B04B
:10492000C1B205989D4AC0B2FFF79EFD0E980823BC
:10493000C1B205980322C0B2FFF780FE01200290A9
:10494000B9F80600401CA9F806007F1C641CE4B2FC
:10495000FFB2052CBAD3761CF6B2202EB4D3D9F808
:1049600010004C46801EFBF701FE0399FBF748FE42
:1049700013D28B490398884203DD4146C8F800B042
:1049800006E02069801EFBF7F1FD4146C8F80000F3
:10499000896881F00041C8F80810039810F1FF4FB2
:1049A00007D3C8F800B0D8F8081081F00041C8F863
:1049B00008100027BAF1000F32D16069801F8542CC
:1049C0002ED3F02D2CD226462079FBF7CFFD03996C
:1049D000FBF716FE24D830790C30FBF7C7FD03999E
:1049E000FBF718FE1CD870690127801FFBF7BEFD7E
:1049F000C8F80400D8F80C004646B0F5000F02DBFA
:104A000080F00040F060FBF71DFCFBF7A6FD6FF0A7
:104A10001D01FBF7B5FC4FF07E51FBF7ABFCB0601E
:104A20005AEA07001AD16069811E8D4201D80299A5
:104A3000A1B1F02D02D9C8F804B009E0029939B942
:104A4000401EFBF793FDC8F80400A078401EA0703C
:104A5000D8F80C1081F00041C8F80C104546D8F881
:104A60000400FBF799FDC6B22868FBF795FD02210B
:104A7000CDE9001B494A0B46C0B2113A3146CDF888
:104A800008B0FFF7F1FC6868FBF786FDC6B228683E
:104A9000FBF782FDC0B2082302223146FFF7CEFDAC
:104AA000207858B3002684F800B037460025E06827
:104AB000805DC8B90820CDE9000B00EB8509374AB5
:104AC0004FEA870809F0FF0108F0FF0003230F3ABF
:104AD000CDF808B0FFF7C8FC09F0FF0108F0FF00AF
:104AE00008230322FFF7AAFD761C6D1CEDB2F6B277
:104AF000052DDCD37F1CFFB2202FD7D3E28829A15C
:104B00000BA8FFF789FA00231A4619460BA8FFF7EE
:104B1000B3FDA078FF2827D0002522E0A0784FF031
:104B20000801CDE9001B8542CDF808B0207C4FF08C
:104B3000070300EBC500A0F11800C0B201D21A4A69
:104B400000E0164A0121FFF78FFC207C082300EBD0
:104B5000C5001838C0B207220121FFF76FFD6D1C98
:104B6000EDB2E0788542D9D3E088A02805D3202390
:104B7000322200210DA0FFF7D7FDA078FF2805D134
:104B80002023222200210BA0FFF7CEFD0FB0BDE8AD
:104B9000F08F000004010020203B0020678A0008FD
:104BA0000000704325750000738A000857494E21A4
:104BB0000000000047414D454F564552210000007E
:104BC0000EB5544A111F081FFDF7D2FF514C183C77
:104BD000E061FFF745FDFFF72FFDFEF7EFFB01203A
:104BE0002070002204210F2003F01EF92062002211
:104BF00002210F2003F018F9A062FEF779FBFBF702
:104C0000A3FE60621E2003F00BF901462063A06A38
:104C100003F0EAF8216B606A03F0E6F8002565709E
:104C200020694008FBF7A2FC3B4E306060690A38FF
:104C3000FBF79CFC70604FF03F40B0603748F0607D
:104C4000A02001F0DFF8A021E060FBF726FB0320A5
:104C5000E070A070E580208AFA2101EB5000304E10
:104C600020710021306803F03DFB04F13800192762
:104C7000CDE9007000233C222AA12D4803F028FC36
:104C800004F13400CDE900700023502229A12D4801
:104C900003F01EFC0021012002F050FC88B34020EC
:104CA000CDE9000500218023274A08460295FFF739
:104CB000DBFB0021402380220846FFF7BFFCFBF707
:104CC000EFFDE06802F056FDE560606A02F0D0FD9D
:104CD000A06A02F0CDFD206B02F0CAFD1B4801F076
:104CE0005BF91B48002302221946006803F048FCC8
:104CF00000231A461946306803F032F9002002F00A
:104D00002BFEFFF797FDFFF761FB322002F0FEFD5F
:104D1000C0E700001C010020203B00209A9919BF29
:104D200068020020496E7075745461736B00000056
:104D3000012A0008706C6174666F726D5F74617334
:104D40006B000000F95400085F8C0008403B002015
:104D5000040000202DE9FE4FBE4D6878FF2827D0C3
:104D6000A878FF2824D00026BB4C6068FBF714FC11
:104D7000C7B22068FBF710FC4FF0000B0222CDE910
:104D8000002B1346C0B2B54A3946CDF808B0FFF73C
:104D90006BFB6068FBF700FCC7B22068FBF7FCFB0D
:104DA000C0B2082302223946FFF748FC16B10BE0D7
:104DB0000126D9E7A1682068FBF78AFA2060E1683C
:104DC0006068FBF785FA6060D4E90080FBF7E4FBDC
:104DD000C7B22869801EFBF7C9FB4146FBF710FCF0
:104DE0000ED29F49884502DDC4F800B004E028696E
:104DF000801EFBF7BBFB2060A06880F00040A06035
:104E000018F1FF4F05D3C4F800B0A06880F000404F
:104E1000A0604FF0000AD146002E61D168690D38BC
:104E200087422FD3F02F2DD28A48001D0078FBF740
:104E30009DFB4146FBF7E4FB24D88648001D007823
:104E40000C30FBF793FB4146FBF7E4FB1AD868698B
:104E50004FF0010A0E38FBF789FB6060E068B0F59F
:104E6000000F02DB80F00040E060FBF7EBF9FBF79E
:104E700074FB6FF01D01FBF783FA4FF07E51FBF7D7
:104E800079FAA06067B30B2F2AD87248801D00788A
:104E9000FBF76CFB4146FBF7B3FB21D86D48801D47
:104EA00000780C30FBF762FB4146FBF7B3FB17D8E9
:104EB0006C486060E0684FF0010910F1FF4F02D3C9
:104EC00080F00040E060FBF7BDF9FBF746FB6FF0B8
:104ED0001D01FBF755FA4FF07E51FBF74BFAA0602E
:104EE00056EA0A000FD16869A0F10A018F420AD977
:104EF0000938FBF73BFB6060A878401EA870E068AB
:104F000080F00040E06056EA09060AD1082F08D276
:104F1000554860606878401E6870E06880F0004026
:104F2000E0606068FBF738FBC7B22068FBF734FB32
:104F30000221CDE9001B494A0B46C0B25E461A3A2F
:104F40003946CDF808B0FFF78FFA6068FBF724FB0D
:104F5000C7B22068FBF720FBC0B208230222394603
:104F6000FFF76CFBA8780827FF2829D0002424E04D
:104F7000A878CDE9007684420296287D4FF0070399
:104F8000A0F10800C1B2287C00EBC400A0F1280009
:104F9000C0B201D2354A00E0304AFFF765FA287DF9
:104FA00008230838C1B2287C072200EBC400283847
:104FB000C0B2FFF743FB641CE4B2E8788442D7D365
:104FC0006878FF2838D000241EE0CDE900768442BE
:104FD0000296287C4FF0070300EBC400A0F12800E4
:104FE000C0B201D2214A00E01C4A0021FFF73CFA7E
:104FF000287C082300EBC4002838C0B20722002117
:10500000FFF71CFB641CE4B2E87884426878DCD3C8
:10501000FF2811D0A878FF2819D1142322220021BB
:1050200013A0FFF781FB28232222002113A003B045
:10503000BDE8F04FFFF778BB1423222200210CA01B
:10504000FFF772FB2823222200210FA0EFE7BDE823
:10505000FE8F000040010020303B002079900008C6
:10506000000070430000404100001041738A0008B6
:1050700047414D454F56455221000000504C415983
:10508000314C4F5345210000504C4159324C4F5345
:10509000452100000EB5FFF7E3FAFFF7CDFA544AB9
:1050A000111F081FFDF764FD514C183CE060218A78
:1050B0006FF0050000EB5100211D0870227D103AB1
:1050C0004A70891C002208700820487002210F20B5
:1050D00002F0AAFE6062FEF70BF9FBF735FCA06256
:1050E000002204210F2002F09FFEE0610022042133
:1050F0000F2002F099FE20622D2002F091FE014661
:10510000E062606A02F070FED4E90A0102F06CFE0F
:10511000384F0021386803F0E5F800261925CDE95D
:1051200000563346802234A1374803F0D1F9206B72
:10513000231DCDE90050802234A1384803F0C8F97E
:10514000606BA31DCDE90050802235A1384803F0E3
:10515000BFF920694008FBF709FA364D28606069FD
:105160001238FBF703FA68604FF03F40A8603248FE
:10517000E8600520E070607084F80200FFF7EAFD47
:105180000021012002F0DAF920B34020CDE9000629
:1051900000218023294A08460296FFF765F900217D
:1051A000402380220846FFF749FAFBF779FB2448A1
:1051B00000F0F2FE2348002302221946006803F0A3
:1051C000DFF900231A461946386802F0C9FE0020AC
:1051D00002F0C2FBA078FF2802D06078FF2802D13D
:1051E000002002F0B9FB322002F090FBC6E700007D
:1051F0005801002068020020496E70757444617483
:10520000617461736B000000752A0008706C617432
:10521000666F726D5F7461736B31000069530008D3
:10522000706C6174666F726D5F7461736B320000D5
:1052300031540008303B00209A9919BF5F8C000858
:10524000403B002004000020FCF70EF8FEF704FBB2
:10525000FDF718FDFDF7BEFDFDF7C4FCFDF7DAFD17
:10526000FDF71AFFFDF7FAFDFDF760FEFDF7BCFE46
:10527000FDF7F6FE00F03CF8FDF7DCFC00F054F81A
:10528000FEE70000F0B50B30154D20F007010024BB
:10529000144A0FE003688B420BD38B4205D95E1A88
:1052A00043184768C3E9006700E04368136002C021
:1052B00004E0021D10680028ECD12046002802D12D
:1052C000286808B10020F0BD064A07481060074A68
:1052D000121A22F00702C0E9002401202860D7E753
:1052E000040300200003002024410020204300206C
:1052F000EFF3058058B9EFF3108040B90949086809
:10530000022801D030B109E0EFF3118030B16FF025
:105310000500704701200860002070474FF0FF3003
:10532000704700007400002010B5EFF3058060B9ED
:10533000EFF3108048B90B490868022802D0012811
:1053400006D00BE0EFF3118040B16FF0050010BD07
:105350000220086002F076FC002010BD4FF0FF3004
:1053600010BD0000740000201FB504780025082738
:10537000CDE900750295064641780C232A4A20465D
:10538000FFF772F8717808230C222046FFF756F9D0
:10539000DFF898904FF0FF3AB8460021012002F064
:1053A000CDF810B1002002F0D7FA524603A94F46BB
:1053B000D9F81C0002F0F0FE03983870CDE90085A2
:1053C000194A029571780C2318322046FFF74CF8E1
:1053D000717808230C222046FFF730F9387801282D
:1053E00002D0022802D003E0E41C00E0E41EE4B294
:1053F0003D70FA2C01D9002404E038690C3884424D
:1054000000D9C4B2CDE90085029571780C23064A13
:105410002046FFF729F8717808230C222046FFF771
:105420000DF93470B9E700006190000840010020D8
:105430001FB5047800250827CDE9007502950646BA
:1054400041780C232A4A2046FFF70EF8717808238A
:105450000C222046FFF7F2F8DFF898904FF0FF3A61
:10546000B8460021012002F069F810B1002002F0D6
:1054700073FA524603A94F46D9F8200002F08CFE79
:1054800003983870CDE90085194A029571780C238C
:105490000C322046FEF7E8FF717808230C222046E4
:1054A000FFF7CCF83878012802D0022802D003E0B8
:1054B000E41C00E0E41EE4B23D70FA2C01D90024A3
:1054C00004E038690C38844200D9C4B2CDE90085C3
:1054D000029571780C23064A2046FEF7C5FF7178C5
:1054E00008230C222046FFF7A9F83470B9E7000022
:1054F0006D900008400100201FB52E4C00260827A3
:105500002579CDE900760296207D0C230838C1B2BA
:10551000294A2846FEF7A8FF207D08230838C1B293
:105520000C222846FFF78AF84FF0FF38424603A9BD
:10553000206A02F031FE03986070CDE90076029691
:10554000207D1D4A0838C1B20C230C322846FEF7D4
:105550008BFF207D08230838C1B20C222846FFF7B4
:105560006DF86078012802D0022802D003E0ED1C1B
:1055700000E0ED1EEDB26670FA2D01D9002504E0C1
:1055800020690C38854200D9C5B2CDE90076029673
:10559000207D0C230838C1B2074A2846FEF764FF75
:1055A000207D08230838C1B20C222846FFF746F8B0
:1055B0002571BBE7040100205B8A00082DE9F0415A
:1055C000134C0F46054666692068001D01F0EAFF8E
:1055D000681C07D137B12168BDE8F0410D48091DAD
:1055E00002F087B820683544B5424560216805D28D
:1055F000A068BDE8F041091D02F063B86068091DAC
:1056000002F05FF8206B854200D22563BDE8F0818F
:10561000240000202C0D00202DE9F041054602F069
:1056200075F82D4C2069401C206120682B4F10B16B
:10563000E06930B32BE025602069012827D10026DE
:1056400006EB860007EB800002F02DF8761C382E62
:10565000F6D3234802F027F82148143002F023F84B
:105660001F48283002F01FF81D483C3002F01BF89C
:105670001B48503002F017F8194860601430A060E1
:1056800005E02068E96AC06A884200D82560E06ABF
:10569000401CE0626864E86AA169884200D9A061A0
:1056A00000EB800007EB8000291D02F022F802F0D9
:1056B0004DF8E06900280CD02068E96AC06A884289
:1056C00007D208494FF080500860BFF34F8FBFF3F7
:1056D0006F8FBDE8F0810000240000207C080020CE
:1056E000DC0C002004ED00E038B502F00FF8104C9F
:1056F000A068C8B90F4801F0D6FF0E48143001F079
:10570000D2FF0C482060143060600A4B0020283320
:10571000009003F1540210210A2002F0A9FBA060BE
:1057200010B105A102F090F8BDE8384002F00EB8C3
:1057300060000020400D0020546D725100000000F8
:1057400030B4026C0B46002A0BD0C1681144C16012
:105750004468A14201D30168C16030BC1846FAF721
:1057600083BD30BC70472DE9F041856B1746044678
:105770000026026C82B1C7B1E068FAF775FDE168F6
:10578000206C091AE1602268914202D26168081A0D
:10579000E060022F16D017E02068A8B9606802F018
:1057A000CBFF0646002060600EE0A068FAF75CFDC3
:1057B000216CA0680844A0606168884204D3206816
:1057C000A06001E005B16D1E6D1CA5633046BDE80B
:1057D000F08110B5044690F8590058B101280CD05A
:1057E00002280FD0502080F31188BFF34F8FBFF3F2
:1057F0006F8FFEE7206B01F0BDFF2046BDE8104033
:1058000001F0B8BF10BD000010484FF4FA51420734
:1058100006D0C01D0D4920F00700411AC1F5FA510C
:105820000B4A00230144C2E900030839103A21F071
:10583000070111604B600B600B1AC0E90013936005
:105840004FF000405360D0607047000014150020F6
:1058500088000020154E164CA6F29C474FF0805849
:10586000DFF8509012E000BF01F050FFF068C5680B
:10587000281D01F097FE2069401E2061E068401E4F
:10588000E06001F063FF2846FFF7A3FFE06800280F
:10589000EAD13868012805D9C9F80080BFF34F8FD5
:1058A000BFF36F8F01F0FEFEF0E70000180D00203F
:1058B0002400002004ED00E0002807D00021416012
:1058C00001600B460A46C16002F04ABB7047000007
:1058D00070B51D46049C61B1C4F80020C4E90F01F5
:1058E0000121204602F0F8FA84F850500020A0640C
:1058F00070BD2460F2E72DE9F0470E46DDE909842A
:105900001746824691009946089DA522206BFAF71A
:10591000BDFC6FF00301206B01EB8701084420F010
:105920000707780707D0502080F31188BFF34F8F07
:10593000BFF36F8FFEE72218315C82F83410315CC0
:1059400011B1401C1028F6D3002684F84360382D8E
:1059500000D33725E562C4E91356201D01F0AEFEE1
:1059600004F1180001F0AAFE2461C5F13800646258
:10597000A061666584F858604A465146384600F092
:10598000B9FA2060B8F1000F01D0C8F80040BDE8B6
:10599000F087000030B5114900E011460A688242E4
:1059A000FBD34B685C18844203D1406818444860BC
:1059B000084643681C18944209D1084C103C2468DE
:1059C000A24209D052681A4442600A681268026012
:1059D000814200D0086030BD0460F9E788000020F3
:1059E00070B5002441600B4D0061914206D8D11A78
:1059F0008269914206D2011D686807E09A4203D28B
:105A0000994201D3012403E0011D286801F059FEE9
:105A1000204670BD6000002010B5044601F076FEFF
:105A2000A06B28B15FF0000401F090FE204610BD8D
:105A30000124F9E72DE9F0478146086892460C46B3
:105A4000002600B3606804F1080540686060A84261
:105A500001D1416861606068D0F80C80606840687E
:105A60006060A84201D141686160606806EBC601D0
:105A700009EB8101C76853460122384601F0B4FFA3
:105A8000761C4745EAD13046BDE8F08773B500265D
:105A90000098846C5CB1A26BE06B82420FD3502003
:105AA00080F31188BFF34F8FBFF36F8FFEE7502055
:105AB00080F31188BFF34F8FBFF36F8FFEE7A26BA8
:105AC00082420CD294F945500A4669462046FFF7B7
:105AD0004AFE0646681C04D06D1C84F845503046CA
