:020000040800F2
:10000000F83D00209D010008EB250008FD1B0008BD
:10001000E925000823030008412B00080000000028
:1000200000000000000000000000000005010008C2
:100030002503000800000000490100088927000886
:10004000B7010008B7010008B7010008B7010008B0
:10005000B7010008B7010008B7010008B7010008A0
:10006000B7010008B7010008B7010008B701000890
:10007000B7010008B7010008B7010008B701000880
:10008000B7010008B7010008B7010008B701000870
:10009000B7010008B7010008B7010008B701000860
:1000A000B7010008B7010008B7010008B701000850
:1000B000B7010008B701000835280008B70100089B
:1000C000B7010008B7010008B7010008B701000830
:1000D000B7010008B7010008B7010008B701000820
:1000E00027030008B7010008B7010008DFF810D0A7
:1000F00000F0DAF800480047E92B0008AFF3008071
:10010000F83D0020224B19680868B0E8F00F80F332
:100110000988BFF36F8F4FF0000080F311884EF015
:100120000D0E70470000000006480068006880F36C
:10013000088862B661B6BFF34F8FBFF36F8F00DFE1
:1001400000BF00BF08ED00E0EFF30980BFF36F8F41
:100150000F4B1A6820E9F00F106008B54FF05000FF
:1001600080F31188BFF34F8FBFF36F8F04F06AF9EC
:100170004FF0000080F31188BDE808401968086856
:10018000B0E8F00F80F30988BFF36F8F704700BFAE
:1001900020000020EFF305807047000006488047EC
:1001A00006480047FEE7FEE7FEE7FEE7FEE7FEE75C
:1001B000FEE7FEE7FEE7FEE731280008ED00000855
:1001C0002DE9F05F0546002092469B46884606468C
:1001D000814640241BE0284641464746224600F01F
:1001E00020F853465A46C01A914110D3114618467A
:1001F000224600F04AF82D1A67EB01084F462246C6
:100200000120002100F041F817EB00094E41201EAB
:10021000A4F10104DFDC484631462A464346BDE8E6
:10022000F09F202A04DB203A21FA02F000217047D7
:1002300021FA02F3D040C2F120029140084319464E
:10024000704740EA01039B0703D009E008C9121F69
:1002500008C0042AFAD203E011F8013B00F8013B80
:10026000521EF9D27047D2B201E000F8012B491EAC
:10027000FBD270470022F6E710B513460A46044643
:100280001946FFF7F0FF204610BD202A04DB203A74
:1002900000FA02F1002070479140C2F1200320FAD9
:1002A00003F3194390407047064C074D06E0E068A1
:1002B00040F0010394E8070098471034AC42F6D3AD
:1002C000FFF718FFD44F0008F44F000870B504463C
:1002D00000688168C943C90717D1816821F001010D
:1002E000816000F08DFA05460AE000BF00F088FA50
:1002F000401B022804D920688068C043C00706D08C
:1003000020688068C043C007F0D0002070BDA06A9C
:1003100040F01000A062E06A40F00100E0620120BD
:1003200070BDFEE7704710B54FF4806000F062F9D1
:100330004FF4006000F05EF9BDE810404FF48050CB
:1003400000F058B972B6FEE7F8B50024009490F8B2
:1003500024202546012A12D0012280F824204A6850
:100360001F23072A0DD20668776B521E02EB82020A
:1003700093409F430B6893401F43776319E002202B
:10038000F8BD06680D2A0AD2376BD21F02EB820233
:1003900093409F430B6893401F43376309E0F76A1C
:1003A0000D3A02EB820293409F430B6893401F4338
:1003B000F7620A68072306680A2A0AD3F7680A3A26
:1003C00002EB420293409F438B6893401F43F760C8
:1003D00008E0376902EB420293409F438B689340E9
:1003E0001F4337610A68102A01D0112A20D1124B0D
:1003F00002689A4217D193681B0219D4936843F498
:10040000000393600968102912D10C490C4A09684D
:10041000B1FBF2F101EB8101490000E0491E0091BE
:100420000029FBD104E0816A41F0200181620124AE
:1004300080F824502046F8BD002401401C00002014
:1004400040420F002DE9F0414FF0000704003D4607
:100450007ED0A06A002628B9E66284F8246020468F
:1004600000F07EF82046FFF731FFA16AC90600D4EC
:1004700020B1A06A40F01000A06269E0A16A21F4F6
:10048000885141F00201A1626268E169237B0A435D
:1004900047EA43010A43A1684FF48077B94209D083
:1004A000012907D05FF0000194F814C0BCF1010FDE
:1004B00002D00AE03946F7E7F3B1A36A43F020031C
:1004C000A362E36A43F00103E3622368D3F804C044
:1004D0002CF4694C4CEA010CC3F804C021688B6809
:1004E000DFF870C003EA0C0313438B60A168B942C4
:1004F0000BD0012909D00CE0DFF85CC0A3690CEB3C
:1005000043330B4343F40061DFE7218A0D05A5F572
:1005100080152168CB6A23F470032B43CB622168DA
:1005200089680E4B1940914208D1E662A16A21F018
:10053000020141F00101A162BDE8F081A06A20F052
:10054000020040F01000A062E06A40F00100E062AA
:100550000120F1E7FDF7E1FF00E0FFFFFE0E1FFFC6
:1005600000B585B0002100910191029103910068CE
:100570000E49884218D10E48816941F400718161A9
:10058000816901F400710491816941F00401816184
:100590008069694600F00400049008200090032060
:1005A0000190044800F032F805B000BD002401407D
:1005B000001002400008014070B5044600F020F928
:1005C0000546601C02D004480078044400F018F985
:1005D000401BA042FAD370BD10000020B0F5806F20
:1005E00004D0B0F5805F03D102F074B801F0FCBC18
:1005F00070470000044910B50A68024202D0086042
:10060000FFF7ECFF10BD0000140401402DE9F84F86
:10061000DFF8B8910024A9F1040B23460F2709F154
:10062000040AABF1040EC9E00125A5402A40AA4204
:100630007DD1674ED1F804C0ACEB0608B44532D08A
:1006400014DCBCF1030F3AD009DCBCF1000F2AD056
:10065000BCF1010F1CD0BCF1020F31D11DE0BCF187
:10066000110F17D0BCF1120F2AD119E0B8F5881F6D
:1006700019D006DCB8F5803F15D0B8F5801F1FD122
:1006800011E0B8F5001F0ED0B8F5041F18D10AE02C
:10069000CB6815E0CB681B1D12E0CB6808330FE078
:1006A000CB680C330CE08B682BB1012B4FF00803A7
:1006B00003D0456104E0042302E0056100E000236B
:1006C000FF2A01D8064601E000F104064FEA84053E
:1006D00001D9A5F12005D6F8008007FA05FC28EA23
:1006E0000C0803FA05F548EA0508C6F800804D68CD
:1006F000ED0062D5374DAE6946F00106AE61AD69D9
:1007000024F0030605F001050095334D06EB050CBA
:10071000DCF80850A607360F07FA06F825EA0805A0
:10072000DFF8B880404503D14FF0000817E044E0FF
:10073000DFF8AC80404502D14FF001080FE0DFF850
:10074000A480404502D14FF0020808E0DFF898800D
:10075000404502D14FF0030801E04FF0040808FAC9
:1007600006F848EA0508CCF808804D68D9F800601A
:10077000ED024D4601D5164300E096432E604D68CC
:10078000DAF80060AD02554601D5164300E0964305
:100790002E604D68DBF80060AD035D4601D5164361
:1007A00000E096432E604D68DEF80060ED0375466C
:1007B00001D5164300E096432E60641C0D682A465E
:1007C000E5407FF431AFBDE8F88F00000804014038
:1007D000000011100010024000000140000801401C
:1007E000000C0140001001400014014080680840E6
:1007F00000D0012070470AB1016170470904FBE78E
:1008000001488068704700001000002070B50400A7
:1008100025D094F83D00002520B984F83C502046AE
:1008200000F04EF9242084F83D002068016821F092
:10083000010101602068016841F400410160206805
:10084000016821F40041016000F0E0FB4D4A61685D
:10085000914201D84C4900E04C49884201D2012024
:1008600070BD4B492368B0FBF1F15E6826F03F068E
:100870000E435E606368934206D94FF49673594302
:100880004FF47A73B1FBF3F12368491C1E6A26F01A
:100890003F06314319626168914210D84900401EF9
:1008A000B0FBF1F2521CC2F30B02042A01D2042065
:1008B00022E0B0FBF1F0401CC0F30B001CE0A2688A
:1008C000F2B301EBC10303EB0116431EB3FBF6F3D6
:1008D0005B1C43F480431B0549D092B301EBC1027A
:1008E00002EB0111401EB0FBF1F0401CC0F30B0005
:1008F00040F4804040F400402168CA694CF6FF7320
:100900009A431043C861D4E9071001432068026884
:1009100022F0C00211430160D4E9030101432068C1
:10092000826848F2FF339A4311438160D4E905019C
:1009300008432168CA6822F0FF021043C86001E042
:100940000EE016E02068016841F0010101602564B5
:10095000202084F83D00256384F83E50002070BDBF
:1009600001EB4106431EB3FBF6F35B1CB3E701202A
:10097000C2E701EB4101401EB0FBF1F0401CC0F3A7
:100980000B00B7E7A086010080841E0000093D002F
:1009900040420F002DE9F84F1F4690468A46044614
:1009A000DDF82890FFF72CFF054694F83D0020283D
:1009B0007FD11923012240492046009501F0B0F96A
:1009C000002876D194F83C00012872D0012084F8E8
:1009D0003C0020680168C90703D1016841F00101AA
:1009E00001602068016821F400610160212084F821
:1009F0003D00102084F83E0000262664C4F82480C0
:100A00006785608D20852D48E0622B464A46514619
:100A1000204601F00BF990B9206841698069009087
:100A200036E02A464946204601F020FA50B1206CB3
:100A3000042804D12068016841F40071016001209C
:100A4000BDE8F88F606A216800780861606A401C20
:100A50006062618D491E6185218D491E89B22185A3
:100A600022685369DB435B070BD451B100781061F6
:100A7000606A401C6062608D401E6085208D401E53
:100A800020852A464946204601F01EF90028CED18D
:100A9000208D0028C5D154F83D0B016841F4007148
:100AA0000160202004F81E09E67766770020C7E77A
:100AB000FFE70220C4E70000020010000000FFFF73
:100AC00010B586B000210091019102910391006858
:100AD0000F4988421AD10F4CA06940F00800A0616C
:100AE000A069694600F008000490C0200090122020
:100AF0000190032003900848FFF788FDE06940F467
:100B00000010E061E06900F40010049006B010BD30
:100B10000054004000100240000C0140024881686F
:100B2000027811448160704710000020074810B51A
:100B3000016841F010010160032000F0A7F80F20C8
:100B400000F006F800F050F8002010BD0020024030
:100B500030B505461F4887B0C16941F00401C16145
:100B6000C06906A900F00400009001A800F02EFA68
:100B70000498B0B100F04AFA40001749174AB0FB98
:100B8000F1F11748491E0260416040F2E73200214E
:100B9000C0E903218160816100F000FD040003D001
:100BA00015E000F033FAE8E70D4800F043FD0400DB
:100BB0000DD11E2000F03CF8102D07D2002229464E
:100BC0001E2000F043F80748056000E0012407B04C
:100BD000204630BD0010024040420F000008004097
:100BE00078060020140000200F4808B5816941F004
:100BF00001018161816901F001010091C16941F048
:100C00008051C161C069002200F0805000900F2126
:100C1000901E00F01BF80548416821F0E06141F0AA
:100C20000071416008BD000000100240000001405A
:100C3000002809DB00F01F020121914040098000DB
:100C400000F1E020C0F8001170470000F0B40E4B36
:100C50001B680C46C3F30223C3F10705042D00D91A
:100C60000425191D072901D2002300E0DB1E0126FF
:100C700006FA05F1491E214099409E40761E164015
:100C80003143F0BC01F05DBF0CED00E0064900F01F
:100C9000070208684FF6FF03184040EA0220034AA3
:100CA00010430860704700000CED00E00000FA05FA
:100CB0002DE9F04186B0040004D094F8A902002583
:100CC00020B108E0012006B0BDE8F08184F8A85208
:100CD000204600F05BF8032084F8A902206801F0A8
:100CE00026FF04F11001142288466846FFF7A9FA8E
:100CF00094E80F0001F00EFF0227D0BB002120680E
:100D000001F01CFF002001260EE000BF00EB800177
:100D100004EBC10181F8296001F8280F401CCD7057
:100D20000D614D61C0B28D6161688142EED80020D5
:100D300012E000BF00EB800104EBC10181F86951B2
:100D400081F8680181F86B51C1F87851C1F87C5184
:100D5000401CC0B2C1F8805161688142EAD81422B7
:100D600041466846FFF76DFA94E80F0001F0D6FEA1
:100D700010B184F8A972A5E784F8245084F8A96218
:100D8000206801F0C9FE00209DE7000008B500685A
:100D90000649884208D10648C16941F40001C16191
:100DA000C06900F40000009008BD0000005C004035
:100DB000001002402DE9F84305460078354CC00785
:100DC00054D0E0690026C00008D4E06940F08050AB
:100DD000E061E069012600F0805000902E48016833
:100DE000C90512D40168804641F480710160FFF7A3
:100DF00007FD074605E000BFFFF702FDC01B6428A2
:100E000023D8D8F80000C005F6D5206A10F4407049
:100E100021D0A98801F4407181421CD0206A1F4969
:100E2000012220F440700A6000220A602062C0079C
:100E300011D0FFF7E5FC074641F2883808E000BF13
:100E4000FFF7DEFCC11B414502D90320BDE8F88352
:100E5000206A8007F4D5206A696820F4407008434E
:100E600020621EB1E06920F08050E06128788007A0
:100E700005D56068A96820F4404008436060287880
:100E8000C00605D56068E96820F48000084360600A
:100E90000020DBE7001002400070004040044242A6
:100EA0002DE9F0470F46050061D0434E306800F051
:100EB0000700B84209D2306820F00700384330609C
:100EC000306800F00700B84251D128683B4C8107D8
:100ED00012D5400703D5606840F4E0606060287870
:100EE000000703D5606840F4605060606068A968DE
:100EF00020F0F000084360602878C00728D06868B8
:100F0000012810D02168022810D0890700292EDA84
:100F1000616821F0030101436160FFF771FC8046C5
:100F200041F288390DE021688903EFE78901EDE797
:100F3000FFF766FCA0EB0801494502D90320BDE894
:100F4000F0876068696800F00C00B0EB810FEFD1AA
:100F5000306800F00700B8420BD9306820F0070075
:100F600038433060306800F00700B84201D00120FB
:100F7000E5E72878400705D56068E96820F4E06077
:100F8000084360602878000706D56068296920F466
:100F9000605040EAC100606000F058F86168084A9B
:100FA000C1F30311515CC840064908600648006857
:100FB000FFF7CEFD0020C2E70020024000100240F3
:100FC000564E00081C000020140000200F22026072
:100FD0000C4A536803F003034360536803F0F003C3
:100FE0008360536803F4E063C36052684FF4E063C6
:100FF00003EAD20202610448006800F007000860BA
:1010000070470000001002400020024004480549DB
:1010100000684968044AC1F30221515CC840704726
:101020001C00002000100240664E000804480549DC
:1010300000684968044AC1F3C221515CC840704746
:101040001C00002000100240664E00080E4A516845
:101050000E4801F00C03042B11D0082B0FD10C48C3
:10106000C1F38343C903C05C0AD55168084AC1F380
:101070004041921E515C054A5043B0FBF1F070476D
:1010800004494843704700000010024000127A00F3
:10109000464E000800093D002DE9F84F040070D0CD
:1010A0002078C04DC00749D06868C0F3810001288E
:1010B00007D06868C0F38100022809D16868C003BE
:1010C00006D52868800339D560680028E7D035E068
:1010D0006068B0F5803F0BD010B1B0F5A02F11D0F3
:1010E000286820F480302860286820F4802002E0FE
:1010F000286840F480302860606890B1FFF780FB7A
:1011000006460AE0286840F480202860F0E700BF27
:10111000FFF776FB801B642873D828688003F7D517
:101120000CE0FFF76DFB064605E000BFFFF768FB2C
:10113000801B6428F0D828688003F7D420789A4E62
:1011400080074FF001094FF0000839D5686810F0AA
:101150000C0F07D06868C0F38100022809D16868C5
:10116000C00306D42868800714D52069012808D157
:1011700010E02069B0B1C6F80090FFF741FB0746C8
:1011800005E00AE1FFF73CFBC01B0228C4D8286831
:101190008007F7D52868616920F0F80040EAC100AF
:1011A00028600DE0C6F80080FFF72AFB074604E040
:1011B000FFF726FBC01B022823D828688007F7D436
:1011C000207800072CD57948A169D9B1C0F80090E2
:1011D000FFF716FB074604E0FFF712FBC01B0228CF
:1011E0000FD8686A8007F7D571484FF4FA51006844
:1011F000B0FBF1F0009000BF0098411E0091FAD2C0
:101200000EE080E0C0F80080FFF7FAFA074604E03D
:10121000FFF7F6FAC01B022875D8686A8007F7D472
:101220002078400760D5E8690027C00008D4E86945
:1012300040F08050E861E869012700F0805000909C
:101240005C480168C90513D40168834641F4807184
:101250000160FFF7D5FA824606E000BFFFF7D0FA3B
:10126000A0EB0A0064284ED8DBF80000C005F5D5D5
:10127000E06801280AD008B1052813D0286A20F0B8
:1012800001002862286A20F0040002E0286A40F089
:1012900001002862E06841F2883B98B1FFF7B0FA9C
:1012A00082460BE0286A40F004002862EEE700BFA7
:1012B000FFF7A6FAA0EB0A0159455AD8286A800719
:1012C000F6D50CE0FFF79CFA824605E0FFF798FAA6
:1012D000A0EB0A0159454CD8286A8007F6D41FB103
:1012E000E86920F08050E861E06988B36968C1F37B
:1012F0008101022944D00228C6F8608004D0FFF79B
:101300007FFA044638E034E0FFF77AFA074604E053
:10131000FFF776FAC01B02282BD828688001F7D483
:10132000206AB0F5803F05D16868A16820F40030DC
:1013300008436860D4E908010843696821F474111E
:1013400008436860C6F86090FFF75AFA044606E062
:1013500025E000BFFFF754FA001B022809D82868CF
:101360008001F7D51BE000BFFFF74AFA001B0228F7
:1013700002D90320BDE8F88F28688001F4D40EE07C
:101380000128F7D06868226A00F48031914204D1C4
:10139000616A00F47010884201D00120EAE7002061
:1013A000E8E7000000100240000042428004424290
:1013B0001C0000200070004070B5040009D0606A75
:1013C000002540B125616561A56294F8510040B1E6
:1013D0000CE0012070BD6068B0F5827FF4D0E5615B
:1013E000F2E784F85050204600F040F8022084F8DC
:1013F00051002068016821F040010160A088218926
:1014000000F4827001F404410843A18901F40061F1
:101410000843217C01F002010843217D01F0010114
:101420000843218B01F400710843217F01F038014A
:10143000084394F8201001F080010843218D01F445
:101440000051084321680860A069042101EA1040A6
:10145000216848602068C16921F40061C161656547
:10146000012084F85100002070BD000030B585B027
:101470000024009401940294039400681449884263
:1014800023D11448816941F480518161816901F45B
:1014900080510491816941F00401816180690E4DA0
:1014A00000F004000490A02000900220019003208E
:1014B000039069462846FFF7A9F84020CDE90004CB
:1014C000694628460294FFF7A1F805B030BD000038
:1014D0000030014000100240000801407047704792
:1014E00010B590F83C20012A22D0012280F83C203F
:1014F000CA688C6822F4407222434C6822F48062ED
:1015000022430C6822F4006222430C6922F48052C8
:1015100022434C6922F400522243C969002322F479
:1015200080420A4301684A6480F83C30002010BDC4
:10153000022010BD70B590F83C20012A26D001246D
:1015400080F83C40022280F83D2003685A689D687C
:1015500022F070060A6832435A600D4B02689A42C4
:1015600008D0B2F1804F05D00A4B9A4202D00A4B04
:101570009A4204D1496825F080031943916080F8AC
:101580003D40002180F83C10084670BD022070BD2F
:10159000002C0140000400400008004010B5040089
:1015A00003D094F83D0010B107E0012010BD0020E9
:1015B00084F83C00204600F01FF8022084F83D002B
:1015C000211D206801F03CF9012084F8460084F8D0
:1015D0003E0084F83F0084F8400084F8410084F81D
:1015E000420084F8430084F8440084F8450084F8FD
:1015F0003D00002010BD000008B50C4A01680C48F1
:10160000914207D1816941F400618161806900F4F0
:10161000006009E0B1F1804F07D1C16941F00101DB
:10162000C161C06900F00100009008BD002C0140BC
:101630000010024090F83D10012901D001207047B0
:10164000022180F83D100168CA6842F00102CA60B8
:1016500000680B49884208D0B0F1804F05D0094995
:10166000884202D00849884204D1816801F007010C
:10167000062903D0016841F0010101600020704794
:10168000002C0140000400400008004070B50446F2
:1016900090F83C000025012817D0012684F83C6012
:1016A000022084F83D002068826822F0770222F44C
:1016B0007F4282600868502838D00DDC20284FD047
:1016C00005DC90B3102811D14AE0022070BD30280B
:1016D00046D040280AD13BE060282FD070280DD09A
:1016E000B0F5805F03D0B0F5005F12D0012584F81B
:1016F0003D60002084F83C00284670BDCB68D1E9ED
:101700000121206801F0D2F82068816841F077015A
:1017100009E0CB68D1E90121206801F0C7F8206811
:10172000816841F480418160E1E719E0CA68496855
:10173000206801F06FF95021206806E0CA68496806
:10174000206801F078F96021206801F0B9F8CEE74F
:10175000CA684968206801F05DF940212068F4E713
:10176000226801461046F0E7704770B504460068ED
:1017700001694FF00005C943890715D4C168C94301
:10178000890711D4E91E0161012020772068806952
:101790008007204602D0FFF7E7FF04E000F00EF9D3
:1017A000204600F0B3F9257720680169C94349074D
:1017B00017D4C168C943490713D46FF0040101610C
:1017C000022020772068806910F4407F204602D0F4
:1017D000FFF7CAFF04E000F0F1F8204600F096F9A8
:1017E000257720680169C943090716D4C168C94330
:1017F000090712D46FF008010161042020772068E6
:10180000C0698007204602D0FFF7AEFF04E000F079
:10181000D5F8204600F07AF9257720680169C94398
:10182000C90617D4C168C943C90613D46FF01001A3
:101830000161082020772068C06910F4407F2046AD
:1018400002D0FFF791FF04E000F0B8F8204600F066
:101850005DF9257720680169C943C90708D1C168C6
:10186000C943C90704D1891E0161204600F050F91F
:1018700020680169C943090609D4C168C94309063A
:1018800005D46FF0800101612046FFF727FE206834
:101890000169C943490609D4C168C943490605D449
:1018A0006FF040010161204600F03CF920680169B9
:1018B000C94389060BD4C168C943890607D46FF0B0
:1018C000200101612046BDE87040FFF708BE70BDF1
:1018D00070B586B0002100910191029103910068DA
:1018E000304B31490224314A984211D1886940F085
:1018F000040088618869039400F00400049088154E
:10190000CDE9000469461046FEF780FE06B070BDC2
:10191000274E284DB0F1804F1BD0274A9042F5D179
:10192000886940F0080088618869694600F008000D
:1019300004901020CDE9000430460394FEF766FEC3
:10194000686820F4406040F0E06040F40060686047
:10195000DCE7886940F004008861886900F00400D1
:101960000490886940F0080088618869694600F041
:101970000800049048F20400CDE9000410460394E6
:10198000FEF744FE0820CDE9000469463046039482
:10199000FEF73CFE686820F4407040F0E06040F4E0
:1019A0008070D4E7002C0140001002400008014084
:1019B000000C01400000014000040040704770B579
:1019C000044690F83C0000260D4601280FD0012067
:1019D00084F83C006AB1042A1DD0082A2FD00C2AB2
:1019E0003FD00126002084F83C00304670BD022024
:1019F00070BD206800F06CFF2068816941F008012B
:101A000081612068816921F0040181612068816918
:101A10002A69114311E0206800F082FF2068816983
:101A200041F4006181612068816921F480618161F4
:101A3000206881692A6941EA02218161D2E7206830
:101A400000F09AFF2068C16941F00801C161206877
:101A5000C16921F00401C1612068C1692A6911438B
:101A600011E0206800F0B4FF2068C16941F4006112
:101A7000C1612068C16921F48061C1612068C169C8
:101A80002A6941EA0221C161ACE710B5040003D024
:101A900094F83D0010B107E0012010BD002084F84B
:101AA0003C00204600F01EF8022084F83D00211D75
:101AB000206800F0C5FE012084F8460084F83E004E
:101AC00084F83F0084F8400084F8410084F8420024
:101AD00084F8430084F8440084F8450084F83D000D
:101AE000002010BD08B500680649884208D10648A4
:101AF000C16941F00201C161C06900F002000090BB
:101B000008BD0000000400400010024070470000C3
:101B100000680349884201D1FFF700B87047000010
:101B200000080040704770B5040004D094F84100EC
:101B3000002510B106E0012070BD84F84050204619
:101B400000F024F8242084F841002068C16821F4C2
:101B50000051C160204600F081FF2068016921F436
:101B6000904101612068416921F02A0141612068AA
:101B7000C16841F40051C1606564202084F84100CF
:101B800084F842006563002070BD000030B585B068
:101B9000002400940194029403940068144988423C
:101BA00024D11448816941F480418161816901F443
:101BB00080410491816941F00401816180690E4D89
:101BC00000F0040004904FF4007000900220019097
:101BD0000320039069462846FEF718FD2815CDE935
:101BE0000004694628460294FEF710FD05B030BD9A
:101BF000003801400010024000080140FEE7016883
:101C00004A69D24352050FD46FF480624A610021C1
:101C100040F8301F202242738173026942F00402AF
:101C2000026101730120704700207047F8B5044637
:101C3000C06A1E460D461746082807D0012805D061
:101C400010F5803F02D0206B122804D12068016873
:101C500041F480710160134600224FF001112046CB
:101C6000009600F05DF840B120680068C00502D51C
:101C70004FF4007020640320F8BD2069B0F5804F58
:101C80000ED00620216800EAD51040F0F00008616F
:101C900033463A460B49204600F08AF878B902E00C
:101CA00005F0FE0000E0E8B221680861054933460E
:101CB0003A46891F204600F07BF80028DCD001203E
:101CC000F8BD00000800010070B516460D46044638
:101CD0001EE02046FFF793FF08B1012070BD681C8D
:101CE00016D0FEF78DFD801BA84200D885B920686C
:101CF0004069C04340070BD5002044F8300F202135
:101D00006173A073216941F0200121612073E4E730
:101D100020684069C0434007DBD4002070BD00004C
:101D20002DE9F047984617460D460446C1F307468D
:101D3000DDF820902AE000BFB8F1FF3F26D0FEF783
:101D40005FFDA0EB0901414502D8B8F1000F1DD19C
:101D50002068012E16D0806925EA00000004000CDE
:101D600012D00020B84211D1002044F8300F2021B9
:101D70006173A073216941F020012161207301206A
:101D8000BDE8F0874069E7E70120EBE72068012E16
:101D90000AD0806925EA00000004000C06D000206B
:101DA000B842C9D00020EBE74069F3E70120F7E72C
:101DB0002DE9F047984616460D4604464FF00009B7
:101DC0004FF0200AC1F3074723E020684069C04371
:101DD000400515D42068016841F400710160216854
:101DE0006FF480604861C4F8309084F83DA084F8B6
:101DF0003E90216C41F00401216484F83C9021E084
:101E0000701C06D0FEF7FCFCA0EB0800B04203D823
:101E100016B1012F1FD021E02068012F15D0806955
:101E200025EA00000004000C18D000BF44F8309FE1
:101E300084F80DA084F80E90216941F02001216101
:101E400084F80C900120BDE8F087406925EA000085
:101E50000004000CEAD12068406901E02068806934
:101E600025EA00000004000CAFD1ECE770B516467F
:101E70000D4604461EE02046FFF7C1FE08B10120D2
:101E800070BD681C16D0FEF7BBFC801BA84200D8B2
:101E900085B920684069C04300060BD5002044F88E
:101EA000300F20216173A073216941F0200121616D
:101EB0002073E4E720684069C0430006DBD40020BB
:101EC00070BD00002DE9F84FDFF800910022484670
:101ED000DFF8FCC0D0E90261D9E900400B46341BB1
:101EE00061EB0001501EB4EB0C0C1546174671F166
:101EF000000C5ED3DFF8DC804FF0000CB8EB04047C
:101F00007CEB010C55D34C46D4E904C1BCEB06066E
:101F100061EB0301304BF31A71F1000349D3DFF891
:101F2000BCC00023BCEB06068B4142D300234FF01C
:101F30000309EA4609EB430808F1010C04EBCC0164
:101F400004EBC80CD1E90061DCE9008CB6EB0806B3
:101F500061EB0C015206DFF88880120E6D1C4FF009
:101F6000000CB8EB06067CEB010C01D242F001023A
:101F7000082D04D10AF80720002215467F1C5B1C9F
:101F8000202BD7DB9DF80110164CC943CBB28DF83E
:101F900001309DF80310C943CAB28DF803209DF8A3
:101FA0000010994203D19DF80230934203D00021E2
:101FB0006160BDE8F88F0B48017043700023014653
:101FC0001A46206902F020FC0020F2E75833002076
:101FD00000127A0080969800E0673500C03B470306
:101FE00040420F00B00000202DE9F04101F0CEFA90
:101FF000264C274FD4E90632C61A61EB02020023B1
:102000001D46BE1B934100D26560C4E90601214A0A
:10201000636802EBC3065B1CC6E900016360042B26
:1020200006D0442B02D1FFF74DFF6560BDE8F0817B
:10203000D2E90260D2E900370146F31A60EB0700EB
:10204000154FDF1B70F10007F0D3DFF850C00027F9
:10205000BCEB03038741E9D3D2E90402801B62EBA6
:1020600001020F49411A72F10001DFD34FEAAC03BC
:102070000021181A9141D9D3044800230146457024
:1020800005701A46206902F0BFFBCEE7B0000020C1
:1020900000E1F5055833002000127A008096980080
:1020A00080841E0010B5002202210F2002F05BFA8E
:1020B0000149086110BD0000B000002000F096BA90
:1020C00010B500216B2000F01FF800216C2000F0FB
:1020D0001BF80921192000F017F806211A2000F03A
:1020E00013F818211B2000F00FF818211C2000F015
:1020F0000BF8002204210F2002F035FA0149886014
:10210000002010BDA00000201CB502238DF80400A3
:102110004FF4FA70009004488DF8051001AAD02100
:102120000068FEF737FC1CBDA00000203EB500246F
:1021300011480094019402940E4984600160047374
:102140000475012505614FF460214460C161FEF70B
:1021500079F908B1FEF7F6F80320CDE900056946E4
:1021600002940548FEF7F0F8002801D0FEF7EAF8DF
:102170003EBD0000002401408C01002010B5FFF797
:102180009DFF00F0F5FAFFF78DFFFFF799FF0120A3
:1021900002F0DEF90149C86010BD00000000002017
:1021A0002DE9F04786B000244B4800940194029436
:1021B0000394816941F010018161816901F010018E
:1021C0000491816941F020018161816901F0200160
:1021D0000491816941F004018161816901F0040188
:1021E0000491816941F00801816180693B4F00F0F1
:1021F00008004FF400550490002229463846FEF7A7
:10220000FAFADFF8DC90002213214846FEF7F3FAD1
:10221000DFF8D0A04FF40248002241465046FEF7B6
:10222000EAFA0095022601250396CDE90154694694
:102230003846FEF7EBF9112700970396CDE90154D4
:1022400069464846FEF7E2F9CDE90256CDE9006756
:1022500069464846FEF7DAF903208DE83100694601
:102260005046FEF7D3F9A80200901F48CDE90105BA
:1022700069465046FEF7CAF91C4F4FF40260CDE99B
:102280000007694602955046FEF7C0F92803CDE9DC
:102290000007694602945046FEF7B8F94FF48240B1
:1022A000CDE90004694650460294FEF7AFF9CDF837
:1022B00000800396CDE9015469465046FEF7A6F921
:1022C000002205212820FEF7C1FC2820FEF7B0FCE3
:1022D00006B0BDE8F0870000001002400010014089
:1022E00000080140000C01400000311000001110F6
:1022F0000D4810B50B4901600C49416000214FF4B5
:1023000080428160C0E9031241618161C161016263
:10231000FEF77CFA002803D0BDE81040FEF712B8A3
:1023200010BD000000540040BC010020A086010048
:10233000104810B50E4901604FF4827141600021D0
:102340008160C1604FF400720161C0E9051208228A
:10235000C0E90721416281620A21C162FFF72CF8BE
:10236000002803D0BDE81040FDF7ECBF10BD000011
:10237000003001401002002010B596B000240F94E8
:1023800010941194129413941C2108A81494FDF72E
:1023900071FF20216846FDF76DFF2A48284901603A
:1023A0004721C0E9011440F2E731C0E9031480215C
:1023B000C0E90541FFF7F2F808B1FDF7C3FF4FF49C
:1023C00080500F900FA91F48FFF760F908B1FDF783
:1023D000B9FF1C48FFF759FB08B1FDF7B3FF139491
:1023E00013A918481494FFF7A5F808B1FDF7AAFF40
:1023F0006020089040F2F310CDE909040B940C948E
:102400000D94002208A90F480E94FFF7D8FA08B1DE
:10241000FDF798FF00944FF40050CDE9044002947A
:1024200001940394694607480794FFF759F808B1E7
:10243000FDF788FF0348FFF74BFA16B010BD000008
:10244000002C01406802002010B58EB000240794D3
:10245000089409940A940B941C2168460C94FDF787
:1024600009FF27484FF08041016040F26711C0E941
:10247000011440F2CF71C0E9031480218161FFF79C
:102480008DF808B1FDF75EFF4FF48050079007A963
:102490001B48FFF7FBF808B1FDF754FF1848FFF79A
:1024A000F4FA08B1FDF74EFF0B940BA914480C94F5
:1024B000FFF740F808B1FDF745FF6020CDE90004C3
:1024C0000294002269460E480494FFF778FA08B196
:1024D000FDF738FF042269460948FFF770FA08B192
:1024E000FDF730FF082269460548FFF768FA08B192
:1024F000FDF728FF0248FFF7EBF90EB010BD000012
:10250000B002002010B58AB0002407941C21684650
:102510000894FDF7AFFE1848164901600721C0E98D
:10252000011440F2E731C0E9031480218161FFF713
:10253000ACFA08B1FDF706FF079407A90E48089406
:10254000FEF7F8FF08B1FDF7FDFE602000904FF4A4
:102550006170CDE901040022694607480494FFF741
:102560002EFA08B1FDF7EEFE0348FFF7B1F90AB005
:1025700010BD000000040040F80200200C4810B517
:102580000A4901604FF4E1314160002181600C2271
:10259000C160C0E904128161C161FFF7C4FA00287B
:1025A00003D0BDE81040FDF7CDBE10BD003801409E
:1025B000400300200B4810B5094901600821416023
:1025C0000221816000218161C1610162FEF770FB1F
:1025D000002803D0BDE81040FDF7B4BE10BD0000D8
:1025E000005C004088030020FEE7FEE710B50224EF
:1025F000202000F05BF8204600F058F81F480470D7
:102600003F24A82000F052F8204600F04FF80024A4
:10261000D32000F04BF8204600F048F8402000F0AE
:1026200045F8A12000F042F8C82000F03FF8002152
:10263000084600F025F87F24812000F037F8204676
:1026400000F034F8A42000F031F8A62000F02EF8B5
:10265000D52000F02BF8802000F028F88D2000F025
:1026600025F8142000F022F80021012000F008F8DD
:10267000BDE81040AF2000F019B80000980000201D
:1026800070B50C46050001D0012D0ED10CB1012C06
:102690000BD1DA2000F00AF8280100EB4410BDE865
:1026A0007040801CC0B200F001B870BD1CB50021A4
:1026B0008DF804108DF805004FF4FA70009004486E
:1026C000022301AA78214068FEF764F91CBD0000CE
:1026D000980000202DE9F04100F058FF204C0646FC
:1026E0000D46D4E90623801A1E4A61EB0301801AC5
:1026F00071F1000004D200BFC4E90665BDE8F081B5
:10270000DFF864804FF480514046FEF76FF80028F0
:10271000F4D0D4E90601321A65EB0103012713480E
:102720000021FDF74DFD606000B967600121404662
:10273000FEF75CF8002820680BD0401C2060606821
:102740000749002310311A460860E06802F05CF87F
:10275000D2E7401E2060606840426060F0E7000001
:10276000D000002080841E00000C014000CA9A3B6B
:1027700010B5002204210F2001F0F5FE0149C860C8
:1027800010BD0000D000002010B5502080F311884B
:10279000BFF34F8FBFF36F8F02F0B2F918B1044946
:1027A0004FF080500860002080F3118810BD0000B9
:1027B00004ED00E030B593B028216846FDF75AFDDE
:1027C00014210AA8FDF756FD002401200F9410944F
:1027D0001194010412948DE8130004904FF4E0105A
:1027E000CDE90810022507956846FEF755FC08B1AB
:1027F00072B6FEE70F20CDE90A054FF48060CDE9FF
:102800000C4002210AA80E94FEF74AFB08B172B6EA
:10281000FEE712200F904FF40040CDE911040FA8FD
:10282000FEF7C8FA002801D072B6FEE713B030BD3B
:10283000704700000148FEF798BF000078060020AE
:10284000F0B50268164B174C174D4FF08047984271
:1028500005D0B84203D0A04201D0A84203D122F053
:1028600070064A683243984205D0B84203D0A0426D
:1028700001D0A84203D122F44074CA6822434C69B3
:1028800022F08002224302608A68C2620A68826281
:10289000984201D10969016301214161F0BD000045
:1028A000002C0140000400400008004010B584687E
:1028B00042EA032224F47F440A432243826010BD8B
:1028C000826822F070020A4342F00701816070477B
:1028D00030B5036A026A22F001020262426884692A
:1028E00024F073050C682C4323F002058B682B43FE
:1028F0000A4DA8420BD123F00805CB6822F44072A0
:102900002B434D6923F0040315438A692A4342602F
:10291000846149684163036230BD0000002C0140BE
:1029200030B5026A036A23F01003036243688469C6
:102930000D6824F4E64444EA05248D6822F0200260
:1029400042EA05120B4DA8420ED1CD6822F080025A
:1029500042EA05124D6923F4406343EA85038D6919
:1029600022F0400243EA8503436084614968816341
:10297000026230BD002C014030B5036A026A22F4C5
:10298000807202624268C46923F4007324F0730504
:102990000C682C438D6843EA05230C4DA8420ED1E8
:1029A000CD6823F4006343EA05234D6922F44052C5
:1029B00042EA05128D6923F4806342EA05124260FF
:1029C000C4614968C163036230BD0000002C01404E
:1029D00030B5046A026A22F4805202624268C36916
:1029E0000D6823F4E64343EA05238D6824F400547C
:1029F00044EA0534064DA84204D14D6922F48042D0
:102A000042EA85124260C36149680164046230BDD4
:102A1000002C014010B5036A046A24F0010404622A
:102A2000846924F0F00444EA021423F00A020A4301
:102A30008461026210BD10B5036A046A24F01004B8
:102A40000462846923F0A00324F4704444EA02324F
:102A500043EA01118261016210BD000070B50446B5
:102A600000680169E26821F4405111430161216964
:102A7000A0680843616908432168CA6841F20C6391
:102A80009A430243CA6020684169A26921F44071F7
:102A9000114341611E492068884202D1FEF7C6FAFF
:102AA00001E0FEF7B3FA00EBC00101EB0012606831
:102AB00064218000B2FBF0F3B3FBF1F36FF0180672
:102AC0007343B2FBF0F5B2FBF0F605EB830532235E
:102AD00003EB0515B5FBF1F5B6FBF1F605F0F005D6
:102AE00005EB0615B2FBF0F6B2FBF0F0B0FBF1F02F
:102AF0006FF01802504306EB800003EB0010B0FBB0
:102B0000F1F0216800F00F002844886070BD0000DB
:102B1000003801400020704700207047012120F854
:102B2000401F00210180818001820846704730F8F3
:102B3000401F21F43F410180002070470020704772
:102B4000FEE70907090E002804DB00F1E02080F809
:102B50000014704700F00F0000F1E02080F8141D11
:102B6000704702E008C8121F08C1002AFAD1704756
:102B70007047002001E001C1121F002AFBD17047FD
:102B80002DE9FF4F81B01C4691460D46DDF838A077
:102B9000019800F037FD4FF6FF7000EA4A08A9EBF4
:102BA0000A0B002600EA440704EBD47A281B81B202
:102BB0003B461FFA8BF2CDF80080019800F02BFD08
:102BC0000F200090A3B21FFA89F2A9B2019800F079
:102BD00044FD761C05EB6A05082EE7DB019805B07D
:102BE000BDE8F04F00F0DFBD08B5FDF79FFFFFF730
:102BF000E1FDFFF7D5FAFFF77BFBFFF797FAFFF749
:102C000097FBFFF7D7FCFFF7B7FBFFF71DFCFFF7BC
:102C100079FCFFF7B3FC094800F0DAFC14200090BF
:102C20000A23202240210548FFF7AAFF00F008F8F8
:102C3000FFF7A4FA00F020F8FEE70000F8000020FB
:102C4000EFF3058058B9EFF3108040B909490868DF
:102C5000022801D030B109E0EFF3118030B16FF0FC
:102C60000500704701200860002070474FF0FF30DA
:102C7000704700007000002010B5EFF3058060B9C8
:102C8000EFF3108048B90B490868022802D00128E8
:102C900006D00BE0EFF3118040B16FF0050010BDDE
:102CA0000220086001F082FB002010BD4FF0FF30D1
:102CB00010BD0000700000202DE9F041134C0F46BC
:102CC000054666692068001D01F0FEF9681C07D101
:102CD00037B12168BDE8F0410D48091D01F044BA43
:102CE00020683544B5424560216805D2A068BDE83A
:102CF000F041091D01F020BA6068091D01F01CFABD
:102D0000206B854200D22563BDE8F08120000020C1
:102D1000B00B00202DE9F041054601F031FA2D4CB1
:102D20002069401C206120682B4F10B1E06930B34E
:102D30002BE025602069012827D1002606EB8600BC
:102D400007EB800001F0EAF9761C382EF6D3234811
:102D500001F0E4F92148143001F0E0F91F4828306F
:102D600001F0DCF91D483C3001F0D8F91B48503027
:102D700001F0D4F9194860601430A06005E02068C3
:102D8000E96AC06A884200D82560E06A401CE062B7
:102D90006864E86AA169884200D9A06100EB8000FC
:102DA00007EB8000291D01F0DFF901F009FAE06965
:102DB00000280CD02068E96AC06A884207D2084916
:102DC0004FF080500860BFF34F8FBFF36F8FBDE8A7
:102DD000F08100002000002000070020600B002090
:102DE00004ED00E038B501F0CBF9104CA068C8B98B
:102DF0000F4801F093F90E48143001F08FF90C4898
:102E00002060143060600A4B00202833009003F1EA
:102E1000540210210A2001F0CAFBA06010B105A1E4
:102E200001F04CFABDE8384001F0CAB95C0000205E
:102E3000C40B0020546D72510000000030B4026CCD
:102E40000B46002A0BD0C1681144C1604468A142FE
:102E500001D30168C16030BC1846FDF7F2B930BC3F
:102E600070472DE9F041856B174604460026026C39
:102E700082B1C7B1E068FDF7E4F9E168206C091A96
:102E8000E1602268914202D26168081AE060022F74
:102E900016D017E02068A8B9606801F095FE0646D4
:102EA000002060600EE0A068FDF7CBF9216CA068FF
:102EB0000844A0606168884204D32068A06001E0F3
:102EC00005B16D1E6D1CA5633046BDE8F08110B5DF
:102ED000044690F8590058B101280CD002280FD0B0
:102EE000502080F31188BFF34F8FBFF36F8FFEE741
:102EF000206B01F079F92046BDE8104001F074B96B
:102F000010BD000010484FF4FA51420706D0C01D12
:102F10000D4920F00700411AC1F5FA510B4A002370
:102F20000144C2E900030839103A21F00701116099
:102F30004B600B600B1AC0E9001393604FF0004028
:102F40005360D06070470000981300208400002078
:102F5000144E154CA6F29C474FF08058DFF84C9069
:102F600012E000BF01F00CF9F068C568281D01F0FF
:102F7000ABF82069401E2061E068401EE06001F06F
:102F80001FF92846FFF7A3FFE0680028EAD1386858
:102F90000128F9D9C9F80080BFF34F8FBFF36F8FB5
:102FA000F2E700009C0B00202000002004ED00E070
:102FB000002807D00021416001600B460A46C1602D
:102FC00001F06CBB7047000070B51D46049C61B1F8
:102FD000C4F80020C4E90F010121204601F01AFBCA
:102FE00084F850500020A06470BD2460F2E72DE901
:102FF000F0470E46DDE9098417468246910099465E
:10300000089DA522206BFDF72EF96FF00301206BC0
:1030100001EB8701084420F00707780707D050200C
:1030200080F31188BFF34F8FBFF36F8FFEE7221835
:10303000315C82F83410315C11B1401C1028F6D399
:10304000002684F84360382D00D33725E562C4E9B3
:103050001356201D01F06DF804F1180001F069F815
:103060002461C5F138006462A061666584F8586027
:103070004A465146384600F077FA2060B8F1000F12
:1030800001D0C8F80040BDE8F087000030B5114914
:1030900000E011460A688242FBD34B685C18844208
:1030A00003D1406818444860084643681C1894429D
:1030B00009D1084C103C2468A24209D052681A4435
:1030C00042600A6812680260814200D0086030BD28
:1030D0000460F9E78400002070B5002441600B4DC6
:1030E0000061914206D8D11A8269914206D2011D2F
:1030F000686807E09A4203D2994201D3012403E0B1
:10310000011D286801F018F8204670BD5C00002001
:1031100010B5044601F034F8A06B28B15FF000044C
:1031200001F04EF8204610BD0124F9E773B50026E2
:103130000098846C5CB1A26BE06B82420FD350208C
:1031400080F31188BFF34F8FBFF36F8FFEE75020DE
:1031500080F31188BFF34F8FBFF36F8FFEE7A26B31
:1031600082420CD294F945500A4669462046FFF740
:1031700078FE0646681C04D06D1C84F84550304625
:103180007CBD606A0028FAD004F1240001F05CFDE7
:103190000028F4D00126F2E730B589B0304D55E073
:1031A0000498002806DADDE90601059A904704989C
:1031B00000284BDB069C606910B1201D00F084FFE5
:1031C00002A800F0B9F8024604980A283ED2DFE8C7
:1031D00000F00505053D263705053D260598A16942
:1031E000034601442046FFF777FF00B3616A20469B
:1031F0008847E069012829D1002000900598A1693D
:10320000002342181946204601F0E8FD78B9502005
:1032100080F31188BFF34F8FBFF36F8FFEE70598E0
:10322000A06128B1811813462046FFF755FF0DE035
:10323000502080F31188BFF34F8FBFF36F8FFEE7ED
:1032400094F82C0010B9204600F0CEFF002204A90B
:10325000A86801F03FFB0028A2D109B030BD0000F2
:103260005C0000202DE9FC410F46054601F0E2F824
:1032700001A800F061F80446019818B101F01CFDA6
:10328000BDE8FC81224EAFB170680068A8B300278A
:10329000291B3A46B06801F025F801F00DFD002821
:1032A000EED11C494FF080500860BFF34F8FBFF341
:1032B0006F8FE5E7A542EBD801F0FEFC30682746AA
:1032C000C068C468201D00F0FFFEE069012810D12D
:1032D000A0692B4641193A462046FFF7FDFE40B152
:1032E00000200346014600902A46204601F076FD64
:1032F00020B1616A20468847C2E707E0502080F38A
:103300001188BFF34F8FBFF36F8FFEE70127BFE731
:103310005C00002004ED00E006484168096829B11E
:103320004168C968C9684968016370474FF0FF3157
:10333000FAE700002000002070B5054601F0DAFB36
:10334000064E04463069844203D200F009F8012099
:1033500000E0002028602046346170BD5C00002041
:10336000F8B5194D1FE0C068C4680668201D00F05C
:10337000ABFE616A20468847E069012813D1A06945
:103380003044B04206D924616060211D286800F0F5
:10339000D3FE08E000200346014600903246204656
:1033A00001F01CFD38B1286801680029DBD169688B
:1033B000C5E90010F8BD502080F31188BFF34F8F8E
:1033C000BFF36F8FFEE700005C00002008484068F4
:1033D000401C4FF0500080F3118804D0BFF34F8F92
:1033E000BFF36F8FFEE7BFF34F8FBFF36F8FFEE723
:1033F0008C000020074C2068016841B1C0680021A2
:10340000D0F80000FFF72EFFFFF7C6FEF3E701211B
:103410000020F7E75C0000202DE9F041044600F0B1
:10342000AFFE94F9455004F1240610E0A06C20B1E1
:1034300000212046FFF77AFE04E0606A48B130467A
:1034400001F002FC08B100F077FF6D1E6DB2002D97
:10345000ECDC4FF0FF3684F8456000F0B1FE00F080
:103460008FFE94F9445004F1100709E0206948B137
:10347000384601F0E9FB08B100F05EFF6D1E6DB249
:10348000002DF3DC84F84460BDE8F04100F098BE04
:103490002DE9F0410546002700F0CCFF314E3068A1
:1034A00008B9FFF72FFDF06805424BD1C5B30835C9
:1034B00068070ED005F00700C0F108000544680752
:1034C00007D0502080F31188BFF34F8FBFF36F8F69
:1034D000FEE72DB37068854234D82248103001468B
:1034E0000C6801E020460C466168A94202D22168BE
:1034F0000029F7D131688C4224D007682168016027
:1035000060680837411B10290FD96019420708D09D
:10351000502080F31188BFF34F8FBFF36F8FFEE70A
:1035200010E041606560FFF7B1FD61687068401AA6
:103530007060B268904200D2B060F0680143002031
:10354000C4E9000101F0B8FB780707D0502080F3F0
:103550001188BFF34F8FBFF36F8FFEE73846BDE88A
:10356000F08100007400002010B5031F4FF080743C
:103570001C601B1F21F001011960191F024B0B6019
:10358000143940380A6010BDCD3300082DE9F041F0
:103590000D4CFDF735F922680023516AD26A0B4DB4
:1035A000A0FB054703FB057500FB0355074FA1FB77
:1035B000070C03FB07C701FB0371FCF701FE0019B1
:1035C0006941BDE8F08100007806002040420F000C
:1035D00010B50446084B094A094900F025F9204670
:1035E00000F0FCFA0021204600F008FB2046BDE870
:1035F000104000F007B80000ED3F0008953C0008BF
:10360000704E000801680A7C90F83810406B5143F6
:10361000C900FCF72FBE2DE9F8438146089C1E46E1
:10362000101980B20090881983B215468846484622
:1036300000F0A1F800280ED00027002C0BD0334654
:103640002A4641464846009700F028F86D1C641E43
:10365000ADB2A4B2F1E7BDE8F8832DE9F8431C460A
:1036600080461019401C80B200900819401C83B29B
:103670001546101B82B20E46081B81B2089F4046B9
:1036800000F079F8002806D023462A463146404605
:10369000009700F03AF9BDE8F88300003FB581B02B
:1036A000044690F88C00089900283AD0BDF8100024
:1036B000002836D0012811D9022902D0032907D0C9
:1036C0000CE0BDF80820101A401CADF8080005E019
:1036D000BDF80C20101A401CADF80C0011F00105CB
:1036E00021D0B4F84810BDF80800814219D8B4F8C8
:1036F0004A10814215D9B4F84E30B4F84C2004A9D0
:103700000DF10C0000F0E3F800280AD00095206BC2
:10371000BDF81030BDF80C208568BDF808102046B3
:10372000A84705B030BDB4F84C10BDF80C0081427C
:10373000F7D8B4F84E108142F3D9B4F84A30B4F84F
:10374000482004A902A8DDE708B5B0F84C30934240
:1037500010D8B0F84E3093420CD9B0F848308B42B4
:1037600008D8B0F84A308B4204D9002300930123D3
:10377000FFF794FF08BD70B50D461E460446B0F82D
:103780004E10B0F84C00049B00F062F9002809D0FC
:10379000B4F84A10B4F8480033462A46BDE87040F1
:1037A00000F056B970BD10B5044600F0ABF92046E4
:1037B000BDE8104000F01ABA0149C1657047000029
:1037C0004D3A00080021A0F85010A0F854104FF610
:1037D000FF71A0F85210A0F85610016B4968084715
:1037E00070B5044600250498A565E362616384F81A
:1037F000382084F8395084F86D5084F8915084F85A
:103800008D50012184F8921084F893102063016890
:10381000204688472046FFF7D5FF2046FFF7CCFF1C
:1038200084F8705070BD00007CB50C4600931346C0
:103830000546084A084900F0E9F901A800F05CF9DA
:103840000146064B00949DF804202846FFF7C8FF68
:103850007CBD0000BD3D0008E53E0008693A000857
:1038600038B50446B0F856000090B4F85230B4F8B9
:103870005420B4F850102046FFF77DFF18B3012004
:1038800084F88C00B4F84810B4F85000814201D29A
:10389000A4F84800B4F84A10B4F85200814201D9A3
:1038A000A4F84A00B4F84C10B4F85400814201D294
:1038B000A4F84C00B4F84E10B4F85600814201D977
:1038C000A4F84E0038BD002084F88C0038BD30B517
:1038D00004880D882544ADB2AC4205D99C4202D281
:1038E0005D1EADB200E014469C4201D2954201D863
:1038F000002030BD944200D214469D4200D91D469E
:103900000480281B0880012030BD2DE9FF4FC3F142
:10391000010083B006B258429146DDF840A0400055
:103920008B4601271C46CDE9009A00250FFA80F846
:103930005B462246294615E0002E08DB08F102000E
:103940000FFA80F8641E06EB0800A4B206B26D1CE4
:10395000BF1C3FB2CDE9009AADB2F01906B25B468A
:1039600022462946039800F005F8A542E4D307B0A3
:10397000BDE8F08F2DE9FF4F83B00E46DDE91087DB
:1039800003EB060002901546A8EB0600019003EB3E
:1039900005001C46F907A8EB050B00900DD0029816
:1039A0001FFA8BF281B20398FFF7CEFE019882B224
:1039B000009881B20398FFF7C7FEB907A4EB060A87
:1039C000A4EB05090DD51FFA8BF21FFA8AF10398B3
:1039D000FFF7BAFE01981FFA89F182B20398FFF748
:1039E000B3FE08EB0504390708EB06050BD5029872
:1039F000A2B281B20398FFF7A7FE0098AAB281B2E3
:103A00000398FFF7A1FE78070ED5A2B21FFA8AF13C
:103A10000398FFF799FE039807B0AAB21FFA89F13D
:103A2000BDE8F04FFFF790BE07B0BDE8F08F38B5A6
:103A3000C58F049C0094521BC46A92B2A04738BD43
:103A400038B5049C0094FFF7F2FF38BD00207047A2
:103A50008A4205D2834201D89A4203D90120704795
:103A60008342F9D800207047F0B502F00706012420
:103A7000B440002590F892E0E7B2DDF814C02C467F
:103A8000BEF1010F01D83D4600D03C46076822F048
:103A90000702BCF1000F3F7C07FB02F7BAB2476B8D
:103AA0003A44114409D108785B1E284360401B0446
:103AB00001F8010B1B0CF6D1F0BD0A78761C2A43E5
:103AC0006240A3F101030A7016F007069BB206D00C
:103AD0006A06150E6206140E002BEED1F0BD428F61
:103AE000114490F89220012A03D800BF4FF001053D
:103AF000F2D04FF00104EFE7082101700048704751
:103B0000F83500202DE9F843064690F8387090F813
:103B10003950006800244FF6FF7890F81190316812
:103B200030462A460B7C716B04FB03FC1FFA8CFCAD
:103B300008EACC0C61440091002100F040F8641CBC
:103B40006D1CE4B2EDB2BC4201D24D45E7D3BDE8F5
:103B5000F883F0B590F838204FF6FF75036805EA52
:103B6000C2018187197C05EAC101418790F839407B
:103B700005EAC401C1875E7CA718B74201D9321B90
:103B800092B205EAC20220F8401F11444180998A8E
:103B90008180D98AC180F0BDFFF7DBBF0021A0F88A
:103BA0004810B0F84410A0F84A10B0F84010A0F83F
:103BB0004C10B0F84210A0F84E10FFF751BE1CB5E3
:103BC0008DF805108DF80620049C8DF804300094C3
:103BD000012284686B460F21A0471CBD30B4846865
:103BE0000023A44630BC1A460A21604730B48468DA
:103BF0000023A44630BC1A461021604730B48468C4
:103C00000023A4460A4630BC0B2160472DE9F04151
:103C100015460E460446069F00F00AF86761A66046
:103C2000C4E903532046BDE8F04100F013B800009A
:103C3000002140F8081B064A026042608260C260B0
:103C4000C17681770161FF21017780F820107047EC
:103C5000E93F000830B484680023A44630BC1A460B
:103C60000921604730B404690023A44630BC1A46D9
:103C70001921604713B50122046901AB1721A04740
:103C80001CBD30B404690023A44630BC1A46182178
:103C90006047000038B5184818290DD004DC1429F5
:103CA00007D0172923D10AE0192916D020291ED1BF
:103CB0001FE0FEF71DFB1CE00021017019E00F4C16
:103CC00008E000BF017813F8015B6554491C521EDF
:103CD0000170D2B2002AF5D10BE04FF47A71009155
:103CE0000378064A78210648FCF754FE08B1002004
:103CF00038BD012038BD0000F000002078350020DC
:103D0000BC01002030B4C4680023A44630BC1A466D
:103D10001921604730B4C4680023A4460A4630BC69
:103D20001621604730B4C4680023A4460A4630BC5C
:103D30001521604730B4C4681346A4460A4630BC17
:103D400017216047F8B50C464FEA000514F8011B2F
:103D5000182924D00EDC152919D0162917D01729B7
:103D600023D120788DF800006A4601212846FFF70C
:103D7000E1FF0AE0192912D0FE2916D122788DF828
:103D800000202921284600F066F9641CDEE722782D
:103D90008DF80020EE6800232846B047F5E70023A1
:103DA000EE681A462846B047D0E7F8BD30B4C4687C
:103DB0000023A44630BC1A46182160472DE9F04183
:103DC000DFF8B08014460646A1F11402002798F8E7
:103DD00000001D46062A4AD2DFE802F02F03161B18
:103DE0003E4310B13046FFF73DFF3046FFF749FF35
:103DF00000213046FFF73EFF21463046FFF73AFFED
:103E0000012088F8000029E021463046FFF732FF04
:103E100024E050B13046FFF725FF06E01821304678
:103E200000F01FF9183CE4B21835182C2A46F5D8D2
:103E30002146304600F015F90EE096F82400FF28E0
:103E400002D1782086F8240037692B462246304676
:103E5000BC46BDE8F041604788F800700120BDE82D
:103E6000F0810028F8D03046FFF7FCFEF4E7002090
:103E7000F5E70000F100002070B500234569044615
:103E80001A462821A8470023E5681A46142120462F
:103E9000A84701224B21204600F0DDF820682921A7
:103EA0000279204600F0D7F800224B21204600F08E
:103EB000D2F8206829210279204600F0CCF80122AE
:103EC0004B21204600F0C7F820682921427920467E
:103ED000BDE8704000F0BFB80160897C80F8221016
:103EE0007047000070B50C46054600F019F888B917
:103EF000092C0BD00A2C01D0002070BD2846FFF7FA
:103F0000BBFF05492846FFF71DFF03E0034928468C
:103F1000FFF7E2FF012070BDA24E0008A44F000889
:103F20002DE9F0411E46144605460B2908D00D29FF
:103F30000ED00E291ED00F2927D00020BDE8F08119
:103F40001AB12849FFF7FEFE4AE02649491FF9E762
:103F50004AB124490C31FFF7F5FE286890F81300A8
:103F600085F822003CE01F49491DFFF7EBFE286859
:103F7000807CF5E7FFF71AFF81212846FFF7D2FE84
:103F800021462846FFF7C6FE27E0FFF70FFF7079AE
:103F900095F8221001EBC000C7B240212846FFF778
:103FA000C1FE102040EA17112846FFF7BBFE07F0BC
:103FB0000F012846FFF7AEFEB07940F0B001284669
:103FC000FFF7A8FE30793268C006010E2846FFF7D9
:103FD000B1FE641E14F0FF04F4D12846FFF792FEF0
:103FE0000120ABE7814E00080020704710B54D2935
:103FF00019D00CDC2B2918D004DC292920D02A293F
:104000000ED114E02D291FD04C2909D10BE000223C
:1040100050291DD051291BD0522919D0532917D00E
:10402000012180F82710012010BD00BFFBE7002010
:104030004FF4A07100BF401C80B28842FAD3F2E76F
:104040000120FCF7B9FAEEE7052000F021F8EAE7D5
:1040500080F82720E7E730B444690023A44630BC49
:1040600060472DE9F04115460E460446FFF709FE6C
:1040700040212046FFF7FEFD27692B4632461721D7
:104080002046B8472046BDE8F041FFF7EBBD0000F1
:1040900030B50C4A00211368DC6A4FF47A72604331
:1040A000B0FBF2F55A6A586A9042FCD002D9A0EBF4
:1040B000020202E0A4EB0202024411440246A942B9
:1040C000F1D330BD78060020D0E9013201699A6051
:1040D000D0E901235A604A68824201D182684A606D
:1040E000002202610868401E0860086870470000EE
:1040F000034B036003F15C00086080201060704790
:10410000E00C0020044B036003F15C0008604FF4F6
:1041100080701060704700003C0F002000F1080123
:104120004FF0FF32C0E90112C1600161002101605E
:10413000704700210161704730B50B685A1C02D0EE
:1041400000F1080202E0026904E022465468256892
:104150009D42FAD953684B6099608A60516008614A
:104160000168491C016030BD42684A6093688B60F9
:1041700093685960916008610168491C016070474B
:10418000502080F31188BFF34F8FBFF36F8F0A4920
:104190004868401C486001280CD10848006810F0AD
:1041A000FF0F07D0502080F31188BFF34F8FBFF36C
:1041B0006F8FFEE7704700008C00002004ED00E0E8
:1041C0000849486828B1401E486001D180F3118831
:1041D0007047502080F31188BFF34F8FBFF36F8F6C
:1041E000FEE700008C00002070B5002827D0144D99
:1041F000A0F108046168E868014207D1502080F30B
:104200001188BFF34F8FBFF36F8FFEE722683AB17B
:10421000502080F31188BFF34F8FBFF36F8FFEE7FD
:104220008143616000F006F960686968084468606D
:104230002046FEF72BFFBDE8704000F03DBD70BD8D
:10424000740000204FF0E0200021016181610549E8
:104250004FF47A720968B1FBF2F1491E41610721FE
:10426000016170471C00002010B5FBF793FF114956
:1042700010280ED300F1E02090F8F0030A78904265
:1042800007D2502080F31188BFF34F8FBFF36F8F99
:10429000FEE709480068896800F4E060884207D9B1
:1042A000502080F31188BFF34F8FBFF36F8FFEE76D
:1042B00010BD00008C0000200CED00E010B5084B94
:1042C000002200BF53F832401CB1521C082AF9D317
:1042D00010BD43F8321003EBC201486010BD00006E
:1042E000C006002070B515460E460446FFF748FF8D
:1042F00094F944100020491C01D184F8440094F939
:104300004510491C01D184F84500FFF759FFA06B07
:1043100028B92A46314604F1240000F02BF8204643
:10432000BDE87040FFF778B802498A6A02604969BF
:104330004160704720000020014901204862704719
:104340002000002010B50C4650B109490968183109
:10435000FFF7F2FE2046BDE810400121FEF7ACBC9D
:10436000502080F31188BFF34F8FBFF36F8FFEE7AC
:104370002000002070B514460D4668B10A4909684E
:104380001831FFF7F1FE0CB14FF0FF3521462846FA
:10439000BDE87040FEF790BC502080F31188BFF359
:1043A0004F8FBFF36F8FFEE72000002030B587B03E
:1043B0000024039405AA04A903A80494FFF798FE17
:1043C000DDE903010094CDE90110002315A1174890
:1043D000059A00F055FB164D002868631FD000F0C9
:1043E000CDFC012809D0401C19D1502080F3118840
:1043F000BFF34F8FBFF36F8FFEE7502080F311881C
:10440000BFF34F8FBFF36F8F4FF0FF302863012052
:10441000E8616C6107B0BDE8304000F045B807B016
:1044200030BD000049444C4500000000512F0008F9
:10443000200000200248816B491C81637047000006
:1044400020000020164810B5816B11B10121416296
:1044500010BD002141628169124A01E0B9B1491ED3
:1044600001EB810352F82330002BF7D001EB8103DD
:1044700002EB830202F1080453685B685360A342B5
:1044800001D15B685360DA680260816110BD502021
:1044900080F31188BFF34F8FBFF36F8FFEE70000EB
:1044A00020000020000700201CB526490878019054
:1044B000FF20087008788DF800009DF800009DF836
:1044C000002000F0F000904207D0502080F31188C7
:1044D000BFF34F8FBFF36F8FFEE79DF800001A4BBD
:1044E00000F0500018700720986005E09DF800204B
:1044F00052008DF80020401E9DF800201206F5D4D1
:104500009860032807D0502080F31188BFF34F8FA5
:10451000BFF36F8FFEE74FF440709860019808700A
:104520000A48016841F470010160016841F070417E
:104530000160FFF787FE00205860FBF7F5FD0020C3
:104540001CBD000000E400E08C00002020ED00E035
:1045500010B502460021012000F005F80446FEF7E0
:1045600027FD204610BDF8B517460E46050014D0AD
:10457000DEB105FB06F05430FEF78AFF04000AD0D6
:10458000002084F8460004F154023B463146284698
:104590000094FEF719FD2046F8BD502080F31188E5
:1045A000BFF34F8FBFF36F8FFEE70020E3E738B50F
:1045B000049D18B153B1CAB181B120E0502080F3FD
:1045C0001188BFF34F8FBFF36F8FFEE7502080F34A
:1045D0001188BFF34F8FBFF36F8FFEE7502080F33A
:1045E0001188BFF34F8FBFF36F8FFEE739B15020B3
:1045F00080F31188BFF34F8FBFF36F8FFEE7542412
:104600001C46012384F846302B460094FEF7DCFC60
:10461000204638BD70B50D46040025D0FFF7B0FD2B
:10462000D4E90F20216802FB001161600021A16321
:104630002168A1600A46D4E90F01401E00FB012158
:10464000E16021464FF0FF3001F8440F487004F15B
:1046500010008DB1FFF762FD04F12400FFF75EFD4D
:10466000FFF7AEFD012070BD502080F31188BFF32D
:104670004F8FBFF36F8FFEE721690029F0D000F064
:10468000E3FA0028ECD004494FF080500860BFF3F3
:104690004F8FBFF36F8FE3E704ED00E02DE9FF4795
:1046A00082B01D468A464FF00008040003D0BAF1DC
:1046B000000F08D011E0502080F31188BFF34F8F16
:1046C000BFF36F8FFEE7206C38B1502080F3118864
:1046D000BFF34F8FBFF36F8FFEE7022D0AD1E06B60
:1046E000012807D0502080F31188BFF34F8FBFF30C
:1046F0006F8FFEE700F0F0F9424F4FF000094FF0E6
:10470000805648B9049838B1502080F31188BFF31F
:104710004F8FBFF36F8FFEE7FFF732FDA06BE16BAA
:10472000884207D3022D05D0049808B3B8F1000FD2
:1047300021D025E02A4651462046FEF792FBA16C87
:1047400021B129462046FEF7F1FC05E0616A19B166
:1047500004F1240000F078FA20B13E60BFF34F8FDF
:10476000BFF36F8FFFF72CFD012006B0BDE8F08787
:10477000FFF726FD22E06846FFF7D6FD4FF001085F
:10478000FFF71EFDFFF756FEFFF7FAFC94F9440011
:10479000401C01D184F8449094F94500401C01D19B
:1047A00084F84590FFF70CFD04A9684600F02EF947
:1047B00030B12046FEF730FE00F07EFA0020D4E74C
:1047C000FFF7DEFCA06BE16B884213D1FFF7F8FC2A
:1047D00004F110000499FFF7B5FD2046FEF71CFE1A
:1047E00000F06AFA002897D13E60BFF34F8FBFF305
:1047F0006F8F91E7FFF7E4FC2046FEF70DFE00F017
:104800005BFA89E704ED00E02DE9F047984617468A
:104810008946040003D0B9F1000F08D011E0502000
:1048200080F31188BFF34F8FBFF36F8FFEE7206CCB
:1048300038B1502080F31188BFF34F8FBFF36F8FD3
:10484000FEE7B8F1020F0AD1E06B012807D0502033
:1048500080F31188BFF34F8FBFF36F8FFEE7FFF731
:1048600003FD5020EFF3118680F31188BFF34F8FC3
:10487000BFF36F8FA06BE16B884207D3B8F1020FD3
:1048800004D0002086F31188BDE8F08794F94550E4
:10489000424649462046FEF7E4FA681C04D06D1CE7
:1048A00084F845500120EDE7A06C012520B1414678
:1048B0002046FEF73BFC06E0606A0028F2D004F1D7
:1048C000240000F0C1F90028ECD0002FEAD03D60B0
:1048D000E8E700002DE9F747002683B08A46040088
:1048E00003D0BAF1000F08D011E0502080F31188F6
:1048F000BFF34F8FBFF36F8FFEE7206C38B15020AE
:1049000080F31188BFF34F8FBFF36F8FFEE700F086
:10491000E3F8DFF8F4804FF000094FF0805748B912
:10492000059838B1502080F31188BFF34F8FBFF343
:104930006F8FFEE7FFF724FCA56BC5B151462046FB
:10494000FEF77CFA6D1EA563206950B104F11000DA
:1049500000F07AF928B1C8F80070BFF34F8FBFF3A9
:104960006F8FFFF72DFC012006B0BDE8F08705989A
:1049700008B11EB106E0FFF723FC27E06846FFF709
:10498000D3FC0126FFF71CFCFFF754FDFFF7F8FBF3
:1049900094F94400401C01D184F8449094F94500F6
:1049A000401C01D184F84590FFF70AFC05A9684630
:1049B00000F02CF8002820460AD0FEF72DFD00F06C
:1049C0007BF92046FEF7A4FB0028B3D00020CBE7FC
:1049D000FEF79EFB90B104F124000599FFF7B2FCAD
:1049E0002046FEF719FD00F067F90028A2D1C8F8AB
:1049F0000070BFF34F8FBFF36F8F9BE72046FEF72A
:104A00000BFD00F059F995E704ED00E02DE9F041C8
:104A10000C46050011D0C4B1FFF7B2FB174B5A6921
:104A20006E682068911B471C17D02F689B6A9F42B5
:104A300019D0964217D8012410E0502080F3118835
:104A4000BFF34F8FBFF36F8FFEE7502080F31188C5
:104A5000BFF34F8FBFF36F8FFEE70024FFF7B0FB6C
:104A60002046BDE8F081884205D9401A20602846DA
:104A7000FFF75AFCF1E700202060DCE7200000206F
:104A8000F0B585B0DDE90B640A9DA6B1DCB15C2709
:104A900000972663022684F85960002604AFCDE90A
:104AA0000246CDE90057FEF7A2FA2046FEF732F99A
:104AB000049805B0F0BD502080F31188BFF34F8FEC
:104AC000BFF36F8FFEE7502080F31188BFF34F8F45
:104AD000BFF36F8FFEE700000548C16919B1806B15
:104AE00018B1002070470120704702207047000075
:104AF000200000200148406970470000200000208D
:104B00002DE9F0412E4C0027A06B40B1206A401CDB
:104B10002062606A00B101273846BDE8F08166690D
:104B2000761C666113D16068006838B1502080F34C
:104B30001188BFF34F8FBFF36F8FFEE76068A168E6
:104B40006160A060A06A401CA062FEF7E5FB206BDC
:104B5000DFF87080864209D36068006880B16068C1
:104B6000C068C568686886420DD220632068C06A44
:104B700000EB800158F821000128CAD90127C8E7B5
:104B80004FF0FF30F1E7281DFFF79EFAA86A18B131
:104B900005F11800FFF798FAE86AA169884200D980
:104BA000A06100EB800108EB8100291DFFF7DCFA12
:104BB000E86A2168C96A8842CED30127CCE70000A1
:104BC000200000200007002070B504004FF0000115
:104BD00033D01B4D2868844207D0502080F31188C1
:104BE000BFF34F8FBFF36F8FFEE7206D38B1401ECC
:104BF0002065E36CE26A9A421FD040B11DE050206C
:104C000080F31188BFF34F8FBFF36F8FFEE7201D36
:104C1000FFF75AFAE06CE062C0F13800A061E06A88
:104C2000A969884200D9A861064900EB800001EB20
:104C30008000211DFFF798FA0121084670BD000091
:104C4000200000200007002070B5C068C46854B17F
:104C500004F118000646FFF737FA144DA86B50B15F
:104C60003146134815E0502080F31188BFF34F8F71
:104C7000BFF36F8FFEE7201DFFF726FAE06AA969F0
:104C8000884200D9A8610B4900EB800001EB80004D
:104C9000211DFFF769FAE06A2968C96A884202D9CA
:104CA0000120686270BD002070BD0000200000205F
:104CB000880B0020000700202DE9F0472C4D002430
:104CC0002746A86B38B1FFF75BFAA86B401EA863B4
:104CD000A86B40B146E0502080F31188BFF34F8F9E
:104CE000BFF36F8FFEE72969224E0120D1B3A6F5ED
:104CF000916980463068E0B1F068C46804F118003A
:104D0000FFF7E2F9201DFFF7DFF9E06AA9698842A1
:104D100000D9A86100EB800109EB8100211DFFF79C
:104D200023FAE06A2968C96A8842E3D3C5F8248077
:104D3000E0E70CB1FEF7F0FA2C6A4CB14FEA080636
:104D4000FFF7DEFE00B16E62641EF9D1002028621A
:104D5000686A38B10849012738070860BFF34F8FE8
:104D6000BFF36F8FFFF72CFA3846BDE8F0870000DD
:104D700020000020880B002004ED00E010B586B074
:104D8000FEF730F8114CA068B8B1002003900490F1
:104D900005AA04A903A8FFF7B5F9DDE9032102205C
:104DA0008DE8070000230AA10B48059AFFF768FE6B
:104DB000E06010B106B0012010BD502080F31188D2
:104DC000BFF34F8FBFF36F8FFEE700005C00002042
:104DD000546D722053766300F53300082DE9FF41CE
:104DE0001E46134602000A9D4FF0000016D0144CD8
:104DF000A768002F0FD0CDE900130292062917DA19
:104E0000FFF76AFE02284FF000030FD00022694628
:104E1000A068FFF743FC04B0BDE8F081502080F3A8
:104E20001188BFF34F8FBFF36F8FFEE72A46EEE77F
:104E30000023324669463846FFF7E6FCEBE7000000
:104E40005C000020010202030405060708090A0BA2
:104E50000C0D0E0F101000000000000000000102F9
:104E60000304060708090000000001020304000013
:104E7000993B00089D3B0008413A00081815AF19FE
:104E8000FF1815AE19FF1815A115C819FF1815A0A0
:104E900015C019FF1815A115C019FF1815A015C8C0
:104EA00019FF1815AE15D5168015A8163F15D3167F
:104EB000001540158D16141520160015A115C815DE
:104EC000DA1612158116CF15D916F115DB16401515
:104ED0002E15A415A619FF1815AE15D5168015A800
:104EE000163F15D316001540158D16141520160003
:104EF00015A115C815DA1612158116EF15D916A1C8
:104F000015DB1600152E15A415A619FF1815AE15DC
:104F1000D5168015A8163F15D316001540158D1609
:104F2000141520160015A115C815DA1602158116DC
:104F3000CF15D916F115DB1640152E15A415A61997
:104F4000FF1815AE15A415D5165015A8163F15D384
:104F50001600154015AD168B15D9162215DB163522
:104F60001532158116FF15A615DA161219FF181538
:104F7000AE15D5168015A8163F15D3160015401589
:104F80008D16141520160015A115C015DA16121568
:104F90008116CF15D916F115DB1640152E15A4155F
:104FA000A619FF000001140A6464323200127A006C
:104FB0000004289610080000800040000001140A38
:104FC0006464323200093D00000428961008020291
:104FD00080004000F44F000800000020F8000000AE
:104FE000622B0008EC500008F8000020003D000093
:104FF000722B00080000000000000000000000000C
:10500000000000000100000010000000000000008F
:105010000024F40000000000000000000000000078
:105020000000000000000000000000000000000080
:105030000000000000000000000000000000000070
:105040000000000000000000000000000000000060
:105050000000000000000000000000000000000050
:105060000000000000000000000000000000000040
:105070000000000000000000000000000000000030
:1050800000000000AAAAAAAA000000000200000076
:10509000BC010020BC010020000000000000000056
:1050A0000000000000000000000000000000000000
:1050B00000000000000000000000000000000000F0
:1050C00000000000000000000000000000000000E0
:1050D00000000000000000000000000000000000D0
:0C50E000000000000000000000000000C4
:04000005080000ED02
:00000001FF
